:020000040800F2
:104000007847002065410008554E0008C14D000862
:10401000E14D00087144000811570008000000003D
:10402000000000000000000000000000814F0008B8
:1040300069490008000000008D4E0008C5520008C4
:104040007F4100087F4100087F4100087F41000850
:104050007F4100087F4100087F4100087F41000840
:104060007F4100087F4100087F4100087F41000830
:104070007F4100087F4100087F4100087F41000820
:104080007F4100087F4100087F4100087F41000810
:10409000734400087F4100087F4100087F41000809
:1040A0007F410008535500087F4100087F41000808
:1040B0007F4100087F4100087F4100087F410008E0
:1040C0007F4100087F4100087F4100087F410008D0
:1040D0007F410008C95500087F4100087F41000862
:1040E0007F4100087F410008B55600087F41000865
:1040F0007F4100087F4100087F410008FFFFFFFF6C
:104100007F410008000000007F4100087F41000857
:104110007F4100087F4100087F4100087F4100087F
:104120007F4100087F4100087F4100087F4100086F
:104130007F41000800000000000000007F410008EF
:10414000794400087F4100087F410008A956000813
:10415000DFF80CD000F04EF90048004791610008EC
:10416000784700200648804706480047FEE7FEE7FC
:10417000FEE7FEE7FEE7FEE7FEE7FEE7FEE7FEE717
:10418000C95200085141000800487047108E0008CD
:10419000A0F14101192900D82030704740EA0103FD
:1041A0009B0703D009E008C9121F08C0042AFAD2ED
:1041B00003E011F8013B00F8013B521EF9D27047B1
:1041C000D2B201E000F8012B491EFBD27047002259
:1041D000F6E710B513460A4604461946FFF7F0FF06
:1041E000204610BD30B505462A460B4612F8010B95
:1041F00013F8014B08B1A042F8D01CB1002802D03E
:104200006D1CF1E7284630BD10B5044604E00B787C
:1042100000F8013B03B1491C521EF8D2204610BDE4
:10422000421C10F8011B0029FBD1801A70470000C6
:1042300070B50F4D00B92868002412E00A4602E06C
:104240009E4203D0521C1378002BF9D1DAB22243DC
:1042500005D02BB124B1002100F8011B04E0044675
:10426000401C0678002EE9D12860204670BD000071
:10427000000000202DE9F04791460F468046044695
:10428000002614F8015B2DB1FFF77EFF0068405D4A
:10429000C007F6D12B2D02D02D2D18D0641E4A4612
:1042A0003946204600F057F827B13968A14201D1BC
:1042B000C7F8008071054FF002040BD5404200287A
:1042C00003DD04F051FD0460A007BDE8F08746F46B
:1042D0008066E4E70028F8DA04F046FD04606FF039
:1042E0000040F2E72DE9F05F93460F468046044612
:1042F000002604F039FDD0F80090824614F8015BE6
:104300002DB1FFF741FF0068405DC007F6D12B2DAE
:1043100002D02D2D1AD0641E0021CAF800105A4672
:104320003946204600F017F8014627B13868A04208
:1043300001D1C7F80080DAF80000022809D0CAF8D5
:104340000090700505D54842BDE8F09F46F48066B0
:10435000E2E70846F8E72DE9F05F8246007800279B
:1043600015468B460AF10104B946302801D09DB1AB
:1043700013E014F8010B0127782803D0582801D046
:1043800045B10AE00DB1102D07D10027102514F812
:10439000010B02E0082500E00A250026B0460EE0E9
:1043A00005FB080005FB06F1012701EB10461FFA8B
:1043B00080F8B6F5803F00D3B94614F8010B2946C2
:1043C00000F02AF80028EBDABBF1000F05D00FB19E
:1043D000641E00E05446CBF80040B9F1000F06D04F
:1043E00004F0C2FC02210160C81EBDE8F09F48EA4B
:1043F0000640FAE7064C074D06E0E06840F001038E
:1044000094E8070098471034AC42F6D3FFF7A4FEB7
:1044100030960008509600083A2800D2303820F034
:104420002002412A01D3A2F13700884201D34FF084
:10443000FF30704730B58C1810F8012B12F00F03C5
:1044400001D110F8013B120906D110F8012B03E04D
:1044500010F8015B01F8015B5B1EF9D101E001F886
:10446000013B521EFBD1A142E6D3002030BD00002B
:10447000FEE7002000F0E6B9012000F0E3B90000FB
:1044800080B50F294FF000025BD843F6041300F00B
:104490000100C2F2000353F820000068DFE801F0D9
:1044A0000851185151512D36515151513A2B464A0C
:1044B0000168C2690423920F42EAC101C26900681F
:1044C00001F0120103EA1272114400F0010010E041
:1044D000D0F804C04268402303EA42124368202116
:1044E000406801EAD301102342EACC1203EA5010DB
:1044F00011440A1825E0602223E0C169C069C02286
:1045000001F03F0102EA904042181AE0C069C0F38E
:10451000064216E001F037FB011F02290ED30128E5
:104520000ED0022814BFC02240220AE0BDE880401D
:1045300001F045BCBDE8804001F09ABC002200E0DB
:104540008022D0B280BD000048F6E4610022C0F6AF
:10455000000100BF31F82230834204D00132132A17
:10456000F8D1072203E090B2132828BF072290B2A7
:1045700001EB800040887047F0B581B000F1200663
:10458000044600203146002701F01CFC04F12C05F4
:104590000120294601F016FCE07FA18884F8200064
:1045A0004FF0012060624FF48070208548F614605F
:1045B000C0F6000000EBC702D2888A4204D001375F
:1045C0001A2FF7D10B2702E01A2F28BF0B2700EB79
:1045D000C70130F837008A788988A4F8210020685C
:1045E0006185314684F8232001F038FB217F0120CA
:1045F0000129216984F83C004FF000002087A08643
:1046000013D1022221F0070002EA51036769034433
:104610004FF6F870090C384002EA5702A185390CB0
:104620001044E385218601210CE060690A0CE185D4
:104630006FF00F0101EA104121864FF6F07108403A
:104640000021A28540F24C02C2F2000260860020E6
:104650006187944208BF0E20E086284601F0A5FA43
:104660002068022101F0A7FB0E2001B0BDE8F04058
:1046700001F072BA00214FF0FF320123C0E90012AD
:10468000C0E902137047F0B581B043F6041200F0A0
:104690000100C2F2000252F8206043F61017C2F285
:1046A0000007F46897F8650108B1002026E0A06BC8
:1046B000012822DB204600F073FC0546012087F824
:1046C0006501A06AC5EBC50100EB810104F5E1506D
:1046D000814288BFA1F5E0513068A162022101F05A
:1046E00065FBA06B0221401BA063306801F063FBF7
:1046F000E06A2844E06201F093FCE06A01B0F0BD9A
:1047000070B5044640F20040C4F2000016460D4663
:1047100002F044FC306004EB0510D0F8B01111F049
:1047200004013173D0F8B01119BFC908B160490D47
:104730007160D0F8B011002D01F002017173D0F852
:10474000B4114FEA11213176D0F8B41101F00F0104
:10475000F173D0F8B8113174D0F8B8114FEA1121C3
:104760007174D0F8B8114FEA1141B174D0F8B81192
:104770004FEA1161F174D0F8BC113175D0F8BC1159
:104780004FEA11217175D0F8BC114FEA1141B17592
:10479000D0F8BC014FEA1060F0754FF0100008BF70
:1047A0000C20215841F02001215070BD10B5024667
:1047B0008068400109D49068000108D49068C00066
:1047C0005CBF032010BD022002E0002000E00120B9
:1047D00002EB0012D2F8803103F00103C2F88031FD
:1047E00091F808C0BCF1000F03D04B684CEAC30C31
:1047F00002E00B684FEA435C4B7A91F80DE0D2F887
:10480000804143EA0C032343C2F88031D2F884315B
:1048100023F00F03C2F88431D2F8843143EA0E0347
:10482000C2F88431D1F80E30C2F88831D1F81210B4
:10483000C2F88C11D2F8801141F00101C2F8801148
:1048400010BD00002DE9F04F81B043F604118346FE
:1048500000F00100C2F2000151F820502868EE6813
:10486000C16889073DD043F61011C2F2000101EB87
:104870008B0202F5B8770BEB0B1201EBC20106F1CC
:10488000340806F5E15906F1300A01F1100400BFC1
:10489000B16BFF2914DC726A0021FFF731FF706AE7
:1048A000B16B00F11C0280F80EB04A4541F6E433CA
:1048B00088BFC21A481C7262B063504604E000BF51
:1048C000002101F065F94046016801310160386856
:1048D000013038602068013020602868C16889078D
:1048E000D6D101B0BDE8F08F80B540F2045001F0A0
:1048F0000AFE40F2025001F006FE4FF4C06001F0E3
:10490000F3FD40F2026001F0EFFD40F2036001F0C0
:10491000EBFD40F2046001F0E7FD40F21C7001F095
:10492000E3FD40F20C5001F0DFFD40F2197001F0A0
:10493000DBFD40F21A7001F0D7FD40F20E6001F08D
:10494000D3FD40F20B6001F0CFFD40F2017001F0A9
:10495000CBFD44F27031C2F20001002200200A6057
:10496000BDE8804001F0FDBD704780B50B785A0668
:104970000BD4B1F801209B060AD452094FF00B0E5C
:1049800003234FF0000C026010E04FF0000E25E012
:10499000CB7891F804C042EA034242EA0C62D208A2
:1049A00042604FF00D0E05234FF0040C80F808C054
:1049B000CA185268CB584FF0000CC0F81220C0F84B
:1049C0000E3080F80AC00B78022202EAD30242724B
:1049D00080F80CC0097801F00F014173704680BD6A
:1049E00043F61011C2F20001D1F82421D1F824318C
:1049F0009B1A834228BF704700BFF7E770B543F6A4
:104A00000045C0F600054FF6FF76A81C0021802265
:104A100002F4607330F8024C2B431B880CB9B3428C
:104A200015D001318030082902F18002F0D143F61F
:104A3000C854C2F200040020208001F095FA2088BA
:104A400005EBC01001F051FA01F046FA05E043F61B
:104A5000C852C2F2000211800688304670BD0000C4
:104A600080B543F6C850C2F20000018843F6024CFC
:104A7000C0F6000C01F0070202804FEAC21E4CEAA9
:104A8000C21043F64852831C0020C2F2000200BF4D
:104A9000195A115202307C28FAD14EEA0C000088D3
:104AA000A2F87C0080BD43F64851C0B2C2F20001BA
:104AB00031F81000704700002DE9F04143F6C85668
:104AC000C2F20006308843F6485800F00700C2F2F0
:104AD000000843F60047308040463E21C0F60007FC
:104AE00000F09CF9054601F03FFA31884FF48072DE
:104AF000481C00F0070002EBC111308001F4607126
:104B0000CA5B4FF6FF739A4204D041EA070001F0F6
:104B1000ECF9308807EBC010290401F038FA0437AB
:104B2000002400BF308858F8141007EBC01001F0C3
:104B30002EFA3C2C04F1020407F10407F2D30546D7
:104B400001F0CAF92846BDE8F08143F64852C0B2E8
:104B5000C2F2000222F810107047704770B5C37B94
:104B600003F00F060E70437B022B334604BF06F1A1
:104B700010030B70057B042D0CD120330B70836860
:104B80004FEAC30C4FEA531E5C0B5B0DCC700B71EC
:104B9000052305E043684FEA431C4FEAD30E032385
:104BA00081F801C081F802E004685D1CCC5412B1A8
:104BB000220A4A559D1C4A1900F11001104632463E
:104BC000FFF7ECFAA81970BD81B0002343F610126C
:104BD0000093C2F20002D2F828210092009A0A70D3
:104BE000009A120A4A70009A120C8A70009A8B80FE
:104BF000120ECA70027802F00F0C81F806C002781B
:104C0000920606D44278CA7182784B720A720322E5
:104C10000BE06CF07F0C81F806C04278CA71827894
:104C20000A72C2784A72037905228B7283185B6814
:104C30008258C1F80F30C1F80B200078C00644BF7D
:104C40004CF040008871002001B07047B0B50C46B0
:104C500043F61011C2F20001D1F828110546080AE6
:104C60006070080CA070080EE070002021702271A6
:104C70006071687B012181430844A071297B01F0A8
:104C8000010140EA0110A071697A022904BF40F0D5
:104C90004000A071297A042904BF40F08000A0716F
:104CA000E32A06D0E22A15D16020A4F807000020EC
:104CB0000DE0287B0C21FFF7E3FBE071287B0E2140
:104CC000FFF7DEFB2072287B0F21FFF7D9FB607214
:104CD0000020A07200211320C4F80F10C4F80B109C
:104CE000B0BDB0B540F60004C4F20104204618215E
:104CF00001224FF4007301F0AFF920464821012250
:104D00004FF4806301F0A8F904F58065284610216E
:104D10000222202301F0A0F92846482103224FF463
:104D2000807301F099F92846182103224FF400738B
:104D300001F092F94FF4EA10012101F0E7F9284659
:104D4000102102224FF4006301F086F92846482121
:104D500003224FF4805301F07FF9284618210322E3
:104D60004FF4005301F078F92046182103224FF444
:104D7000006301F071F92046182103224FF480539B
:104D800001F06AF904F50060102102224FF400538B
:104D900001F062F92046482101224FF4807301F0AE
:104DA0005BF9204610210322012301F055F920462A
:104DB000102103220423BDE8B04001F04DB90000EA
:104DC000FEE780B543F64850C2F20000382100F0FB
:104DD00025F80021002808BF4FF0FF31084680BDAC
:104DE000FEE70000B0B54FF6FF72A9B14FF0000C1E
:104DF0004AF2010E10F80C305A4000238EEA520499
:104E0000D50708BF54082246072B03F10103F5D349
:104E10000CF1010C8C45EDD190B2B0BDB0B54FF6A0
:104E2000FF72A9B14FF0000C4AF2010E30F81C30AD
:104E30005A4000238EEA5204D50708BF5408224680
:104E4000072B03F10103F5D30CF1010C8C45EDD1D7
:104E500090B2B0BD704780B54FF4A06001F050FA39
:104E600043200121002201F01BFA1420022101221B
:104E700001F016FA40200221022201F011FA252049
:104E800003210122BDE8804001F00ABA704700000A
:104E900010B5002001F0AEFA014614A003F0F1FDB8
:104EA000012001F0A7FA014615A003F0EAFD022057
:104EB00001F0A0FA014617A003F0E3FD032001F082
:104EC00099FA014618A003F0DCFD43F61014C2F273
:104ED0000004D4F8241119A003F0D3FDD4F828114C
:104EE0001BA0BDE8104003F0CCBD00BF20434B5FCA
:104EF0005359532020203D20256C640A00000000F7
:104F000020434B5F4148422020203D20256C640A0D
:104F10000000000020434B5F4150423120203D20E3
:104F2000256C640A0000000020434B5F4150423270
:104F300020203D20256C640A0000000020544943D5
:104F40004B20202020203D20256C640A000000001A
:104F5000205354414D50202020203D20256C640AD0
:104F60000000000010B543F64854C2F20004204689
:104F70006E21FF22FFF724F945F2FF40E08310BDC8
:104F8000704710B543F64854C2F20004204637215A
:104F9000FFF744FFA4F86E00BDE81040FFF78CBD9A
:104FA0002DE9F04F81B08946D1F830A4D0F828809F
:104FB000816B0AF140040904B1F5403F29DD0094FA
:104FC00040F2024100F5E1570025022441F6E43B9E
:104FD000AAF840101AFA84F000F14001B5FA85F001
:104FE0004209404608F11C06FFF7B8FDBE4210FA20
:104FF00084F488BFA8EB0B06032D05F10105B0462C
:10500000E8D3009A48468221402303F014F904268D
:105010006EE0B1F5803F30D0B1F5003F3FD0B1F543
:10502000403F64D1009440F2023100F5E157002581
:10503000022441F6E43BAAF8401000BF1AFA84F0BB
:1050400000F14001B5FA85F04209404608F11C061E
:10505000FFF784FDBE4210FA84F488BFA8EB0B066C
:10506000022D05F10105B046E8D3009A4846822199
:10507000402303F0E0F803263AE04FF48170AAF8E9
:1050800040000AF14201404601220126FFF766FD79
:10509000484682212246402303F0CDF828E00094C0
:1050A00040F2022100F5E1540120022541F6E43BE3
:1050B000AAF840101AFA85F100F001074031404685
:1050C0003A4608F11C06FFF749FDA64210FA85F59D
:1050D00088BFA8EB0B060020002FB046EAD1009A4B
:1050E00048468221402303F0A6F8022600E000266D
:1050F000304601B0BDE8F08F2DE9F04381B043F6B2
:105100000412C2F2000217680C46F968D0F8308425
:105110000A7AA17A00208A42207301D1B87950B36B
:1051200003291ED8DFE801F002040E13012000E07D
:105130000020F97F87F82700881EB0FA80F0400928
:1051400040000CE00120F97F87F8270004E00020F0
:10515000F97F87F827000120022908BF032087F87C
:105160002000386807F1200100F078FDA07AF96886
:1051700008720020B871F87F02282BD043F6101671
:10518000C2F200060020C6F8300100BF3868214690
:10519000FFF70CFBD6F830110B2921D20546032866
:1051A000F4D00020C6F8300197F82700012811D16B
:1051B00040F283693868294600F05EFE012809D074
:1051C000D6F83001484507D200F02AFF97F82700AB
:1051D0000128EFD001200AE03868294600F02AFEB5
:1051E00008F180012046E222FFF730FD002001B0E7
:1051F000BDE8F08310B582B043F61014C2F200048B
:1052000094F8661194F8692194F8653194F868C1AE
:105210000BA0CDF800C003F034FCD4F85811D4F83A
:105220005C21D4F8603114A003F02BFCD4F83811C1
:10523000D4F83C211BA002B0BDE8104003F021BC13
:1052400020636D64496E427573793D256420636DFA
:10525000644F75744C656E3D256420646174496EBD
:10526000427573793D2564206461744F75744C6593
:105270006E3D25640A000000207573624F7574430B
:105280006E743D256C6420757362446174436E7462
:105290003D256C6420757362526570436E743D25C4
:1052A0006C640A0020636D64496E54696D65723DDB
:1052B000256C6420646174496E54696D65723D2586
:1052C0006C640A0002F038B84EF68851CEF2000144
:1052D0000A6841F2000042F47002C4F202000A605F
:1052E00001684FF6FF7241F0010101600021416049
:1052F000C1620168CEF6F622114001604FF47F01D1
:105300008160016821F480210160016841F48031ED
:1053100001604FF6FE7100BF03684A1E8A4203D245
:1053200013F400311146F7D00168890301D400BF9E
:10533000FEE742F20001C4F202010A68022363F3AD
:1053400002020A6041684FF6FF7241604168CDF683
:10535000C3724160416841F480614160416811401D
:10536000416041684FF2000241F0005141F4A02138
:105370004160C16ACBF6FE721140C162C16A41F45C
:10538000843141F01901C162016841F0806101601E
:1053900001680901FCD5016841F08071016000BF1E
:1053A00001688901FCD5416821F003014160416831
:1053B00041F00201416000BF41680907FCD54FF090
:1053C00000604FF4804100F0A5BF70B50446002096
:1053D0000D46A4F84201FEF7D7FE0068405D10F0CC
:1053E0003E0F19D0B4F8466101203F2EA4F84201C7
:1053F00084F8415008D82846FEF7CAFE711CA4F86C
:105400004611A11981F8C100B4F84201402824BF17
:105410000020A4F8420170BD0C2D0DDD0D2D27D00C
:105420001B2D56D01D2D0BD1B4F84801411C0AB2DA
:10543000012AC8BF411E53E0082D73D00A2DE3D0C6
:1054400043F60C10C2F2000000682909415C0122F9
:10545000A4F8422184F8411005F00F01405C84F863
:1054600042000320A4F84201202084F84300CBE747
:1054700040F60D20A4F84100B4F8460102213F286F
:10548000A4F842115FD804F1C10100220A5401209E
:10549000A4F846212070B4F8480100EBD03222F085
:1054A0000102801A02B2A4F8480143F6FC20C2F2BD
:1054B000000000EBC2108022FEF7A6FEB4F94801FE
:1054C000013000EBD07121F00101401AA4F848012D
:1054D0009AE7B4F84801411E0AB2002A48BF411CAD
:1054E00043F6FC25A4F8481109B2C2F2000504F104
:1054F000C10005EBC1118022FEF786FEFEF790FE8B
:10550000B4F94811A4F8460104F1410005EBC111BA
:105510008022FEF779FEFEF783FE014680B2A4F8F2
:10552000421173E742F20800A4F841000320A4F8F6
:105530004201B4F846010821002884F843103FF4E2
:1055400063AF013802E0002084F80001A4F84601AE
:105550005AE770472DE9F04184B040F20044C4F2AC
:10556000000404F59435284601F01CFD47206E46E2
:10557000009000274FF6FF7828463146ADF80470BA
:10558000CDF80880ADF80C708DF80E7001F0B3FD09
:10559000284601F0ABFD204601F004FD40F6FF3047
:1055A000009020463146ADF80470CDF80880ADF883
:1055B0000C708DF80E7001F09EFD204601F096FDF6
:1055C00004B0BDE8F081000010B582B043F60000E1
:1055D0000021C4F20100ADF806100168090703D5E7
:1055E0004168C9B2ADF806100168890601D402B05D
:1055F00010BD406843F6FE34C0B2ADF80600BDF8F9
:105600000600C2F20004C1B22046FFF7DEFE002011
:10561000ADF80600BDF80600B4F842118842E6D2A3
:10562000BDF80600204490F8410000F02FF8BDF8C6
:1056300006000130ECE710B543F60004C4F20104A3
:10564000204602F01CF920464FF4E13102F0E2F866
:105650002046002102F060F92046002102F080F986
:105660002046002102F06AF92046082102F06EF976
:105670002046042102F058F9204640F2053102F09C
:1056800040F92046BDE8104002F036B943F600016B
:10569000C4F201010A681206FCD56FF35F2048606E
:1056A00008684006FCD5704743F60C60C2F2000063
:1056B00002F0E8BE80B543F60C60C2F20000C0798B
:1056C00068B1FFF701FEFFF70FF940F20C5000F050
:1056D0000BFF43F60C60C2F2000002F09FF94FF49A
:1056E0008020BDE8804000F0F1BB4FF2E070C1F6D1
:1056F000FF70008843F6D051C2F20001088080029A
:1057000043F6CC5100F10060C2F20001086070471E
:10571000FEE780B500F094FC4FF47A70052100F0AC
:105720004DFC00F07DFCBDE8804000F081BC000035
:10573000F0B581B043F60C65C2F2000595F8CE00D5
:10574000032842D041F2000443F610170026C4F2A9
:105750000104C2F2000700BF20464FF4005100F0E0
:1057600079FCD7F82401D7F82411091A312905D872
:1057700000BFD7F82411091A3229F9D320464FF473
:10578000005100F065FCD7F82401D7F82411091A5C
:10579000312905D800BFD7F82411091A3229F9D3C5
:1057A0001E2E07D2013600F03BFC95F8CE000328F0
:1057B000D2D10AE020464FF4005100F049FC43F6F4
:1057C000FC30C2F200000121017001B0F0BD000008
:1057D0004EF60C50BFF34F8FCEF20000016804224A
:1057E00001F4E061C0F2FA5211430160BFF34F8F40
:1057F00000BFFDE7B0B50C460978054601F003018E
:1058000002290FD031BB95F8CE00022803D095F8BD
:10581000CE0003281ED1608801281BD1002085F806
:105820001A04B0BDA08895F8CE10032912D1618862
:1058300071B940F08001C9B2802909D0C1B22846AF
:1058400002F063FDD5F82C042146C2682846904733
:105850000020B0BD0120B0BD90F8CE2000F1CC01F9
:10586000032A05D0022A01D10A7822B1012070470B
:105870000A78002AFAD0C0F8D8100121C0F8E41044
:1058800000207047B0B50D460978044601F00301C9
:1058900001290DD0C1BB6A880120110A02290EDC42
:1058A000012915D0022930D1D4F8280440680DE030
:1058B000D4F82C042946C2682046904725E00329E5
:1058C00015D00F2921D1D4F828048068817817E0F9
:1058D000D4F8280400680178C4F8D800A4F8E410CB
:1058E000E988402904BF0820C4F8E4000CE0D0B2E5
:1058F0000A2809D8D4F82814C96851F8200001787A
:10590000A4F8E410C4F8D8000120D4F8E41099B148
:10591000EA888AB191420CD2B4F8D40081420AD309
:10592000B1FBF0F202FB101028B9012084F8250425
:1059300001E0C4F8E4200020B0BD024690F8CE009B
:1059400003281CBF01207047888810F0FE0F4FF01D
:10595000010018BF7047D2F82C14C2F8E4000131DE
:105960000020C2F8D81070470A78898802F0030234
:10597000022A15D0012A32D07ABB90F8CE10022923
:1059800003D090F8CE10032927D190F8182490F86E
:105990001A14002A18BF0122002918BF911C16E012
:1059A00090F8CE20032A18D1CAB200F1CC03C2EB82
:1059B000C20203EB820C01F07F02C2EBC20203EBD6
:1059C00082020632090658BF0CF5D572117843F6EB
:1059D000E022C2F2000211700AE0012112E011F08F
:1059E000FE0F4FF0010190F8CE2008BF032A09D125
:1059F00043F6E021C2F20001C0F8D8100221C0F83D
:105A0000E410002108467047012070478A8852B987
:105A1000CA8842B9897801F07F0180F8CD1090F8EA
:105A2000CE20032A01D10120704742690029136862
:105A300023F4FE631360136843EA011313600CBF81
:105A40000121022180F8CE100020704770B5044675
:105A5000488843F6E226C2F2000610F0FE0F3070CE
:105A600001D0012529E094F8CE10032910D0022995
:105A7000F7D1010620D0D4F82C144A68C1B22046D0
:105A80009047307884F8CC00032084F8CE0013E0EF
:105A9000010614D094F8CC20C1B28A420CD0D4F8BC
:105AA0002C04826820469047D4F82C043178426850
:105AB000204684F8CC1090470025284670BDD4F8C5
:105AC0002C0400218268204600259047307884F815
:105AD000CC00022084F8CE00EFE70020704780B5AC
:105AE0000A7802F00302022A0FD0FAB990F8CE2009
:105AF000022A03D090F8CE20032A17D14988012921
:105B000004BF012180F81A140EE08A8890F8CE3084
:105B1000032B0BD1498839B942F08001C9B28029E1
:105B200002D0D1B202F0D8FB002080BD012080BDA0
:105B300080B590F8CE20032A03D18A8812F0FE0F98
:105B400001D0012080BDD0F82C24126902B1904709
:105B5000002080BD0020704746F20061C4F20001C1
:105B60000A6800F03F0042F001020A600A6822F46D
:105B70007C520A600A6842EA00200860086820F047
:105B80000100086070478069C0F302107047000090
:105B900029B1012902D1102102E000BFFEE70C214A
:105BA0000A5842F020020A507047B0B546F2006130
:105BB000C4F2000144890A684FF0010C42F001026E
:105BC0000A60CB690CFA04F5AB43CB61C3896FEA79
:105BD000050C012B10D023BBCB6803EA0C03CB6070
:105BE000B0F806E0438843EA0E434FEAC40E01EBE7
:105BF000C404236403460DE0CB682B43CB60B0F8AC
:105C000000E0438843EA0E434FEAC40E01EBC404AC
:105C10002364831D84881B8843EA044301EB0E043C
:105C2000636483894C68002B44EA050208BF04EAD8
:105C30000C024A6002894B69002A43EA050408BF46
:105C400003EA0C044C61007C012802D1C869284396
:105C5000C861086820F001000860B0BD2DE9F0417E
:105C6000026840F2010C22F0020202600268CFF6E4
:105C7000FF7C42F001026346026000BF426823B12C
:105C800012F0010203F10103F8D04268D20704BF09
:105C90000020BDE8F081036ADA0724D143F0010255
:105CA00002620A7891F801E08C789207CD7804F0CE
:105CB0000F0804F070046EF31C624E8942EA8412ED
:105CC00005F0070705F0180542EA0842013E42EADE
:105CD00085226FF39F2642EA07523244C26123F0C5
:105CE000010202621DE00A7891F801E08F789207C4
:105CF000CE7807F00F0507F070076EF31C624B8932
:105D000042EA871206F0070406F0180642EA054246
:105D1000013B42EA86226FF39F2342EA04521A446F
:105D2000C26102680B7922F080024F798E79CD79B9
:105D3000012B08BF803202600268012F22F040026E
:105D400008BF403202600268012E22F0200208BF24
:105D5000203202600268012D22F0100218BF1032BA
:105D600002600A7A0368012A23F0080318BF083387
:105D70000360497A0268012922F0040208BF043254
:105D80000260016821F00101016000BF42686146C4
:105D9000BCF1000F04D012F0010201F1010CF5D1A9
:105DA000002918BF01210846BDE8F081426922EAB6
:105DB0000101416170474269114341617047806947
:105DC000000E704781B1042810D880B5DFE800F0DC
:105DD000030F18292C004FF0806088600020486075
:105DE0004FF40030086080BDFEE700BFFEE70020F2
:105DF0004FF480320874CA6008604860886080BDD3
:105E00004FF4806088824FF400700882012088740B
:105E100000204FF4807288700A80C1E90100C860D8
:105E200080BD08464E2101E008464F21FEF7CFF91C
:105E300080BD000002290BD0012911D0B9B98168B9
:105E400041F08001816000BF81680906FCD40EE04A
:105E5000816841F40001816081680902FCD406E098
:105E6000816841F40041816081680904FCD4704775
:105E70008069C0F307407047022910D849B210A2C8
:105E800052F821108068084040F2FF21C0F600015E
:105E9000884206DC18B10321C0F200410AE002206A
:105EA000704740F20031C0F60001884206D0002160
:105EB000C1F2030188421CBF0020704701207047D7
:105EC00003000004000300080000031040F2144126
:105ED000C4F201010860704742F21000C4F20200EF
:105EE000016841F0800101607047B0B5044600F0E0
:105EF0001BF800B1B0BD42F21005C4F202052868DB
:105F000040F0020028606C60286840F04000286083
:105F1000BFF34F8FBFF36F8F00F006F8296821F0B1
:105F200002012960B0BD0000002142F20C00CFF652
:105F3000F071C4F2020000BF0268D20704D0013140
:105F400024BF05207047F7E70168C90644BF042055
:105F500070470168490744BF022070470068032169
:105F6000000701EAE070704742F20400C4F2020048
:105F7000C168090658BF704740F22311C4F2675147
:105F8000016048F6AB11CCF6EF510160704770B577
:105F90000C460546FFF7C8FF00B170BD42F210067F
:105FA000C4F20206306840F0010030602C60FFF758
:105FB000BBFF316821F00101316070BD80B540F256
:105FC000020ECFF6F07E43F2000CC4F2000C45F254
:105FD00055527346CCF80020DCF80C2002F0010288
:105FE0001BB1002A03F10103F6D16AB9CCF8041001
:105FF000DCF80C10BEF1000F01F0020103D0002903
:106000000EF1010EF4D109B1002080BD6FF31F30F5
:10601000CCF808004AF6AA20CCF80000012080BD88
:1060200043F20000C4F200004AF6AA210160704762
:1060300043F20000C4F200004CF6CC41016070470E
:1060400043F20000C4F2000045F255510160704770
:1060500041617047016170472DE9F047CF0601F0BB
:106060000F0C09D5042A05D1C26B4CF0030C1A435E
:10607000C26301E04CEA020C00F1100E00F11408BA
:1060800000244FF0010A4FF00F0900270AFA07F227
:106090001A4011D00668282904D0482904D1754631
:1060A00001E000BF45462A6009FA04F226EA02022E
:1060B0000CFA04F52A4302600137082F04F10404A6
:1060C000E4D1082400254FF0010A4FF00F0900BF6A
:1060D0000AFA04F21A4011D04768282904D0482946
:1060E00004D1764601E000BF4646326009FA05F267
:1060F00027EA02020CFA05F6324342600134102C02
:1061000005F1040508BFBDE8F087E1E7B0B504225A
:10611000C4F20102134602F1180E002848BF73466C
:106120001C6800F44013B3F5401F1FFA80FC06D131
:10613000156824F0E06325F0E064146011E0C30208
:1061400006D46FF00F0303EA50430CFA03F304E0A4
:10615000C0F30343032505FA03F324EA030343F0E2
:10616000E0636FF00F0404EA504400290CFA04F5D0
:1061700018BF2B43002848BF72461360B0BD42F2DF
:106180001C00C4F20200006840F3400070470000A9
:10619000FEF7AAFBFEF7A5FDFFF7A7FAFEF72EFC18
:1061A000FEF75EFCFEF70DFE18B9FEF7DBFEFEF70C
:1061B000E8FE43F64850C2F20000C08B20F0FF0119
:1061C000B1F5A84F02BF43F6CC21C2F2000188818D
:1061D000FEF741FEFFF7BEF9FEF7BFFCFFF799FAA5
:1061E00040F20800C2F20000006841F25971CDF29D
:1061F000B711A0FB01014FF0FF3044F2743200EB05
:10620000513047F61101C2F20002C0F60001B0F1B0
:10621000807F116001D300BFFEE74EF21001CEF285
:10622000000148604EF62350CEF20000F0220270CA
:106230000020886007200860FFF7FDF943F60C6432
:10624000C2F2000443F6BC2243F68C23C2F20002E1
:10625000C2F200032046012102F0DBF8FFF768FAE2
:1062600041F20000C4F201004FF40051FFF7F2FECA
:1062700094F8CE0003280CD1204601F088FA20467D
:1062800001F056F9204601F037FA00202146FEF7CA
:10629000FAF900F08EFF01F0D5F8FFF7C1FEE7E74D
:1062A0004EF60C5CCEF2000CDCF8003003F4E06338
:1062B000A3F54073B3F5A06F01D21B0A06E040F2CC
:1062C0000053C0F2FA53CCF80030022301FA03FC69
:1062D000C3F104030F21D94011404EF2001241EAEC
:1062E0000C01CEF200020901831883F8001300F0BC
:1062F0001F01012303FA01F1401142F820107047F9
:1063000040F080604EF60C5140F0FD70CEF200017E
:10631000086070474FF68072C1F6FF721140084363
:106320004EF60851CEF200010860BFF34F8F704760
:10633000B0B547F20003C4F200031A6843F6DC5E0E
:1063400022F003021A60D3F800C04EF2001240EAB5
:106350000C00CEF200021860D2F8100C43F6D85CA4
:1063600040F00400C2F8100C52F8F00CC2F2000C1D
:10637000CCF800001068C2F2000ECEF8000053689E
:1063800043F6E050C2F200000360946843F6E45321
:10639000C2F200031C6052F8F04C0425C0F2010563
:1063A0002C4042F8F04C4FF63D04CFF67F74C2F813
:1063B00080406FF4E064C2F884404FF0FF34C2F8CC
:1063C000884000290FBF30BF40BF20BF20BFDCF88E
:1063D000001042F8F01CDEF80010116000685060F8
:1063E00018689060D2F8100C20F00400C2F8100C6D
:1063F000B0BD000010B541F20402C4F202021168FF
:1064000001F00C01082941F20021C0F27A013FD1CC
:106410001368DB0304D440F6001CC0F23D0C21E0FD
:10642000936AD2F828C05B0046F60043C0F2DC2332
:1064300058BF0B465FEACC310ED5916AC1F3031CFD
:10644000916A0CF1010CC1F30321B3FBFCF302319F
:10645000112908BF14214B43916A01F00F0101314A
:10646000B3FBF1FC13681168C3F3834E102303EAF6
:106470005161714401230F2938BF02230B440F2BB4
:1064800011BF03FB0CF10CEB4C01490001EB5C016B
:106490001368D2F800C0146803280FD8C3F303139D
:1064A0000DA2D25C48F6347E21FA02F3C0F6000E4B
:1064B000DFE800F00F02060919460AE0002108E0B3
:1064C000CCF3022001E0C4F3C2201EF8000023FA3E
:1064D00000F1084610BD00BF0000000000000000F1
:1064E000010203040607080941F2000300F01F013E
:1064F0008009C4F202034FF0010CC2580CFA01F1FA
:106500001143C150704741F2000300F01F018009A0
:10651000C4F202034FF0010CC2580CFA01F111430E
:10652000C150704741F2000300F01F018009C4F21E
:1065300002034FF0010CC2580CFA01F122EA0101EA
:10654000C150704741F2000300F01F018009C4F2FE
:1065500002034FF0010CC2580CFA01F11143C15073
:10656000704741F20401C4F202010A6822F44002B9
:10657000104308607047000010B543F61014C2F2D3
:1065800000049446D4F8243194F866218AB103F5C6
:106590007A7100BF94F86621B2B1D4F824218A42FE
:1065A000F8D9002184F86611812101F0C7FE02208C
:1065B00010BD8E4681217246634601F03CFE0120EB
:1065C00084F86601002010BD012010BD10B543F60F
:1065D0001014C2F200049446D4F8243194F86521D2
:1065E0008AB103F57A7100BF94F86521B2B1D4F88D
:1065F00024218A42F8D9002184F86511822101F012
:106600009DFE022010BD8E4682217246634601F037
:1066100012FE012084F86501002010BD012010BD8C
:106620007047000010B584B043F6EC50C2F2000091
:106630000468E4B1ACA12046FDF7D4FD002843D0A6
:1066400043F6F050C2F20000006843F61014C2F2A4
:10665000000438B100210A22FDF70CFEA18860F386
:106660000001A180A08800F00101A1A036E149F25B
:106670008010C0F6000002F03BFA43F6101043F61B
:10668000485CC2F20000C2F2000C818882888388D4
:106690008488D0F82CE1BCF86A00BCF86CC0029089
:1066A00049F2553001F00101C2F38002C3F3011336
:1066B000C4F30124C0F60000CDE9004ECDF80CC0B3
:1066C00002F0DFF904B010BD8CA12046FDF78AFD71
:1066D000E0B143F6F050C2F20000006868B100215A
:1066E0000A22FDF7C7FD43F61011C2F200018A88A5
:1066F00022F0020260F341028A8043F61010C2F2D7
:1067000000008088C0F340017EA0E7E080A1204621
:10671000FDF768FDE0B143F6F050C2F200000068FA
:1067200068B100210A22FDF7A5FD43F61011C2F25F
:1067300000018A8822F0040260F382028A8043F614
:106740001010C2F200008088C0F3800172A0C5E082
:1067500074A12046FDF746FDE0B143F6F050C2F2C9
:106760000000006868B100211022FDF783FD43F6A8
:106770001011C2F200018A8822F0300260F3051283
:106780008A8043F61010C2F200008088C0F3011125
:1067900066A0A3E068A12046FDF724FDE0B143F622
:1067A000F050C2F20000006868B100211022FDF72D
:1067B00061FD43F61011C2F200018A8822F4407292
:1067C00060F309228A8043F61010C2F2000080882C
:1067D000C0F301215AA081E05CA12046FDF702FD33
:1067E000B8B143F6F050C2F20000006848B1002191
:1067F0000A22FDF73FFD43F61011C2F20001C1F875
:106800002C0143F61010C2F20000D0F82C1151A058
:1068100064E053A12046FDF7E5FC80B143F6F0505B
:10682000C2F20000006800B300210A22FDF722FD39
:1068300043F64851C2F20001A1F868001BE04DA1E7
:106840002046FDF7CFFCC8B143F6F050C2F200007D
:10685000006848B300210A22FDF70CFD43F64851B9
:10686000C2F20001A1F86A0024E043F64850C2F2E7
:106870000000B0F8680081B23BA02FE043A12046A1
:10688000FDF7B0FCC8B143F6F050C2F2000000685A
:10689000E0B100210A22FDF7EDFC43F64851C2F2B7
:1068A0000001A1F86C0017E043F64850C2F2000066
:1068B000B0F86A0081B231A010E049F28010C0F651
:1068C000000004B0BDE8104002F012B943F6485091
:1068D000C2F20000B0F86C0081B22EA004B0BDE896
:1068E000104002F0CEB800BF6563686F0000000082
:1068F000204543484F3D25640A00000074657374C9
:106900000000000020544553543D25640A00000057
:10691000736F66740000000020534F46543D256499
:106920000A0000006C6576656C000000204C45563E
:10693000454C3D25580A00006368616E0000000068
:10694000204348414E3D25580A00000074696D659A
:10695000000000002054494D453D256C640A0000AC
:10696000747269670000000020545249473D256C4D
:10697000640A000064656C61793000002044454C75
:106980004159303D256C640A0000000064656C616B
:10699000793100002044454C4159313D256C640A51
:1069A000000000002DE9F04381B043F6EC50C2F244
:1069B00000000468002C00F08F804CA12046FDF7F9
:1069C00011FC002840D043F6F050C2F200000068ED
:1069D000002866D0002110220024FDF783FC43F636
:1069E000F451C2F200010968C7B229B1084600217A
:1069F0001022FDF777FC84B2A4F10800382888BF84
:106A000040243E2F1BD800200FF2E8080FF2F009B7
:106A10003E460025400703D14046314602F031F89A
:106A2000B0B2FEF740F80146484602F02AF80135B8
:106A3000A8B2844203D917FA85F63F2EEAD349F269
:106A40009330C0F600004BE02FA12046FDF7CAFBB3
:106A500050B343F6F050C2F20000006808B343F6AA
:106A6000F454C2F200042168D9B100211022FDF7CC
:106A700039FC21680446084600211022FDF732FC4B
:106A8000E4B285B220462946FEF75FF820A02946E9
:106A900001F0F7FF23A0214601B0BDE8F04301F06B
:106AA000F0BF01B0BDE8F08349F2A231C0F60001A9
:106AB0002046FDF797FB18B1FDF7D2FF20A00FE0AD
:106AC00049F2B531C0F600012046FDF78BFB18B145
:106AD000FDF7F2FF21A003E049F2A000C0F600009C
:106AE00001B0BDE8F04302F003B800BF7265616415
:106AF000000000000A3078253034582020000000C3
:106B00002530345820000000777269746500000059
:106B10002077726974652030782530345820746F7E
:106B20000000000020656570726F6D206164647202
:106B300065737320307825303458202E2E2E0A00AD
:106B40004C6F61642066726F6D20496E742E204513
:106B50004550524F4D2E2E2E0A000000536176658F
:106B600020746F20496E742E20454550524F4D2E93
:106B70002E2E0A00704770477047000070B549F22A
:106B800000460025C0F6000605A400BF7019715923
:106B90004268204601F075FF0C35782DF6D170BDA6
:106BA000202573202D3E20257300000010B543F6EC
:106BB000EC50C2F200000468ACB31FA12046FDF700
:106BC00011FB18B1BDE81040FEF714BB1BA1204615
:106BD000FDF708FB78B143F61010C2F20000002167
:106BE000C0F85811C0F85C11C0F86011C0F8381135
:106BF000C0F83C1110BD13A12046FDF7F3FA48B1CF
:106C000043F61010C2F20000818810A0BDE81040C9
:106C100001F037BF11A12046FDF7E4FA18B1BDE835
:106C20001040FEF735B949F2E510C0F60000BDE8A6
:106C3000104001F05DBF00BF73797300636C656144
:106C40007200000072656773000000002046554E18
:106C5000433D3078253034580A000000636C6B00E7
:106C600010B543F6EC50C2F20000006880B141F26A
:106C7000000400211022C4F20104FDF733FBC00719
:106C800007D120464FF40051BDE81040FFF7E0B9AE
:106C900010BD20464FF40051BDE81040FFF7DAB9AF
:106CA000B0B543F6EC50C2F20000006800B300211A
:106CB0001022FDF717FBE0B1044643F6F050C2F294
:106CC0000000006830B100211022FDF70BFB85B2F7
:106CD000072D01D84FF4807520462946FEF782F82B
:106CE000034608A021462A46BDE8B04001F0C9BECF
:106CF000B0BD49F26300C0F60000BDE8B04001F04D
:106D0000F7BE00BF53544152543D307825303858B7
:106D1000204C454E3D307825303858204352433D75
:106D20003078253034580A002DE9F047FFF727FA6C
:106D300008B1BDE8F08743F6EC50C2F200000068ED
:106D4000C8B100211022FDF7CDFAC8B1044643F6C0
:106D5000F050C2F200000068B8B100211022FDF727
:106D6000C1FA6FF0070185B211FA80F0F82888BFE8
:106D70004FF480750BE049F22C38C0F6000821E092
:106D800049F26308C0F600081CE04FF4807549F230
:106D9000953A49F2933800270FF23409C0F6000AF9
:106DA000C0F60008002600BF380703D1391948464D
:106DB00001F067FEE15D504601F063FE0136B7B2B7
:106DC000BD42F1D84046BDE8F04701F091BE00BF9A
:106DD0000A307825303858200000000010B543F6FE
:106DE000EC50C2F2000004684CB349F2A231C0F684
:106DF00000012046FDF7F6F930B115A001F078FE4C
:106E0000BDE81040FDF7DDBF49F2B531C0F6000125
:106E10002046FDF7E7F930B116A001F069FEBDE8A4
:106E20001040FEF7AEB81BA12046FDF7DBF930B1EC
:106E30001AA001F05DFEBDE81040FEF793B849F2DC
:106E4000D920C0F60000BDE8104001F051BE00BFDF
:106E5000204C6F616420706172616D65746572733E
:106E60002066726F6D20454550524F4D2E2E2E0AD2
:106E700000000000205361766520706172616D65CD
:106E80007465727320746F20454550524F4D2E2EFD
:106E90002E0A0000726573746F726500205265736C
:106EA000746F72652064656661756C7420706172C0
:106EB000616D65746572732E2E2E0A0043F6EC50D8
:106EC000C2F20000006808B9002003E000210A2295
:106ED000FDF708FAFDF784FD03A001F009FE01208B
:106EE00080F31388FEF774FC207265626F6F74691B
:106EF0006E672E2E2E200A007047704770B548F638
:106F0000CE70C0F600000088410AC0F3431200F0C2
:106F10001F030BA001F0B5FD4FF2E8760025C1F686
:106F2000FF760DA436F81510204601F0AAFD0135B4
:106F3000062DF7D10AA0BDE8704001F0D9BD00BF11
:106F4000205043414E555342207625642E25642E11
:106F5000256420534E3A00002530345800000000CC
:106F60000A204543484F2053747564696F203C657F
:106F700063686F2E786A747540676D61696C2E6303
:106F80006F6D3E2E20416C6C2052696768747320CF
:106F900052657365727665642E0A0000406A704718
:106FA0004162704710B541F6FF31C4F200018842DA
:106FB0001BDC40F6FF31C4F20001884230DD41F2B3
:106FC000FF31C4F20001884251DC40F60041C4F2B6
:106FD000000188426AD041F20001C4F200018842F7
:106FE00040F0838040F2044477E043F2FF31C4F282
:106FF0000101884226DD44F6FF71C4F20101884296
:1070000044DC43F20041C4F20101884251D044F60D
:107010000041C4F20101884267D140F213345CE0C0
:10702000B0F1804F48D040F20041C4F200018842E4
:1070300045D040F60001C4F20001884255D140F22B
:1070400002444AE041F60041C4F20001884239D0CE
:1070500042F20001C4F20001884236D042F60041FB
:10706000C4F20101884240D140F20B3435E041F2D4
:107070000041C4F2000188422AD041F60001C4F266
:107080000001884231D140F2064426E045F2000179
:10709000C4F2010188421ED045F20041C4F2010150
:1070A000884218BF10BD40F2153416E040F2034488
:1070B00013E040F20D3410E04FF480640DE040F234
:1070C00001440AE040F2074407E04FF4816404E021
:1070D00040F2054401E04FF445742046FFF732FAD0
:1070E0002046BDE81040FFF71DBA10BD016841F011
:1070F00001010160704780B50A8843F2004C82624A
:1071000040F6FF32C4F200029042C4F2010C0DDCE2
:10711000B0F1804F18D040F20043C4F2000398420F
:1071200012D040F60003C4F200030BE040F6004327
:10713000C4F20003984207D0604505D042F60043F0
:10714000C4F2010398420FD1036823F07003036077
:107150004B88026803F060031A4302608A88036860
:1071600002F010021A43026041F20002D1F808E076
:1071700020F48063C4F200029342C0F82CE009D0EE
:10718000026822F4407202608A89036802F4407245
:107190001A430260604505D042F60042C4F2010283
:1071A000904201D1897B0163416941F00101416154
:1071B00080BDB0B543F61011C2F2000191F86A012A
:1071C000002800F0AE80002043F6FE5481F86A01EA
:1071D000C2F20004208843F6FC5201306FF35F20B6
:1071E00043F6FD55B0F5FF7FC2F20002C2F2000582
:1071F00020801DD068BB91F86B31137091F86C3111
:107200002B7091F86B31012B03D091F86B31022B6D
:1072100002D1FF2381F86B3191F86C31012B03D03F
:1072200091F86C31022B14D1FF2381F86C3110E0FE
:107230000B692BB1012381F86B310023C1F8703148
:10724000D1F874312BB1012381F86C310023C1F8DE
:107250007431117802290DDC01291DD002292FD1AA
:1072600000F03F0103291CD0203000F03F0003282C
:107270001FD025E003290FD0FF2921D100BB43F601
:107280000410C2F200000068407A002840F6004076
:10729000C4F2010009D110E0B0F5817F09D00228C5
:1072A0000ED140F60040C4F201002021FEF7D2FECC
:1072B00006E040F60040C4F201002021FEF7C8FEBF
:1072C000287802280EDC01281BD0022829D120882A
:1072D00000F03F0105291AD0203000F03F000528BA
:1072E0001FD11FE003280CD0FF281AD120880128C5
:1072F00017D143F60410C2F200004068407A30B95A
:1073000010E02088B0F5827F0CD0042809D140F627
:107310000040C4F201004FF40061BDE8B040FEF748
:1073200099BEB0BD40F60040C4F201004FF40061C8
:10733000BDE8B040FEF78CBEB0B543F6101EC2F2F9
:10734000000EDEF8281143F602630131CEF8281151
:1073500043F6046CC2F20003C2F2000C1A88BCF8B7
:107360000010501C82B242F211740131A2420AB2E2
:10737000ACF80010188032D3002018809EF820113D
:107380000EF1100301EB011103EBC1018C8804F035
:107390003F048C809EF8201101EB011153F831104D
:1073A0009EF820419EF8205104EB041405EB0515CE
:1073B00003EBC505AD8803EBC40404EB4504E18091
:1073C0009EF8201101EB011143F831009EF82001D5
:1073D00000EB001003EBC0008188013181800A2A94
:1073E0001ADB43F60063C2F2000318880022013062
:1073F00081B2B1F57A7FACF80020188011D31A80E1
:10740000DEF82C010130CEF82C01BEF8000040F06F
:107410001000AEF8000004E0022A08D0012A0AD0C9
:1074200042B9DEF824010130CEF82401B0BD0120BC
:107430008EF86A01B0BDDEF830010130CEF83001BF
:10744000B0BD00002DE9F04F81B043F6FE35C2F229
:1074500000052878002867D049F2993105F1C1006C
:10746000C0F60001FCF7E4FE43F6E85643F6EC5B99
:1074700043F6F05443F6F45843F6F859C2F20006C6
:10748000C2F2000BC2F20004C2F20008C2F200090C
:10749000306028B349F29931C0F600010020FCF7B2
:1074A000C7FECBF80000D8B149F29931C0F600010F
:1074B0000020FCF7BDFE206090B149F29931C0F682
:1074C00000010020FCF7B4FEC8F8000040B149F20A
:1074D0009931C0F600010020FCF7AAFEC9F80000AF
:1074E000A146346849F2004A0027C0F6000A00BFEE
:1074F0005AF807102046FCF775FE18B90C37C02F54
:10750000F6D103E00AEB07008068804743F6F851A4
:107510000020C2F200013060CBF80000C9F8000082
:10752000C8F800000860287001B0BDE8F08F0000C6
:107530002DE9F04743F61014C2F200048146D0F85A
:10754000305494F86901002832D043F60410C2F296
:10755000000005F5807805F58876076843F6086A27
:10756000C2F2000A304641461022CAF80070FCF709
:1075700015FE94F86901002084F8690198F800006C
:1075800001380B285CD8DFE800F0061E24323E15D7
:107590005B5B5B5B414C95F80101022858D00128E8
:1075A0004ED1B87F85F81201787F85F8130142E04B
:1075B000BDE8F08795F80101012841D14FF0FF3077
:1075C000C5F8120137E095F80101012838D11020E3
:1075D0002FE095F8010103284ED0022830D195F80C
:1075E0000201012800F0808050BB00207DE095F86A
:1075F000010102284CD0012822D143F64850C2F2A2
:107600000000807F15E0CAF8007019E095F80101CC
:10761000022815D195F8020138723846FCF7ACFF04
:107620000EE095F80101022856D0012808D194F8FF
:107630006B0185F81201484631461022FEF79CFF87
:107640004846012142461023BDE8F04700F0D9BD6D
:10765000B5F80201FCF778FFDAF80010888001F134
:107660001000FDF707F895F80201DAF800108877A6
:1076700095F803014877E3E795F80201022101EA52
:107680004000F8770020C7E9040001203877D7E7E9
:1076900095F8020143F6485400F5A840C2F20004F0
:1076A000E083FDF76EFC484600F042FAE08B43F6BB
:1076B000CC21C2F20001888143F60C6043F6BC2263
:1076C00043F68C23C2F20000C2F20002C2F20003B1
:1076D000012100F09EFEB3E795F80201FF2806D0D5
:1076E0000328ADD1032003E001207872A8E7FF2032
:1076F00084F86B01A4E700002DE9F04F81B08246C9
:10770000D0F8303443F61010C2F2000090F868113F
:10771000D1B3002290F8681180F868215D78009359
:10772000052D28BF0525402925D125B3009843F60E
:10773000E42B00F58879871C00244FF00208C2F280
:10774000000B00BF58463946FDF70FF998B10646C1
:1077500050465946FDF7D0FC38464946FDF734FA05
:107760000134AC4207D208EB06005FFA80F8B8F1AA
:10777000400F3744E6D3009A50460221402301B01F
:10778000BDE8F04F00F03DBD01B0BDE8F08FF0B5B1
:1077900081B00446D0F8307443F60410C2F2000001
:1077A000066843F61010C2F200000188C9062DD504
:1077B000717A59B3018807F1C00521F010010180E9
:1077C00040F20040C4F20000FFF7E8FBF179327AA2
:1077D0001140F17140F20221C0F2424187F8C50028
:1077E000000AC7F8C010012187F8C6004FF4A07046
:1077F00087F8C410A7F8C700F079294687F8C900B0
:1078000020464022FEF7E2FE0020F07101B0F0BDFC
:10781000FDF73CBFB0B5044644F6FF30C4F20000AB
:107820000D4684424FF0000013DD44F60041C4F2DF
:1078300000018C4219D045F20001C4F200018C42D3
:1078400013D043F60001C4F201018C4210D1032091
:107850000CE044F20041C4F200018C4205D044F631
:107860000001C4F200018C4202D10220FEF7C2FDE9
:1078700000EB5500B0FBF5F080B2A060B0BD10B5D4
:1078800044F6FF31C4F20001884215DD44F60041A0
:10789000C4F2000188421ED045F20001C4F200018A
:1078A00088421BD043F60001C4F20101884218BF90
:1078B00010BD40F20E3416E044F20041C4F2000163
:1078C00088420ED044F60001C4F20001884212D171
:1078D00040F2124407E040F2134404E040F2144442
:1078E00001E040F211442046FEF72CFE2046BDE8A0
:1078F0001040FEF717BE10BDC16841F40051C160D1
:10790000704701F01F0289094FF0010C0B580CFA67
:1079100002F21A430A507047C26822F4C062C26081
:10792000C2681143C1607047C26801F0040122F0CF
:107930000402C260C2681143C1607047026922F448
:10794000405202610269114301617047C26801F04F
:10795000080122F00802C260C2681143C16070478A
:10796000C26822F48052C260C2681143C16070478D
:10797000F0B581B00E46054600200221012A28718B
:1079800069702A7047D140F20047C5F200074FF0F6
:10799000A0424FF48163E87107F58060EA606B8074
:1079A000A5F80510C6E9002006F10C006C21B760AF
:1079B000FCF70DFC07F1400006F17C04B06720469F
:1079C0003C21FCF704FC07F52060C6F8B800E87815
:1079D00070B1EA6806F1240102F53062A2F5007385
:1079E00041F8183C41F8042B013802F12002F5D18E
:1079F000A87870B1EA6802F5A06102F5805200BF74
:107A000044F8401C44F8042B2031013802F5805220
:107A1000F6D1002000E0012001B0F0BDC17949B1EC
:107A200041698968C90705D0D0F8C800016821F00C
:107A3000030101607047000070B5049D0C4601F41D
:107A40007F412868B1F5807FC4F307461FD1816B61
:107A500021F4803181631EB1816B41F48011816317
:107A6000C1684FF6BF72CFF6DF721140C160C168C6
:107A700021F48011C160016941F00101016100BF81
:107A80000169C907FCD1032000F0D6FA1FE0C168E4
:107A900041F04001C160016941F00101016100BF95
:107AA0000169C907FCD1032000F0C6FA2868816B80
:107AB00041F450218163816B41F4001181631EB157
:107AC000816B41F480118163142000F0F5F8E0B27D
:107AD000012808D12868816821F01E018160816831
:107AE00041F02A018160002070BD416B1822C6F26E
:107AF00008020A610279012A18BF704700F21C408F
:107B00004861086840F08020086070470068C268DB
:107B100022F0C042C26029B1012918BF70474FF05E
:107B2000005101E04FF08041C2681143C1607047CD
:107B300010B5012180F8CE1090F803C0BCF1000F01
:107B40000BD00022FF2300BF00EB8204E169646BCD
:107B5000013262458B60A360F6D300F110044069E6
:107B6000002101614161C1614FF0FF318161204617
:107B700000F0B0F820461021BDE8104000F03ABAFD
:107B80002DE9F04381B08146D0F8C8004FF00008DD
:107B9000C0F80080D9F8140009F11005016821F43B
:107BA000C051016001680160016821F003010160BA
:107BB00099F80010012912D10168002741F0030152
:107BC00001602868402133A6416200BF36F81720C3
:107BD000F9B2284600F09AF80137042FF6D128466A
:107BE000102100F007FA284600F074F8D9F81400C4
:107BF0004FF0FF3CC0F81080C0F81480C0F818C0E7
:107C0000C0F81C8099F803200AB309F11C03FF2671
:107C1000002500BF1F6800213C68B4F1FF3F4FF012
:107C2000000402DC3C6844F090443C603961BE6072
:107C30009F693C68B4F1FF3F02DC396841F0904134
:107C4000013A03F1040339603D61BE60E2D101698C
:107C500041F010010161D9F810106FF08040C1F8B7
:107C600004C0486140F60000C8F20000886199F83D
:107C7000040018B9886940F010008861886943F2EF
:107C80000802C0F23C02024300208A6101B0BDE854
:107C9000F08300BF4000400040004000426900EB1C
:107CA00081001369526BC06922FA01F1C901C9B29E
:107CB000806819430840704710B548B1044600BFBA
:107CC0004FF47A7000F0B8F9FEF7AAF9013CF7D149
:107CD00010BD000080B50068102101610169C9066E
:107CE000FCD4032000F0A8F9002080BD033200235B
:107CF000B3EB920F07D0C06F920800BF0368013A40
:107D000041F8043BFAD108467047000010B5D0F89E
:107D100000C0DCF82400D1B1DCF82830B1F1010E4C
:107D200000EB13430CD00021002000BF0CEB8101BD
:107D3000D1F804410130C1B28E4503EB1443F5D8AC
:107D400043EA02400CEB8E01C1F8040110BD40EA89
:107D50000240CCF8280010BD80B581B0002200920E
:107D600091F90020B2F1FF3F02F00F0E08DD00EBA9
:107D70008E02536B0EF1100C012202FA0CF205E098
:107D800000EB8E03DB69012202FA0EF200921A6800
:107D9000120427D4D3F800C04FF60002CFF63342C6
:107DA00002EA0C02BEF1000F1A6002D0B1F804C062
:107DB00009E04269926802F0060C48F63072C0F69B
:107DC000000212F80CC01A6842EA0C021A604978E4
:107DD0001A6842EA8E5242EA814141F0805141F4F0
:107DE0000041196000994269D06901430020D161C6
:107DF00001B080BD91F90020B2F1FF3F02F00F0207
:107E000000EB8200CCBF406BC069026822F4001214
:107E10000260497801F0FE01022903D1016841F0B6
:107E2000805101600020704791F90010B1F1FF3FCF
:107E300001F00F0100EB810202DD526B103100E016
:107E4000D269136823F40043136042690120D369A7
:107E5000884023EA00010020D161704770B582B0EC
:107E60000A7800F1100C02F00F020CEB8203DB68C1
:107E70001D6801951D690095009D05F06045009500
:107E8000D1F80CE0BEF1000F0AD0BAB18C880EEB2D
:107E90000405013DB5FBF4F4009D45EAC44416E039
:107EA000009D4FF0000E45F4002500954C78009D94
:107EB000012C4FF000041D6117D024E08C88A645EA
:107EC00028BFA646C1F80CE0009C44F400240094AE
:107ED000009C44EA0E0400944D78009C012D10D1C2
:107EE00044F000540094009C1C614469A568019C06
:107EF000ED0554BF44F0005444F080540194012433
:107F000001E01C6100240579012D08D188695861C0
:107F1000019840F0044001900198186019E0019E1A
:107F200046F004460196019E1E6095B9019D1D60B4
:107F300034B189681FFA8EF3604600F069F808E0F2
:107F4000BEF1000F05D040690121436B91401943F8
:107F50004163002002B070BD10B50A7812F00F0224
:107F600000EB8202526BD2F800C014698B8804F0D7
:107F7000604E0BD0CC684CB11C44013CB4FBF3F414
:107F80004EEAC44E634343EA0E0303E043EA0E03A2
:107F900043F4002313610079012804BF886950610C
:107FA0004878012806D1C87800280CBF4CF0805CC6
:107FB0004CF0005C4CF004410020116010BD91F9C0
:107FC0000010B1F1FF3F01F00F0100EB810001DD76
:107FD000416B08E0C1690868B0F1FF3F03DC086845
:107FE00040F080400860086840F4001200200A60F9
:107FF0007047000080B5890100682031016100BF31
:1080000001698906FCD4032000F016F8002080BD29
:1080100003F1030C0023B3EB9C0F0AD000EB8200AA
:10802000C06F4FEA9C0200BF51F8043B013A036065
:10803000FAD1002070470000B0B542F60045C4F206
:108040000105044628460021FEF7AAFF2846FEF750
:10805000A5FFA042FAD3B0BDD0F82C044178FF2987
:108060001CBFFF2141700020704710B582210446DB
:1080700000F0B0F82046022100F0ACF82046812143
:1080800000F0A8F82046012100F0A4F8002010BD5F
:1080900010B5012911D0022924D1C1EBC10100EB97
:1080A0008102D2F8DC10F9B1B2F8D420B1FBF2F3BE
:1080B00003FB1211C1B902210EE0C1EBC10100EBBB
:1080C0008102D2F8DC10B9B1B2F8D420B1FBF2F3DE
:1080D00003FB121181B9012100220023002400F0CA
:1080E000AAF810E002240EE043F61010C2F20000DD
:1080F000002480F8654106E043F61010C2F200004B
:10810000002480F86641204610BDB0B549F2C04554
:10811000C0F6000505F12001044600F0A5F805F1C0
:108120002701204600F0A0F805F11201204600F0DA
:108130009BF805F11901204600F096F844F2482515
:10814000C2F2000505F58072204601211023C4F813
:10815000305400F056F8204602212A46402300F011
:1081600050F80020B0BD01290CD002291CBF02200C
:108170007047D0F8BC0243F61011C2F2000181F83A
:10818000680107E0D0F8A00243F61011C2F2000126
:1081900081F86901002070470020704790F8CE20D8
:1081A000032A03D18A8812F0FE0F01D00120704704
:1081B000D0F82C24D268104710B58021044600F076
:1081C0008BF82046002100F087F82046BDE81040DB
:1081D000FFF78BBC4AB2B2F1FF3F06DDC1EBC10134
:1081E00000EB810101F51D7106E001F07F01C1EB9B
:1081F000C10100EB8101D03180B5FFF715FE0020F1
:1082000080BD80B501F07F01C1EBC10100EB8101B0
:10821000C1F8803203794FF0000CC1F87C22012BA9
:10822000C1F884C208BFC1F88C2201F51D71FFF7A7
:1082300093FE002080BD80B501F07F01C1EBC1013C
:1082400000EB8101C1F8DC3003794FF0000CC1F87C
:10825000D820012BC1F8E0C008BFC1F8E820D03118
:10826000FFF7FCFD002080BD10B58A78B1F804C08E
:108270004FFA82FEBEF1FF3F0CDDC2EBC20200EB03
:10828000820494F8743204F51D7203F07F0384F8BD
:1082900074320AE00EF07F02C2EBC20200EB8202EF
:1082A00012F8D03F63F07F0313700EF00F0403F059
:1082B000F00323441370C97848F63C7301F00301BE
:1082C000C0F6000353F82110A2F804C05170114603
:1082D000FFF742FD002010BD4AB2B2F1FF3F06DDBC
:1082E000C1EBC10100EB810101F51D7106E001F058
:1082F0007F01C1EBC10100EB8101D03180B50122CA
:108300008A70FFF75CFE002080BD4AB2B2F1FF3FE9
:1083100006DDC1EBC10100EB810101F51D7106E035
:1083200001F07F01C1EBC10100EB8101D03180B5CB
:1083300000228A70FFF75EFD002080BD80B54AB242
:10834000B2F1FF3F00F1100002DDFFF7C3FC03E0D4
:1083500001F07F01FFF74EFE002080BDB0B504465E
:1083600059B194F8CE00032851D1D4F82C04C26935
:10837000002A4CD02046904749E094F82404022873
:108380001FD0012843D1B4F8D400D4F8E410D4F8B5
:10839000D8200B1A2179C4F8E430012904BF024423
:1083A000C4F8D82020460021FFF745FFD4F8E400A8
:1083B000B4F8D4100222884288BF012284F8242411
:1083C00025E094F8250448B120460021002200232E
:1083D0000025FFF730FF84F8255418E094F8CE000C
:1083E000032805D1D4F82C04416909B120468847F7
:1083F0000020C4F8E400062084F82404204600216C
:1084000000220023FFF7FDFE2046FFF76EFB002051
:10841000B0BDB0B582B08C4600F11005C0F828247C
:10842000294662460446C0F82C34FFF7A1FA2069B9
:10843000816821F00101816094E80F000095FFF749
:10844000FBFA6069416841F0020141600320FFF7D7
:1084500033FC28460021FFF759FB2046FFF790FB2D
:10846000D4E90401826842F001028260486820F089
:10847000020048600320FFF71FFC012084F8CE00B3
:1084800002B0B0BD2DE9F04F89B0044600694169E2
:10849000C90740F0168241698069084000F01182E6
:1084A000009000034FD560698169C0690840C0F33E
:1084B0000545002D47D004F521764FF0000B4FF015
:1084C00008094FF0010A0027E80733D004EB8708BA
:1084D000D8F834008168626952691140089108999E
:1084E000C9071DD0C0F808A02179012908D1006969
:1084F000069036F80C0C06996FF3DF41401A306095
:10850000F9B2204600F0E0F957B92079012807D1E7
:1085100094F82404062803D12046FFF7E6FA00BFAA
:108520000898000706D5204600F01CFAD8F8340059
:10853000C0F80890BBEB550F4FEA550507F101074E
:1085400006F11C06C0D10098400340F19580606997
:108550008169C069084010F03F0700F08D8004F188
:10856000100000254FF0000A03900294F8077BD01A
:108570005FFA8AF120460591FFF790FB0890089872
:10858000C00715D004EB8A00C069012181600599FC
:108590002046FFF7E3FEBAF1000F09D12079012848
:1085A00006D194F82404052802D12046FFF79DFA4D
:1085B0000898000658D5CAEBCA0004EB800CE046C8
:1085C00038F8D43F04EB8A01C646C3465EF8080F6C
:1085D0005BF80C2F51F81C5F861A9E4288BF1E461E
:1085E000AC690336A4B2B4EB960F28BF904237D9DA
:1085F0000C460CF1D809012101FA0AF6D9F800104D
:10860000F643CDF810E0019601E0B8F80030861A84
:1086100098B2864288BF06460398059AB3B2FFF720
:10862000F7FCD9F80000DBF80020811904983244E7
:108630000068C9F800108242CBF8002007D1029BE5
:10864000A4465B695D6B019C254064465D632568BB
:108650000336AB699BB2B3EB960F28BF9042D4D8D8
:108660008020A860029C0025B5EB570F4FEA570702
:108670000AF1010A7FF47AAF009E30052ED5E07929
:108680008DF820006069806800F001008DF8180006
:1086900094F8CE000338B0FA80F040098DF81F003E
:1086A00094F8CE0084F8CF00042084F8CE009DF822
:1086B000200078B19DF8180060B19DF81F0048B106
:1086C000D4F8C800016841F00301016001200021D5
:1086D000FDF72EFE20694FF400614161B6F1FF3FC6
:1086E00006DC032084F8CE0020694FF00041416190
:1086F000300708D5D4F82C04416A09B120468847D0
:10870000206908214161F0064CD5002008902546DB
:1087100055F8100F816921F010018161006A0890FD
:108720000898089B0899089A00F00F00C2F343428A
:10873000062AC3F30A1717D0022A2ED16FB3C0EB53
:10874000C00004EB8008D8F87C1228463A46FFF7B0
:10875000CDFAD8F87C02D8F884123844C8F87C02E4
:10876000C819C8F8840218E011F4C03F15D1082FC9
:1087700001BFC0EBC00004EB800797F8740210F053
:108780000F000AD104F21C4128460822FFF7AEFA76
:10879000D7F884020830C7F884022868816941F05C
:1087A00010018161F00451D5616904F110004A683B
:1087B0004FF0000822F001024A600021FFF71AFC86
:1087C000E07850B10021FF2204EB8103DF695B6B8D
:1087D00001318142BA609A60F6D360694FF0FF318F
:1087E00081614FF00111C1610921012741610761D8
:1087F000016821F4FE6101602046FFF776F92069E7
:108800004FF4805141614020A4F8780204F27A20AC
:10881000162104F51D75C4F87482FBF7D8FC2046B8
:108820002946FFF799FA8020254625F8D00F4FF406
:108830008000C4F8D20004F1D6001621FBF7C7FC73
:1088400020462946FFF788FA84F8CE70B00420D578
:10885000D4E904108268436823F48073436043685A
:1088600043F480734360C868022320F47050C860EA
:1088700012F00600C8684FF4A05208BF4FF410521F
:1088800040EA020008BF0323C8604FF40050637041
:108890004861F00209D5D4F82C04816A09B1204658
:1088A000884720694FF480114161B00209D5D4F89E
:1088B0002C04C16A09B12046884720694FF4001191
:1088C000416109B0BDE8F08F10B5044659B1D4F844
:1088D0002C04026A002A43D094F8CE0003283FD12A
:1088E000204690473CE094F8240404281FD0032835
:1088F00036D1B4F87802D4F88812D4F87C220B1A56
:108900002179C4F88832012904BF0244C4F87C22CA
:1089100020460021FFF775FCD4F88802B4F87812DD
:108920000422884288BF032284F8242418E094F8A3
:10893000CE00032805D1D4F82C04816909B1204662
:1089400088470020C4F88802052084F824042046C3
:10895000002100220023FFF76EFC2046FFF7C5F838
:10896000002010BD10B582B00446D0F82004D4F821
:108970001C14019001F060004028009107D02028CD
:108980000AD070B96946204600F04CF808E0694604
:10899000204600F067F803E069462046FFF7FEFB3B
:1089A00030B169462046FFF707FC002002B010BD39
:1089B000BDF80600A8B19DF90000B0F1FF3F1DDD34
:1089C000D4F87C22D4F8883220460021FFF719FC25
:1089D000D4F88802B4F878120422884288BF0322AF
:1089E0001CE0052084F824042046002100220023F6
:1089F000FFF721FC2046FFF778F8D6E7D4F8D82017
:108A0000D4F8E43020460021FFF715FCD4F8E40048
:108A1000B4F8D4100222884288BF012284F82424AA
:108A2000C3E700004A7802A353F82220104700BF92
:108A300069590008F5570008095A0008DF5A00086C
:108A4000095A00080D5A000885580008DB5A00082A
:108A5000595800084D5A00083B590008315B00087E
:108A6000555B0008498809B10120704749F21E6131
:108A7000C0F60001C0F8D8101021C0F8E4100020A2
:108A8000704783B080B581B00DF10C0C8CE80E00FE
:108A900003A9009100F038F801B0BDE8804003B0B0
:108AA0007047B0B543F6D45504460A28C2F2000513
:108AB0000DD1286818B10D2100F8011B09E044F21E
:108AC0007430C2F20000016889B10D20884728681F
:108AD00018B1411C29600470B0BD44F27430C2F278
:108AE0000000016819B12046BDE8B0400847B0BD9C
:108AF00010B5017839B1441CC8B2FFF7D2FF14F8A1
:108B0000011B0029F8D110BD2DE9F04F85B001AC53
:108B10000E460546A4F101092A4615F8010B252841
:108B200002D0002847D11BE15078302803D02D28EF
:108B300005D1022100E001219078D51C01E0951CAF
:108B40000021A0F13002D2B24FF0000A092A0DD85C
:108B50000AEB8A02520052FA80F215F8010BA2F1D8
:108B6000300AA0F13003DBB20A2BF1D340F020022F
:108B70006C2A04BF15F8010B0431002800F0F080C6
:108B80000246602888BF203AD3B24E2B0CDDA3F1F9
:108B90004F02092A0FD8DFE802F0050E0E0E150E5F
:108BA000110E0E13082260E0422B5DD0432B00F023
:108BB000CF80442B02D0FFF774FFADE70A2254E0C8
:108BC000102252E000963668002200BF1046B25CC8
:108BD000002A00F10102F9D143F6D4548907A2F129
:108BE0000108C2F200041CD4D04598BFD04608F159
:108BF000010816D20146824588BF51460F1A20222D
:108C0000206818B1411C2160027008E044F2743001
:108C1000C2F20000016811B1202088472022013FE4
:108C2000EED1307838B10136C0B2FFF73AFF16F80E
:108C3000010B0028F8D1D0454FF0200280F08C8045
:108C4000AAEB0806206818B1411C2160027008E0F8
:108C500044F27430C2F20000016811B1202088474C
:108C60002022013EEED177E002223768443B009695
:108C700018BF0123B7F1FF3F4FF00006C8BF012620
:108C800053EA060C4FF0000808BF7F4278284FF0E7
:108C9000070008BF272000BFB7FBF2F606FB1273E0
:108CA000092B88BF0344303304F80830B8F10E0FA5
:108CB00008F1010802D8BA423746EDD9BCF1000FDD
:108CC00008BF0831080742BF2D2004F8080008F14A
:108CD000010843F6D454C8074FF03006C2F200042E
:108CE00008BF20268807C34610D4C245404688BF27
:108CF0005046D04500F1010B08D2A0EB080700BF99
:108D00003046FFF7CEFE013FFAD100BF19F8080048
:108D1000A8F10108FFF7C5FEB8F1000FF6D1D34561
:108D20004FF0200218D2AAEB0B0600BF206818B142
:108D3000411C2160027008E044F27430C2F200006D
:108D4000016811B1202088472022013EEED103E0C6
:108D500030780096FFF7A5FE009E01AC0436DBE6F6
:108D600005B0BDE8F08F0000004870470400002007
:108D700002E008C8121F08C1002AFAD170477047E4
:108D8000002001E001C1121F002AFBD17047004002
:108D900040404040404040404141414141404040CE
:108DA00040404040404040404040404040404005FE
:108DB0000202020202020202020202020202022075
:108DC0002020202020202020200202020202020275
:108DD0009090909090901010101010101010101093
:108DE00010101010101010101010020202020202D7
:108DF00088888888888808080808080808080808F3
:108E000008080808080808080808020202024000CA
:108E10008F8D0008000702000300E8030004010032
:108E20000500840300050100050020030005010082
:108E300006009A0200060100060058020003000026
:108E40000C00F401000D0200050090010006010075
:108E50000C002C01000300001800FA0000080100BB
:108E60000F00C80000060100180096000003000073
:108E700030007D00000801001E00640000050100B4
:108E80002A005F00000C010019005A0000080100D0
:108E900024005300000300004B00500000060100B6
:108EA0003C003C00000801003C003200000A0100C8
:108EB00036002F0000030000960028000005010086
:108EC000780021000006010078001E000003000069
:108ED0002C0114000003000058020A0000070100E2
:108EE000580205001400E80316002003B6809A0219
:108EF0001C00F401FA8090011C01FA00FA81C800FC
:108F00001C037D002F4364004EC35F002B8553007C
:108F1000FF8350002F47320014142F00FF872800D2
:108F20002F8B21002F7314002F670A007F7F05000D
:108F30000000030000000000010203040000000024
:108F40000100000002000000030000003203500096
:108F5000450041004B002D00530079007300740060
:108F600065006D00200054006500630068006E001D
:108F700069006B00200047006D006200480000009F
:108F800000000000000000000000000000000000E1
:108F900000000000000000000000000000000000D1
:108FA00000000000000000000000000000000000C1
:108FB00000000000000000000000000000000000B1
:108FC0000000000000000000000000000000822BF4
:108FD00012035000430041004E002D005500530085
:108FE000420000000000000000000000000000003F
:108FF0000000000000000000000000000000000071
:109000000000000000000000000000000000000060
:109010000000000000000000000000000000000050
:109020000000000000000000000000000000000040
:109030000000000000000000000000000000000030
:109040000000000000000000000000000000000020
:1090500000003031323334353637383941424344F9
:109060004546002042616420416464726573732147
:109070000A006D656D637263205B686578206164CA
:1090800064725D205B686578206C656E5D20536856
:109090006F77204D656D6F7279204352432E0A0021
:1090A000656570726F6D205B6C6F61647C73617657
:1090B000657C726561647C77726974655D205B6153
:1090C0006464725D205B646174615D204F706572E1
:1090D00061746520496E742E20454550524F4D2EC7
:1090E0000A00646973706C61792053572076657249
:1090F00073696F6E20616E6420534E2E0A0065788E
:1091000074205B68657849445D205B6865784441FC
:1091100054417C72656D6F74655D2053656E64208B
:10912000657874656E64656420646174612F72652E
:109130006D6F7465206D6573736167652E0A0073CA
:109140007464205B68657849445D205B6865784499
:109150004154417C72656D6F74655D2053656E642A
:10916000207374616E6461726420646174612F7233
:10917000656D6F7465206D6573736167652E0A0098
:109180006374726C205B6563686F7C6C6576656C7C
:109190007C746573747C6C65647C74696D655D203A
:1091A0005B706172616D5D20446576696365204323
:1091B00074726C2E0A007265626F6F74205B646556
:1091C0006C6179206D735D205265737461727420D7
:1091D00073797374656D2E0A0068656C7020496E32
:1091E000666F2E0A00696E666F205B7379737C630D
:1091F0006C6561727C636C6B5D2053686F772F5375
:10920000657420496E666F2E0A0066696C7465721B
:10921000205B302D375D205B6D6F64657C7363610F
:109220006C657C6163747C72307C72315D205B7034
:109230006172616D5D2043414E2066696C74657298
:109240002073657475702E0A0063616E205B626125
:1092500075647C6D6F64657C73706565647C636C3C
:109260006561725D2043414E20706F72742073659A
:109270007475702E0A0075617274205B626175648A
:109280007C6D6F64657C616464725D2055415254ED
:1092900020706F72742073657475702E0A00656E8D
:1092A00076205B63687C73686F777C6164647C6341
:1092B0006E747C7072645D205365742F53686F7791
:1092C00020656E7669726F6E6D656E742076617260
:1092D0006961626C65732E0A00706172616D205B5A
:1092E0006C6F61647C736176657C726573746F7298
:1092F000655D204F70657261746520706172616D8B
:1093000065746572732E0A006C6564205B307C3175
:109310005D20636F6E74726F6C20746865206C657D
:109320006420646973706C61792E0A006D656D72DA
:1093300064205B68657820616464725D205B6865A9
:1093400078206C656E5D2053686F77204D656D6F7A
:1093500072792E0A00204543484F3D256420534F23
:1093600046543D2564204C4556454C3D25642043DC
:1093700048414E3D25642054494D453D256C6420AF
:1093800044454C4159303D25642044454C415931B8
:109390003D25640A002530325820006D656D6372EA
:1093A00063006C6F6164006C6564006D656D726470
:1093B000007374640073617665006374726C00708E
:1093C0006172616D00656570726F6D0063616E0042
:1093D00076657273696F6E00696E666F0068656CA2
:1093E000700066696C746572007265626F6F7400FC
:1093F000756172740065787400656E760000000017
:10940000CC9300084992000821660008B193000837
:109410003F910008F96E0008F5930008FE900008DF
:10942000776B0008F99300089E920008756B00089E
:10943000F093000876920008FB6E0008E2930008A3
:109440000A920008796B0008BF930008D9920008BF
:10945000DD6D0008E9930008B6910008BD6E0008B4
:10946000DD930008D99100087D6B0008D0930008B7
:10947000E2900008FD6E0008C5930008A090000867
:10948000A5690008D8930008E5910008AD6B0008B5
:10949000BA9300088091000825660008A793000889
:1094A00008930008616C0008AB9300082C93000837
:1094B000296D00089B93000872900008A16C0008B9
:1094C00009022E000101008064090400000400006C
:1094D00000000705810210000007050102100000CE
:1094E000070582024000000705020240000000005C
:1094F0001A9600081C9500081C9500081C95000889
:10950000D08F00081C9500081C9500081C950008C9
:109510001C9500081C9500084C8F0008FE030000F5
:10952000000000000000000000000000000000003B
:10953000000000000000000000000000000000002B
:10954000000000000000000000000000000000001B
:10955000000000000000000000000000000000000B
:1095600000000000000000000000000000000000FB
:1095700000000000000000000000000000000000EB
:1095800000000000000000000000000000000000DB
:1095900000000000000000000000000000000000CB
:1095A00000000000000000000000000000000000BB
:1095B00000000000000000000000000000000000AB
:1095C000000000000000000000000000000000009B
:1095D000000000000000000000000000000000008B
:1095E000000000000000000000000000000000007B
:1095F000000000000000000000000000000000006B
:10960000000000000000000000000000000000005A
:109610000000000000000000000004030904000036
:109620000804000807000402E00701000000000031
:109630005096000800000020E03A00003444000882
:1096400040970008E03A0020980C0000808D000848
:10965000A198A24A0400640040328C02322094682F
:1096600000400555C81C002032C83320C802FF2026
:1096700001FF01FF01FF01FF01FF01FF01FF01FFEA
:1096800001FF01FF01FF01FF01FF01FF01FF01FFDA
:1096900001FF01FF01FF01FF01FF01FF01FF01FFCA
:1096A00001FF01FF01FF016D09FF041D0020041DE2
:1096B000002001FF01FF01FF01FF01FF01FF01FF8A
:1096C00001FF01FF01FF01FF01FF01FF01FF01FF9A
:1096D00001FF01FF01FF01FF01FF01FF01FF01FF8A
:1096E00001FF01FF01FF01FF0149320C33204C064D
:1096F000FF20529000080143420102200102180598
:1097000042FF9D0B8100086B80000899810008DDF5
:1097100059800008918000086781000859CC3A0000
:1097200020C094000849F0940008120100013C4058
:10973000720C0C00FF540A0400010000000000003D
:04000005080041515D
:00000001FF
