:020000040800F2
:10400000A04100206541000871520008CD50000811
:10401000FD5100087D4400082964000800000000EC
:10402000000000000000000000000000A95500088A
:104030000F4D000800000000A9520008C95E0008EA
:104040007F4100087F4100087F4100087F41000850
:104050007F4100087F4100087F4100087F41000840
:104060007F4100087F4100087F4100087F41000830
:104070007F4100087F4100087F4100087F41000820
:104080007F4100087F4100087F4100087F41000810
:104090007F4400087F4100087F4100087F410008FD
:1040A0007F410008EF6100087F4100087F41000860
:1040B0007F4100087F4100087F4100087F410008E0
:1040C0007F4100087F4100087F4100087F410008D0
:1040D0007F410008C16200087F4100087F4100085D
:1040E0007F4100087F410008CB6300087F41000842
:1040F0007F4100087F4100087F410008FFFFFFFF6C
:104100007F410008000000007F4100087F41000857
:104110007F4100087F4100087F4100087F4100087F
:104120007F4100087F4100087F4100087F4100086F
:104130007F41000800000000000000007F410008EF
:10414000A14400087F4100087F410008BF630008C8
:10415000DFF80CD000F054F900480047B16E0008B9
:10416000A04100200648804706480047FEE7FEE7DA
:10417000FEE7FEE7FEE7FEE7FEE7FEE7FEE7FEE717
:10418000CD5E000851410008004870478CAF000820
:10419000A0F16101192900D820387047A0F1410130
:1041A000192900D82030704740EA01039B0703D04B
:1041B00009E008C9121F08C0042AFAD203E011F866
:1041C000013B00F8013B521EF9D27047D2B201E028
:1041D00000F8012B491EFBD270470022F6E710B50C
:1041E00013460A4604461946FFF7F0FF204610BD65
:1041F00030B505462A460B4612F8010B13F8014B61
:1042000008B1A042F8D01CB1002802D06D1CF1E723
:10421000284630BD10B5044604E00B7800F8013B99
:1042200003B1491C521EF8D2204610BD421C10F8A2
:10423000011B0029FBD1801A7047000070B50F4D9B
:1042400000B92868002412E00A4602E09E4203D02A
:10425000521C1378002BF9D1DAB2224305D02BB1CE
:1042600024B1002100F8011B04E00446401C06783C
:10427000002EE9D12860204670BD0000000000201B
:104280002DE9F04791460F4680460446002614F873
:10429000015B2DB1FFF778FF0068405DC007F6D1E4
:1042A0002B2D02D02D2D18D0641E4A4639462046AB
:1042B00000F057F827B13968A14201D1C7F8008052
:1042C00071054FF002040BD54042002803DD06F0D3
:1042D00009FE0460A007BDE8F08746F48066E4E7C5
:1042E0000028F8DA06F0FEFD04606FF00040F2E707
:1042F0002DE9F05F93460F4680460446002606F0FF
:10430000F1FDD0F80090824614F8015B2DB1FFF763
:104310003BFF0068405DC007F6D12B2D02D02D2D4C
:104320001AD0641E0021CAF800105A4639462046A9
:1043300000F017F8014627B13868A04201D1C7F84C
:104340000080DAF80000022809D0CAF80090700551
:1043500005D54842BDE8F09F46F48066E2E708468E
:10436000F8E72DE9F05F82460078002715468B4676
:104370000AF10104B946302801D09DB113E014F8C8
:10438000010B0127782803D0582801D045B10AE055
:104390000DB1102D07D10027102514F8010B02E0F4
:1043A000082500E00A250026B0460EE005FB0800BF
:1043B00005FB06F1012701EB10461FFA80F8B6F560
:1043C000803F00D3B94614F8010B294600F02AF8C3
:1043D0000028EBDABBF1000F05D00FB1641E00E03E
:1043E0005446CBF80040B9F1000F06D006F07AFD34
:1043F00002210160C81EBDE8F09F48EA0640FAE7C6
:10440000064C074D06E0E06840F0010394E8070021
:1044100098471034AC42F6D3FFF79EFED8B9000897
:10442000F8B900083A2800D2303820F02002412A9A
:1044300001D3A2F13700884201D34FF0FF3070471B
:1044400030B58C1810F8012B12F00F0301D110F8C1
:10445000013B120906D110F8012B03E010F8015BB3
:1044600001F8015B5B1EF9D101E001F8013B521E2E
:10447000FBD1A142E6D3002030BD0000FEE780B5AD
:1044800046F20040C4F200004CF2810102F04FFB02
:10449000012818BF80BD0020BDE8804000F00ABBA5
:1044A00080B546F60000C4F200004CF2810102F033
:1044B0003EFB012818BF80BD0120BDE8804000F010
:1044C000F9BA000002290BD0012911D0B9B98168CD
:1044D00041F08001816000BF81680906FCD40EE0D4
:1044E000816841F40001816081680902FCD406E022
:1044F000816841F40041816081680904FCD47047FF
:104500002DE9F04381B000F0010643F23C20C2F2F5
:10451000000050F82650286802F0E1F905F1200467
:10452000002021464FF0000802F030FB4FF0012040
:1045300068624FF48070288543F24820C2F2000080
:1045400000EB46000189C1F3011185F82010808934
:1045500000F01F01204600F031FA2868214602F0E1
:104560002FFA43F2BC6705F12C04C2F200074FF0AA
:1045700001090026EE86B88A09FA06F1084018BF3C
:104580000120FA8A288711EA020018BF01206887F3
:1045900007EBC600028CAA85428C3B8BEA85828C95
:1045A00019402A8618BF0121C08C85F83C10688606
:1045B0002046A5F8348002F0A9F90136082ED9D199
:1045C000042002F075F92868022101B0BDE8F0432B
:1045D00002F0A9BA10B543F23C24C2F200042068EC
:1045E000006802F07CF960680068BDE8104002F0E5
:1045F00076B910B50446006802F071F9206802210E
:10460000BDE8104002F08ABA03288FBF02A000B2B2
:1046100003A151F820007047556E6B6E6F776E00E6
:1046200059B2000850B2000860B2000849B2000850
:1046300080B50F294FF000025BD843F23C2300F015
:104640000100C2F2000353F820000068DFE801F027
:104650000851185151512D36515151513A2B464A5A
:104660000168C2690423920F42EAC101C26900686D
:1046700001F0120103EA1272114400F0010010E08F
:10468000D0F804C04268402303EA42124368202164
:10469000406801EAD301102342EACC1203EA501029
:1046A00011440A1825E0602223E0C169C069C022D4
:1046B00001F03F0102EA904042181AE0C069C0F3DD
:1046C000064216E002F01EF9011F02290ED301284E
:1046D0000ED0022814BFC02240220AE0BDE880406C
:1046E00002F050BABDE8804002F087BA002200E034
:1046F0008022D0B280BD00004AF690720021C0F640
:10470000000200BF02EBC103DB88834204D0013109
:104710001629F7D1052102E0162928BF052102EB51
:10472000C100C08840EA014070472DE9F04100F126
:104730002006044600203146002702F027FA04F143
:104740002C05012029464FF0010802F01FFAE07FF6
:1047500084F820004FF4807060622085A07F617F24
:10476000C0F3021200F00F0084F8232084F8220026
:10477000880984F8210001F03F0000EB4000062189
:1047800001EB400120686185314602F019F984F897
:104790003C802787207F21690128A78613D1022228
:1047A00021F0070002EA5103676903444FF6F870ED
:1047B000090C384002EA5702A185390C1044E38500
:1047C000218601210CE060690A0CA285E1856FF069
:1047D0000F0101EA104121864FF6F07108400021D7
:1047E00040F24C02C2F200026086002061879442CF
:1047F00008BF0E20E086284602F088F820680221D3
:1048000002F091F90E20BDE8F04102F051B8F0B588
:1048100081B043F23C2201F00101C2F2000252F8E1
:10482000217043F24826C2F20006FC6896F8651132
:1048300041B1D6F83C0133284FF0000028BF86F87C
:10484000650155E00146D4F8D40001282ADB204652
:1048500001F09AF80546012086F865010020C6F8A7
:104860003C01D4F8C40005EB450100EBC10104F59F
:10487000C650814288BFA1F5C0513868C4F8C41041
:10488000022102F04BF9D4F8D4000221401BC4F8F5
:10489000D400386802F047F9D4F8C8002844C4F8B6
:1048A000C80023E094F9240001281FDB94F8BE001F
:1048B000132210FB0240132300F125020846822137
:1048C00005F075FD012086F865010020C6F83C0161
:1048D00094F8BE00411CCAB2072A88BFC11F84F8E1
:1048E000BE1094F82400013884F82400D4F8C800DD
:1048F00001B0F0BD80B500EB011EDEF8B0C11CF0C8
:1049000004031372DEF8B0C119BF4FEADC03536031
:104910004FEA5C531360DEF8B03103F002035372C8
:10492000DEF8B4314FEA13231375DEF8B43103F027
:104930000F03D372DEF8B8311373DEF8B8314FEAE3
:1049400013235373DEF8B8314FEA13439373DEF841
:10495000B8314FEA1363D373DEF8BC311374DEF859
:10496000BC314FEA13235374DEF8BC314FEA1343D2
:104970009374DEF8BC314FEA1363D37421B101297B
:1049800018BF80BD102100E00C210A5842F020021F
:104990000A5080BD10467047C1F3021301F00F01A9
:1049A000C3708170D1B28909417002F03F0101EBFF
:1049B0004101062202EB41014181704715294AF667
:1049C000907C88BF0521C0F6000C48B13CF831301E
:1049D0000CEBC102A0F8013093789288C370428139
:1049E0000CEBC100C08840EA0140704780B5826886
:1049F00052015CBF032080BDD0F8802102F001028B
:104A0000C0F880210A7A1AB14B6842EAC30C02E06E
:104A10000A684FEA425C4B7A91F80DE0D0F88021A9
:104A200043EA0C031A43C0F88021D0F8842122F015
:104A30000F02C0F88421D0F8842142EA0E02C0F8A7
:104A40008421D1F80E20C0F88821D1F81210C0F8C6
:104A50008C11D0F8801141F00101C0F880110020C4
:104A600080BD02290BD0012912D0B1B98168C907D4
:104A700011D0816889071BD48068400714E08168E1
:104A8000C90308D58168890312D4806840030BE00C
:104A90008168C90503D402207047002070478168EF
:104AA000890505D480684005032101EAE07070475C
:104AB000012070472DE9F04F81B043F23C2183463D
:104AC00000F00100C2F2000151F820502868EE68A1
:104AD000014651F80C2F920746D043F24822C2F209
:104AE000000202EB8B0303F5B8770BEB0B1302EB21
:104AF000C30206F1D00806F5C65906F1CC0A02F148
:104B0000100400BFD6F8D420FF2A19DCD6F8C02044
:104B10000021FFF7EFFED6F8C000D6F8D41000F160
:104B2000180280F80AB04A4541F2E87388BFC21AF9
:104B3000481CC6F8C020C6F8D400504605E000BFA7
:104B4000086840F0200008604046016801310160BB
:104B500038680130386020680130206028680146DC
:104B600051F80C2F9207CDD101B0BDE8F08F80B580
:104B700040F2045002F073FB40F2025002F06FFB6F
:104B80004FF4C06002F05CFB40F2026002F058FBA0
:104B900040F2036002F054FB40F2046002F050FB6C
:104BA00040F21C7002F04CFB40F20C5002F048FB4B
:104BB00040F2197002F044FB40F21A7002F040FB20
:104BC00040F20E6002F03CFB4FF4E06002F038FB74
:104BD00040F2017002F034FB43F69851C2F200013A
:104BE0004FF440024FF440000A60BDE8804002F0FC
:104BF00064BB80B584B036228DF80020026843681B
:104C00008068CDF80120AA228DF805202522CDF854
:104C100006308DF80A20CDF80B009B208DF80F0090
:104C2000684601F0D5F99DE80F00484050405840D3
:104C300004B080BDB0B500F0010443F23C20C2F2E4
:104C4000000050F824002146C5680020C5E9330063
:104C5000C5E900000BA005F0CBFFD5E933234BF2EB
:104C60007770C0F60000214605F0C2FFD5E90023A9
:104C70004BF28E70C0F600002146BDE8B04005F052
:104C8000B7BF00BF204348256420436C6561722094
:104C900052582F545820436F756E746572732E0AE4
:104CA0000000000070B50446C0680D46017AA87A7D
:104CB000814201D1A17949B3032817D8DFE800F078
:104CC00002020C0CE17F002084F82700881EB0FA55
:104CD00080F04009400007E0002084F82700E17FD1
:104CE0000120022908BF032084F82000627FA17FF1
:104CF00004F120063046FFF74FFE2068314601F0F0
:104D00005FFEA87AE16808720020A07170BD70474C
:104D1000D1F8073002465809DB08C2E90003487998
:104D200004239072487900F00100D072887903EA78
:104D3000501010728879022303EA5010507288795B
:104D4000C0F300101073887900F00F005073D1F891
:104D50000F00D1F80B10C2F812001320C2F80E1089
:104D60007047000043F24821C2F20001D1F824212B
:104D7000D1F824319B1A834228BF704700BFF7E760
:104D800070B543F60045C0F600054FF6FF76A81C47
:104D90000021802202F4607330F8024C2B431B8800
:104DA0000CB9B34215D001318030082902F18002DC
:104DB000F0D143F23C74C2F200040020208001F0E4
:104DC00069FF208805EBC01001F02AFF01F01FFFEA
:104DD00005E043F23C72C2F20002118006883046C0
:104DE00070BD000080B543F23C70C2F20000018843
:104DF00043F6024CC0F6000C01F0070202804FEAB5
:104E0000C21E4CEAC21043F2BC62831C0020C2F2F4
:104E1000000200BF195A115202307C28FAD14EEA22
:104E20000C000088A2F87C0080BD43F2BC62C0B2D6
:104E3000C2F2000232F81000088070472DE9F041FC
:104E400043F23C76C2F20006308843F2BC6400F0C4
:104E50000700C2F2000443F60048308020463E219D
:104E6000C0F6000800F0E8F9054601F013FF3188AC
:104E70004FF48072481C00F0070002EBC111308033
:104E800001F4607131F808204FF6FF739A4204D0A4
:104E900041EA080001F0C4FE308808EBC010290484
:104EA00001F00BFF002700BF308808EB470101EB42
:104EB000C01054F81710043001F0FFFEB91C8FB277
:104EC0003E2FF1D3054601F0A2FE2846BDE8F08151
:104ED00043F2BC63C2B2C2F20003084623F81210C8
:104EE0007047704743F24822C2F20002D2F82821EC
:104EF000130A0A704B70130C120E8B70CA700022CA
:104F00008A80C27A8A71837A03F0010342EA03122B
:104F10008A71437A022B04BF42F040028A71037AFD
:104F2000042B05D142F080028A71031D032201E0A7
:104F3000052203461B6803FA02F2C1F80720D0E9F4
:104F400003321320C1F80F20C1F80B307047B0B501
:104F50000C4643F24821C2F20001D1F8281105465F
:104F6000080A21706070080CA070080EE070002024
:104F700022716071687B012181430844A071297B03
:104F800001F0010140EA0110A071697A022904BF11
:104F900040F04000A071297A042904BF40F080004D
:104FA000A071E32A06D0E22A15D16020A4F80700F8
:104FB00000200DE0287B0C21FFF73AFBE071287BF5
:104FC0000E21FFF735FB2072287B0F21FFF730FB06
:104FD00060720020A07200211320C4F80F10C4F8E2
:104FE0000B10B0BDB0B540F60004C4F20104204679
:104FF00010210322012301F0C5FE204610210322C7
:10500000022301F0BFFE204610210322042301F0F9
:10501000B9FE2046482101224FF4807301F0B2FE10
:105020002046182101224FF4007301F0ABFE204608
:10503000482101224FF4806301F0A4FE204618218C
:1050400003224FF4006301F09DFE20461821032245
:105050004FF4805301F096FE04F580652846102138
:105060000222202301F08EFE2846102102224FF456
:10507000006301F087FE04F50060102102224FF466
:10508000005301F07FFE2846482103224FF480732D
:1050900001F078FE2846182103224FF4007301F036
:1050A00071FE4FF4EA10012101F0C3FE28464821A9
:1050B00003224FF4805301F065FE28461821032295
:1050C0004FF40053BDE8B04001F05CBEFEE70000C5
:1050D000F0B581B00C46054600266FF02F0700BFE3
:1050E000A85DFFF755F857FA80F10A2902D2D021BE
:1050F00005E000BFC1B24139052910D8C921F20726
:10510000014403D10901700803E000BF7008225C6C
:1051100011430136102E2154E2D1082001E0F0B2F3
:10512000400801B0F0BD10B543F2BC64C2F2000407
:105130002046382100F080F808B1002010BDB4F8F6
:10514000601043F24820C2F2000081802188C180B3
:10515000A1898181E189C181218A0181618A41819D
:10516000C18801F44051B1F5405F03D1C18821F4F9
:105170004051C1804BF27402C188C0F6000212781F
:10518000C1F30321914205D3C18821F4706101F577
:105190004071C180C2884FF0FF3343F2325153FA5D
:1051A00082F3C2F20001F72B81F8412108D3C288B3
:1051B00042F0010222F0FE02C280012281F8412168
:1051C0004BF240018289C0F60001097802F01F020B
:1051D0008A4205D3828942F0050222F01A028281B6
:1051E000C28902F01F028A4205D3C18941F005013C
:1051F00021F01A01C1814FF0FF3010BDFEE7000021
:10520000B0B54FF6FF72A9B14FF0000C4AF2010E93
:1052100010F80C305A4000238EEA5204D50703F1EF
:10522000010308BF5408082B2246F5D30CF1010CEA
:105230008C45EDD190B2B0BDB0B54FF6FF72A9B1BB
:105240004FF0000C4AF2010E30F81C305A40002397
:105250008EEA5204D50703F1010308BF5408082B56
:105260002246F5D30CF1010C8C45EDD190B2B0BDC6
:10527000704780B54FF4A06001F0E4FE43200121A7
:10528000002201F0ACFE14200221012201F0A7FE51
:1052900040200221022201F0A2FE2520032101224A
:1052A000BDE8804001F09BBE7047000010B50020B3
:1052B00001F040FF014614A005F09AFC012001F026
:1052C00039FF014615A005F093FC022001F032FFE2
:1052D000014617A005F08CFC032001F02BFF0146CE
:1052E00018A005F085FC43F24824C2F20004D4F86B
:1052F000241119A005F07CFCD4F828111BA0BDE8EE
:10530000104005F075BC00BF20434B5F535953203C
:1053100020203D20256C640A0000000020434B5FE4
:105320004148422020203D20256C640A00000000F6
:1053300020434B5F4150423120203D20256C640AC0
:105340000000000020434B5F4150423220203D20AE
:10535000256C640A00000000205449434B202020A3
:1053600020203D20256C640A000000002053544199
:105370004D50202020203D20256C640A00000000B4
:105380002DE9F04743F2482AC2F2000A9AF82001B8
:1053900000EB00100AEBC000868A1CA005F028FC78
:1053A0004BF6040800270FF26C09C0F60008002431
:1053B000002500BF9AF82001F11900EB001001F060
:1053C0003F010AEBC00000EB4100C18A4846A14200
:1053D00038BF0C46A94288BF0D4605F009FC07F00E
:1053E0000700072802D1404605F03AFC0137402F5C
:1053F000E0D10AA005F0FCFB9AF8201117A0224684
:105400002B46BDE8F04705F0F3BB00BF4F6C646569
:1054100073740A002536642000000000202020203C
:10542000202020202020202020202020202020207C
:10543000202020202020202020202020202020206C
:10544000202020202020202020202020202020205C
:1054500020204E65776573740A00000043414E2595
:1054600064205258207370656564206174206C61FB
:105470007374203634207365636F6E64732E204D11
:10548000494E3D2564667073204D41583D25646644
:1054900070730A0010B543F2BC64C2F20004A01C91
:1054A0006621FF22FEF792FE43F24821C2F200017C
:1054B000002088808A88012342F001028A808A883D
:1054C00022F002028A808A8822F004028A808A8876
:1054D00042F0100222F020028A808A8822F4407270
:1054E00002F500728A808A88A4F86020C880CA8881
:1054F00042F0010222F0FE02CA80CA8822F47062E1
:1055000002F54072CA80CA8822F44052CA80CA8812
:1055100063F39F32CA80CA88228088818A8942F0D8
:10552000050222F01A028A818A89CA818A89A281A7
:10553000CA89E28108810A8942F001020A810A8946
:1055400022F002020A810A8942F004020A810A89D1
:1055500022F030020A810A8922F480720A810A89C3
:1055600042F400720A810A8922F480620A810A895F
:105570004A810A892282498961820021CFF6FF711E
:1055800061611121C0F28701A16145F2FF41E18310
:105590001E21C0F21401A166A4F86C0004F12000E1
:1055A0004021FEF71AFE10BD704710B543F24820A7
:1055B000C2F20000818843F2BC64C2F20004A4F885
:1055C0006010C18821808189A181C189E18101891F
:1055D00021824089372160822046FFF72DFEA4F802
:1055E0006E00BDE81040FFF729BC00002DE9F04F28
:1055F00089B043F2482400F0010B43F23C20C2F290
:105600000004C2F20000D4F8247150F82BA0DAF89C
:105610000000DAF80C90C069B0F1FF3F40F305815B
:10562000002084F8210104EB8B06D6F84021012AE2
:10563000C0F23B8104EB0B0000F5BD7100F26B1072
:105640000391059004EB4B00083009F10C0506901E
:1056500006F5A47809F11A0007900496089201F063
:1056600075FB0020C4F828014FF08040002103F0B2
:10567000E9F900BFDAF800002946FFF7B7F9064656
:105680004FF0804003F0DCF9B0F57A7F00F2E9805A
:10569000032EEFD0029794F8200104EB400000891C
:1056A00040050DD4DAF800003146FFF7DAF9D4F8F6
:1056B00028110746B1F57A7F00F2DD80012FF1D184
:1056C00043F20840C2F20000024630F81B000130ED
:1056D00081B2032922F81B0009D343F20840C2F229
:1056E0000000032120F81B10039800210170059889
:1056F0000121017006980088029F800542D599F823
:10570000151099F8140079B110210028D9F800205B
:1057100008BF0C2181A059F8013078A108BF0846C4
:10572000594605F065FA2DE010210028D9F800202F
:1057300008BF0C2199F8197080A059F801304BF678
:105740000C01C0F6000108BF084600975946029FA9
:1057500005F04EFA99F81900A0B100260798815D6E
:105760004BF60600C0F6000005F042FA06F00F0006
:105770000F2802D17CA005F073FA99F819000136C0
:105780008642EBD34BF60400C0F6000005F068FA41
:1057900006980088C00505D5D9E90301013001311B
:1057A000C9E90301D9F800000130C9F8000094F8F4
:1057B0002101049E0899002874D1D8F8000042F213
:1057C00011729042A1F10101089119D3D4F8280176
:1057D000D8F8001064225043884221D2D4F828011E
:1057E00048F29F61C0F20101884219D801F0AEFA77
:1057F00094F821010028E9D0002084F821010FE06D
:10580000D8F8000060B100BF4FF0804003F018F9F5
:10581000D8F80010884203D2D4F82801C828F3D35E
:10582000089A002A3FF71AAF3FE04BF22D30C0F63E
:10583000000005F015FA04EB4B000189C1F30115D6
:105840000089C0F30110FEF7DFFE03464BF2B7708C
:10585000C0F6000059462A4609B0BDE8F04F05F0F1
:10586000C7B94BF27560C0F60000314609B0BDE81B
:10587000F04F05F0BDB9DAF800003146FEF722FE20
:105880003AA0394605F0B4F903990120087043F2B3
:1058900008410020C2F2000121F81B0005990220F6
:1058A000087027E0002084F8210106F5A070016847
:1058B00065291FD3D4F8241102684FF47A73C91BE9
:1058C0005A43B2FBF1F7026899F814004BF6B9039A
:1058D0004BF65606C0F6000300284BF2AF50C0F658
:1058E000000608BF33460091C0F6000059460197F4
:1058F00005F07EF909B0BDE8F08F00BF20545825AF
:10590000643A253038642052454D4F5445204D535C
:10591000472049443D3078253034580020545825DC
:10592000643A253038642052454D4F5445204D533C
:10593000472049443D3078253038580020545825B8
:10594000643A253038642044415441204D53472067
:1059500049443D307825303858204C454E3D25642B
:1059600020444154413D00000A2000002054784664
:1059700061696C6564205374617475733D3078257A
:105980003032580A000000002DE9F047D0F8C4403A
:10599000D0F8D42088461204B2F5003F1BDD43F254
:1059A0009C7900F5C6560027C2F2000941F2E87A58
:1059B00009EB0701204604F11805FFF793FAB542F9
:1059C00007F1130788BFA4EB0A05392F2C46EFD146
:1059D000032539232AE0B2F5803F1ED0B2F5003FFF
:1059E0002FD143F29C7900F5C6560027C2F2000978
:1059F00041F2E87A09EB0701204604F11805FFF7A8
:105A000071FAB54207F1130788BFA4EB0A05262FE8
:105A10002C46EFD10225262308E043F29C71C2F206
:105A200000012046FFF75EFA0125132343F29C7222
:105A3000C2F200024046822104F0B9FC2846BDE8CB
:105A4000F0870025FAE743F2442CC2F2000CDCF8A0
:105A50000030020F9A5C0A70DCF80020C0F3036388
:105A6000D25C4A70DCF80020C0F30353D25C8A7029
:105A7000DCF80020C0F30343D25CCA70DCF80020DD
:105A8000C0F30333D35C0B71C0F30323D35C4B71BE
:105A9000C0F30313D35C00F00F008B71105CC8716E
:105AA00070470000F0B585B000F0010443F23C20DF
:105AB000C2F2000050F82400214605684BF28F60C6
:105AC000C0F600002A4605F093F82A682EA0214669
:105AD00005F08EF86A6832A0214605F089F8AA68B8
:105AE00035A0214605F084F8EA6839A0214605F082
:105AF0007FF82A693CA0214605F07AF86A6940A03F
:105B0000214605F075F8AA69D5F818E0A969C1F32E
:105B1000074CAB69C3F30211AB69C3F38000AB69F7
:105B2000C3F34006AF69CDE900C1CDE902064BF2EF
:105B3000E6604FEA1E6307F00107C0F60000214649
:105B4000049705F055F8EA69E869E969C1F3807CD2
:105B5000EB69C3F30167EB69C3F30256EB69C3F367
:105B60000341ED69C30F4BF234706FF39F25CDE90C
:105B700000C7CDE90261C0F600002146049505F09A
:105B800037F805B0F0BD00BF2043414E25645F43A8
:105B9000544C2020203D30782530384C580A0000E5
:105BA0002043414E25645F5354415420203D3078BA
:105BB0002530384C580A00002043414E25645F547C
:105BC00053544154203D30782530384C580A000059
:105BD0002043414E25645F524649464F303D307860
:105BE0002530384C580A00002043414E25645F524E
:105BF0004649464F313D30782530384C580A000030
:105C00002043414E25645F494E54454E203D307837
:105C10002530384C580A000070B500F0010443F2FA
:105C20003C20C2F2000050F824601BA0B28821463C
:105C300004F0DEFF43F24820C2F2000000EB440013
:105C40008189C1F30221008900F0010216A004F04D
:105C5000CFFF96F820502846FEF7D6FC02464BF2BE
:105C6000AA70C0F60000294604F0C2FFF068214681
:105C7000D0E933234BF27770C0F6000004F0B8FF90
:105C8000F0682146D0E900234BF28E70C0F6000088
:105C9000BDE8704004F0ACBF204348256420424179
:105CA00055443D256C646B00204644424155443DBB
:105CB00025644D204644454E3D25640070B504469C
:105CC0001AA0214604F094FF43F2BC65C2F200051D
:105CD000A88A012101FA04F619A106421AA016A207
:105CE00008BF114604F084FFE88A1BA106421BA0EE
:105CF00018A208BF114604F07BFF288BE04000F09B
:105D0000010119A004F074FF05EBC404208C618C20
:105D100041EA004116A004F06BFFA08CE18C41EA3F
:105D2000004116A0BDE8704004F062BF2066696CB7
:105D3000746572202564000069646D61736B0000F6
:105D400069646C6973740000204D4F44453D2573B0
:105D50000000000031360000333200002053434180
:105D60004C453D2573000000204143543D2564000F
:105D70002052303D30782530385800002052313DD7
:105D80003078253038580A0010B582B043F24824E4
:105D9000C2F2000494F8661194F8692194F8653110
:105DA00094F868C10BA0CDF800C004F021FFD4F82E
:105DB0005811D4F85C21D4F8603114A004F018FF15
:105DC000D4F83811D4F83C211BA002B0BDE8104033
:105DD00004F00EBF20636D64496E427573793D25F2
:105DE0006420636D644F75744C656E3D256420645A
:105DF0006174496E427573793D2564206461744F06
:105E000075744C656E3D25640A0000002075736250
:105E10004F7574436E743D256C64207573624461E4
:105E200074436E743D256C642075736252657043D3
:105E30006E743D256C640A0020636D64496E54697C
:105E40006D65723D256C6420646174496E54696DA2
:105E500065723D256C640A0070B582B043F20F454F
:105E6000C2F200052A786B78AE7801460DA0009644
:105E700004F0BEFEA87800070DD000260FA400BFD6
:105E8000A819C178204604F0B3FEA878013600F0C6
:105E90000F008642F4D30BA002B0BDE8704004F0BE
:105EA000A7BE00BF257320434D443A253032582009
:105EB000253032582025303258000000202530325D
:105EC000580000000A00000002F0FEBF4EF68851A4
:105ED000CEF200010A6841F2000042F47002C4F2FE
:105EE00002000A6001684FF6FF7241F00101016093
:105EF00000214160C1620168CEF6F62211400160C6
:105F00004FF47F018160016821F480210160016804
:105F100041F4803101604FF6FE7100BF03684A1EF4
:105F20008A4203D213F400311146F7D00168890385
:105F300001D400BFFEE742F20001C4F202010A6888
:105F4000032363F302020A6041684FF6FF72416067
:105F50004168CDF6C3724160416841F4806141609F
:105F600041681140416041684FF2000241F0005128
:105F700041F4E8114160C16ACBF6FE721140C16282
:105F8000C16A41F4843141F01901C162016841F0F4
:105F90008061016001680901FCD5016841F08071F0
:105FA000016000BF01688901FCD5416821F003014F
:105FB0004160416841F00201416000BF416809074A
:105FC000FCD54FF000604FF4804101F045B800006F
:105FD0002DE9F047D0F800A0846847F6B91E4FF0CD
:105FE00000084FF0150CC9F6376E00BFF044C8F337
:105FF0008109002600EB86077F68BA00FD0882EA67
:10600000541285EA04152A4486EA090551F82550F8
:1060100087EA08036C4023445A4002EB0A0440F824
:1060200026400136022EBA46E4D1D0F800A082689C
:106030004FEA8A034FEADA0583EA541385EA041526
:106040002B4489F0020551F825508AEA08066C4075
:10605000344463409C185FEA0C628460ACF1010C2C
:1060600008BFBDE8F087C1E770B5044600200D46C3
:10607000A4F84201FEF788F80068405D10F03E0F7A
:1060800019D0B4F8466101203F2EA4F8420184F8EB
:10609000415008D82846FEF781F8711CA4F8461133
:1060A000A11981F8C100B4F84201402824BF0020A2
:1060B000A4F8420170BD0C2D0DDD0D2D27D01B2D38
:1060C00055D01D2D0BD1B4F84801411C0AB2012A4C
:1060D000C8BF411E52E0082D72D00A2DE3D043F212
:1060E0004420C2F2000000682909415C0122A4F8A2
:1060F000422184F8411005F00F01405C84F8420011
:106100000320A4F84201202084F84300CBE740F6A6
:106110000D20A4F84100B4F8460102213F28A4F85C
:1061200042115ED804F1C10100220A540120A4F8F2
:1061300046212070B4F9480100EBD07222F0010230
:10614000801A43F21F42C2F20002A4F8480102EB97
:10615000C0108022FEF75EF8B4F94801013000EB70
:10616000D07121F00101401AA4F848019BE7B4F86E
:106170004801411E0AB2002A48BF411C43F21F4594
:10618000A4F8481109B2C2F2000504F1C10005EB00
:10619000C1118022FEF73EF8FEF748F8A4F8460148
:1061A000B4F9481104F1410005EBC1118022FEF75A
:1061B00031F8FEF73BF8014680B2A4F8421174E7CB
:1061C00042F20800A4F841000320A4F84201B4F808
:1061D00046010821002884F843103FF464AF0138D9
:1061E00002E0002084F80001A4F846015BE7704754
:1061F000F0B585B04FF0804002F026FC2F2001ACB6
:10620000019000264FF6FF774FF080402146ADF811
:1062100008600397ADF810608DF8126002F0BDFCC5
:106220004FF0804002F0B4FC40F20045C4F200059B
:10623000284602F009FC40F2CF7001902846214622
:10624000ADF808600397ADF810608DF8126002F0A9
:10625000A4FC284602F09CFC40F20800C2F20000B8
:10626000006841F25971CDF2B711A0FB01014FF066
:10627000FF3000EB5130B0F1807F00D3FEE74EF2EB
:106280001001CEF2000148604EF62350CEF200001D
:10629000F022027007208E60086005B0F0BD00009B
:1062A0004BF244020021C0F6000200BF52F8213038
:1062B000834203D901310C29F8D10C21C8B27047AF
:1062C00010B582B043F600000021C4F20100ADF821
:1062D00006100168090703D54168C9B2ADF8061078
:1062E0000168890621D5406843F23254C0B2ADF846
:1062F0000600BDF80600C2F20004C1B22046FFF756
:10630000B3FE0020ADF80600BDF80600B4F8421157
:1063100088420AD2BDF80600204490F8410000F0FF
:1063200031F8BDF806000130ECE702B010BD10B541
:1063300043F60004C4F20104204603F058FB204653
:106340004FF4E13103F01EFB2046002103F09CFBDB
:106350002046002103F0B4FB2046002103F0A2FBFD
:106360002046082103F0A6FB2046042103F094FBFD
:10637000204640F2053103F07CFB2046BDE810408A
:1063800003F072BB43F60001C4F201010A68120671
:10639000FCD56FF35F20486008684006FCD5704765
:1063A00043F65C1043F2F83243F2C833C2F2000005
:1063B000C2F20002C2F20003012104F0D7B843F692
:1063C0005C10C2F2000004F00BB980B543F65C101B
:1063D000C2F20000C07968B1FFF778FDFEF7C7FB95
:1063E00040F20C5000F02CFF43F65C10C2F20000AB
:1063F00003F0CFFB4FF48020BDE8804000F001BCEB
:106400004FF2E070C1F6FF70008843F28471C2F26F
:1064100000010880800243F2807100F10060C2F246
:106420000001086070470000FEE780B500F09EFCA8
:1064300040F27120052100F057FC00F087FCBDE818
:10644000804000F08BBC0000F0B581B043F65C15D5
:10645000C2F2000595F8CE00032842D041F20004B4
:1064600043F248270026C4F20104C2F2000700BF2D
:1064700020464FF4005100F083FCD7F82401D7F8F0
:106480002411091A312905D800BFD7F82411091A97
:106490003229F9D320464FF4005100F06FFCD7F8B1
:1064A0002401D7F82411091A312905D800BFD7F8DB
:1064B0002411091A3229F9D31E2E07D2013600F011
:1064C00045FC95F8CE000328D2D10AE020464FF4CF
:1064D000005100F053FC43F23050C2F200000121A1
:1064E000017001B0F0BD00004EF60C50BFF34F8FAD
:1064F000CEF200000168042201F4E061C0F2FA5219
:1065000011430160BFF34F8F00BFFDE7D0F82804AF
:106510004068817811807047D0F8280400680178BD
:1065200011807047B0B50C460978054601F00301AB
:1065300002290FD031BB95F8CE00022803D095F880
:10654000CE0003281ED1608801281BD1002085F8C9
:106550001A04B0BDA08895F8CE10032912D1618825
:1065600071B940F08001C9B2802909D0C1B2284672
:1065700003F088FFD5F82C042146C26828469047CE
:106580000020B0BD0120B0BD90F8CE2000F1CC01BC
:10659000032A05D0022A01D10A7822B101207047CE
:1065A0000A78002AFAD0C0F8D8100121C0F8E41007
:1065B0000020704770B50D460978044601F00301CC
:1065C00001290BD0002944D1698801200A0A022A36
:1065D0000BDC012A14D0022A2CD03BE0D4F82C0486
:1065E0002946C2682046904734E0032A1ED00F2A6D
:1065F00030D1D4F8280480688178A4F8E41026E02B
:106600004BF22C20C0F6000000EB820050F8043C56
:1066100004F1E406C9B2204632469847E988C4F836
:10662000D800402904BF0820306012E001F0FE00CD
:1066300005280ED84BF22C20C0F6000000EB82009B
:1066400050F8043C04F1E402C9B220469847C4F86B
:10665000D8000120D4F8E41099B1EA888AB19142B7
:106660000CD2B4F8D40081420AD3B1FBF0F202FBA1
:10667000101028B9012084F8250401E0C4F8E420B2
:10668000002070BD024690F8CE0003281CBF0120F8
:106690007047888810F0FE0F4FF0010018BF704758
:1066A000D2F82C140131C2F8D810C2F8E40000204E
:1066B00070470A78898802F00302022A1FD0012A53
:1066C00013D052BB90F8CE10022903D090F8CE1010
:1066D000032922D190F8182490F81A14002A18BF20
:1066E0000122002918BF911C21E090F8CE2011F062
:1066F000FE0F4FF0010129D1032A1DD026E090F8AA
:10670000CE20032A09D10A0609D4C9B2C1EBC101BE
:1067100000EB810101F2762108E0012116E001F091
:106720007F01C1EBC10100EB8101D231097843F255
:106730000C42C2F20002117043F20C41C2F200019D
:10674000C0F8D8100221C0F8E410002108467047B4
:10675000012070478A8852B9CA8842B9897801F005
:106760007F0180F8CD1090F8CE20032A01D10120BE
:10677000704742690029136823F4FE6313601368AD
:1067800043EA011313600CBF0121022180F8CE10EF
:106790000020704770B50446488843F20E46C2F2A6
:1067A000000610F0FE0F307001D0012529E094F8AA
:1067B000CE10032910D00229F7D1010620D0D4F839
:1067C0002C144A68C1B220469047307884F8CC0037
:1067D000032084F8CE0013E0010614D094F8CC20F6
:1067E000C1B28A420CD0D4F82C048268204690476B
:1067F000D4F82C0431784268204684F8CC109047B5
:106800000025284670BDD4F82C040021826820465B
:1068100000259047307884F8CC00022084F8CE0020
:10682000EFE70020704780B50A7802F00302022AE1
:106830000FD0FAB990F8CE20022A03D090F8CE20DB
:10684000032A17D14988012904BF012180F81A14AD
:106850000EE08A8890F8CE30032B0BD1498839B9E5
:1068600042F08001C9B2802902D0D1B203F0F1FD1B
:10687000002080BD012080BD80B590F8CE20032A85
:1068800003D18A8812F0FE0F01D0012080BDD0F81C
:106890002C24126902B19047002080BD002070476F
:1068A000D0F82804C06850F82100017811807047A2
:1068B00046F20061C4F200010A6800F03F0042F0B5
:1068C00001020A600A6822F47C520A600A6842EAFD
:1068D00000200860086820F001000860704710B5CB
:1068E00046F20041C4F2000140F21A44884208BF57
:1068F00040F21944204600F0D1FC2046BDE810408B
:1069000000F0BCBC8069C0F302107047B0B546F21D
:106910000061C4F2000144890A684FF0010C42F0A2
:1069200001020A60CB690CFA04F5AB43CB61C38961
:106930006FEA050C012B10D023BBCB6803EA0C03D4
:10694000CB60B0F806E0438843EA0E434FEAC40E3A
:1069500001EBC404236403460DE0CB682B43CB60FA
:10696000B0F800E0438843EA0E434FEAC40E01EB5F
:10697000C4042364831D84881B8843EA044301EB19
:106980000E04636483894C68002B44EA050208BF47
:1069900004EA0C024A6002894B69002A43EA0504B2
:1069A00008BF03EA0C044C61007C012802D1C869CD
:1069B0002843C861086820F001000860B0BD0000ED
:1069C0002DE9F041026840F2010C22F0020202605F
:1069D0000268CFF6FF7C42F001026346026000BF0E
:1069E000426823B112F0010203F10103F8D04268BA
:1069F000D20704BF0020BDE8F081036ADA0724D182
:106A000043F0010202620A7891F801E08C78920763
:106A1000CD7804F00F0804F070046EF31C624E8908
:106A200042EA841205F0070705F0180542EA084219
:106A3000013E42EA85226FF39F2642EA0752324422
:106A4000C26123F0010202621DE00A7891F801E0C0
:106A50008F789207CE7807F00F0507F070076EF376
:106A60001C624B8942EA871206F0070406F01806FA
:106A700042EA0542013B42EA86226FF39F2342EA43
:106A800004521A44C26102680F7922F080034E79E1
:106A90008D79CC79012F08BF42F080030360026832
:106AA000012E22F0400308BF42F040030360026859
:106AB000012D22F0200308BF42F02003036002688A
:106AC000012C42F0100308BF22F0100303600A7A81
:106AD0000368012A23F0080708BF43F0080707608E
:106AE000497A0268012922F0040308BF42F0040336
:106AF0000360016821F00101016000BF4268614646
:106B0000BCF1000F04D012F0010201F1010CF5D12B
:106B1000002918BF01210846BDE8F081426922EA38
:106B2000010141617047426911434161704748F278
:106B3000CB02C0F2010291420AD08422C0F20102CB
:106B4000914209D04CF28102914209D1C26804E01D
:106B50008269C2F302120CE0026902F0030208E04B
:106B60000A0B52F800C0C1F3841301229A4002EAD2
:106B70000C02406901F01F01C840002A18BF012221
:106B8000104070478069000E7047000081B10428F2
:106B900010D880B5DFE800F0030F18292C004FF063
:106BA00080608860002048604FF40030086080BD3D
:106BB000FEE700BFFEE700204FF480320874CA6091
:106BC00008604860886080BD4FF4806088824FF420
:106BD000007008820120887400204FF48072887051
:106BE0000A80C1E90100C86080BD08464E2101E06D
:106BF00008464F21FDF7F1FA80BD8069C0F30740D8
:106C0000704740F21441C4F201010860704742F23B
:106C10001000C4F20200016841F080010160704779
:106C2000B0B5044600F016F800B1B0BD42F2100550
:106C3000C4F20205286840F0020028606C602868F1
:106C400040F04000286000F005F8296821F00201BA
:106C50002960B0BD002142F20C00CFF6F071C4F201
:106C6000020000BF0268D20704D0013124BF052012
:106C70007047F7E70168C90644BF04207047016800
:106C8000490744BF0220704700680321000701EA5A
:106C9000E070704742F20400C4F20200C1680906C5
:106CA00058BF704740F22311C4F26751016048F6A3
:106CB000AB11CCF6EF510160704770B50C4605463C
:106CC000FFF7C8FF00B170BD42F21006C4F2020621
:106CD000306840F0010030602C60FFF7BBFF316886
:106CE00021F00101316070BD80B540F2020ECFF697
:106CF000F07E43F2000CC4F2000C45F2555273468C
:106D0000CCF80020DCF80C2002F001021BB1002AB4
:106D100003F10103F6D16AB9CCF80410DCF80C10C9
:106D2000BEF1000F01F0020103D000290EF1010EA7
:106D3000F4D109B1002080BD6FF31F30CCF80800FA
:106D40004AF6AA20CCF80000012080BD43F20000E2
:106D5000C4F200004AF6AA210160704743F2000025
:106D6000C4F200004CF6CC410160704743F20000D1
:106D7000C4F2000045F2555101607047416170470F
:106D8000016170472DE9F047CF0601F00F0C09D5DE
:106D9000042A05D1C26B4CF0030C1A43C26301E014
:106DA0004CEA020C00F1100E00F1140800244FF020
:106DB000010A4FF00F0900270AFA07F21A4010D013
:106DC000056809FA04F6B5430CFA04F6282946EAE0
:106DD000050603D0482903D1754600E045462A60E0
:106DE00006600137082F04F10404E5D108240025CA
:106DF0004FF0010A4FF00F090AFA04F21A4010D0BE
:106E0000466809FA05F7BE430CFA05F7282947EA50
:106E1000060703D0482903D1764600E04646326093
:106E200047600134102C05F1040508BFBDE8F08768
:106E3000E2E7B0B50422C4F20102134602F1180ED3
:106E4000002848BF73461B6800F44014C0F3034594
:106E5000B4F5401F1FFA80FC06D1146823F0E063EC
:106E600024F0E06414600DE0C40206D46FF00F0457
:106E700004EA50440CFA04F401E00324AC40A343B8
:106E800043F0E06331B16FF00F0101EA50410CFAB9
:106E900001F10B43002848BF72461360B0BD42F2B7
:106EA0001C00C4F20200006840F34000704700007C
:106EB000FDF75DFEFEF796F8FFF7A2FAFDF760FF1B
:106EC000FDF790FFFEF72FF918B9FEF7E3FAFEF78A
:106ED0006CFBFEF7CEF9FFF78BF9FEF702F8FFF730
:106EE000A4FA43F69C5049F68111C2F20000C0F6A4
:106EF00000010160FDF76EFBFC20C0F60000046895
:106F00004BF294014FF2E870C0F60001C1F6FF7039
:106F1000FDF76FFE844235D1FFF709FAFFF740FA1B
:106F2000FFF792FA41F20000C4F201004FF4005161
:106F3000FFF726FF43F65C14C2F2000494F8CE007B
:106F4000032818D1204602F0E3F8204602F0BEFAEA
:106F5000204602F0F5FA20460021FDF758FC2046B5
:106F60000121FDF754FC2046002101F075FE20466A
:106F7000012101F071FE01F0DBFE02F053F8FFF792
:106F8000E5FEDBE741F2000443F24825C4F20104C8
:106F9000C2F2000520464FF40051FFF7F1FED5F88C
:106FA0002401D5F82411091A312905D800BFD5F8D4
:106FB0002411091A3229F9D320464FF40051FFF762
:106FC000DDFED5F82401D5F82411091A3129E1D8BC
:106FD00000BFD5F82411091A3229F9D3DAE74EF6A1
:106FE0000C5CCEF2000CDCF8003003F4E063A3F597
:106FF0004073B3F5A06F03D21B0AC3F1040C08E081
:1070000040F20053C0F2FA53CCF8003002234FF0A4
:10701000020C99400F2323FA0CF31A4011434EF24D
:107020000012CEF20002090140EA020383F80013C5
:1070300000F01F01012303FA01F11C2303EAD00031
:107040008150704740F080604EF60C5140F0FD706A
:10705000CEF20001086070474FF68072C1F6FF72F1
:10706000114008434EF60851CEF200010860704707
:10707000B0B547F20003C4F200031A6843F2907EF1
:1070800022F003021A60D3F800C04EF2001240EA68
:107090000C00CEF200021860D2F8100C43F28C7C87
:1070A00040F00400C2F8100C52F8F00CC2F2000CD0
:1070B000CCF800001068C2F2000ECEF80000536851
:1070C00043F29470C2F200000360946843F2987334
:1070D000C2F200031C6052F8F04C0425C0F2010516
:1070E0002C4042F8F04C4FF63D04CFF67F74C2F8C6
:1070F00080406FF4E064C2F884404FF0FF34C2F87F
:10710000884000290FBF30BF40BF20BF20BFDCF840
:10711000001042F8F01CDEF80010116000685060AA
:1071200018689060D2F8100C20F00400C2F8100C1F
:10713000B0BD000010B541F2040EC4F2020EDEF83C
:10714000001001F00C01082941F20021C0F27A017F
:1071500046D1DEF80030DB0304D440F6001CC0F258
:107160003D0C25E0DEF82830DEF828C05B0046F64E
:107170000043C0F2DC2358BF0B465FEACC3110D588
:10718000DEF82810C1F3031CDEF828100CF1010C06
:10719000C1F30321B3FBFCF30231112908BF142111
:1071A0004B43DEF8281001F00F010131B3FBF1FC75
:1071B000DEF800301022C3F38343DEF8001002EA49
:1071C0005161194401220F2938BF022253180F2B95
:1071D00011BF03FB0CF10CEB4C01490001EB5C010E
:1071E000DEF800200328C2F30313DEF80020C2F308
:1071F000022CDEF800400DD80DA2D25C4BF2790EC5
:1072000021FA02F3C0F6000EDFE800F00F020609D3
:1072100019460AE0002108E01EF80C0003E0C4F360
:10722000C2201EF8000023FA00F1084610BD00BF7E
:107230000000000000000000010203040607080926
:1072400041F2000300F01F018009C4F202034FF075
:10725000010CC2580CFA01F11143C150704741F2C0
:10726000000300F01F018009C4F202034FF0010C7B
:10727000C2580CFA01F11143C150704741F20003AA
:1072800000F01F018009C4F202034FF0010CC25844
:107290000CFA01F122EA0101C150704741F20003EA
:1072A00000F01F018009C4F202034FF0010CC25824
:1072B0000CFA01F11143C150704741F20401C4F2CC
:1072C00002010A6822F44002104308607047B0B51A
:1072D00043F61705C2F2000595F900100F291FDCCF
:1072E000044695F84101132110FB015043F220514F
:1072F0000130C2F200012246FCF756FF287895F8CB
:1073000041110130294481F8314195F841114A1C5D
:10731000D3B20F2B88BFA1F10F0285F8412128704D
:107320002878B0BD10B50446C06890F9241007292C
:107330001BDC90F8BD10132211FB020043F24071D8
:107340002530C2F200011322FCF72EFFE06890F80E
:10735000241090F8BD200131531CDCB2072C88BFEB
:10736000D31F80F8BD3080F8241090F8240010BDA1
:1073700070B543F2E070C2F20000046864B34BF6EB
:107380005A01C0F600012046FCF732FFA0B343F2D9
:10739000E470C2F200000068002871D000210A22C7
:1073A000FCF7A6FF4FF0FF3111FA80F1052900F23A
:1073B0008A8043F24824C2F2000494F8201104F1B8
:1073C0000C0232F8113000F0070023F4E06343EAC6
:1073D000002022F8110091E04BF2E240C0F60000DC
:1073E00003F03EFC43F24820C2F2000090F8200176
:1073F000BDE87040FEF710BC4BF65F01C0F600011F
:107400002046FCF7F5FE002800F0998043F2E47076
:10741000C2F200000068002800F0A38000210A22C8
:10742000FCF766FF43F24826C2F2000696F82011E8
:1074300006F1080232F8113000F0030023F03003A7
:1074400043EA001022F8110096F8204196F8200136
:1074500032F81000C0F3011596F8200132F8100040
:10746000C0F30110FDF7D0F803464BF2A570C0F64B
:10747000000021462A4603F0BBFB96F820015AE0A3
:1074800092A003F0EDFB43F24820C2F2000090F816
:10749000201190F8202100F10C0333F8122090F80D
:1074A00020014AF6907502F01F02C0F6000533F87D
:1074B000100005EBC202D288C0F302234BF25960E0
:1074C000C0F600006DE080B2FDF716F94BF2400106
:1074D000C0F600010978B1EB104F98BF70BD43F2C0
:1074E0004824C2F2000494F8201104F10C0232F88E
:1074F0001130000C60F3040322F8113094F82011CD
:1075000094F820014AF6907332F8100094F8205154
:1075100000F01F00C0F6000303EBC00032F8153086
:10752000C2884BF25960C3F30223C0F6000003F097
:107530005FFB94F82001BDE87040FCF7E1BF78A143
:107540002046FCF755FE80B343F2E470C2F200001F
:10755000006898B300210A22FCF7CAFE00F001007F
:1075600030E065A003F07CFB43F24820C2F200004B
:1075700090F8204190F8201100F1080232F8111023
:10758000C1F3011590F8200132F81000C0F301108A
:10759000FDF73AF803464BF2A570C0F6000021460D
:1075A0002A46BDE8704003F023BB5EA12046FCF7ED
:1075B0001FFE58B1BDE87040FDF7E2BE0020FEF7A7
:1075C00071FA0120BDE87040FEF76CBA4BF6A001DD
:1075D000C0F600012046FCF70BFE60B143F2E470F8
:1075E000C2F200000068C0B100210A22FCF780FE50
:1075F00000F0010017E04DA12046FCF7F9FDB0B105
:1076000043F2E470C2F200000068C8B300210A220D
:10761000FCF76EFE00F00100EAE643F24820C2F2F9
:10762000000090F82001BDE87040FDF703BB41A1C8
:107630002046FCF7DDFD40B343F2E470C2F20000E7
:10764000006850B300210A22FCF752FE43F248249E
:10765000C2F2000494F8201104F1080232F811304B
:1076600060F3000322F8113094F8200133A132F8BE
:107670001000C00736A008BF084603F0F1FA58E72B
:107680000020FEF7C9FA0120B2E64BF2E240C0F654
:107690000000BDE8704003F0E3BA4BF2A920C0F649
:1076A000000003F0DDFA43F24820C2F2000090F837
:1076B000201100EB4100008900F001014BF22A701B
:1076C000C0F60000BDE8704003F092BA2063616E1E
:1076D0002062617564205B6261756420696E206B55
:1076E0006270735D207365742043414E2062617542
:1076F00064726174652E0A002063616E206D6F6490
:1077000065205B307C317C327C335D207365742076
:1077100043414E20776F726B206D6F64652E0A00B7
:10772000726567007370656564000000737461744E
:10773000000000006664656E00000000446973612B
:10774000626C652043414E46442E2E2E0A000000F6
:10775000456E61626C652043414E46442E2E2E0AD2
:1077600000000000B0B584B043F2E070C2F2000047
:107770000468E4B1ACA12046FCF73AFD002843D0F0
:1077800043F2E470C2F20000006843F24824C2F2FF
:10779000000438B100210A22FCF772FDA18860F3D1
:1077A0000001A180A08800F00101A1A036E14BF208
:1077B0001940C0F6000003F053FA43F24820C2F229
:1077C0000000B0F804C0828843F2BC61C2F38002BA
:1077D0008388C2F20001C3F301138488C4F3012437
:1077E000D0F82CE1B1F86A00B1F86C50CDE9004E48
:1077F00002904BF2A6600CF00101C0F60000039568
:1078000003F0F6F904B0B0BD8CA12046FCF7F0FC03
:10781000E0B143F2E470C2F20000006868B10021F8
:107820000A22FCF72DFD43F24821C2F200018A88AA
:1078300022F0020260F341028A8043F24820C2F241
:1078400000008088C0F340017EA0E7E080A12046D0
:10785000FCF7CEFCE0B143F2E470C2F20000006835
:1078600068B100210A22FCF70BFD43F24821C2F265
:1078700000018A8822F0040260F382028A8043F2C7
:107880004820C2F200008088C0F3800172A0C5E0E9
:1078900074A12046FCF7ACFCE0B143F2E470C2F204
:1078A0000000006868B100211022FCF7E9FC43F2F7
:1078B0004821C2F200018A8822F0300260F30512EA
:1078C0008A8043F24820C2F200008088C0F3011190
:1078D00066A0A3E068A12046FCF78AFCE0B143F271
:1078E000E470C2F20000006868B100211022FCF7C9
:1078F000C7FC43F24821C2F200018A8822F4407298
:1079000060F309228A8043F24820C2F20000808896
:10791000C0F301215AA081E05CA12046FCF768FC7D
:10792000B8B143F2E470C2F20000006848B100212F
:107930000A22FCF7A5FC43F24821C2F20001C1F87B
:107940002C0143F24820C2F20000D0F82C1151A0C3
:1079500064E053A12046FCF74BFC80B143F2E47095
:10796000C2F20000006800B300210A22FCF788FC84
:1079700043F2BC61C2F20001A1F868001BE04DA116
:107980002046FCF735FCC8B143F2E470C2F20000B7
:10799000006848B300210A22FCF772FC43F2BC6184
:1079A000C2F20001A1F86A0024E043F2BC60C2F216
:1079B0000000B0F8680081B23BA02FE043A1204650
:1079C000FCF716FCC8B143F2E470C2F20000006894
:1079D000E0B100210A22FCF753FC43F2BC61C2F281
:1079E0000001A1F86C0017E043F2BC60C2F2000095
:1079F000B0F86A0081B231A010E04BF21940C0F635
:107A0000000004B0BDE8B04003F02AB943F2BC6006
:107A1000C2F20000B0F86C0081B22EA004B0BDE844
:107A2000B04003F0E5B800BF6563686F0000000078
:107A3000204543484F3D25640A0000007465737477
:107A40000000000020544553543D25640A00000006
:107A5000736F66740000000020534F46543D256448
:107A60000A0000006C6576656C000000204C4556ED
:107A7000454C3D25580A00006368616E0000000017
:107A8000204348414E3D25580A00000074696D6549
:107A9000000000002054494D453D256C640A00005B
:107AA000747269670000000020545249473D256CFC
:107AB000640A000064656C61793000002044454C24
:107AC0004159303D256C640A0000000064656C611A
:107AD000793100002044454C4159313D256C640A00
:107AE000000000002DE9F04782B043F2E070C2F2DE
:107AF000000004680020002CADF8060000F0938020
:107B00004DA12046FCF774FB08B343F2E470C2F2C7
:107B100000000068002800F08C8000211022FCF793
:107B2000E7FB43F2E871C2F2000109680546E1B3E0
:107B3000084600211022FCF7DBFB6FF0070184B23E
:107B400011FA80F0382888BF40247CBB4EE041A168
:107B50002046FCF74DFB00284DD043F2E470C2F202
:107B600000000068002864D043F2E874C2F2000408
:107B7000216800295DD000211022FCF7B9FB2168A3
:107B80000446084600211022FCF7B2FBE4B285B29D
:107B900020462946FDF79CF930A0294603F028F835
:107BA00033A0214603F024F843E04024EDB2002046
:107BB0000FF28C080DF106090FF2900A002600BFA3
:107BC00047193E2F12D8400703D14046394603F0EB
:107BD0000FF8B8B24946FDF728F9BDF8061050462F
:107BE00003F006F80136B0B28442E9D84BF604003F
:107BF000C0F600001BE04BF64701C0F6000120462E
:107C0000FCF7F6FA18B1FDF7EDF820A00FE04BF6FF
:107C10007301C0F600012046FCF7EAFA18B1FDF73F
:107C20000DF921A003E04BF2CF20C0F6000003F0D5
:107C300017F802B0BDE8F0877265616400000000CB
:107C40000A30782530345820200000002530345880
:107C50002000000077726974650000002077726967
:107C600074652030782530345820746F000000008F
:107C700020656570726F6D20616464726573732036
:107C8000307825303458202E2E2E0A004C6F616437
:107C90002066726F6D20496E742E20454550524FFC
:107CA0004D2E2E2E0A0000005361766520746F2041
:107CB000496E742E20454550524F4D2E2E2E0A00EF
:107CC00070B586B043F2E070C2F20000046854B3AD
:107CD000D0A12046FCF78CFA002869D043F2E4706A
:107CE000C2F20000006843F24824C2F2000478B1F6
:107CF00000210A22FCF7FCFA94F8201100F00100A0
:107D000004EB41010A8922F4007242EA4020088112
:107D100094F8201194F8200104EB40000089C0F38E
:107D20004022BEA09FE04BF26F50C0F6000002F070
:107D300097FF43F2482CC2F2000C9CF820119CF8EB
:107D400020210CF1080434F81220C2F340229CF8E0
:107D5000203134F81330C3F300239CF8200134F8A9
:107D60001000C0F3802E9CF8200134F81000C0F3FE
:107D700040009CF8205134F81540C4F380049CF86E
:107D800020510CEB8505D5F840519CF820610CEB97
:107D90008606D6F84861CDE900E04BF2C670C0F621
:107DA0000000CDE90245049602F022FF06B070BD46
:107DB0009EA12046FCF71CFA40B343F2E470C2F2E5
:107DC0000000006898B100210A22FCF791FA43F202
:107DD0004821C2F2000191F8202100F0010001EBDE
:107DE00042010A8922F4807242EA0020088143F2AB
:107DF0004820C2F2000090F8201190F8202100EBFA
:107E000042000089C0F3002289A02CE08CA120460A
:107E1000FCF7EEF960B343F2E470C2F200000068D0
:107E200098B100210A22FCF763FA43F24821C2F21A
:107E3000000191F8202100F0010001EB42010A89C4
:107E400022F4806242EA8020088143F24820C2F294
:107E5000000090F8201190F8202100EB42000089EA
:107E6000C0F3802278A006B0BDE8704002F0C0BE2A
:107E700079A12046FCF7BCF930B343F2E470C2F2BA
:107E80000000006898B100210A22FCF731FA43F2A1
:107E90004821C2F2000191F8202100F0010001EB1D
:107EA00042010A8922F0020242EA4000088143F2BC
:107EB0004820C2F2000090F8201100EB4100008938
:107EC000C0F3400166A02AE068A12046FCF790F9C3
:107ED00050B343F2E470C2F20000006898B1002190
:107EE0000A22FCF705FA43F24821C2F2000191F898
:107EF000202100F0010001EB42010A8922F0040276
:107F000042EA8000088143F24820C2F2000090F863
:107F1000201100EB41000089C0F3800154A006B09D
:107F2000BDE8704002F064BE54A12046FCF760F941
:107F300008B343F2E470C2F20000006868B10021A7
:107F40000A22FCF7D5F943F24821C2F2000191F868
:107F5000202101EB8201C1F8400143F24820C2F226
:107F6000000090F8201190F8202100EB8200D0F85A
:107F7000402143A077E746A12046FCF739F908B332
:107F800043F2E470C2F20000006868B100210A22E6
:107F9000FCF7AEF943F24821C2F2000191F820212A
:107FA00001EB8201C1F8480143F24820C2F200000F
:107FB00090F8201190F8202100EB8200D0F84821A1
:107FC00034A050E737A12046FCF712F9C8B143F2BC
:107FD000E470C2F20000006858B100210A22FCF7E8
:107FE00087F943F2482100F00100C2F2000181F854
:107FF000200143F24820C2F2000090F820112AA08C
:108000008DE74BF26F50C0F6000006B0BDE870403F
:1080100002F026BE73686F770000000043482564B5
:108020002053484F573D25640A00000061646400F6
:1080300043482564204144443D25640A0000000073
:1080400073696E676C650000434825642053494E90
:10805000474C453D25640A007478666400000000C2
:1080600020545846443D25640A00000062727300A3
:10807000204252533D25640A00000000636E7400E4
:108080004348256420434E543D25640A0000000007
:108090007072640043482564205052443D25647545
:1080A000730A0000636800002043483D25640A000D
:1080B000F0B581B043F2482543F2E070C2F200050A
:1080C000C2F2000095F82011006818B343F23C2278
:1080D00001F00101C2F2000252F821101022CE6814
:1080E00000210027FCF704F920F0604043F2E4711E
:1080F0003061C2F200010C6804204BF66C0130754F
:10810000C0F600012046FCF773F860B102207075DC
:1081100000200EE04BF29730C0F6000001B0BDE841
:10812000F04002F09DBD06F11A0120467775FCF77C
:10813000CFFF707695F8200100F0010001B0BDE896
:10814000F040FDF753BA0000B0B543F2E070C2F260
:1081500000000468ACB34BF66401C0F60001204691
:10816000FCF746F8D0BB204600210A22FCF7C0F8F5
:1081700043F2E471C2F200010D684BF65F0100F0BA
:108180000704C0F600012846FCF732F838B343F282
:10819000E870C2F20000006800B300210A22FCF778
:1081A000A7F843F2BC62C2F200020121938AA14007
:1081B00043EA0105C00708BF23EA0105204695826E
:1081C00086E04BF2A340C0F6000002F049FD002417
:1081D000A0B2FDF773FD0134082CF9D1B0BD3EA16A
:1081E0002846FCF705F8D0B143F2E870C2F200006F
:1081F00000680028F2D000210A22FCF779F843F247
:10820000BC62C2F200020121D38AA14043EA010507
:10821000C00708BF23EA01052046D58258E030A1F7
:108220002846FBF7E5FFD0B143F2E870C2F2000048
:1082300000680028D2D000210A22FCF759F843F246
:10824000BC62C2F200020121138BA14043EA010586
:10825000C00708BF23EA01052046158338E021A1A5
:108260002846FBF7C5FFB0B143F2E870C2F2000048
:1082700000680028B2D000211022FCF739F843F240
:10828000BC62C2F200020146000C02EBC402108480
:10829000204651841CE014A12846FBF7A9FFB0B189
:1082A00043F2E870C2F200000068002896D0002176
:1082B0001022FCF71DF843F2BC62C2F20002014634
:1082C000000C02EBC40290842046D18400E02046DA
:1082D000BDE8B040FDF7F2BC7363616C650000005F
:1082E00061637400723000007231000070B54BF6AB
:1082F000C4060025C0F6000605A400BF7019715918
:108300004268204602F074FC0C35782DF6D170BD21
:10831000202573202D3E20257300000010B543F268
:10832000E070C2F200000468C4B320A12046FBF74D
:108330005FFF18B1BDE81040FDF726BD4BF6A00168
:10834000C0F600012046FBF753FF78B143F2482006
:10835000C2F200000021C0F85811C0F85C11C0F84A
:108360006011C0F83811C0F83C1110BD10A12046B2
:10837000FBF73EFF48B143F24820C2F2000081887B
:108380000DA0BDE8104002F033BC0FA12046FBF762
:108390002FFF18B1BDE81040FCF788BF4BF27E40BC
:1083A000C0F60000BDE8104002F05ABC73797300BB
:1083B00072656773000000002046554E433D3078DB
:1083C000253034580A000000636C6B0010B543F28E
:1083D000E070C2F20000006880B141F200040021A8
:1083E0001022C4F20104FBF783FFC00707D1204627
:1083F0004FF40051BDE81040FEF7C0BC10BD204650
:108400004FF40051BDE81040FEF7BABCB0B543F2DE
:10841000E070C2F200000068C0B100211022FBF73A
:1084200067FF04466FF31100B0F1006F0FD047F6FD
:10843000FF7024EA0000B0F1005F08D04BF26C201E
:10844000C0F60000BDE8B04002F00ABCB0BD43F287
:10845000E470C2F20000006830B100211022FBF786
:1084600047FF85B2072D01D84FF480752046294675
:10847000FCF7C6FE034603A021462A46BDE8B040ED
:1084800002F0B6BB53544152543D30782530385831
:10849000204C454E3D307825303858204352433DDE
:1084A0003078253034580A002DE9F04381B0FEF7CA
:1084B000F6FC10B101B0BDE8F08343F2E070C2F207
:1084C000000000680028F5D000211022FBF710FF03
:1084D000A8B1044643F2E470C2F20000006800252F
:1084E00090B100211022FBF703FF87B2B7F5807F20
:1084F00088BF0125072F98BF4FF4807706E04BF225
:108500006C20C0F6000021E04FF48077002D18BFEA
:108510004FF48077B7B14BF6060900260FF2380802
:10852000C0F60009002500BF300703D131194046CD
:1085300002F05EFBA15D484602F05AFB0135AEB287
:10854000B742F1D84BF60400C0F6000001B0BDE818
:10855000F04302F085BB00BF0A3078253038582040
:108560000000000010B543F2E070C2F200000468A1
:1085700064B34BF64701C0F600012046FBF738FE16
:1085800030B116A002F06CFBBDE81040FCF7CBBD8B
:108590004BF67301C0F600012046FBF729FE30B10F
:1085A00017A002F05DFBBDE81040FCF7FEBF4BF6E4
:1085B0006401C0F600012046FBF71AFE30B118A096
:1085C00002F04EFBBDE81040FCF764BF4BF2DD50FB
:1085D000C0F60000BDE8104002F042BB204C6F61C5
:1085E0006420706172616D65746572732066726F6C
:1085F0006D20454550524F4D2E2E2E0A0000000092
:10860000205361766520706172616D657465727367
:1086100020746F20454550524F4D2E2E2E0A0000DB
:1086200020526573746F72652064656661756C7441
:1086300020706172616D65746572732E2E2E0A0052
:1086400043F2E070C2F20000006808B9002003E0C5
:1086500000210A22FBF74CFEFCF784FB03A002F08A
:10866000FFFA012080F31388FDF73EFF2072656258
:108670006F6F74696E672E2E2E200A00F0B581B0E0
:1086800043F2482543F2E070C2F20005C2F2000056
:1086900095F82011006810B343F23C2201F001016B
:1086A000C2F2000252F821101022CE6800210027E9
:1086B000FBF71EFE6FF3DF20F06043F2E470C2F2BE
:1086C000000004684BF66C01C0F6000120463775C7
:1086D000FBF78EFD60B10220707500200EE04BF2BA
:1086E000D830C0F6000001B0BDE8F04002F0B8BAE2
:1086F00006F11A0120467775FCF7EAFC707695F8CA
:10870000200100F0010001B0BDE8F040FCF76EBFB1
:1087100010B543F2E070C2F2000004686CB34BF68F
:108720005A01C0F600012046FBF762FD002856D032
:1087300043F2E470C2F200000068002800F0838079
:1087400000210A22FBF7D4FDFDF7AAFD43F24821E0
:10875000C2F20001CA8800F00F0022F4706242EAFF
:108760000020C880C8884BF24401C0F30320C0F643
:10877000000151F8201061A073E04BF20F50C0F6D9
:10878000000002F06DFA43F24824C2F20004E088CF
:108790004BF24401C0F30320C0F6000151F8201051
:1087A00076A002F025FAE0884BF63702C0F30131DB
:1087B000E0884BF63C0300F44050B0F5805F4BF28C
:1087C000AA70C0F60002C0F60000C0F6000308BFA1
:1087D0001A4602F00DFAE088C1B26BA041E04BF6F8
:1087E0005F01C0F600012046FBF702FDE8B343F24B
:1087F000E470C2F200000068002854D000210A2270
:10880000FBF776FD43F24822C2F20002D1884BF614
:108810003C0321F4405160F30D31D180D088C0F683
:108820000003C0F30131D0884BF6370200F440500A
:10883000C0F60002B0F5805F4BF25C3008BF1A460C
:10884000C0F6000046E043F24820C2F20000C088B3
:108850004BF24401C0F30320C0F6000151F8201090
:1088600035A0BDE8104002F0C3B93DA12046FBF79A
:10887000BFFC98B343F2E470C2F200000068A8B3F2
:1088800000210A22FBF734FD43F24821C2F2000125
:10889000CA8860F30702CA80C888C1B24BF2375059
:1088A000C0F60000DDE743F24820C2F20000C188B4
:1088B0004BF63702C1F30131C0884BF63C0300F49C
:1088C0004050C0F60002C0F60003B0F5805F08BF5C
:1088D0001A461EA0BDE8104002F08AB94BF20F50B4
:1088E000C0F60000BDE8104002F0BAB943F24820DB
:1088F000C2F20000C088C1B21BA0B2E72073657449
:108900002055415254204241554420746F20256C1B
:10891000642C20736176652026207265626F6F7407
:1089200020746F206170706C79206E6577206261B1
:1089300075642E0A00000000205541525420424127
:108940005544203D20256C640A000000205541520A
:1089500054204D4F4445203D2025642025730A00B6
:10896000616464720000000020554152542041446B
:108970004452203D2025640A000000002042415559
:10898000443D256C640A000020414444523D256466
:108990000A00000070B54BF22610C0F600000088F7
:1089A000410AC0F3431200F01F030BA002F020F9AC
:1089B0004FF2E8760025C1F6FF7610A436F81510C0
:1089C000204602F015F90135062DF7D10DA0BDE8BE
:1089D000704002F045B900BF2055534243414E203C
:1089E0006F6E204744333245313033207625642E74
:1089F00025642E256420534E3A000000253034585B
:108A0000000000000A204543484F205374756469F4
:108A10006F203C6563686F2E786A747540676D617E
:108A2000696C2E636F6D3E2E20416C6C205269671D
:108A30006874732052657365727665642E200A002F
:108A4000406A70474162704710B541F6FF31C4F289
:108A5000000188421BDC40F6FF31C4F2000188426D
:108A600030DD41F2FF31C4F20001884251DC40F6B2
:108A70000041C4F2000188426AD041F20001C4F210
:108A80000001884240F0838040F2044477E043F2E2
:108A9000FF31C4F20101884226DD44F6FF71C4F2C1
:108AA0000101884244DC43F20041C4F201018842E2
:108AB00051D044F60041C4F20101884267D140F22E
:108AC00013345CE0B0F1804F48D040F20041C4F272
:108AD0000001884245D040F60001C4F200018842FE
:108AE00055D140F202444AE041F60041C4F200018F
:108AF000884239D042F20001C4F20001884236D0E7
:108B000042F60041C4F20101884240D140F20B34E8
:108B100035E041F20041C4F2000188422AD041F61A
:108B20000001C4F20001884231D140F2064426E03F
:108B300045F20001C4F2010188421ED045F2004115
:108B4000C4F20101884218BF10BD40F2153416E08E
:108B500040F2034413E040F20D3410E04FF480641F
:108B60000DE040F201440AE040F2074407E04FF410
:108B7000816404E040F2054401E04FF4457420466E
:108B8000FEF78CFB2046BDE81040FEF777BB10BD1A
:108B9000016841F001010160704780B50A8843F225
:108BA000004C826240F6FF32C4F200029042C4F2EE
:108BB000010C0DDCB0F1804F18D040F20043C4F23C
:108BC0000003984212D040F60003C4F200030BE009
:108BD00040F60043C4F20003984207D0604505D038
:108BE00042F60043C4F2010398420FD1036823F018
:108BF000700303604B88026803F060031A4302604D
:108C00008A88036802F010021A43026041F20042AF
:108C1000D1F808E040F48063C4F200029342C0F847
:108C20002CE009D0026822F4407202608A8903684D
:108C300002F440721A430260604505D042F60042D9
:108C4000C4F20102904201D1897B0163416941F084
:108C50000101416180BD00002DE9F04381B043F284
:108C60003C2001F00104C2F2000050F824502868B2
:108C70008669FDF747FE43F24829C2F20009EF6812
:108C8000B9F8041043F2F07811F0300FC2F2000886
:108C90000BD0034658F82400704010F0060F04D0A3
:108CA0001BA02146324601F0A3FFE87910BBF87DF6
:108CB00000BB700707F10C000AD518F8241049070B
:108CC00006D443F24071C2F20001E522E5270BE031
:108CD000B1070FD518F8241089070BD443F240715F
:108CE000C2F20001E322E327FCF731F92846FEF740
:108CF00019FBEF7109EB8400D0F85001F1B2084381
:108D000004BF0020E87148F8246001B0BDE8F0839A
:108D10004572723A2043414E25645F4552523D30C0
:108D20007825303858204C45433D25640A00000022
:108D30002DE9F04143F24826C2F2000696F86A0196
:108D4000002800F0BE80002043F2BC6186F86A0172
:108D5000C2F20001D6F83401B1F8681040F60044C0
:108D6000C4F201048842A4F580604FF0020102D9E8
:108D7000FEF706F801E0FEF701F843F2FA75C2F2D9
:108D80000005288843F2F97801306FF35F2043F241
:108D9000F877B0F5FF7FC2F20008C2F20007288022
:108DA00016DA20B3012848D196F86C01FF21FF287C
:108DB00088F8000086F86C113FD143F23C20C2F2E3
:108DC00000004068407A98B320464FF400611FE0ED
:108DD00021D040F2FF1188422FD1D6F8740160B340
:108DE000012086F86C010020C6F8740125E096F891
:108DF0006B01FF21FF28387086F86B111ED143F2FA
:108E00003C20C2F200000068407A70B12046202168
:108E1000FDF7B6FF11E0D6F8700170B1012086F8B9
:108E20006B010020C6F8700107E02046202102E017
:108E300020464FF40061FDF7A1FF3878022808D0E2
:108E4000012819D12888B0F5817F11D0022805D0DA
:108E500012E0288800F03F01032904D12046202198
:108E6000FDF78EFF08E0203000F03F00032803D11B
:108E700020462021FDF782FF98F80000022808D044
:108E800001281ED12888B0F5827F13D0042805D090
:108E900017E0288800F03F01052906D120464FF44D
:108EA0000061BDE8F041FDF76BBF203000F03F00EE
:108EB000052806D120464FF40061BDE8F041FDF7DA
:108EC0005DBFBDE8F0810000B0B543F2482EC2F2AC
:108ED000000EDEF8281143F2FE730131CEF828119E
:108EE00043F6000CC2F20003C2F2000C1A88BCF870
:108EF0000010501C82B242F211740131A2420AB237
:108F0000ACF80010188032D3002018809EF8201191
:108F10000EF1100301EB011103EBC1018C8804F089
:108F20003F048C809EF8201101EB011153F83110A1
:108F30009EF820419EF8205104EB041405EB051522
:108F400003EBC505AD8803EBC40404EB4504E180E5
:108F50009EF8201101EB011143F831009EF8200129
:108F600000EB001003EBC0008188013181800A2AE8
:108F70001FDB43F2FC73C2F20003188800220130A9
:108F800081B2B1F57A7FACF8002018800BD31A803B
:108F9000DEF82C010130CEF82C01BEF8000040F0C4
:108FA0001000AEF80000DEF824010130CEF82401F4
:108FB000B0BD072A35D8DFE802F004050B0F1823EF
:108FC000292FF0E7DEF830010130CEF83001B0BDD6
:108FD00001208EF86A01B0BDDEF8500108B3DEF85A
:108FE00050010138CEF85001B0BDDEF8540102281E
:108FF00038BFB0BDDEF854010138CEF85401B0BD21
:10900000DEF834010130CEF83401B0BDDEF83801AD
:109010000130CEF83801B0BDDEF83C010130CEF8A9
:109020003C01B0BD2DE9F04F81B043F23255C2F2A0
:1090300000052878002867D04BF60A0105F1C10029
:10904000C0F60001FBF7FAF843F2DC7643F2E07B6E
:1090500043F2E47443F2E87843F2EC79C2F200069A
:10906000C2F2000BC2F20004C2F20008C2F2000910
:10907000306028B34BF60A01C0F600010020FBF770
:10908000DDF8CBF80000D8B14BF60A01C0F60001BC
:109090000020FBF7D3F8206090B14BF60A01C0F630
:1090A00000010020FBF7CAF8C8F8000040B14BF6F9
:1090B0000A01C0F600010020FBF7C0F8C9F8000063
:1090C000A14634684BF6C40A0027C0F6000A00BF68
:1090D0005AF807102046FBF78BF818B90C37C02F49
:1090E000F6D103E00AEB07008068804743F2EC7199
:1090F0000020C2F200013060CBF80000C9F8000087
:10910000C8F800000860287001B0BDE8F08F0000CA
:10911000F0B581B043F24825C2F2000595F8691117
:1091200000293BD0002143F20F46044695F869011F
:1091300085F86911C2F200063178122930D17178B0
:10914000013914292CD8DFE811F015002B00370065
:109150005F002B0082002B002B002B002B002B002C
:109160009D00AC00C400E0002B002B00060139017B
:109170004D018A01042840F08B81B078012840F02D
:10918000878143F2205040F21211C2F20000C0F277
:10919000830101604FF4817181800DE101B0F0BD68
:1091A000A88810F0300F00F073814BF26720C0F6F2
:1091B0000000FCF751FE6BE1072840F0698130792F
:1091C00043F23C22C0F30011C2F2000252F8211017
:1091D00043F60402C2F20002116000224FF0FF3396
:1091E000C1E904238A610122B6F805300A77022218
:1091F00002EA9010A1F81D30C87743F22050C2F265
:10920000000040F212311EE00D2840F04181B0789C
:109210000A2840F03D8143F60401D6F80500C2F269
:1092200000010968D6F8092000BA086112BA30793D
:10923000D2434A61C0F38010087743F22050C2F253
:10924000000040F21241C0F28101016081E0052876
:1092500040F01E81B078022840F01A8143F220507D
:1092600040F21261C2F20000C0F28A0101600121E5
:1092700001710021C0F8051040F29531C0F80910C5
:109280000D2003E1072840F00381B078042840F066
:10929000FF8030797179B279C0F30010FBF77AFB67
:1092A0004FE0062840F0F480B078032840F0F080CA
:1092B00043F2205740F61250C2F20007C0F282007B
:1092C000386030797179C0F30010FBF7B1F938716B
:1092D00086E0052840F0DC80B078022840F0D88095
:1092E0003079042101EA900043F23C21C2F20001EE
:1092F000085843F60407C2F200073860FBF715FA76
:1093000038680121417281711BE0052840F0C0805E
:10931000B078122840F0BC803079042101EA900036
:1093200043F23C21C2F20001085843F60407C2F29E
:1093300000073860FBF75DF93868417A09B1002110
:109340004172308843F22051C2F20001088081202E
:10935000488004209AE0042840F09A80B0780128E0
:1093600040F096804BF22610C0F6000000884CF6C4
:10937000CD4200F01F01CCF6CC42A1FB023743F2F4
:10938000205341F21226C2F20003C0F28306FF0806
:109390001E6007EB8706A1EB460141EA0711197130
:1093A000C0F34310A0FB0212D10801EB8102A0EB35
:1093B000420040EA01105871062067E0042867D196
:1093C000B078012864D143F2205041F21231C2F248
:1093D0000000C0F282010160A988C1F3012101717E
:1093E000052053E0042853D1B078012850D143F22E
:1093F000205641F21240C2F20006C0F28D002EA1AA
:10940000306008894A68897AB0812B48B173314647
:1094100041F8040FFC20B260C0F600000068FCF7C1
:1094200012FB4BF22610C0F6000000884CF6CD412E
:10943000CCF6CC41A0FB0123400AA0FB0112302155
:1094400041EA13317173D10801EB8101A0EB4100B6
:1094500040F03000B0730020F073102016E00428B4
:1094600016D1B078012813D143F2205041F21251A5
:1094700045F25532C2F20000C0F28701C4F2423216
:10948000C0E9001244F6416101810A20FDF71FFF87
:10949000A88800F03000302802D10AA0FCF7DCFCDC
:1094A00043F20F42C2F2000220460121102301B014
:1094B000BDE8F04000F061BF323031343039323233
:1094C00030303000496E666F3A000000B0B543F2AC
:1094D0004824C2F2000494F8661139B1D4F8380176
:1094E00033282BD3002084F86601B0BD43F617055E
:1094F000C2F2000595F900100129B8BFB0BD95F87A
:109500004211132211FB0252294491F831310132E8
:10951000812100F04CFF012084F866010020C4F88E
:10952000380195F84201411CCAB20F2A88BFA0F148
:109530000F0185F84211287801382870B0BD00006D
:109540002DE9F04743F6160AC2F2000A9AF8001015
:10955000044606292ED8DFE811F007003800820003
:10956000D800EC00F700390143F24822C2F20002B1
:1095700092F86701002800F0278192F8681143F6FD
:109580001400C2F2000000231329017082F8673131
:1095900018BF392940F06481D2F85C010130C2F86B
:1095A0005C0143F61500C2F20000C2F834310370CA
:1095B00003204AE143F27C62C2F20002204602210B
:1095C000402300F0DAFE0020FCE043F61508C2F26A
:1095D000000898F8000043F27C61C2F200011322F7
:1095E00010FB021143F60800C2F200000160887906
:1095F0004FF0040943F23C2209EA9000C2F2000253
:10960000145843F60C06E06843F6100700F10C0509
:10961000C2F20006C2F20007284634603D60FBF744
:1096200077FB20462946FBF73DFB3068C17F0229C6
:1096300040F0FC8043F61400C2F20000007846F6C9
:10964000CB31CAF62871A0FB0112801A02EB500040
:10965000000988F800008AF80090BDE8F08743F61A
:109660000C07C2F20007386843F2C439C2F200099D
:10967000006899F80010FBF7F4F9396805460968A5
:109680000846FDF73FF943F24828C2F20008B8F84F
:1096900004100446890604D5A8A02946224601F0F4
:1096A000A7FA042D18BF022D00F08E80012D0BD0DB
:1096B000032C40F0DE8043F61000C2F20000006888
:1096C000C07A002800F0D580396843F61500C2F250
:1096D0000000C96802780B6801320270581C0860EB
:1096E000D0B21321484343F61401C2F200010978B5
:1096F0000422884238BF03228AF8002000224FF05B
:1097000080400021C8F83021A6E043F24820C2F290
:10971000000084884FF08040FFF792F943F2BC616B
:10972000C2F20001B1F86A10620788424CD90120E8
:1097300048E043F27C62C2F200022046022140234C
:1097400000F01BFE05207BE043F24825C2F2000535
:1097500095F86601C0BB4FF08040FFF771F943F206
:10976000BC61C2F20001B1F86C1088422CD943F6FA
:10977000100143F22052C2F20001C2F20002132093
:1097800009681070087B43F61501C2F200010978E0
:109790005070917020468121032300F008FE0120C3
:1097A00085F866010020C5F8380140F60000C4F2D3
:1097B00001000421FDF7E4FAD5F860010130C5F895
:1097C000600106208AF80000BDE8F08743F60C002F
:1097D000C2F200000068C079002843F24820C2F2BB
:1097E00000000ED143F61001C2F200010968097BA6
:1097F00000EB8102D2F850211AB90144012281F80C
:109800006B2190F8661129B1D0F83801332838BFA0
:10981000BDE8F087002240F60000C4F201000421F8
:109820008AF80020BDE8F047FDF7A8BA006839685B
:10983000FBF7DCF843F2C431C2F2000108700220E9
:1098400043F24822C2F2000200238AF800004FF0DF
:1098500080400021C2F83031BDE8F047FFF7F2B890
:1098600026293FF499AE908810F0300FACD03FA07D
:109870005FE0D8F8300140F2816188421CD843F69D
:109880001000C2F200000168032D0BD1087B0222F8
:10989000404480F86B21087B4FF47A7208EB80001B
:1098A000C0F8502138680068FBF7A0F889F800007C
:1098B000BDE8F047FDF74ABA3868006899F800102B
:1098C000FAF700FE3868C068416801314160042041
:1098D0008AF800000020C8F830014FF080400021D5
:1098E000FFF7B0F843F61000C2F2000000683968D4
:1098F000037BE222CA7108EB0301022281F86B218B
:10990000017B4FF47A7208EB8101C1F8502143F2D8
:109910004071C2F20001E222FBF719FB3868FDF743
:1099200001FDB8F8040010F0300F3FF44DAF07A070
:109930002146BDE8F04701F05BB900BF53544154E4
:109940003D2564204C45433D25640A004572723A2A
:10995000205472616E736D6974204661696C656430
:10996000204C45433D25640A000000004572723AD0
:10997000206461744F75744C656E3D25640A000067
:10998000FCF700BDB0B5044644F6FF30C4F2000059
:109990000D4684424FF0000013DD44F60041C4F24E
:1099A00000018C4219D045F20001C4F200018C4242
:1099B00013D043F60001C4F201018C4210D1032000
:1099C0000CE044F20041C4F200018C4205D044F6A0
:1099D0000001C4F200018C4202D10220FDF7AAFB73
:1099E00000EB5500B0FBF5F080B2A060B0BD10B543
:1099F00044F6FF31C4F20001884215DD44F600410F
:109A0000C4F2000188421ED045F20001C4F20001F8
:109A100088421BD043F60001C4F20101884218BFFE
:109A200010BD40F20E3416E044F20041C4F20001D1
:109A300088420ED044F60001C4F20001884212D1DF
:109A400040F2124407E040F2134404E040F21444B0
:109A500001E040F211442046FDF720FC2046BDE81D
:109A60001040FDF70BBC10BDC16841F40051C1604E
:109A7000704701F01F0289094FF0010C0B580CFAD6
:109A800002F21A430A507047C26822F4C062C260F0
:109A9000C2681143C1607047C26822F004021143DA
:109AA000C1607047026922F44052026102691143A9
:109AB00001617047C26822F008021143C16070471B
:109AC000C26822F48052C260C2681143C16070470C
:109AD000F0B581B00C4605464FF0000C022180F82D
