:020000040800F2
:10400000604F002065410008ED4B0008E54A0008BC
:10401000B14B0008294200080952000800000000C6
:10402000000000000000000000000000C74C000875
:104030007747000800000000254C00087F4F00086B
:104040007F4100087F4100087F4100087F41000850
:104050007F4100087F4100087F4100087F41000840
:104060007F4100087F4100087F4100087F41000830
:104070007F4100087F4100087F4100087F41000820
:104080007F4100087F4100087F4100087F41000810
:104090002B4200087F4100087F4100087F41000853
:1040A0007F410008215100087F4100087F4100083E
:1040B0007F4100087F4100087F4100087F410008E0
:1040C0007F4100087F4100087F4100087F410008D0
:1040D0007F4100085F5100087F4100087F410008D0
:1040E0007F4100087F410008AB5100087F41000874
:1040F0007F4100087F4100087F410008FFFFFFFF6C
:104100007F410008000000007F4100087F41000857
:104110007F4100087F4100087F4100087F4100087F
:104120007F4100087F4100087F4100087F4100086F
:104130007F41000800000000000000007F410008EF
:10414000394200087F4100087F4100089F51000864
:10415000DFF80CD000F02AF8004800472558000886
:10416000604F00200648804706480047FEE7FEE70C
:10417000FEE7FEE7FEE7FEE7FEE7FEE7FEE7FEE717
:10418000854F000851410008D2B201E000F8012B30
:10419000491EFBD270470022F6E710B513460A46C7
:1041A00004461946FFF7F0FF204610BD064C074DA8
:1041B00006E0E06840F0010394E8070098471034F7
:1041C000AC42F6D3FFF7C8FF347A0008547A0008EF
:1041D00070B58C1810F8015B15F0070301D110F8C9
:1041E000013B2A1106D110F8012B03E010F8016BF6
:1041F00001F8016B5B1EF9D12B0705D40023521E79
:104200000DD401F8013BFAE710F8013BCB1A921CE0
:1042100003E013F8015B01F8015B521EF9D5A142DE
:10422000D8D3002070BD0000FEE740F20C10C2F2AF
:104230000000002100F0F6B942F28430C2F2000022
:10424000012100F0EFB9000080B5024646F20040BF
:10425000C4F2000000F58060002A04BF46F200406E
:10426000C4F200000F294FF000025AD8DFE801F035
:1042700008591A595959313C59595959422F4E52D6
:1042800040F01C020168136812689B0F43EAC101E9
:104290000423006801F0120103EA1272114400F0D5
:1042A000010012E040F00400D0F800C00268402392
:1042B00003EA421203682021006801EAD3011023B7
:1042C00042EACC1203EA501011440A1829E0602295
:1042D00027E040F01C0001680068C02201F03F01A7
:1042E00002EA904042181CE040F01C000068C0F355
:1042F000064216E000F0AEFF011F02290ED301288E
:104300000ED0022814BFC02240220AE0BDE880403F
:1043100001F094B8BDE8804001F0E8B8002200E068
:104320008022D0B280BD000047F6BC110022C0F64A
:10433000000100BF31F82230834204D001320F2A3D
:10434000F8D1072203E090B20F2828BF072290B2CD
:1043500001EB800040887047F0B581B000F118068D
:10436000044600203146002701F06CF804F12405D2
:104370000120294601F066F8E07D20764FF001200B
:10438000E0614FF480702084218847F60A10C0F65F
:10439000000000BF00EBC702D2888A4204D0013778
:1043A000162FF7D10B2702E0162F28BF0B27F9B2E3
:1043B000152988BF0B2100EBC10230F8310091783C
:1043C000A4F81900E176606891880068618431463C
:1043D00000F0AAFF012084F834000020217D20860F
:1043E0000129A168A08513D1022221F0070002EA69
:1043F0005103E76803444FF6F870090C384002EAAD
:104400005702A184390C1044E384218501210CE07A
:10441000E0680A0CA284E1846FF00F0101EA104108
:1044200021854FF6F0710840002140F2D402C2F21B
:104430000002608500206186944208BF0E20E0855E
:10444000284600F018FF60680221006800F0F2FFC3
:104450000E2001B0BDE8F04000F0E5BE00214FF0B5
:10446000FF320123C0E90012C0E9021370470000C7
:104470002DE9F0470446C06B012834DB42F260208E
:1044800044F2086588462718C2F200054FF001097A
:1044900042F2382A2046414600F030FC85F841912E
:1044A0000646E16A06EB460201EBC2012068B9420A
:1044B00088BFA1EB0A01E162022100F0B6FF20688B
:1044C000E16B891BE163022100F0B4FF206B3044F3
:1044D000206300BF95F841010028FBD101F0F8F8F6
:1044E000E06B0028D6DC206BBDE8F08780B500EBE0
:1044F000011EDEF8B0C11CF004031372DEF8B0C177
:1045000019BF4FEADC0353604FEA5C531360DEF8D7
:10451000B031002903F002035372DEF8B4314FEAE0
:1045200013231375DEF8B43103F00F03D372DEF8F2
:10453000B8311373DEF8B8314FEA13235373DEF842
:10454000B8314FEA13439373DEF8B8314FEA13637F
:10455000D373DEF8BC311374DEF8BC314FEA132399
:104560005374DEF8BC314FEA13439374DEF8BC3168
:104570004FEA1363D3744FF0100208BF0C22815826
:1045800041F02001815080BD1046704710B50246B1
:104590008068400109D49068000108D49068C00088
:1045A0005CBF032010BD022002E0002000E00120DB
:1045B00002EB0012D2F8803103F00103C2F880311F
:1045C00091F808C0BCF1000F03D04B684CEAC30C53
:1045D00002E00B684FEA435C4B7A91F80CE0D2F8AA
:1045E000804143EA0C032343C2F88031D2F884317E
:1045F00023F00F03C2F88431D2F8843143EA0E036A
:10460000C2F88431D1F80D30C2F88831D1F81110D8
:10461000C2F88C11D2F8801141F00101C2F880116A
:1046200010BD00002DE9F04F81B004460068C2685B
:10463000920740D00D4642F2602104EB010944F29A
:104640000861C2F2000101EB850202F5A47705EBD7
:10465000051201EBC20104F1380804F1340A01F13A
:104660000C0642F2202B00BFE16BB1F5B67F11DCE6
:10467000A26A0021FFF73AFFA06AE16B00F118027D
:1046800085724A4588BFA0EB0B02481CA262E0631A
:10469000504603E0002100F0E1FD40460168013191
:1046A000016038680130386030680130306020685F
:1046B000C1688907D8D101B0BDE8F08F80B540F25C
:1046C000045001F020FA40F2025001F01CFA4FF4BD
:1046D000C06001F009FA40F2026001F005FA40F210
:1046E000036001F001FA40F2046001F0FDF940F2CC
:1046F0001C7001F0F9F940F20B6001F0F5F940F29D
:104700000C5001F0F1F940F2197001F0EDF940F2AE
:104710001A7001F0E9F940F20E6001F0E5F944F693
:104720005831C2F20001002200200A60BDE880403A
:1047300001F017BA80B584B036228DF800200268E7
:1047400043688068CDF80120AA228DF80520252233
:10475000CDF806308DF80A20CDF80B009B208DF89F
:104760000F00684600F090FC9DE80F004840504064
:10477000584004B080BD7047D1F807300246580950
:10478000DB08C2E90003487904239072887903EAC0
:10479000501010728879022303EA50105072887901
:1047A000C0F30010D072887900F00F001073D1F8B8
:1047B0000F00D1F80B10C2F811001320C2F80D1031
:1047C0007047000070B543F60045C0F600054FF68F
:1047D000FF76A81C0021802202F4607330F8024C9E
:1047E0002B431B880CB9B34215D001318030082906
:1047F00002F18002F0D144F63234C2F2000400200B
:10480000208000F009FF208805EBC01000F0C9FEF1
:1048100000F0BEFE05E044F63232C2F20002118022
:104820000688304670BD000080B544F63230C2F2D2
:104830000000018843F6024CC0F6000C01F00702AC
:1048400002804FEAC21E4CEAC21044F6B222831C18
:104850000020C2F2000200BF195A115202307C2817
:10486000FAD14EEA0C000088A2F87C0080BD00005E
:104870002DE9F04144F63236C2F20006308844F6A3
:10488000B22400F00700C2F2000443F60048308072
:1048900020463E21C0F6000800F08CF9054600F0E5
:1048A000BBFE31884FF48072481C00F0070002EB19
:1048B000C111308001F4607131F808204FF6FF73A8
:1048C0009A4204D041EA080000F06BFE308808EB01
:1048D000C010290400F0B3FE002700BF308808EBA9
:1048E000470101EBC01054F81710043000F0A7FE88
:1048F000B91C8FB23E2FF1D3054600F049FE284681
:10490000BDE8F081704744F20862C2F20002D2F8BA
:104910002421130A0A704B70130C120E8B70CA708C
:1049200000228A80C27A8A71837A03F0010342EA04
:1049300003128A71437A022B04BF42F040028A714B
:10494000037A042B05D142F080028A71031D0322F1
:1049500001E0052203461B6803FA02F2C1F80720B2
:10496000D0E903321320C1F80F20C1F80B30704793
:10497000B0B50C4644F20861C2F20001D1F824112E
:104980000546080A21706070080CA070080EE070DF
:10499000002022716071287B012181430844A071AD
:1049A000E97A01F0010140EA0110A071697A022957
:1049B00004BF40F04000A071297A042904BF40F0F0
:1049C0008000A071E32A06D0E22A15D16020A4F865
:1049D000070000200DE0E87A0C21FFF735FCE071BC
:1049E000E87A0E21FFF730FC2072E87A0F21FFF7FA
:1049F0002BFC60720020A07200211320C4F80F105D
:104A0000C4F80B10B0BDB0B540F60004C4F2010408
:104A10002046182101224FF4007300F075FE204655
:104A2000482101224FF4806300F06EFE04F580659A
:104A3000284610210222202300F066FE2846482145
:104A400003224FF4807300F05FFE284618210322F2
:104A50004FF4007300F058FE4FF4EA10012100F00B
:104A6000AAFE2846102102224FF4006300F04CFEFB
:104A70002846482103224FF4805300F045FE284683
:104A8000182103224FF4005300F03EFE2046182167
:104A900003224FF4006300F037FE20461821032262
:104AA0004FF4805300F030FE04F500601021022224
:104AB0004FF4005300F028FE2046482101224FF415
:104AC000807300F021FE204610210322012300F014
:104AD0001BFE2046102103220423BDE8B04000F055
:104AE00013BE0000FEE710B544F6B224C2F2000483
:104AF0002046382100F05EF808B1002010BD218862
:104B000044F20860C2F20000C180218A0181618AFA
:104B10004181C18801F44051B1F5405F03D1C188A2
:104B200021F44051C18047F6F812C188C0F6000256
:104B30001278C1F30321914205D3C18821F4706139
:104B400001F54071C180C2884FF0FF3344F668110F
:104B500053FA82F3C2F20001F72B81F8412108D306
:104B6000C28842F0010222F0FE02C280012281F8D6
:104B7000412147F6BA110289C0F60001097802F016
:104B80001F028A4205D3028942F00C0222F013026E
:104B90000281428902F01F028A4205D3418941F015
:104BA0000C0121F0130141814FF0FF3010BD0000D6
:104BB000FEE70000B0B54FF6FF72A9B14FF0000C50
:104BC0004AF2010E30F81C305A4000238EEA52049B
:104BD000D50703F1010308BF5408082B2246F5D37B
:104BE0000CF1010C8C45EDD190B2B0BD704780B591
:104BF0004FF4A06000F040FF43200121002200F0AC
:104C000008FF14200221012200F003FF40200221AE
:104C1000022200F0FEFE252003210122BDE8804093
:104C200000F0F7BE704710B544F6B224C2F200049B
:104C3000A01C6C21FF22FFF7A7FA44F20860C2F221
:104C400000000021C180C288012342F0010222F04D
:104C5000FE02C280C28822F4706202F54072C280F5
:104C6000C28822F44052C280C28863F39F32C2805D
:104C7000C28822800181018941F00C0121F01301D9
:104C80000181018921F440710181018941F4806130
:104C90000181018921F400610181018921F48051A0
:104CA00001810189418101892182408940216082FD
:104CB0000020CFF6FF7060611120208304F12000F6
:104CC000FFF769FA10BD704710B544F20860C2F2F0
:104CD0000000C18844F6B224C2F200042180018998
:104CE00021824089372160822046FFF763FFA4F8C4
:104CF0006E00BDE81040FFF7BBBD00002DE9F04796
:104D0000C66AC26B88461204B2F5003F21DD4FF639
:104D10009461CFF6FF7142F2602244F6101900EB65
:104D2000020A0027C2F2000901EB410409EB070166
:104D3000304606F11805FFF7E6FD554507F1130764
:104D400088BF06EBC405392F2E46EFD10325392342
:104D500030E0B2F5803F24D0B2F5003F35D14FF6B8
:104D60009461CFF6FF7142F2602244F6101900EB15
:104D7000020A0027C2F2000901EB410409EB070116
:104D8000304606F11805FFF7BEFD554507F113073C
:104D900088BF06EBC405262F2E46EFD10225262319
:104DA00008E044F61011C2F200013046FFF7ABFDF7
:104DB0000125132344F61012C2F20002404682215C
:104DC00002F065F82846BDE8F0870025FAE7000004
:104DD0002DE9F04381B00D46804608461146FFF7A5
:104DE000CBFCE87A44F2FC5100F00100C2F2000171
:104DF00051F82070A97A7868027B8A4224D003296E
:104E00001AD8DFE801F002040D11012100E00021B1
:104E1000FA7DF977911EB1FA81F1490949000AE05A
:104E20000121FA7DF97703E00021F977FA7D01216C
:104E3000022A08BF03213976006807F1180100F043
:104E400073FAA97A78680173F97D022901D10120EA
:104E50002BE044F20864C2F200040021C4F82C11D3
:104E600000682946FFF792FBD4F82C110A2904D8D0
:104E7000C6B2032E1CD17868F2E744F6D006C2F21F
:104E8000000628463146E222FFF772FD40468221A5
:104E90003246132301F0FBFF012084F8410100BFDB
:104EA00094F841010028FBD1002001B0BDE8F08357
:104EB0000020C4F82C01F87F0128C8D140F2836992
:104EC00078683146006800F015FB0128BFD0D4F89F
:104ED0002C01484507D200F0FBFBF87F01284FF07A
:104EE0000100EDD0E1E778683146006800F0E0FAB3
:104EF00044F6D006C2F2000628463146E222FFF709
:104F000037FD404682213246132301F0C0FF0120C5
:104F100084F8410194F8410100284FF00000F9D1D4
:104F2000C3E744F2046CC2F2000CDCF80030020F5C
:104F30009A5C0A70DCF80020C0F30363D25C4A700C
:104F4000DCF80020C0F30353D25C8A70DCF8002048
:104F5000C0F30343D25CCA70DCF80020C0F3033313
:104F6000D35C0B71C0F30323D35C4B71C0F3031309
:104F7000D35C00F00F008B71105CC871704701F0BA
:104F80002EB800004EF68851CEF200010A6841F2B8
:104F9000000042F47002C4F202000A6001684FF699
:104FA000FF7241F00101016000214160C1620168AE
:104FB000CEF6F622114001604FF47F018160016856
:104FC00021F480210160016841F48031016040F2E8
:104FD000FF7100BF03684A1E8A4203D213F40031F6
:104FE0001146F7D00168890301D400BFFEE742F201
:104FF0000001C4F202010A68022363F302020A609C
:1050000041684FF6FF7241604168CDF6C37241605E
:10501000416841F4806141604168114041604168EC
:105020004FF2000241F0005141F4A0214160C16AF9
:10503000CBF6FE721140C162C16A41F4843141F085
:105040001901C162016841F08061016001680901D4
:10505000FCD5016841F08071016000BF01688901E1
:10506000FCD5416821F003014160416841F0020133
:10507000416000BF41680907FCD54FF000604FF464
:10508000804100F003BD00002DE9F047D0F800A0FA
:10509000846847F6B91E4FF000084FF0150CC9F6AA
:1050A000376E00BFF044C8F38109002600EB860785
:1050B0007F68BA00FD0882EA541285EA04152A4482
:1050C00086EA090551F8255087EA08036C40234415
:1050D0005A4002EB0A0440F826400136022EBA4636
:1050E000E4D1D0F800A082684FEA8A034FEADA05DB
:1050F00083EA541385EA04152B4489F0020551F81C
:1051000025508AEA08066C40344463409C185FEAE4
:105110000C628460ACF1010C08BFBDE8F087C1E708
:10512000704710B584B042F60044C4F20104204632
:1051300000F025FD4720009000204FF6FF71ADF8EC
:1051400004000291ADF80C008DF80E00694620466F
:1051500000F0BEFD204600F0B6FD04B010BDB0B5B5
:1051600043F60004C4F2010440F20051C0F203010E
:10517000204601F031FA10B1204601F01DFA40F24C
:105180000535C0F205052046294601F025FA28B16B
:1051900020462946BDE8B04001F012BAB0BD44F245
:1051A0005C70C2F2000001F0CBBF80B544F25C70CD
:1051B000C2F20000807968B1FFF7E4FEFFF77EFAE3
:1051C00040F20C5000F090FC44F25C70C2F200001F
:1051D00001F013FA4FF48020BDE8804000F0D2B90E
:1051E0004FF2E070C1F6FF70008844F63831C2F229
:1051F00000010880800244F6343100F10060C2F200
:105200000001086070470000FEE780B500F070FA0A
:105210004FF47A70052100F029FA00F059FABDE840
:10522000804000F05DBA46F20061C4F200010A68F5
:1052300000F03F0042F001020A600A6822F47C524A
:105240000A600A6842EA00200860086820F001004D
:10525000086070478069C0F30210704729B10129C6
:1052600002D1102102E000BFFEE70C210A5842F0F3
:1052700020020A507047B0B546F20061C4F2000146
:1052800044890A684FF0010C42F001020A60CB69C0
:105290000CFA04F5AB43CB61C3896FEA050C012B13
:1052A00010D023BBCB6803EA0C03CB60B0F806E058
:1052B000438843EA0E434FEAC40E01EBC40423645F
:1052C00003460DE0CB682B43CB60B0F800E0438889
:1052D00043EA0E434FEAC40E01EBC4042364831D6A
:1052E00084881B8843EA044301EB0E0463648389CA
:1052F0004C68002B44EA050208BF04EA0C024A602D
:1053000002894B69002A43EA050408BF03EA0C043A
:105310004C61007C012802D1C8692843C861086833
:1053200020F001000860B0BDF0B5026840F2010C49
:1053300022F0020202600268CFF6FF7C42F0010216
:1053400063460260426823B112F0010203F10103D7
:10535000F8D04268D20704BF0020F0BD0A7891F867
:1053600001E08B789207CC7803F00F0503F070030F
:105370006EF31C624F8942EA831204F0070604F0C0
:10538000180442EA0542013F42EA84226FF39F2754
:1053900042EA06523A44C2610A790368012A23F0BC
:1053A000800708BF43F0800707604A790368012A35
:1053B00023F0400708BF43F0400707608A7903687D
:1053C000012A23F0200708BF43F020070760CA79AD
:1053D0000368012A43F0100708BF23F01007076095
:1053E0000A7A0368012A23F0080708BF43F0080778
:1053F0000760497A0268012922F0040308BF42F0DD
:1054000004030360016821F0010101604268614604
:10541000BCF1000F04D012F0010201F1010CF5D132
:10542000002918BF01210846F0BD426922EA0101A6
:105430004161704742691143416170478069000EC4
:105440007047000004280FD880B5DFE800F0030E95
:1054500017282B000020C0F2FF3088600020486031
:105460004FF40030086080BDFEE700204FF480322A
:105470000874CA6008604860886080BD40F2FF30F0
:1054800088824FF4007008820120887400204FF455
:10549000807288700A80C1E90100C86080BD08463A
:1054A0004E2101E008464F21FEF775FE80BD000049
:1054B00002290BD0012911D0B9B9816841F08001CE
:1054C000816000BF81680906FCD40EE0816841F468
:1054D0000001816081680902FCD406E0816841F422
:1054E0000041816081680904FCD470478069C0F381
:1054F00007407047022910D849B210A252F8211073
:105500008068084040F2FF21C0F60001884206DCB6
:1055100018B10321C0F200410AE00220704740F2B6
:105520000031C0F60001884206D00021C1F203011B
:1055300088421CBF00207047012070470300000410
:10554000000300080000031010B548B1044600BF76
:105550004FF47A7000F006F800F0BAF8013CF7D189
:1055600010BD0000B0B542F60045C4F20105044686
:105570002846002100F001FB284600F0FCFAA0427A
:10558000FAD3B0BD40F21441C4F201010860704783
:1055900042F21000C4F20200016841F08001016093
:1055A0007047B0B5044600F017F800B1B0BD42F244
:1055B0001005C4F20205286840F0020028606C6003
:1055C000286840F04000286000F006F8296821F0C3
:1055D00002012960B0BD0000002142F20C00CFF6AC
:1055E000F171C4F2020000BF0268D20704D0013199
:1055F00024BF05207047F7E70168C90644BF0420AF
:1056000070470168490744BF0220704700680321C2
:10561000000701EAE070704742F20400C4F20200A1
:10562000C168090658BF704740F22311C4F26751A0
:10563000016048F6AB11CCF6EF510160704770B5D0
:105640000C460546FFF7C8FF00B170BD42F21006D8
:10565000C4F20206306840F0010030602C60FFF7B1
:10566000BBFF316821F00101316070BD80B540F2AF
:10567000020ECFF6F07E43F2000CC4F2000C45F2AD
:1056800055527346CCF80020DCF80C2002F00102E1
:105690001BB1002A03F10103F6D16AB9CCF804105A
:1056A000DCF80C10BEF1000F01F0020103D000295C
:1056B0000EF1010EF4D109B1002080BD6FF31F304F
:1056C000CCF808004AF6AA20CCF80000012080BDE2
:1056D00043F20000C4F200004AF6AA2101607047BC
:1056E00043F20000C4F200004CF6CC410160704768
:1056F00043F20000C4F2000045F2555101607047CA
:1057000041617047016170472DE9F047CF0601F014
:105710000F0C09D5042A05D1C26B4CF0030C1A43B7
:10572000C26301E04CEA020C00F1100E00F1140813
:1057300000244FF0010A4FF00F0900270AFA07F280
:105740001A4010D0056809FA04F6B5430CFA04F6BD
:10575000282946EA050603D0482903D1754600E00A
:1057600045462A6006600137082F04F10404E5D19C
:10577000082400254FF0010A4FF00F090AFA04F23D
:105780001A4010D0466809FA05F7BE430CFA05F72F
:10579000282947EA060703D0482903D1764600E0C6
:1057A0004646326047600134102C05F1040508BFFD
:1057B000BDE8F087E2E7B0B50422C4F20102134667
:1057C00002F1180E002848BF73461B6800F440140D
:1057D000C0F30345B4F5401F1FFA80FC06D11468DE
:1057E00023F0E06324F0E06414600DE0C40206D40A
:1057F0006FF00F0404EA50440CFA04F401E00324AF
:10580000AC40A34343F0E06331B16FF00F0101EA14
:1058100050410CFA01F10B43002848BF7246136057
:10582000B0BD0000FEF74AFFFFF7EDF8FFF7D8FC28
:10583000FEF7C8FFFEF7F8FFFFF755F918B9FFF7B5
:10584000F2F9FFF741FA44F6B220C2F2000090F8F4
:105850007600012121EA000044F63A31C2F200014B
:105860000870FFF7C4F9FFF75CFCFFF74BF8FFF790
:10587000CCFC40F26800C2F20000006841F25971AD
:10588000CDF2B711A0FB01014FF0FF3044F65C32BE
:1058900000EB513046F29551C2F20002C0F6000111
:1058A000B0F1807F116000D3FEE74EF21001CEF21E
:1058B000000148604EF62350CEF20000F022027044
:1058C0000020886007200860FC20C0F60000046803
:1058D00047F60C214FF2E870C0F60001C1F6FF70E8
:1058E000FEF728FF844267D144F25C74C2F20004E0
:1058F00041F2000520460121C4F2010501F0EEFB52
:10590000667B28464FF40051FFF7FCFE032E2DD096
:1059100044F20866C2F20006D6F82001D6F820113B
:10592000091A312906D800BF00BFD6F82011091A7C
:105930003229F9D328464FF40051FFF7E1FED6F89B
:105940002001D6F82011091A312905D800BFD6F850
:105950002011091A3229F9D3FFF7BAFE677B2846CE
:105960004FF40051FFF7CEFE032FD5D140F20C15B6
:1059700042F28436C2F20005C2F20006607B0328C0
:1059800015D1204600F09AFB204600F061FD284624
:105990002146FEF76DFD30462146FEF769FD0020E9
:1059A000214600F0F7F90120214600F0F3F900F05C
:1059B00069FAFFF78DFEE1E741F2000444F2086561
:1059C000C4F20104C2F2000520464FF40051FFF773
:1059D00099FED5F82001D5F82011091A312905D8EA
:1059E00000BFD5F82011091A3229F9D320464FF407
:1059F0000051FFF785FED5F82001D5F82011091ACE
:105A00003129E1D800BFD5F82011091A3229F9D37C
:105A1000DAE74EF60C5CCEF2000CDCF8003003F452
:105A2000E063A3F54073B3F5A06F03D21B0AC3F183
:105A3000040C08E040F20053C0F2FA53CCF80030F6
:105A400002234FF0020C99400F2323FA0CF31A4063
:105A500011434EF20012CEF20002090140EA0203A5
:105A600083F8001300F01F01012303FA01F11C2346
:105A700003EAD0008150704740F080604EF60C5130
:105A800040F0FD70CEF20001086070474FF6807262
:105A9000C1F6FF72114008434EF60851CEF20001E4
:105AA0000860704747F20003C4F200031A684EF61C
:105AB000105C22F003021A601A68CEF2000C104348
:105AC0001860DCF80000002940F00400CCF8000069
:105AD0000FBF30BF40BF20BF20BFDCF8000020F068
:105AE0000400CCF80000704741F2000300F01F01F1
:105AF0008009C4F202034FF0010CC2580CFA01F104
:105B00001143C150704741F2000300F01F018009AA
:105B1000C4F202034FF0010CC2580CFA01F1114318
:105B2000C150704741F2000300F01F018009C4F228
:105B300002034FF0010CC2580CFA01F122EA0101F4
:105B4000C150704741F2000300F01F018009C4F208
:105B500002034FF0010CC2580CFA01F11143C1507D
:105B6000704741F20401C4F202010A6822F44002C3
:105B7000104308607047406A70474162704710B533
:105B800041F6FF31C4F2000188421BDC40F6FF31D0
:105B9000C4F20001884230DD41F2FF31C4F200015D
:105BA000884251DC40F60041C4F2000188426AD0CC
:105BB00041F20001C4F20001884240F0838040F2CB
:105BC000044477E043F2FF31C4F20101884226DD4C
:105BD00044F6FF71C4F20101884244DC43F2004103
:105BE000C4F20101884251D044F60041C4F20101DF
:105BF000884267D140F213345CE0B0F1804F48D066
:105C000040F20041C4F20001884245D040F6000154
:105C1000C4F20001884255D140F202444AE041F604
:105C20000041C4F20001884239D042F20001C4F2BE
:105C30000001884236D042F60041C4F20101884298
:105C400040D140F20B3435E041F20041C4F2000192
:105C500088422AD041F60001C4F20001884231D1C5
:105C600040F2064426E045F20001C4F201018842F8
:105C70001ED045F20041C4F20101884218BF10BD98
:105C800040F2153416E040F2034413E040F20D34C4
:105C900010E04FF480640DE040F201440AE040F26D
:105CA000074407E04FF4816404E040F2054401E05A
:105CB0004FF445742046FFF745FF2046BDE81040ED
:105CC000FFF730BF10BD016841F00101016070476E
:105CD00080B50A8843F2004C826240F6FF320368C6
:105CE000C4F200029042C4F2010C0DDCB0F1804F0E
:105CF00018D040F20042C4F20002904212D040F6A6
:105D00000002C4F200020BE040F60042C4F20002BE
:105D1000904207D0604505D042F60042C4F201022D
:105D2000904233D123F0700202604A88036802F087
:105D30006002134303608A88036802F010021A436A
:105D4000026041F20042D1F808E040F48063C4F2FE
:105D500000029342C0F82CE009D0026822F440729D
:105D600002608A89036802F440721A430260604547
:105D700005D042F60042C4F20102904201D1897B73
:105D80000163416941F00101416180BD23F01003CD
:105D9000D0E70000F0B581B000F0010244F2FC5001
:105DA000C2F2000050F8220044F65013406844F25A
:105DB0000867C2F200030068C2F20007DA723A44D0
:105DC000806992F8523102F5A9761BB1400757D18C
:105DD000002054E00C4641071DD4810735D4C0078C
:105DE0004ED044F6D00544F65010C2F20005C2F27F
:105DF00000002946E422FEF7BBFD204682212A4608
:105E0000132301F044F8012087F8410197F841017C
:105E10000028FBD132E044F6D00544F65010C2F21F
:105E20000005C2F200002946E522FEF7A1FD20464A
:105E300082212A46132301F02AF8012087F8410124
:105E400097F841010028FBD118E044F6D00544F64C
:105E50005010C2F20005C2F200002946E322FEF70C
:105E600087FD204682212A46132301F010F80120E5
:105E700087F8410197F841010028FBD101203070DB
:105E800001B0F0BDF0B581B044F20860C2F200008C
:105E900090F84311002900F0A080002144F63E351F
:105EA00080F84311C2F20005298840F60044013110
:105EB0006FF35F2144F63C3644F63B37C4F20104ED
:105EC000B1F5FF7FC2F20006C2F20007298010DAA6
:105ED000F1B101293CD190F847110022317080F8CE
:105EE0004721A9BB90F8510150B320464FF40061FF
:105EF0001AE01CD040F2FF12914229D1D0F84C1187
:105F000031B3012180F847110021C0F84C111FE086
:105F100090F846110022397080F84621C9B990F8EE
:105F2000500188B120462021FFF7ECFB10E0C1684A
:105F300071B1012180F846110021C0F8481107E035
:105F400020464FF4006101E020462021FFF7D8FBF6
:105F50003978022908D0012919D12888B0F5817F24
:105F600011D0022805D012E0288800F03F01032953
:105F700004D120462021FFF7C5FB08E0203000F0C7
:105F80003F00032803D120462021FFF7B9FB3078DA
:105F9000022808D0012820D12888B0F5827F14D0AB
:105FA000042805D019E0288800F03F01052907D111
:105FB00020464FF4006101B0BDE8F040FFF7A2BBFE
:105FC000203000F03F00052807D120464FF4006143
:105FD00001B0BDE8F040FFF793BB01B0F0BDB0B534
:105FE00044F2086EC2F2000EDEF8241144F640338B
:105FF0000131CEF8241144F6423CC2F20003C2F251
:10600000000C1A88BCF80010501C82B242F21174C5
:106010000131A2420AB2ACF80010188032D300203D
:1060200018809EF81C110EF10C0301EB011103EB1B
:10603000C1018C8804F03F048C809EF81C1101EB98
:10604000011153F831109EF81C419EF81C5104EBCD
:10605000041405EB051503EBC505AD8803EBC4047B
:1060600004EB4504E1809EF81C1101EB011143F89B
:1060700031009EF81C0100EB001003EBC00081888A
:10608000013181800A2A08DB0020ACF80000DEF82C
:1060900020010130CEF82001B0BD022A04D0012A2F
:1060A00006D0002AF3D0B0BD01208EF84301B0BD68
:1060B000DEF82C010130CEF82C01B0BD70B544F2F1
:1060C0000861C2F2000191F84521002A3DD000226A
:1060D00044F68006044691F8450181F84521C2F254
:1060E00000063278122A40F0A2817278013A142A0E
:1060F00000F29D81DFE812F015009B012A0050009C
:106100009B016C009B019B019B019B019B018900F2
:10611000A000BB00D6009B019B01F7002C014001B1
:106120008001042840F08381B078012840F07F810D
:1061300044F6700240F21210C2F20002C0F2830074
:1061400010604FF481709080FEE070BD072840F031
:106150006E813079042101EA900044F2FC51C2F2D0
:106160000001095844F64435B6F80500C2F20005AE
:106170002960FEF7D9F8296821F8080B0846FEF7D0
:106180006DF9B6F8050029680222A1F815003079EA
:1061900002EA9010C87546E00D2840F04881B078BA
:1061A0000A2840F0448144F64430D6F80510C2F283
:1061B0000000006809BA8160D6F80910327909BA7E
:1061C000C943C160C2F380110175FEF7C5F82AE02A
:1061D000052840F02C81B078022840F0288144F650
:1061E000700240F21260C2F20002C0F28A00106037
:1061F000012010710020C2F8050040F29530C2F86D
:106200000900204681210D230FE1072840F00F816E
:10621000B078042840F00B8130797179B279C0F3FD
:106220000010FEF7B1F9308844F67002C2F20002A5
:1062300010808120508031E0062840F0F880B0784E
:10624000032840F0F48044F6700540F61250C2F284
:106250000005C0F28200286030797179C0F3001027
:10626000FDF7F2FF2871204681212A4682E00528A9
:1062700040F0DD80B078022840F0D980307944F6D3
:106280007002C0F300100844012180F8501140F65C
:106290001260C2F20002C0F281001060204681212B
:1062A0000423C2E0052840F0C280B078122840F0F4
:1062B000BE80307944F67002C0F30010084400211B
:1062C00080F8501140F61270C2F20002C0F2810054
:1062D000106020468121042300F0D9FD20460121D1
:1062E00000F050FBA3E0042840F0A180B078012822
:1062F00040F09D8047F61C20C0F6000000884CF658
:10630000CD4300F01F01CCF6CC43A1FB032644F69D
:10631000700241F21225C2F20002C0F28305F608B3
:10632000156006EB8605A1EB450141EA06111171E6
:10633000C0F34310A0FB0313D90801EB8103A0EBCA
:10634000430040EA011050712046812106236CE091
:1063500004286CD1B078012869D144F6700241F26A
:106360001230C2F20002C0F28200106002201071EE
:1063700020468121052358E0042858D1B07801280F
:1063800055D144F6700541F21240C2F20005C0F248
:106390008D002CA1286008894A68897AA88129483B
:1063A000A973294641F8040FFC20AA60C0F600003A
:1063B0000068FEF7B6FD47F61C20C0F60000008816
:1063C0004CF6CD41CCF6CC41A0FB0123400AA0FB0A
:1063D0000112302141EA13316973D10801EB8101C7
:1063E000A0EB410040F03000A8730020E873204685
:1063F00081212A46102318E0042818D1B0780128FA
:1064000015D144F6700241F2125045F25531C2F2F4
:106410000002C0F28700C4F24231C2E9000144F632
:1064200041601081204681210A2300F030FD44F6AE
:106430008002C2F20002204601211023BDE8704014
:1064400000F0BBBC323031343039323230303000C1
:106450002DE9F04381B044F20866C2F2000696F8D6
:106460004411E1B1044696F8440144F65019002560
:106470003928C2F2000986F8445113D026282ED0BC
:10648000132841D144F6501144F69002C2F20001A3
:10649000C2F200022046FEF79BFC054634E001B044
:1064A000BDE8F08344F6501844F69005C2F20008A7
:1064B000C2F20005204641462A46FEF789FC0746FF
:1064C00005F1130220464146FEF782FC074405F120
:1064D000260220464146FEF77BFC3D1814E044F6B8
:1064E000501844F69005C2F20008C2F2000520469A
:1064F00041462A46FEF76CFC074605F1130220468A
:106500004146FEF765FCC51944F6700299F80B1078
:10651000C2F2000213201070517020468121032323
:10652000957000F0B4FC012286F8422199F80B0026
:10653000290615D0311881F8462144F64832C2F2B6
:10654000000232F8103001339FB2032F22F81030CE
:1065500013D3032322F81030002081F852010CE0FD
:10656000311881F85221022281F8462144F648313F
:10657000C2F20001002221F8102044F69002C2F27B
:10658000000220460221402301B0BDE8F04300F0A4
:1065900014BC000044F63A31C2F20001097851B14E
:1065A00043F60001C4F201010A681206FCD54860F6
:1065B00008684006FCD5704740686FF35F2070475D
:1065C000C1F30442890D4FF0010C0B580CFA02F292
:1065D00023EA02020A507047C1F3891252F800C040
:1065E0008A0D105801F01F03C1F30441C8402CFA72
:1065F00003F1084000F00100704781B08079B0B12C
:1066000040F600604FF60821C5F20000CFF6FF719A
:106610004158C9070BD001680091009921F002018F
:106620000091009921F0010100910099016001B0F1
:1066300070470000B0B50825C5F20005A9680446FA
:1066400041F00100A86040F64150C0F2030000BFD5
:1066500001381CBFA9685FEAC171F9D1D4F8F810FC
:1066600009B103208847286B40F45020286328682C
:1066700020F080002860286B40F4001028636079C7
:1066800018B1286B40F480102863D4F8FC1009B1CD
:10669000142088470020B0BD012240230129427008
:1066A000038108D10421027001714FF4A07141816E
:1066B00040F6020141800020704700002DE9F043C0
:1066C00083B040F21009C5F20009D9F8181040F65D
:1066D0000008C5F20008029100210191C8F80016D7
:1066E000D8F80010044621F4C051C8F80010D8F8BA
:1066F0000010C8F80010007801284AD1D8F800002E
:10670000012220F00300C8F80000D8F80000802320
:1067100040F00300C8F80000D9F814104FF6FF70DD
:106720008143C9F81410D9F81410402741F08001B2
:10673000C9F8141002995DA689B20291029941F438
:106740008001029102996FF30F010291029941F0C9
:10675000800102910299C9F8181009F1F40100BFF3
:10676000019D13FA87F3AFB2019736F81270019DBD
:10677000013245EA07450195019D042A25EA0005F5
:106780000195019D45EA03050195019D41F8045BD2
:10679000E6D1D9F8000040F6415520F4F860C0F287
:1067A0000305C9F800004FF48460C9F800002846CA
:1067B000013803D0D9F800108906F9D4D4F8F810BC
:1067C00009B1032088471020C9F80000013D03D01B
:1067D000D9F80000C006F9D4D4F8F81009B10320A4
:1067E000884700214FF0FF3CC8F81010C8F814107B
:1067F000C8F818C0C8F81C10227992B34FF6F054AC
:106800004FF6006E4FF6F85608F54473CFF6FF7456
:10681000CFF6FF7ECFF6FF76FF2700251859B0F19F
:10682000FF3F01DD002002E0185940F09040185170
:1068300053F8100CB0F1FF3F02DD002004E000BF70
:1068400053F8100C40F09040013543F8100C43F819
:106850000E1019609F5143F8087C954203F1200304
:10686000DCD36FF08040C9F80810C9F8040049F87B
:106870000CCCC9F8040008F14050C9F80800D9F858
:1068800008004CF2E771CFF6C3710840C9F8080060
:10689000D9F8080043F61801C0F23C01014300207A
:1068A000C9F8081003B0BDE8F08300BF4000400005
:1068B0004000000081B000200090009840F61031A8
:1068C00020F07F0000900098C5F2000140F0180011
:1068D0000090009820F400200090009840F40020E0
:1068E0000090009820F0C0400090009840F0C04018
:1068F00000900098086001B070470000033100224A
:10690000B2EB910F08BF704741F200028908C5F24F
:10691000000200BF1368013940F8043BFAD1704708
:1069200003320023B3EB920F0CD041F2000C0903A9
:106930009208C5F2000C00BF50F8043B013A41F840
:106940000C30F9D10020704780B5012905D091B9EC
:106950004FF0804C6FF0005203E04FF0005C6FF09E
:1069600080420C23C5F200031968114019601968B0
:1069700041EA0C011960D0F8FC1009B132208847B7
:10698000002080BD10B51022C5F2000213688901F5
:1069900023F4F86320311360116040F64151C0F2D6
:1069A000030100BF013904D013689B06FAD4002408
:1069B00000E00124D0F8F81009B1032088472046F0
:1069C00010BD80B559B9022A09D1022100F08FFE0D
:1069D00044F20861C2F2000181F8440129E059B98A
:1069E000012A09D1012100F082FE44F20861C2F2BD
:1069F000000181F845011CE0012908BF022A09D0E5
:106A0000012908BF012A0DD052EA010018BF012058
:106A1000400080BD44F20860C2F20000002180F80E
:106A2000411106E044F20860C2F20000002180F843
:106A30004211002080BD10B58221044600F04BF9C0
:106A40002046022100F047F92046812100F043F959
:106A50002046012100F03FF9002010BDB0B540F202
:106A60006C05C2F2000505F12001044600F053F95F
:106A700005F12701204600F04EF905F112012046EC
:106A800000F049F905F11901204600F044F944F6F7
:106A90008002C2F2000220460121102300F08DF98D
:106AA00044F69002C2F2000220460221402300F088
:106AB00084F90020B0BD80B50A7812F0600F28D1AB
:106AC0004A78062A09D00B2A1AD00A2A21D144F67C
:106AD0004C31C2F20001012219E0CA7840F26C0C7C
:106AE0004FF40453C2F2000CB3EB022F4FF03A0202
:106AF0000BD1C9883A2938BF0A460CF1120106E0C9
:106B00008A7842B100F091F803E00CF1090100F03D
:106B10007BF8002080BD44F64C30C2F2000000211A
:106B20000160F6E7B0B50D460978044601F00301AF
:106B3000022912D0012922D0B9BB607B00F0FE00EF
:106B4000022832D1688801281ED10020D4F8F02014
:106B500060612046294690471EE0A888617B032992
:106B600013D0022910D140F08001C9B2802908BF9A
:106B7000B0BDC1B22046BDE8B04000F05FB9607B57
:106B800003280ED0022810D0B0BD698821B940F08A
:106B90008001C9B280290DD12046BDE8B04000F087
:106BA00024B8A88810F0FE0FEED02046BDE8B04013
:106BB00000F03BB8C1B2204600F045F8D4F8F02010
:106BC000C7E7D0F8E00081781180704710B504461F
:106BD0000520A073204600210022002300F0EDF8DC
:106BE0002046FFF767FE002010BD10B504460420C4
:106BF000A073204600210022002300F048F920461F
:106C0000FFF758FE002010BD80B513460A4602214A
:106C1000C0E906338173002100F039F9002080BDFE
:106C2000D0F8DC0001781180704710B5802104464F
:106C300000F004F92046002100F000F92046BDE8EC
:106C40001040FFF737BE81B000224BB2009201F036
:106C50007F02B3F1FF3F4FEA42111EDD40F6001301
:106C6000C5F2000303F5007C51F80C3002EB820200
:106C70000093009B00EB820023F40013009390F834
:106C80008C0000F0FE00022803D1009840F08050F4
:106C90000090009841F80C001BE040F6001CC5F283
:106CA000000C51F80C3002EB82020093009B00EBC9
:106CB000820023F40013009390F83C0000F0FE00E3
:106CC000022803D1009840F08050009000984CF8C2
:106CD000010001B0704780B540F61C0E48B201F0CB
:106CE0007F01C5F2000E0EF5397200284FEA4110FF
:106CF00048BF0EF1E40213584FF0010C23F4004397
:106D00001350DEF800000CFA01F158BF0904884363
:106D1000CEF8000080BD2DE9F04391F9023040F635
:106D20001C0E03F07F04CA78B1F804C004EB8401A0
:106D3000C5F2000EB3F1FF3F00EB810008DD00F16A
:106D40008C090EF539764FF000084FF4803706E0D5
:106D500000F13C090EF1E40601274FF0010865013E
:106D6000715902F00306080407FA04F412D44FF62E
:106D70000000CFF6F3700840614662F3934101438F
:106D8000B8F1000F1CBFD8B260F3995141F08050A8
:106D900040F400410EF53970B8F1000F18BF0EF144
:106DA000E4004151C9F804C089F80060DEF8000031
:106DB0002043CEF80000BDE8F08370B501F07F04F9
:106DC00040F6003C04EB8401C5F2000C00EB8101AD
:106DD0000020C1E92523C1F89C0060010CF11002DC
:106DE0005CF800E0155805F060456BB1D1F8906093
:106DF00074B13344013BB3FBF6F345EAC3446FF38C
:106E00009F237343234307E0D1F890302B4301E0E5
:106E100045EA060343F40023835091F88C20012AAD
:106E200007D191F88D1000290CBF4EF0805E4EF016
:106E3000005E4EF004414CF8001070BD81B04AB2C3
:106E400040F6001001F07F01C5F200000023B2F10E
:106E5000FF3F4FEA4111009307DD0844D0F80012CC
:106E600041F40011C0F800120FE00A580092009A95
:106E7000B2F1FF3F03DC009A42F080420092009A98
:106E800042F400120092009A425001B070472DE97E
:106E9000F04383B001F07F0101EB810600EB860532
:106EA00040F6340C00272846C5F2000C02970197E3
:106EB00040F8483F40F8042C47604FEA411E0CF16F
:106EC000CC0858F80E6002960CF1DC0656F80E70ED
:106ED0000197019F6FF312070197019F6FF3DC4742
:106EE00001977BB191B12F6C40F20009DC19013C94
:106EF000B4FBF7F4C1F6F879019F09EAC4443C43B6
:106F000001940CE0019B43F400230AE02F6C9F42A4
:106F10003CBF07603B46019F47F400270197019C57
:106F200023430193019B4EF8063095F83C30012B2A
:106F300016D15CF82C7C029BFF054CBF43F08053BC
:106F400043F000530293029B43F004430293029BDD
:106F500048F80E30038810461A46FFF7E1FC0FE0B0
:106F6000029A42F004420292029A4EF80820006807
:106F700030B10120DCF8002088401043CCF800003C
:106F800003B0BDE8F08380B582B0C9880022012932
:106F9000019206D1417B032906D0022901D101A922
:106FA00004E0FFF742FE04E000F10C010122FFF7CC
:106FB0002BFE02B080BD000070B582B00D4609788E
:106FC000044601F0030101292BD041BB6888002150
:106FD000B1EB902F2DD100F0FE01052929D8060A2A
:106FE00017A101EB860151F8043CC1B20DF1060274
:106FF00020469847BDF806208AB10146E88870B15E
:10700000824228BF024686F0010380F04000184308
:10701000204608BF0822ADF80620FFF7F5FD02B0B4
:1070200070BDD4F8F0202046294602B0BDE870407B
:107030001047204602B0BDE87040FFF7F6BD00BF24
:10704000216C0008C36B0008DD780008D0F8F02040
:1070500010477047B0B5044649B1607B03283BD167
:10706000D4F8F4300A4620460121984734E0A07B4A
:10707000022831D1A169206C814207D9626C0B1AB8
:1070800020460021A361FFF702FF12E0E16981427F
:1070900016D3B1FBF0F202FB101088B9206A8142CE
:1070A0000ED220460021002200230025FFF7EFFE2C
:1070B00025622046002100220023FFF77EFE0BE020
:1070C000607B032805D1D4F8F4302046012100224A
:1070D00098472046FFF77AFD0020B0BD70B540F616
:1070E000040608250446C5F20006C5F20005FFF7B0
:1070F000D3FA01206073286820F001002860204640
:10710000FFF798FA20460021FFF71EFC306840F098
:1071100002003060D4F8FC1009B1032088472046F3
:10712000FFF7CCFA306820F002003060D4F8FC1091
:1071300009B103208847286840F00100286070BD2D
:107140002DE9F04F89B01425C5F2000529686A6859
:107150002B68DB0740F0088112EA010700F0048188
:10716000834640F600063803C5F200064FF00000E3
:1071700000974CD50590F069B169D8460840C0F336
:107180000344D4B340F60000C5F2000000F5427598
:1071900000264FF008094FF0020A4FF0010B0027BC
:1071A000E00722D040F60001C5F2000128684969D5
:1071B000084005900598C00705D0F9B24046C5F8CB
:1071C00000B000F063FA0598800748BFC5F800A03A
:1071D0000598000704D5404600F01CFBC5F8009058
:1071E0000598400644BF402028600137B6EB540F95
:1071F0004FEA540405F12005D2D11425009F40F632
:1072000000060120C5F20005C346C5F20006790359
:1072100040F1B18000250695F069B169084010F091
:107220000F0700F0A38006F5847406F58C704FF00C
:1072300000090490CDE9014BF80757D04FEA491AED
:1072400054F80A00716B326921FA09F1C901C9B217
:107250001143084006900698C0070CD0706B0122BD
:1072600002FA09F1884370635FFA89F158464AF8D7
:107270000420FFF7EFFE0698000744BF082044F8FB
:107280000A000698400644BF402044F80A000698C9
:10729000800744BF022044F80A000698000625D55E
:1072A00009EB89000BEB8000054655F8402FA846F6
:1072B000AB4658F8081F5BF80C3FCE1A964288BFC1
:1072C0001646049C03365AF80440A4B2B4EB960F59
:1072D00028BF994212D8019C802044F80A00DDF8AA
:1072E00008B040F60006C5F20006002509F10109C4
:1072F000B5EB570F4FEA57079ED137E000F1440432
:10730000012000FA09F62068F6430396CE1A964249
:1073100088BF1646B2B25FFA89F1FFF701FB206819
:1073200030442060DBF80010D8F8002031448A4255
:10733000CBF8001008D140F60001C5F200010A4662
:10734000496B039B194051630499F21C5AF80110D0
:1073500089B2B1EB920FBED3DBF80030D8F8001041
:107360009942B8D92A68D1E7002089E11425009F05
:107370000120C5F20005B90744BF02212960790543
:1073800007D5686820F4806068604FF480602860EA
:10739000012039052ED59BF806008DF81F00B06836
:1073A00000F001008DF81E009BF80D000338B0FAC4
:1073B00080F040098DF81D009BF80D008BF80F0040
:1073C00004208BF80D009DF81F0078B19DF81E0079
:1073D00060B19DF81D0048B1D6F80006002140F0CC
:1073E0000300C6F800060120FEF75CFB4FF40060C6
:1073F00028600120B7F1FF3F0ADC9BF80F008BF8F3
:107400000D0003208BF80D004FF000402860012094
:1074100039070BD544F65030C2F20000006810B1B5
:10742000016858468847082028600120F9065CD585
:10743000E8680890686820F010006860089808996B
:1074400000F00F00C1F30A18089906EB4012D2F8B9
:107450001023012802BF0023C1F6F87312EA0302C9
:1074600009D142013244D2F8003323F0484303F1FA
:107470000063C2F80033089AC2F34342062A19D0C7
:10748000022A2DD1B8F1000F2AD000EB80000BEBBF
:107490008009D9F894004146FFF730FAD9F89400F2
:1074A000D9F89C104044C9F8940001EB0800C9F8D1
:1074B0009C0015E011F4C03108BF002810D1B8F1CC
:1074C000080F0DD100EB80000BEB80080BF12400BE
:1074D0000821FFF713FAD8F89C000830C8F89C0080
:1074E000686840F0100068600120F90440F187806E
:1074F0007068002120F0010070605846FFF742FAE2
:107500009BF8040058B14FF6006206F54271CFF6C1
:10751000FF72FF238B50013841F8203BFAD14FF026
:10752000FF30B061F06920F47020F061F06920F064
:107530000F00F0614FF00110F0610B2070613061BD
:10754000306820F4FE603060306830605846FFF7E5
:10755000B1F94FF480502860D6F8000120F0030004
:10756000C6F80001D6F8000120F44020C6F800015A
:10757000D6F8000120F07070C6F80001D6F80001BE
:1075800000040FD4D6F8000140F04000C6F8000116
:10759000D6F80001C6F80001D6F8000140F400401A
:1075A000C6F8000140200021CBF840008BF83C10C9
:1075B000D6F8002322F00302C6F80023D6F80023F1
:1075C00022F44022C6F80023D6F8002312040FD478
:1075D000D6F8002342F04002C6F80023D6F8002374
:1075E000C6F80023D6F8002342F40042C6F8002370
:1075F000CBF8900001208BF88C108BF80D00B904AB
:1076000032D5B06820A1C0F34100095CD6F8002152
:10761000002841EA0201C6F8001171684FF04002EB
:1076200021F480717160716841F4807171604FF470
:10763000A05118BF012008BF4FF410518BF8010072
:1076400055F8080C20F4705045F8080C55F8080C53
:1076500008BF4FF40072084345F8080C4FF400507F
:10766000ABF8082028600120F90242BF4FF48010D7
:1076700028600120B90242BF4FF4001028600120A9
:1076800009B0BDE8F08F00BF0000030010B504464C
:1076900049B1607B032827D1D4F8F4300A4620464C
:1076A0000021984720E0A07B03281DD1A169D4F8D0
:1076B000900081420CD9091AA161D4F8942081422A
:1076C00038BF084683B220460021FFF776FB0BE067
:1076D000607B032805D1D4F8F43020460021002235
:1076E00098472046FFF781FA002010BD704701EB54
:1076F000810100EB8100B0F89C007047B0B58A882A
:1077000004462AB9C88818B94888617B032904D17E
:107710002046BDE8B040FFF788BA40F60001C5F248
:1077200000010A6800F07F0542EA05100860204663
:10773000FFF75BFA002D0CBF012002206073B0BD83
:10774000B0B50446488844F65435C2F2000510F03E
:10775000FE0F287004D02046BDE8B040FFF765BAA0
:10776000617B03290AD00229F5D101061FD003212C
:1077700020736173D4F8E820C1B20DE001060DD08A
:10778000217BC0B2814212D0D4F8EC202046904731
:107790002978D4F8E8202173204607E0022060739E
:1077A0000020D4F8EC20207320460021904720468A
:1077B000BDE8B040FFF719BA704710B582B00A783B
:1077C000044612F0600F03D02046FFF72EFA1BE0AC
:1077D000607B00F0FE00022816D14888022808D0FD
:1077E000012811D10120D4F8F02060612046904793
:1077F00007E0087940B940F60400C5F200000068CF
:1078000001902046FFF7F1F902B010BDD0F8F0204A
:107810001047000010B582B0044690F8240094F898
:1078200025E094F828C094F829308DF80000E28C07
:107830008DF801E0ADF802204CEA0322618D00F0E2
:107840006003402BADF80420ADF80610216218D07B
:10785000202B07D083B914A050F82E20694620466B
:1078600090470EE0607B032808BF1CF0FE0F0BD092
:107870002046FFF7DAF904E000F080012046FFF728
:10788000DDFA002002B010BDD4F8F0206946204691
:1078900090470028F5D1BDF806000028F1D1204618
:1078A000FFF7A3F9EDE700BF53700008256B000850
:1078B000ED760008BB770008ED760008FD7600083D
:1078C000B96F0008B9770008876F00084177000892
:1078D0004D7000080D780008EB780008D0F8E4003F
:1078E00050F82100017811807047704702E008C805
:1078F000121F08C1002AFAD170477047002001E02A
:1079000001C1121F002AFBD17047000702000300CB
:10791000E8030004010005008403000501000500E0
:1079200020030005010006009A020006010006007F
:107930005802000300000C00F401000D02000500D5
:107940009001000601000C002C010003000018004B
:10795000FA00000801000F00C8000006010018002E
:1079600096000003000030007D00000801001E00AA
:107970006400000C010019005A00000300004B00D5
:107980005000000601003C003C00000801003C00E3
:107990003200000300009600280000060100780075
:1079A0001E00000300002C01140000030000580218
:1079B0000A00000701005802050016000014E80341
:1079C0000016200380B69A02001CF40180FA900190
:1079D000011CFA0081FAC800031C7D00041C64002D
:1079E00083FF5000091C320087FF2800181C140078
:1079F000311C0A00BFFF05000C001201100100003D
:107A0000004071040012000001020001E48D7009C1
:107A10007BDD41DA886E0E95C161B92D04293031C4
:107A20003233343536373839414243444546000015
:107A300004030904587A0008000000207048000080
:107A4000D0410008A87B000870480020F006000024
:107A5000FC78000800000000141803451243124887
:107A6000124F122012531274127512641269326F7F
:107A70001C180355121A421E1241124E122D1A558D
:107A80000A1231323214320346092C023117A24A4B
:107A90000409022E13010125800F09041903211680
:107AA00007058103104D01070501072C82024007DD
:107AB0002A0207611B0C019901330B318423381210
:107AC000640224401A4C94290401FF01FF01FF01C4
:107AD000FF01FF01FF01FF01FF01FF01FF01FF01A6
:107AE000FF01FF01FF01FF01FF01FF01FF01FF0196
:107AF000FF01FF01FF01FF01FF01FF01FF01FF0186
:107B0000FF01FF01FF01FF01FF01FF01FF016B12F8
:107B10006802244013C4232A200401FF01FF01FF4F
:107B200001FF01FF01FF01FF01FF01FF01FF01FF55
:107B300001FF01FF01FF01FF01FF01FF01FF01FF45
:107B400001FF01FF01FF01FF01FF01FF01FF01FF35
:107B500001FF01FF01FF01FF01FF01FF01FF016ABA
:107B6000229C1B20D404131E7A02FF0801315A0103
:107B7000048102EF0413FA7923086C14205C481482
:107B8000205D6A1B0837041AB70413C3691408651B
:107B9000551B08490413307A32081B201A041A3482
:087BA000044100000000000098
:04000005080041515D
:00000001FF
