:020000040800F2
:10400000A04100206541000871520008CD50000811
:10401000FD5100087D4400082964000800000000EC
:10402000000000000000000000000000A95500088A
:104030000F4D000800000000A9520008C95E0008EA
:104040007F4100087F4100087F4100087F41000850
:104050007F4100087F4100087F4100087F41000840
:104060007F4100087F4100087F4100087F41000830
:104070007F4100087F4100087F4100087F41000820
:104080007F4100087F4100087F4100087F41000810
:104090007F4400087F4100087F4100087F410008FD
:1040A0007F410008EF6100087F4100087F41000860
:1040B0007F4100087F4100087F4100087F410008E0
:1040C0007F4100087F4100087F4100087F410008D0
:1040D0007F410008C16200087F4100087F4100085D
:1040E0007F4100087F410008CB6300087F41000842
:1040F0007F4100087F4100087F410008FFFFFFFF6C
:104100007F410008000000007F4100087F41000857
:104110007F4100087F4100087F4100087F4100087F
:104120007F4100087F4100087F4100087F4100086F
:104130007F41000800000000000000007F410008EF
:10414000A14400087F4100087F410008BF630008C8
:10415000DFF80CD000F054F900480047B16E0008B9
:10416000A04100200648804706480047FEE7FEE7DA
:10417000FEE7FEE7FEE7FEE7FEE7FEE7FEE7FEE717
:10418000CD5E00085141000800487047F4AF0008B8
:10419000A0F16101192900D820387047A0F1410130
:1041A000192900D82030704740EA01039B0703D04B
:1041B00009E008C9121F08C0042AFAD203E011F866
:1041C000013B00F8013B521EF9D27047D2B201E028
:1041D00000F8012B491EFBD270470022F6E710B50C
:1041E00013460A4604461946FFF7F0FF204610BD65
:1041F00030B505462A460B4612F8010B13F8014B61
:1042000008B1A042F8D01CB1002802D06D1CF1E723
:10421000284630BD10B5044604E00B7800F8013B99
:1042200003B1491C521EF8D2204610BD421C10F8A2
:10423000011B0029FBD1801A7047000070B50F4D9B
:1042400000B92868002412E00A4602E09E4203D02A
:10425000521C1378002BF9D1DAB2224305D02BB1CE
:1042600024B1002100F8011B04E00446401C06783C
:10427000002EE9D12860204670BD0000000000201B
:104280002DE9F04791460F4680460446002614F873
:10429000015B2DB1FFF778FF0068405DC007F6D1E4
:1042A0002B2D02D02D2D18D0641E4A4639462046AB
:1042B00000F057F827B13968A14201D1C7F8008052
:1042C00071054FF002040BD54042002803DD06F0D3
:1042D0003DFE0460A007BDE8F08746F48066E4E791
:1042E0000028F8DA06F032FE04606FF00040F2E7D2
:1042F0002DE9F05F93460F4680460446002606F0FF
:1043000025FED0F80090824614F8015B2DB1FFF72E
:104310003BFF0068405DC007F6D12B2D02D02D2D4C
:104320001AD0641E0021CAF800105A4639462046A9
:1043300000F017F8014627B13868A04201D1C7F84C
:104340000080DAF80000022809D0CAF80090700551
:1043500005D54842BDE8F09F46F48066E2E708468E
:10436000F8E72DE9F05F82460078002715468B4676
:104370000AF10104B946302801D09DB113E014F8C8
:10438000010B0127782803D0582801D045B10AE055
:104390000DB1102D07D10027102514F8010B02E0F4
:1043A000082500E00A250026B0460EE005FB0800BF
:1043B00005FB06F1012701EB10461FFA80F8B6F560
:1043C000803F00D3B94614F8010B294600F02AF8C3
:1043D0000028EBDABBF1000F05D00FB1641E00E03E
:1043E0005446CBF80040B9F1000F06D006F0AEFD00
:1043F00002210160C81EBDE8F09F48EA0640FAE7C6
:10440000064C074D06E0E06840F0010394E8070021
:1044100098471034AC42F6D3FFF79EFE40BA00082E
:1044200060BA00083A2800D2303820F02002412A31
:1044300001D3A2F13700884201D34FF0FF3070471B
:1044400030B58C1810F8012B12F00F0301D110F8C1
:10445000013B120906D110F8012B03E010F8015BB3
:1044600001F8015B5B1EF9D101E001F8013B521E2E
:10447000FBD1A142E6D3002030BD0000FEE780B5AD
:1044800046F20040C4F200004CF2810102F04FFB02
:10449000012818BF80BD0020BDE8804000F00ABBA5
:1044A00080B546F60000C4F200004CF2810102F033
:1044B0003EFB012818BF80BD0120BDE8804000F010
:1044C000F9BA000002290BD0012911D0B9B98168CD
:1044D00041F08001816000BF81680906FCD40EE0D4
:1044E000816841F40001816081680902FCD406E022
:1044F000816841F40041816081680904FCD47047FF
:104500002DE9F04381B000F0010643F23C20C2F2F5
:10451000000050F82650286802F0E1F905F1200467
:10452000002021464FF0000802F030FB4FF0012040
:1045300068624FF48070288543F24820C2F2000080
:1045400000EB46000189C1F3011185F82010808934
:1045500000F01F01204600F031FA2868214602F0E1
:104560002FFA43F2BC6705F12C04C2F200074FF0AA
:1045700001090026EE86B88A09FA06F1084018BF3C
:104580000120FA8A288711EA020018BF01206887F3
:1045900007EBC600028CAA85428C3B8BEA85828C95
:1045A00019402A8618BF0121C08C85F83C10688606
:1045B0002046A5F8348002F0A9F90136082ED9D199
:1045C000042002F075F92868022101B0BDE8F0432B
:1045D00002F0A9BA10B543F23C24C2F200042068EC
:1045E000006802F07CF960680068BDE8104002F0E5
:1045F00076B910B50446006802F071F9206802210E
:10460000BDE8104002F08ABA03288FBF02A000B2B2
:1046100003A151F820007047556E6B6E6F776E00E6
:10462000C1B20008B8B20008C8B20008B1B20008B0
:1046300080B50F294FF000025BD843F23C2300F015
:104640000100C2F2000353F820000068DFE801F027
:104650000851185151512D36515151513A2B464A5A
:104660000168C2690423920F42EAC101C26900686D
:1046700001F0120103EA1272114400F0010010E08F
:10468000D0F804C04268402303EA42124368202164
:10469000406801EAD301102342EACC1203EA501029
:1046A00011440A1825E0602223E0C169C069C022D4
:1046B00001F03F0102EA904042181AE0C069C0F3DD
:1046C000064216E002F01EF9011F02290ED301284E
:1046D0000ED0022814BFC02240220AE0BDE880406C
:1046E00002F050BABDE8804002F087BA002200E034
:1046F0008022D0B280BD00004AF6F8720021C0F6D8
:10470000000200BF02EBC103DB88834204D0013109
:104710001629F7D1052102E0162928BF052102EB51
:10472000C100C08840EA014070472DE9F04100F126
:104730002006044600203146002702F027FA04F143
:104740002C05012029464FF0010802F01FFAE07FF6
:1047500084F820004FF4807060622085A07F617F24
:10476000C0F3021200F00F0084F8232084F8220026
:10477000880984F8210001F03F0000EB4000062189
:1047800001EB400120686185314602F019F984F897
:104790003C802787207F21690128A78613D1022228
:1047A00021F0070002EA5103676903444FF6F870ED
:1047B000090C384002EA5702A185390C1044E38500
:1047C000218601210CE060690A0CA285E1856FF069
:1047D0000F0101EA104121864FF6F07108400021D7
:1047E00040F24C02C2F200026086002061879442CF
:1047F00008BF0E20E086284602F088F820680221D3
:1048000002F091F90E20BDE8F04102F051B8F0B588
:1048100081B043F23C2201F00101C2F2000252F8E1
:10482000217043F24826C2F20006FC6896F8651132
:1048300041B1D6F83C0133284FF0000028BF86F87C
:10484000650155E00146D4F8D40001282ADB204652
:1048500001F09AF80546012086F865010020C6F8A7
:104860003C01D4F8C40005EB450100EBC10104F59F
:10487000C650814288BFA1F5C0513868C4F8C41041
:10488000022102F04BF9D4F8D4000221401BC4F8F5
:10489000D400386802F047F9D4F8C8002844C4F8B6
:1048A000C80023E094F9240001281FDB94F8BE001F
:1048B000132210FB0240132300F125020846822137
:1048C00005F099FD012086F865010020C6F83C013D
:1048D00094F8BE00411CCAB2072A88BFC11F84F8E1
:1048E000BE1094F82400013884F82400D4F8C800DD
:1048F00001B0F0BD80B500EB011EDEF8B0C11CF0C8
:1049000004031372DEF8B0C119BF4FEADC03536031
:104910004FEA5C531360DEF8B03103F002035372C8
:10492000DEF8B4314FEA13231375DEF8B43103F027
:104930000F03D372DEF8B8311373DEF8B8314FEAE3
:1049400013235373DEF8B8314FEA13439373DEF841
:10495000B8314FEA1363D373DEF8BC311374DEF859
:10496000BC314FEA13235374DEF8BC314FEA1343D2
:104970009374DEF8BC314FEA1363D37421B101297B
:1049800018BF80BD102100E00C210A5842F020021F
:104990000A5080BD10467047C1F3021301F00F01A9
:1049A000C3708170D1B28909417002F03F0101EBFF
:1049B0004101062202EB41014181704715294AF667
:1049C000F87C88BF0521C0F6000C48B13CF83130B6
:1049D0000CEBC102A0F8013093789288C370428139
:1049E0000CEBC100C08840EA0140704780B5826886
:1049F00052015CBF032080BDD0F8802102F001028B
:104A0000C0F880210A7A1AB14B6842EAC30C02E06E
:104A10000A684FEA425C4B7A91F80DE0D0F88021A9
:104A200043EA0C031A43C0F88021D0F8842122F015
:104A30000F02C0F88421D0F8842142EA0E02C0F8A7
:104A40008421D1F80E20C0F88821D1F81210C0F8C6
:104A50008C11D0F8801141F00101C0F880110020C4
:104A600080BD02290BD0012912D0B1B98168C907D4
:104A700011D0816889071BD48068400714E08168E1
:104A8000C90308D58168890312D4806840030BE00C
:104A90008168C90503D402207047002070478168EF
:104AA000890505D480684005032101EAE07070475C
:104AB000012070472DE9F04F81B043F23C2183463D
:104AC00000F00100C2F2000151F820502868EE68A1
:104AD000014651F80C2F920746D043F24822C2F209
:104AE000000202EB8B0303F5B8770BEB0B1302EB21
:104AF000C30206F1D00806F5C65906F1CC0A02F148
:104B0000100400BFD6F8D420FF2A19DCD6F8C02044
:104B10000021FFF7EFFED6F8C000D6F8D41000F160
:104B2000180280F80AB04A4541F2E87388BFC21AF9
:104B3000481CC6F8C020C6F8D400504605E000BFA7
:104B4000086840F0200008604046016801310160BB
:104B500038680130386020680130206028680146DC
:104B600051F80C2F9207CDD101B0BDE8F08F80B580
:104B700040F2045002F073FB40F2025002F06FFB6F
:104B80004FF4C06002F05CFB40F2026002F058FBA0
:104B900040F2036002F054FB40F2046002F050FB6C
:104BA00040F21C7002F04CFB40F20C5002F048FB4B
:104BB00040F2197002F044FB40F21A7002F040FB20
:104BC00040F20E6002F03CFB4FF4E06002F038FB74
:104BD00040F2017002F034FB43F69851C2F200013A
:104BE0004FF440024FF440000A60BDE8804002F0FC
:104BF00064BB80B584B036228DF80020026843681B
:104C00008068CDF80120AA228DF805202522CDF854
:104C100006308DF80A20CDF80B009B208DF80F0090
:104C2000684601F0D5F99DE80F00484050405840D3
:104C300004B080BDB0B500F0010443F23C20C2F2E4
:104C4000000050F824002146C5680020C5E9330063
:104C5000C5E900000BA005F0FFFFD5E933234BF2B7
:104C6000DF70C0F60000214605F0F6FFD5E900230D
:104C70004BF2F670C0F600002146BDE8B04005F0EA
:104C8000EBBF00BF204348256420436C6561722060
:104C900052582F545820436F756E746572732E0AE4
:104CA0000000000070B50446C0680D46017AA87A7D
:104CB000814201D1A17949B3032817D8DFE800F078
:104CC00002020C0CE17F002084F82700881EB0FA55
:104CD00080F04009400007E0002084F82700E17FD1
:104CE0000120022908BF032084F82000627FA17FF1
:104CF00004F120063046FFF74FFE2068314601F0F0
:104D00005FFEA87AE16808720020A07170BD70474C
:104D1000D1F8073002465809DB08C2E90003487998
:104D200004239072487900F00100D072887903EA78
:104D3000501010728879022303EA5010507288795B
:104D4000C0F300101073887900F00F005073D1F891
:104D50000F00D1F80B10C2F812001320C2F80E1089
:104D60007047000043F24821C2F20001D1F824212B
:104D7000D1F824319B1A834228BF704700BFF7E760
:104D800070B543F60045C0F600054FF6FF76A81C47
:104D90000021802202F4607330F8024C2B431B8800
:104DA0000CB9B34215D001318030082902F18002DC
:104DB000F0D143F23C74C2F200040020208001F0E4
:104DC00069FF208805EBC01001F02AFF01F01FFFEA
:104DD00005E043F23C72C2F20002118006883046C0
:104DE00070BD000080B543F23C70C2F20000018843
:104DF00043F6024CC0F6000C01F0070202804FEAB5
:104E0000C21E4CEAC21043F2BC62831C0020C2F2F4
:104E1000000200BF195A115202307C28FAD14EEA22
:104E20000C000088A2F87C0080BD43F2BC62C0B2D6
:104E3000C2F2000232F81000088070472DE9F041FC
:104E400043F23C76C2F20006308843F2BC6400F0C4
:104E50000700C2F2000443F60048308020463E219D
:104E6000C0F6000800F0E8F9054601F013FF3188AC
:104E70004FF48072481C00F0070002EBC111308033
:104E800001F4607131F808204FF6FF739A4204D0A4
:104E900041EA080001F0C4FE308808EBC010290484
:104EA00001F00BFF002700BF308808EB470101EB42
:104EB000C01054F81710043001F0FFFEB91C8FB277
:104EC0003E2FF1D3054601F0A2FE2846BDE8F08151
:104ED00043F2BC63C2B2C2F20003084623F81210C8
:104EE0007047704743F24822C2F20002D2F82821EC
:104EF000130A0A704B70130C120E8B70CA700022CA
:104F00008A80C27A8A71837A03F0010342EA03122B
:104F10008A71437A022B04BF42F040028A71037AFD
:104F2000042B05D142F080028A71031D032201E0A7
:104F3000052203461B6803FA02F2C1F80720D0E9F4
:104F400003321320C1F80F20C1F80B307047B0B501
:104F50000C4643F24821C2F20001D1F8281105465F
:104F6000080A21706070080CA070080EE070002024
:104F700022716071687B012181430844A071297B03
:104F800001F0010140EA0110A071697A022904BF11
:104F900040F04000A071297A042904BF40F080004D
:104FA000A071E32A06D0E22A15D16020A4F80700F8
:104FB00000200DE0287B0C21FFF73AFBE071287BF5
:104FC0000E21FFF735FB2072287B0F21FFF730FB06
:104FD00060720020A07200211320C4F80F10C4F8E2
:104FE0000B10B0BDB0B540F60004C4F20104204679
:104FF00010210322012301F0C5FE204610210322C7
:10500000022301F0BFFE204610210322042301F0F9
:10501000B9FE2046482101224FF4807301F0B2FE10
:105020002046182101224FF4007301F0ABFE204608
:10503000482101224FF4806301F0A4FE204618218C
:1050400003224FF4006301F09DFE20461821032245
:105050004FF4805301F096FE04F580652846102138
:105060000222202301F08EFE2846102102224FF456
:10507000006301F087FE04F50060102102224FF466
:10508000005301F07FFE2846482103224FF480732D
:1050900001F078FE2846182103224FF4007301F036
:1050A00071FE4FF4EA10012101F0C3FE28464821A9
:1050B00003224FF4805301F065FE28461821032295
:1050C0004FF40053BDE8B04001F05CBEFEE70000C5
:1050D000F0B581B00C46054600266FF02F0700BFE3
:1050E000A85DFFF755F857FA80F10A2902D2D021BE
:1050F00005E000BFC1B24139052910D8C921F20726
:10510000014403D10901700803E000BF7008225C6C
:1051100011430136102E2154E2D1082001E0F0B2F3
:10512000400801B0F0BD10B543F2BC64C2F2000407
:105130002046382100F080F808B1002010BDB4F8F6
:10514000601043F24820C2F2000081802188C180B3
:10515000A1898181E189C181218A0181618A41819D
:10516000C18801F44051B1F5405F03D1C18821F4F9
:105170004051C1804BF2DC02C188C0F600021278B7
:10518000C1F30321914205D3C18821F4706101F577
:105190004071C180C2884FF0FF3343F2325153FA5D
:1051A00082F3C2F20001F72B81F8412108D3C288B3
:1051B00042F0010222F0FE02C280012281F8412168
:1051C0004BF2A8018289C0F60001097802F01F02A3
:1051D0008A4205D3828942F0050222F01A028281B6
:1051E000C28902F01F028A4205D3C18941F005013C
:1051F00021F01A01C1814FF0FF3010BDFEE7000021
:10520000B0B54FF6FF72A9B14FF0000C4AF2010E93
:1052100010F80C305A4000238EEA5204D50703F1EF
:10522000010308BF5408082B2246F5D30CF1010CEA
:105230008C45EDD190B2B0BDB0B54FF6FF72A9B1BB
:105240004FF0000C4AF2010E30F81C305A40002397
:105250008EEA5204D50703F1010308BF5408082B56
:105260002246F5D30CF1010C8C45EDD190B2B0BDC6
:10527000704780B54FF4A06001F0E4FE43200121A7
:10528000002201F0ACFE14200221012201F0A7FE51
:1052900040200221022201F0A2FE2520032101224A
:1052A000BDE8804001F09BBE7047000010B50020B3
:1052B00001F040FF014614A005F0CEFC012001F0F2
:1052C00039FF014615A005F0C7FC022001F032FFAE
:1052D000014617A005F0C0FC032001F02BFF01469A
:1052E00018A005F0B9FC43F24824C2F20004D4F837
:1052F000241119A005F0B0FCD4F828111BA0BDE8BA
:10530000104005F0A9BC00BF20434B5F5359532008
:1053100020203D20256C640A0000000020434B5FE4
:105320004148422020203D20256C640A00000000F6
:1053300020434B5F4150423120203D20256C640AC0
:105340000000000020434B5F4150423220203D20AE
:10535000256C640A00000000205449434B202020A3
:1053600020203D20256C640A000000002053544199
:105370004D50202020203D20256C640A00000000B4
:105380002DE9F04743F2482AC2F2000A9AF82001B8
:1053900000EB00100AEBC000868A1CA005F05CFC44
:1053A0004BF66C0800270FF26C09C0F600080024C9
:1053B000002500BF9AF82001F11900EB001001F060
:1053C0003F010AEBC00000EB4100C18A4846A14200
:1053D00038BF0C46A94288BF0D4605F03DFC07F0DA
:1053E0000700072802D1404605F06EFC0137402F28
:1053F000E0D10AA005F030FC9AF8201117A022464F
:105400002B46BDE8F04705F027BC00BF4F6C646534
:1054100073740A002536642000000000202020203C
:10542000202020202020202020202020202020207C
:10543000202020202020202020202020202020206C
:10544000202020202020202020202020202020205C
:1054500020204E65776573740A00000043414E2595
:1054600064205258207370656564206174206C61FB
:105470007374203634207365636F6E64732E204D11
:10548000494E3D2564667073204D41583D25646644
:1054900070730A0010B543F2BC64C2F20004A01C91
:1054A0006621FF22FEF792FE43F24821C2F200017C
:1054B000002088808A88012342F001028A808A883D
:1054C00022F002028A808A8822F004028A808A8876
:1054D00042F0100222F020028A808A8822F4407270
:1054E00002F500728A808A88A4F86020C880CA8881
:1054F00042F0010222F0FE02CA80CA8822F47062E1
:1055000002F54072CA80CA8822F44052CA80CA8812
:1055100063F39F32CA80CA88228088818A8942F0D8
:10552000050222F01A028A818A89CA818A89A281A7
:10553000CA89E28108810A8942F001020A810A8946
:1055400022F002020A810A8942F004020A810A89D1
:1055500022F030020A810A8922F480720A810A89C3
:1055600042F400720A810A8922F480620A810A895F
:105570004A810A892282498961820021CFF6FF711E
:1055800061611121C0F28701A16145F2FF41E18310
:105590001E21C0F21401A166A4F86C0004F12000E1
:1055A0004021FEF71AFE10BD704710B543F24820A7
:1055B000C2F20000818843F2BC64C2F20004A4F885
:1055C0006010C18821808189A181C189E18101891F
:1055D00021824089372160822046FFF72DFEA4F802
:1055E0006E00BDE81040FFF729BC00002DE9F04F28
:1055F00089B043F2482400F0010B43F23C20C2F290
:105600000004C2F20000D4F8247150F82BA0DAF89C
:105610000000DAF80C90C069B0F1FF3F40F305815B
:10562000002084F8210104EB8B06D6F84021012AE2
:10563000C0F23B8104EB0B0000F5BD7100F26B1072
:105640000391059004EB4B00083009F10C0506901E
:1056500006F5A47809F11A0007900496089201F063
:1056600075FB0020C4F828014FF08040002103F0B2
:10567000E9F900BFDAF800002946FFF7B7F9064656
:105680004FF0804003F0DCF9B0F57A7F00F2E9805A
:10569000032EEFD0029794F8200104EB400000891C
:1056A00040050DD4DAF800003146FFF7DAF9D4F8F6
:1056B00028110746B1F57A7F00F2DD80012FF1D184
:1056C00043F20840C2F20000024630F81B000130ED
:1056D00081B2032922F81B0009D343F20840C2F229
:1056E0000000032120F81B10039800210170059889
:1056F0000121017006980088029F800542D599F823
:10570000151099F8140079B110210028D9F800205B
:1057100008BF0C2181A059F8013078A108BF0846C4
:10572000594605F099FA2DE010210028D9F80020FB
:1057300008BF0C2199F8197080A059F801304BF678
:105740007401C0F6000108BF084600975946029F41
:1057500005F082FA99F81900A0B100260798815D3A
:105760004BF66E00C0F6000005F076FA06F00F006A
:105770000F2802D17CA005F0A7FA99F8190001368C
:105780008642EBD34BF66C00C0F6000005F09CFAA5
:1057900006980088C00505D5D9E90301013001311B
:1057A000C9E90301D9F800000130C9F8000094F8F4
:1057B0002101049E0899002874D1D8F8000042F213
:1057C00011729042A1F10101089119D3D4F8280176
:1057D000D8F8001064225043884221D2D4F828011E
:1057E00048F29F61C0F20101884219D801F0AEFA77
:1057F00094F821010028E9D0002084F821010FE06D
:10580000D8F8000060B100BF4FF0804003F018F9F5
:10581000D8F80010884203D2D4F82801C828F3D35E
:10582000089A002A3FF71AAF3FE04BF29530C0F6D6
:10583000000005F049FA04EB4B000189C1F30115A2
:105840000089C0F30110FEF7DFFE03464BF61F0090
:10585000C0F6000059462A4609B0BDE8F04F05F0F1
:10586000FBB94BF2DD60C0F60000314609B0BDE87F
:10587000F04F05F0F1B9DAF800003146FEF722FEEC
:105880003AA0394605F0E8F903990120087043F27F
:1058900008410020C2F2000121F81B0005990220F6
:1058A000087027E0002084F8210106F5A070016847
:1058B00065291FD3D4F8241102684FF47A73C91BE9
:1058C0005A43B2FBF1F7026899F814004BF6211322
:1058D0004BF6BE06C0F6000300284BF21760C0F678
:1058E000000608BF33460091C0F6000059460197F4
:1058F00005F0B2F909B0BDE8F08F00BF205458257B
:10590000643A253038642052454D4F5445204D535C
:10591000472049443D3078253034580020545825DC
:10592000643A253038642052454D4F5445204D533C
:10593000472049443D3078253038580020545825B8
:10594000643A253038642044415441204D53472067
:1059500049443D307825303858204C454E3D25642B
:1059600020444154413D00000A2000002054784664
:1059700061696C6564205374617475733D3078257A
:105980003032580A000000002DE9F047D0F8C4403A
:10599000D0F8D42088461204B2F5003F1BDD43F254
:1059A0009C7900F5C6560027C2F2000941F2E87A58
:1059B00009EB0701204604F11805FFF793FAB542F9
:1059C00007F1130788BFA4EB0A05392F2C46EFD146
:1059D000032539232AE0B2F5803F1ED0B2F5003FFF
:1059E0002FD143F29C7900F5C6560027C2F2000978
:1059F00041F2E87A09EB0701204604F11805FFF7A8
:105A000071FAB54207F1130788BFA4EB0A05262FE8
:105A10002C46EFD10225262308E043F29C71C2F206
:105A200000012046FFF75EFA0125132343F29C7222
:105A3000C2F200024046822104F0DDFC2846BDE8A7
:105A4000F0870025FAE743F2442CC2F2000CDCF8A0
:105A50000030020F9A5C0A70DCF80020C0F3036388
:105A6000D25C4A70DCF80020C0F30353D25C8A7029
:105A7000DCF80020C0F30343D25CCA70DCF80020DD
:105A8000C0F30333D35C0B71C0F30323D35C4B71BE
:105A9000C0F30313D35C00F00F008B71105CC8716E
:105AA00070470000F0B585B000F0010443F23C20DF
:105AB000C2F2000050F82400214605684BF2F7605E
:105AC000C0F600002A4605F0C7F82A682EA0214635
:105AD00005F0C2F86A6832A0214605F0BDF8AA6850
:105AE00035A0214605F0B8F8EA6839A0214605F04E
:105AF000B3F82A693CA0214605F0AEF86A6940A0D7
:105B0000214605F0A9F8AA69D5F818E0A969C1F3FA
:105B1000074CAB69C3F30211AB69C3F38000AB69F7
:105B2000C3F34006AF69CDE900C1CDE902064BF2EF
:105B30004E704FEA1E6307F00107C0F600002146D1
:105B4000049705F089F8EA69E869E969C1F3807C9E
:105B5000EB69C3F30167EB69C3F30256EB69C3F367
:105B60000341ED69C30F4BF29C706FF39F25CDE9A4
:105B700000C7CDE90261C0F600002146049505F09A
:105B80006BF805B0F0BD00BF2043414E25645F4374
:105B9000544C2020203D30782530384C580A0000E5
:105BA0002043414E25645F5354415420203D3078BA
:105BB0002530384C580A00002043414E25645F547C
:105BC00053544154203D30782530384C580A000059
:105BD0002043414E25645F524649464F303D307860
:105BE0002530384C580A00002043414E25645F524E
:105BF0004649464F313D30782530384C580A000030
:105C00002043414E25645F494E54454E203D307837
:105C10002530384C580A000070B500F0010443F2FA
:105C20003C20C2F2000050F824601BA0B28821463C
:105C300005F012F843F24820C2F2000000EB4400E5
:105C40008189C1F30221008900F0010216A005F04C
:105C500003F896F820502846FEF7D6FC02464BF68D
:105C60001200C0F60000294604F0F6FFF068214655
:105C7000D0E933234BF2DF70C0F6000004F0ECFFF4
:105C8000F0682146D0E900234BF2F670C0F6000020
:105C9000BDE8704004F0E0BF204348256420424145
:105CA00055443D256C646B00204644424155443DBB
:105CB00025644D204644454E3D25640070B504469C
:105CC0001AA0214604F0C8FF43F2BC65C2F20005E9
:105CD000A88A012101FA04F619A106421AA016A207
:105CE00008BF114604F0B8FFE88A1BA106421BA0BA
:105CF00018A208BF114604F0AFFF288BE04000F067
:105D0000010119A004F0A8FF05EBC404208C618CEC
:105D100041EA004116A004F09FFFA08CE18C41EA0B
:105D2000004116A0BDE8704004F096BF2066696C83
:105D3000746572202564000069646D61736B0000F6
:105D400069646C6973740000204D4F44453D2573B0
:105D50000000000031360000333200002053434180
:105D60004C453D2573000000204143543D2564000F
:105D70002052303D30782530385800002052313DD7
:105D80003078253038580A0010B582B043F24824E4
:105D9000C2F2000494F8661194F8692194F8653110
:105DA00094F868C10BA0CDF800C004F055FFD4F8FA
:105DB0005811D4F85C21D4F8603114A004F04CFFE1
:105DC000D4F83811D4F83C211BA002B0BDE8104033
:105DD00004F042BF20636D64496E427573793D25BE
:105DE0006420636D644F75744C656E3D256420645A
:105DF0006174496E427573793D2564206461744F06
:105E000075744C656E3D25640A0000002075736250
:105E10004F7574436E743D256C64207573624461E4
:105E200074436E743D256C642075736252657043D3
:105E30006E743D256C640A0020636D64496E54697C
:105E40006D65723D256C6420646174496E54696DA2
:105E500065723D256C640A0070B582B043F20F454F
:105E6000C2F200052A786B78AE7801460DA0009644
:105E700004F0F2FEA87800070DD000260FA400BFA2
:105E8000A819C178204604F0E7FEA878013600F092
:105E90000F008642F4D30BA002B0BDE8704004F0BE
:105EA000DBBE00BF257320434D443A2530325820D5
:105EB000253032582025303258000000202530325D
:105EC000580000000A00000002F0FEBF4EF68851A4
:105ED000CEF200010A6841F2000042F47002C4F2FE
:105EE00002000A6001684FF6FF7241F00101016093
:105EF00000214160C1620168CEF6F62211400160C6
:105F00004FF47F018160016821F480210160016804
:105F100041F4803101604FF6FE7100BF03684A1EF4
:105F20008A4203D213F400311146F7D00168890385
:105F300001D400BFFEE742F20001C4F202010A6888
:105F4000032363F302020A6041684FF6FF72416067
:105F50004168CDF6C3724160416841F4806141609F
:105F600041681140416041684FF2000241F0005128
:105F700041F4E8114160C16ACBF6FE721140C16282
:105F8000C16A41F4843141F01901C162016841F0F4
:105F90008061016001680901FCD5016841F08071F0
:105FA000016000BF01688901FCD5416821F003014F
:105FB0004160416841F00201416000BF416809074A
:105FC000FCD54FF000604FF4804101F045B800006F
:105FD0002DE9F047D0F800A0846847F6B91E4FF0CD
:105FE00000084FF0150CC9F6376E00BFF044C8F337
:105FF0008109002600EB86077F68BA00FD0882EA67
:10600000541285EA04152A4486EA090551F82550F8
:1060100087EA08036C4023445A4002EB0A0440F824
:1060200026400136022EBA46E4D1D0F800A082689C
:106030004FEA8A034FEADA0583EA541385EA041526
:106040002B4489F0020551F825508AEA08066C4075
:10605000344463409C185FEA0C628460ACF1010C2C
:1060600008BFBDE8F087C1E770B5044600200D46C3
:10607000A4F84201FEF788F80068405D10F03E0F7A
:1060800019D0B4F8466101203F2EA4F8420184F8EB
:10609000415008D82846FEF781F8711CA4F8461133
:1060A000A11981F8C100B4F84201402824BF0020A2
:1060B000A4F8420170BD0C2D0DDD0D2D27D01B2D38
:1060C00055D01D2D0BD1B4F84801411C0AB2012A4C
:1060D000C8BF411E52E0082D72D00A2DE3D043F212
:1060E0004420C2F2000000682909415C0122A4F8A2
:1060F000422184F8411005F00F01405C84F8420011
:106100000320A4F84201202084F84300CBE740F6A6
:106110000D20A4F84100B4F8460102213F28A4F85C
:1061200042115ED804F1C10100220A540120A4F8F2
:1061300046212070B4F9480100EBD07222F0010230
:10614000801A43F21F42C2F20002A4F8480102EB97
:10615000C0108022FEF75EF8B4F94801013000EB70
:10616000D07121F00101401AA4F848019BE7B4F86E
:106170004801411E0AB2002A48BF411C43F21F4594
:10618000A4F8481109B2C2F2000504F1C10005EB00
:10619000C1118022FEF73EF8FEF748F8A4F8460148
:1061A000B4F9481104F1410005EBC1118022FEF75A
:1061B00031F8FEF73BF8014680B2A4F8421174E7CB
:1061C00042F20800A4F841000320A4F84201B4F808
:1061D00046010821002884F843103FF464AF0138D9
:1061E00002E0002084F80001A4F846015BE7704754
:1061F000F0B585B04FF0804002F026FC2F2001ACB6
:10620000019000264FF6FF774FF080402146ADF811
:1062100008600397ADF810608DF8126002F0BDFCC5
:106220004FF0804002F0B4FC40F20045C4F200059B
:10623000284602F009FC40F2CF7001902846214622
:10624000ADF808600397ADF810608DF8126002F0A9
:10625000A4FC284602F09CFC40F20800C2F20000B8
:10626000006841F25971CDF2B711A0FB01014FF066
:10627000FF3000EB5130B0F1807F00D3FEE74EF2EB
:106280001001CEF2000148604EF62350CEF200001D
:10629000F022027007208E60086005B0F0BD00009B
:1062A0004BF2AC020021C0F6000200BF52F82130D0
:1062B000834203D901310C29F8D10C21C8B27047AF
:1062C00010B582B043F600000021C4F20100ADF821
:1062D00006100168090703D54168C9B2ADF8061078
:1062E0000168890621D5406843F23254C0B2ADF846
:1062F0000600BDF80600C2F20004C1B22046FFF756
:10630000B3FE0020ADF80600BDF80600B4F8421157
:1063100088420AD2BDF80600204490F8410000F0FF
:1063200031F8BDF806000130ECE702B010BD10B541
:1063300043F60004C4F20104204603F07CFB20462F
:106340004FF4E13103F042FB2046002103F0C0FB93
:106350002046002103F0D8FB2046002103F0C6FBB5
:106360002046082103F0CAFB2046042103F0B8FBB5
:10637000204640F2053103F0A0FB2046BDE8104066
:1063800003F096BB43F60001C4F201010A6812064D
:10639000FCD56FF35F20486008684006FCD5704765
:1063A00043F65C1043F2F83243F2C833C2F2000005
:1063B000C2F20002C2F20003012104F00BB943F65D
:1063C0005C10C2F2000004F03FB980B543F65C10E7
:1063D000C2F20000C07968B1FFF778FDFEF7C7FB95
:1063E00040F20C5000F02CFF43F65C10C2F20000AB
:1063F00003F0F3FB4FF48020BDE8804000F001BCC7
:106400004FF2E070C1F6FF70008843F28471C2F26F
:1064100000010880800243F2807100F10060C2F246
:106420000001086070470000FEE780B500F09EFCA8
:1064300040F27120052100F057FC00F087FCBDE818
:10644000804000F08BBC0000F0B581B043F65C15D5
:10645000C2F2000595F8CE00032842D041F20004B4
:1064600043F248270026C4F20104C2F2000700BF2D
:1064700020464FF4005100F083FCD7F82401D7F8F0
:106480002411091A312905D800BFD7F82411091A97
:106490003229F9D320464FF4005100F06FFCD7F8B1
:1064A0002401D7F82411091A312905D800BFD7F8DB
:1064B0002411091A3229F9D31E2E07D2013600F011
:1064C00045FC95F8CE000328D2D10AE020464FF4CF
:1064D000005100F053FC43F23050C2F200000121A1
:1064E000017001B0F0BD00004EF60C50BFF34F8FAD
:1064F000CEF200000168042201F4E061C0F2FA5219
:1065000011430160BFF34F8F00BFFDE7D0F82804AF
:106510004068817811807047D0F8280400680178BD
:1065200011807047B0B50C460978054601F00301AB
:1065300002290FD031BB95F8CE00022803D095F880
:10654000CE0003281ED1608801281BD1002085F8C9
:106550001A04B0BDA08895F8CE10032912D1618825
:1065600071B940F08001C9B2802909D0C1B2284672
:1065700003F0ACFFD5F82C042146C26828469047AA
:106580000020B0BD0120B0BD90F8CE2000F1CC01BC
:10659000032A05D0022A01D10A7822B101207047CE
:1065A0000A78002AFAD0C0F8D8100121C0F8E41007
:1065B0000020704770B50D460978044601F00301CC
:1065C00001290BD0002944D1698801200A0A022A36
:1065D0000BDC012A14D0022A2CD03BE0D4F82C0486
:1065E0002946C2682046904734E0032A1ED00F2A6D
:1065F00030D1D4F8280480688178A4F8E41026E02B
:106600004BF29420C0F6000000EB820050F8043CEE
:1066100004F1E406C9B2204632469847E988C4F836
:10662000D800402904BF0820306012E001F0FE00CD
:1066300005280ED84BF29420C0F6000000EB820033
:1066400050F8043C04F1E402C9B220469847C4F86B
:10665000D8000120D4F8E41099B1EA888AB19142B7
:106660000CD2B4F8D40081420AD3B1FBF0F202FBA1
:10667000101028B9012084F8250401E0C4F8E420B2
:10668000002070BD024690F8CE0003281CBF0120F8
:106690007047888810F0FE0F4FF0010018BF704758
:1066A000D2F82C140131C2F8D810C2F8E40000204E
:1066B00070470A78898802F00302022A1FD0012A53
:1066C00013D052BB90F8CE10022903D090F8CE1010
:1066D000032922D190F8182490F81A14002A18BF20
:1066E0000122002918BF911C21E090F8CE2011F062
:1066F000FE0F4FF0010129D1032A1DD026E090F8AA
:10670000CE20032A09D10A0609D4C9B2C1EBC101BE
:1067100000EB810101F2762108E0012116E001F091
:106720007F01C1EBC10100EB8101D231097843F255
:106730000C42C2F20002117043F20C41C2F200019D
:10674000C0F8D8100221C0F8E410002108467047B4
:10675000012070478A8852B9CA8842B9897801F005
:106760007F0180F8CD1090F8CE20032A01D10120BE
:10677000704742690029136823F4FE6313601368AD
:1067800043EA011313600CBF0121022180F8CE10EF
:106790000020704770B50446488843F20E46C2F2A6
:1067A000000610F0FE0F307001D0012529E094F8AA
:1067B000CE10032910D00229F7D1010620D0D4F839
:1067C0002C144A68C1B220469047307884F8CC0037
:1067D000032084F8CE0013E0010614D094F8CC20F6
:1067E000C1B28A420CD0D4F82C048268204690476B
:1067F000D4F82C0431784268204684F8CC109047B5
:106800000025284670BDD4F82C040021826820465B
:1068100000259047307884F8CC00022084F8CE0020
:10682000EFE70020704780B50A7802F00302022AE1
:106830000FD0FAB990F8CE20022A03D090F8CE20DB
:10684000032A17D14988012904BF012180F81A14AD
:106850000EE08A8890F8CE30032B0BD1498839B9E5
:1068600042F08001C9B2802902D0D1B203F015FEF6
:10687000002080BD012080BD80B590F8CE20032A85
:1068800003D18A8812F0FE0F01D0012080BDD0F81C
:106890002C24126902B19047002080BD002070476F
:1068A000D0F82804C06850F82100017811807047A2
:1068B00046F20061C4F200010A6800F03F0042F0B5
:1068C00001020A600A6822F47C520A600A6842EAFD
:1068D00000200860086820F001000860704710B5CB
:1068E00046F20041C4F2000140F21A44884208BF57
:1068F00040F21944204600F0D1FC2046BDE810408B
:1069000000F0BCBC8069C0F302107047B0B546F21D
:106910000061C4F2000144890A684FF0010C42F0A2
:1069200001020A60CB690CFA04F5AB43CB61C38961
:106930006FEA050C012B10D023BBCB6803EA0C03D4
:10694000CB60B0F806E0438843EA0E434FEAC40E3A
:1069500001EBC404236403460DE0CB682B43CB60FA
:10696000B0F800E0438843EA0E434FEAC40E01EB5F
:10697000C4042364831D84881B8843EA044301EB19
:106980000E04636483894C68002B44EA050208BF47
:1069900004EA0C024A6002894B69002A43EA0504B2
:1069A00008BF03EA0C044C61007C012802D1C869CD
:1069B0002843C861086820F001000860B0BD0000ED
:1069C0002DE9F041026840F2010C22F0020202605F
:1069D0000268CFF6FF7C42F001026346026000BF0E
:1069E000426823B112F0010203F10103F8D04268BA
:1069F000D20704BF0020BDE8F081036ADA0724D182
:106A000043F0010202620A7891F801E08C78920763
:106A1000CD7804F00F0804F070046EF31C624E8908
:106A200042EA841205F0070705F0180542EA084219
:106A3000013E42EA85226FF39F2642EA0752324422
:106A4000C26123F0010202621DE00A7891F801E0C0
:106A50008F789207CE7807F00F0507F070076EF376
:106A60001C624B8942EA871206F0070406F01806FA
:106A700042EA0542013B42EA86226FF39F2342EA43
:106A800004521A44C26102680F7922F080034E79E1
:106A90008D79CC79012F08BF42F080030360026832
:106AA000012E22F0400308BF42F040030360026859
:106AB000012D22F0200308BF42F02003036002688A
:106AC000012C42F0100308BF22F0100303600A7A81
:106AD0000368012A23F0080708BF43F0080707608E
:106AE000497A0268012922F0040308BF42F0040336
:106AF0000360016821F00101016000BF4268614646
:106B0000BCF1000F04D012F0010201F1010CF5D12B
:106B1000002918BF01210846BDE8F081426922EA38
:106B2000010141617047426911434161704748F278
:106B3000CB02C0F2010291420AD08422C0F20102CB
:106B4000914209D04CF28102914209D1C26804E01D
:106B50008269C2F302120CE0026902F0030208E04B
:106B60000A0B52F800C0C1F3841301229A4002EAD2
:106B70000C02406901F01F01C840002A18BF012221
:106B8000104070478069000E7047000081B10428F2
:106B900010D880B5DFE800F0030F18292C004FF063
:106BA00080608860002048604FF40030086080BD3D
:106BB000FEE700BFFEE700204FF480320874CA6091
:106BC00008604860886080BD4FF4806088824FF420
:106BD000007008820120887400204FF48072887051
:106BE0000A80C1E90100C86080BD08464E2101E06D
:106BF00008464F21FDF7F1FA80BD8069C0F30740D8
:106C0000704740F21441C4F201010860704742F23B
:106C10001000C4F20200016841F080010160704779
:106C2000B0B5044600F016F800B1B0BD42F2100550
:106C3000C4F20205286840F0020028606C602868F1
:106C400040F04000286000F005F8296821F00201BA
:106C50002960B0BD002142F20C00CFF6F071C4F201
:106C6000020000BF0268D20704D0013124BF052012
:106C70007047F7E70168C90644BF04207047016800
:106C8000490744BF0220704700680321000701EA5A
:106C9000E070704742F20400C4F20200C1680906C5
:106CA00058BF704740F22311C4F26751016048F6A3
:106CB000AB11CCF6EF510160704770B50C4605463C
:106CC000FFF7C8FF00B170BD42F21006C4F2020621
:106CD000306840F0010030602C60FFF7BBFF316886
:106CE00021F00101316070BD80B540F2020ECFF697
:106CF000F07E43F2000CC4F2000C45F2555273468C
:106D0000CCF80020DCF80C2002F001021BB1002AB4
:106D100003F10103F6D16AB9CCF80410DCF80C10C9
:106D2000BEF1000F01F0020103D000290EF1010EA7
:106D3000F4D109B1002080BD6FF31F30CCF80800FA
:106D40004AF6AA20CCF80000012080BD43F20000E2
:106D5000C4F200004AF6AA210160704743F2000025
:106D6000C4F200004CF6CC410160704743F20000D1
:106D7000C4F2000045F2555101607047416170470F
:106D8000016170472DE9F047CF0601F00F0C09D5DE
:106D9000042A05D1C26B4CF0030C1A43C26301E014
:106DA0004CEA020C00F1100E00F1140800244FF020
:106DB000010A4FF00F0900270AFA07F21A4010D013
:106DC000056809FA04F6B5430CFA04F6282946EAE0
:106DD000050603D0482903D1754600E045462A60E0
:106DE00006600137082F04F10404E5D108240025CA
:106DF0004FF0010A4FF00F090AFA04F21A4010D0BE
:106E0000466809FA05F7BE430CFA05F7282947EA50
:106E1000060703D0482903D1764600E04646326093
:106E200047600134102C05F1040508BFBDE8F08768
:106E3000E2E7B0B50422C4F20102134602F1180ED3
:106E4000002848BF73461B6800F44014C0F3034594
:106E5000B4F5401F1FFA80FC06D1146823F0E063EC
:106E600024F0E06414600DE0C40206D46FF00F0457
:106E700004EA50440CFA04F401E00324AC40A343B8
:106E800043F0E06331B16FF00F0101EA50410CFAB9
:106E900001F10B43002848BF72461360B0BD42F2B7
:106EA0001C00C4F20200006840F34000704700007C
:106EB000FDF75DFEFEF796F8FFF7A2FAFDF760FF1B
:106EC000FDF790FFFEF72FF918B9FEF7E3FAFEF78A
:106ED0006CFBFEF7CEF9FFF78BF9FEF702F8FFF730
:106EE000A4FA43F69C5049F6C911C2F20000C0F65C
:106EF00000010160FDF76EFBFC20C0F60000046895
:106F00004BF2FC014FF2E870C0F60001C1F6FF70D1
:106F1000FDF76FFE844235D1FFF709FAFFF740FA1B
:106F2000FFF792FA41F20000C4F201004FF4005161
:106F3000FFF726FF43F65C14C2F2000494F8CE007B
:106F4000032818D1204602F0E3F8204602F0BEFAEA
:106F5000204602F019FB20460021FDF758FC204690
:106F60000121FDF754FC2046002101F075FE20466A
:106F7000012101F071FE01F0DBFE02F053F8FFF792
:106F8000E5FEDBE741F2000443F24825C4F20104C8
:106F9000C2F2000520464FF40051FFF7F1FED5F88C
:106FA0002401D5F82411091A312905D800BFD5F8D4
:106FB0002411091A3229F9D320464FF40051FFF762
:106FC000DDFED5F82401D5F82411091A3129E1D8BC
:106FD00000BFD5F82411091A3229F9D3DAE74EF6A1
:106FE0000C5CCEF2000CDCF8003003F4E063A3F597
:106FF0004073B3F5A06F03D21B0AC3F1040C08E081
:1070000040F20053C0F2FA53CCF8003002234FF0A4
:10701000020C99400F2323FA0CF31A4011434EF24D
:107020000012CEF20002090140EA020383F80013C5
:1070300000F01F01012303FA01F11C2303EAD00031
:107040008150704740F080604EF60C5140F0FD706A
:10705000CEF20001086070474FF68072C1F6FF72F1
:10706000114008434EF60851CEF200010860704707
:10707000B0B547F20003C4F200031A6843F2907EF1
:1070800022F003021A60D3F800C04EF2001240EA68
:107090000C00CEF200021860D2F8100C43F28C7C87
:1070A00040F00400C2F8100C52F8F00CC2F2000CD0
:1070B000CCF800001068C2F2000ECEF80000536851
:1070C00043F29470C2F200000360946843F2987334
:1070D000C2F200031C6052F8F04C0425C0F2010516
:1070E0002C4042F8F04C4FF63D04CFF67F74C2F8C6
:1070F00080406FF4E064C2F884404FF0FF34C2F87F
:10710000884000290FBF30BF40BF20BF20BFDCF840
:10711000001042F8F01CDEF80010116000685060AA
:1071200018689060D2F8100C20F00400C2F8100C1F
:10713000B0BD000010B541F2040EC4F2020EDEF83C
:10714000001001F00C01082941F20021C0F27A017F
:1071500046D1DEF80030DB0304D440F6001CC0F258
:107160003D0C25E0DEF82830DEF828C05B0046F64E
:107170000043C0F2DC2358BF0B465FEACC3110D588
:10718000DEF82810C1F3031CDEF828100CF1010C06
:10719000C1F30321B3FBFCF30231112908BF142111
:1071A0004B43DEF8281001F00F010131B3FBF1FC75
:1071B000DEF800301022C3F38343DEF8001002EA49
:1071C0005161194401220F2938BF022253180F2B95
:1071D00011BF03FB0CF10CEB4C01490001EB5C010E
:1071E000DEF800200328C2F30313DEF80020C2F308
:1071F000022CDEF800400DD80DA2D25C4BF2E10E5D
:1072000021FA02F3C0F6000EDFE800F00F020609D3
:1072100019460AE0002108E01EF80C0003E0C4F360
:10722000C2201EF8000023FA00F1084610BD00BF7E
:107230000000000000000000010203040607080926
:1072400041F2000300F01F018009C4F202034FF075
:10725000010CC2580CFA01F11143C150704741F2C0
:10726000000300F01F018009C4F202034FF0010C7B
:10727000C2580CFA01F11143C150704741F20003AA
:1072800000F01F018009C4F202034FF0010CC25844
:107290000CFA01F122EA0101C150704741F20003EA
:1072A00000F01F018009C4F202034FF0010CC25824
:1072B0000CFA01F11143C150704741F20401C4F2CC
:1072C00002010A6822F44002104308607047B0B51A
:1072D00043F61705C2F2000595F900100F291FDCCF
:1072E000044695F84101132110FB015043F220514F
:1072F0000130C2F200012246FCF756FF287895F8CB
:1073000041110130294481F8314195F841114A1C5D
:10731000D3B20F2B88BFA1F10F0285F8412128704D
:107320002878B0BD10B50446C06890F9241007292C
:107330001BDC90F8BD10132211FB020043F24071D8
:107340002530C2F200011322FCF72EFFE06890F80E
:10735000241090F8BD200131531CDCB2072C88BFEB
:10736000D31F80F8BD3080F8241090F8240010BDA1
:1073700070B543F2E070C2F20000046864B34BF6EB
:10738000C201C0F600012046FCF732FFA0B343F271
:10739000E470C2F200000068002871D000210A22C7
:1073A000FCF7A6FF4FF0FF3111FA80F1052900F23A
:1073B0008A8043F24824C2F2000494F8201104F1B8
:1073C0000C0232F8113000F0070023F4E06343EAC6
:1073D000002022F8110091E04BF24A50C0F6000064
:1073E00003F072FC43F24820C2F2000090F8200142
:1073F000BDE87040FEF710BC4BF6C701C0F60001B7
:107400002046FCF7F5FE002800F0998043F2E47076
:10741000C2F200000068002800F0A38000210A22C8
:10742000FCF766FF43F24826C2F2000696F82011E8
:1074300006F1080232F8113000F0030023F03003A7
:1074400043EA001022F8110096F8204196F8200136
:1074500032F81000C0F3011596F8200132F8100040
:10746000C0F30110FDF7D0F803464BF60D00C0F64F
:10747000000021462A4603F0EFFB96F820015AE06F
:1074800092A003F021FC43F24820C2F2000090F8E1
:10749000201190F8202100F10C0333F8122090F80D
:1074A00020014AF6F87502F01F02C0F6000533F815
:1074B000100005EBC202D288C0F302234BF2C16078
:1074C000C0F600006DE080B2FDF716F94BF2A8019E
:1074D000C0F600010978B1EB104F98BF70BD43F2C0
:1074E0004824C2F2000494F8201104F10C0232F88E
:1074F0001130000C60F3040322F8113094F82011CD
:1075000094F820014AF6F87332F8100094F82051EC
:1075100000F01F00C0F6000303EBC00032F8153086
:10752000C2884BF2C160C3F30223C0F6000003F02F
:1075300093FB94F82001BDE87040FCF7E1BF78A10F
:107540002046FCF755FE80B343F2E470C2F200001F
:10755000006898B300210A22FCF7CAFE00F001007F
:1075600030E065A003F0B0FB43F24820C2F2000017
:1075700090F8204190F8201100F1080232F8111023
:10758000C1F3011590F8200132F81000C0F301108A
:10759000FDF73AF803464BF60D00C0F60000214611
:1075A0002A46BDE8704003F057BB5EA12046FCF7B9
:1075B0001FFE58B1BDE87040FDF7E2BE0020FEF7A7
:1075C00071FA0120BDE87040FEF76CBA4BF6081165
:1075D000C0F600012046FCF70BFE60B143F2E470F8
:1075E000C2F200000068C0B100210A22FCF780FE50
:1075F00000F0010017E04DA12046FCF7F9FDB0B105
:1076000043F2E470C2F200000068C8B300210A220D
:10761000FCF76EFE00F00100EAE643F24820C2F2F9
:10762000000090F82001BDE87040FDF703BB41A1C8
:107630002046FCF7DDFD40B343F2E470C2F20000E7
:10764000006850B300210A22FCF752FE43F248249E
:10765000C2F2000494F8201104F1080232F811304B
:1076600060F3000322F8113094F8200133A132F8BE
:107670001000C00736A008BF084603F025FB58E7F6
:107680000020FEF7C9FA0120B2E64BF24A50C0F6DC
:107690000000BDE8704003F017BB4BF21130C0F69C
:1076A000000003F011FB43F24820C2F2000090F802
:1076B000201100EB4100008900F001014BF29270B3
:1076C000C0F60000BDE8704003F0C6BA2063616EEA
:1076D0002062617564205B6261756420696E206B55
:1076E0006270735D207365742043414E2062617542
:1076F00064726174652E0A002063616E206D6F6490
:1077000065205B307C317C327C335D207365742076
:1077100043414E20776F726B206D6F64652E0A00B7
:10772000726567007370656564000000737461744E
:10773000000000006664656E00000000446973612B
:10774000626C652043414E46442E2E2E0A000000F6
:10775000456E61626C652043414E46442E2E2E0AD2
:1077600000000000B0B584B043F2E070C2F2000047
:107770000468E4B1ACA12046FCF73AFD002843D0F0
:1077800043F2E470C2F20000006843F24824C2F2FF
:10779000000438B100210A22FCF772FDA18860F3D1
:1077A0000001A180A08800F00101A1A036E14BF208
:1077B0008140C0F6000003F087FA43F24820C2F28D
:1077C0000000B0F804C0828843F2BC61C2F38002BA
:1077D0008388C2F20001C3F301138488C4F3012437
:1077E000D0F82CE1B1F86A00B1F86C50CDE9004E48
:1077F00002904BF20E700CF00101C0F600000395F0
:1078000003F02AFA04B0B0BD8CA12046FCF7F0FCCE
:10781000E0B143F2E470C2F20000006868B10021F8
:107820000A22FCF72DFD43F24821C2F200018A88AA
:1078300022F0020260F341028A8043F24820C2F241
:1078400000008088C0F340017EA0E7E080A12046D0
:10785000FCF7CEFCE0B143F2E470C2F20000006835
:1078600068B100210A22FCF70BFD43F24821C2F265
:1078700000018A8822F0040260F382028A8043F2C7
:107880004820C2F200008088C0F3800172A0C5E0E9
:1078900074A12046FCF7ACFCE0B143F2E470C2F204
:1078A0000000006868B100211022FCF7E9FC43F2F7
:1078B0004821C2F200018A8822F0300260F30512EA
:1078C0008A8043F24820C2F200008088C0F3011190
:1078D00066A0A3E068A12046FCF78AFCE0B143F271
:1078E000E470C2F20000006868B100211022FCF7C9
:1078F000C7FC43F24821C2F200018A8822F4407298
:1079000060F309228A8043F24820C2F20000808896
:10791000C0F301215AA081E05CA12046FCF768FC7D
:10792000B8B143F2E470C2F20000006848B100212F
:107930000A22FCF7A5FC43F24821C2F20001C1F87B
:107940002C0143F24820C2F20000D0F82C1151A0C3
:1079500064E053A12046FCF74BFC80B143F2E47095
:10796000C2F20000006800B300210A22FCF788FC84
:1079700043F2BC61C2F20001A1F868001BE04DA116
:107980002046FCF735FCC8B143F2E470C2F20000B7
:10799000006848B300210A22FCF772FC43F2BC6184
:1079A000C2F20001A1F86A0024E043F2BC60C2F216
:1079B0000000B0F8680081B23BA02FE043A1204650
:1079C000FCF716FCC8B143F2E470C2F20000006894
:1079D000E0B100210A22FCF753FC43F2BC61C2F281
:1079E0000001A1F86C0017E043F2BC60C2F2000095
:1079F000B0F86A0081B231A010E04BF28140C0F6CD
:107A0000000004B0BDE8B04003F05EB943F2BC60D2
:107A1000C2F20000B0F86C0081B22EA004B0BDE844
:107A2000B04003F019B900BF6563686F0000000043
:107A3000204543484F3D25640A0000007465737477
:107A40000000000020544553543D25640A00000006
:107A5000736F66740000000020534F46543D256448
:107A60000A0000006C6576656C000000204C4556ED
:107A7000454C3D25580A00006368616E0000000017
:107A8000204348414E3D25580A00000074696D6549
:107A9000000000002054494D453D256C640A00005B
:107AA000747269670000000020545249473D256CFC
:107AB000640A000064656C61793000002044454C24
:107AC0004159303D256C640A0000000064656C611A
:107AD000793100002044454C4159313D256C640A00
:107AE000000000002DE9F04782B043F2E070C2F2DE
:107AF000000004680020002CADF8060000F0938020
:107B00004DA12046FCF774FB08B343F2E470C2F2C7
:107B100000000068002800F08C8000211022FCF793
:107B2000E7FB43F2E871C2F2000109680546E1B3E0
:107B3000084600211022FCF7DBFB6FF0070184B23E
:107B400011FA80F0382888BF40247CBB4EE041A168
:107B50002046FCF74DFB00284DD043F2E470C2F202
:107B600000000068002864D043F2E874C2F2000408
:107B7000216800295DD000211022FCF7B9FB2168A3
:107B80000446084600211022FCF7B2FBE4B285B29D
:107B900020462946FDF79CF930A0294603F05CF801
:107BA00033A0214603F058F843E04024EDB2002012
:107BB0000FF28C080DF106090FF2900A002600BFA3
:107BC00047193E2F12D8400703D14046394603F0EB
:107BD00043F8B8B24946FDF728F9BDF806105046FB
:107BE00003F03AF80136B0B28442E9D84BF66C00A3
:107BF000C0F600001BE04BF6AF01C0F600012046C6
:107C0000FCF7F6FA18B1FDF7EDF820A00FE04BF6FF
:107C1000DB01C0F600012046FCF7EAFA18B1FDF7D7
:107C20000DF921A003E04BF23730C0F6000003F05D
:107C30004BF802B0BDE8F087726561640000000097
:107C40000A30782530345820200000002530345880
:107C50002000000077726974650000002077726967
:107C600074652030782530345820746F000000008F
:107C700020656570726F6D20616464726573732036
:107C8000307825303458202E2E2E0A004C6F616437
:107C90002066726F6D20496E742E20454550524FFC
:107CA0004D2E2E2E0A0000005361766520746F2041
:107CB000496E742E20454550524F4D2E2E2E0A00EF
:107CC00070B586B043F2E070C2F20000046854B3AD
:107CD000D0A12046FCF78CFA002869D043F2E4706A
:107CE000C2F20000006843F24824C2F2000478B1F6
:107CF00000210A22FCF7FCFA94F8201100F00100A0
:107D000004EB41010A8922F4007242EA4020088112
:107D100094F8201194F8200104EB40000089C0F38E
:107D20004022BEA09FE04BF2D750C0F6000002F008
:107D3000CBFF43F2482CC2F2000C9CF820119CF8B7
:107D400020210CF1080434F81220C2F340229CF8E0
:107D5000203134F81330C3F300239CF8200134F8A9
:107D60001000C0F3802E9CF8200134F81000C0F3FE
:107D700040009CF8205134F81540C4F380049CF86E
:107D800020510CEB8505D5F840519CF820610CEB97
:107D90008606D6F84861CDE900E04BF62E00C0F625
:107DA0000000CDE90245049602F056FF06B070BD12
:107DB0009EA12046FCF71CFA40B343F2E470C2F2E5
:107DC0000000006898B100210A22FCF791FA43F202
:107DD0004821C2F2000191F8202100F0010001EBDE
:107DE00042010A8922F4807242EA0020088143F2AB
:107DF0004820C2F2000090F8201190F8202100EBFA
:107E000042000089C0F3002289A02CE08CA120460A
:107E1000FCF7EEF960B343F2E470C2F200000068D0
:107E200098B100210A22FCF763FA43F24821C2F21A
:107E3000000191F8202100F0010001EB42010A89C4
:107E400022F4806242EA8020088143F24820C2F294
:107E5000000090F8201190F8202100EB42000089EA
:107E6000C0F3802278A006B0BDE8704002F0F4BEF6
:107E700079A12046FCF7BCF930B343F2E470C2F2BA
:107E80000000006898B100210A22FCF731FA43F2A1
:107E90004821C2F2000191F8202100F0010001EB1D
:107EA00042010A8922F0020242EA4000088143F2BC
:107EB0004820C2F2000090F8201100EB4100008938
:107EC000C0F3400166A02AE068A12046FCF790F9C3
:107ED00050B343F2E470C2F20000006898B1002190
:107EE0000A22FCF705FA43F24821C2F2000191F898
:107EF000202100F0010001EB42010A8922F0040276
:107F000042EA8000088143F24820C2F2000090F863
:107F1000201100EB41000089C0F3800154A006B09D
:107F2000BDE8704002F098BE54A12046FCF760F90D
:107F300008B343F2E470C2F20000006868B10021A7
:107F40000A22FCF7D5F943F24821C2F2000191F868
:107F5000202101EB8201C1F8400143F24820C2F226
:107F6000000090F8201190F8202100EB8200D0F85A
:107F7000402143A077E746A12046FCF739F908B332
:107F800043F2E470C2F20000006868B100210A22E6
:107F9000FCF7AEF943F24821C2F2000191F820212A
:107FA00001EB8201C1F8480143F24820C2F200000F
:107FB00090F8201190F8202100EB8200D0F84821A1
:107FC00034A050E737A12046FCF712F9C8B143F2BC
:107FD000E470C2F20000006858B100210A22FCF7E8
:107FE00087F943F2482100F00100C2F2000181F854
:107FF000200143F24820C2F2000090F820112AA08C
:108000008DE74BF2D750C0F6000006B0BDE87040D7
:1080100002F05ABE73686F77000000004348256481
:108020002053484F573D25640A00000061646400F6
:1080300043482564204144443D25640A0000000073
:1080400073696E676C650000434825642053494E90
:10805000474C453D25640A007478666400000000C2
:1080600020545846443D25640A00000062727300A3
:10807000204252533D25640A00000000636E7400E4
:108080004348256420434E543D25640A0000000007
:108090007072640043482564205052443D25647545
:1080A000730A0000636800002043483D25640A000D
:1080B000F0B581B043F2482543F2E070C2F200050A
:1080C000C2F2000095F82011006818B343F23C2278
:1080D00001F00101C2F2000252F821101022CE6814
:1080E00000210027FCF704F920F0604043F2E4711E
:1080F0003061C2F200010C6804204BF6D4013075E7
:10810000C0F600012046FCF773F860B102207075DC
:1081100000200EE04BF2FF30C0F6000001B0BDE8D9
:10812000F04002F0D1BD06F11A0120467775FCF748
:10813000CFFF707695F8200100F0010001B0BDE896
:10814000F040FDF753BA0000B0B543F2E070C2F260
:1081500000000468ACB34BF6CC01C0F60001204629
:10816000FCF746F8D0BB204600210A22FCF7C0F8F5
:1081700043F2E471C2F200010D684BF6C70100F052
:108180000704C0F600012846FCF732F838B343F282
:10819000E870C2F20000006800B300210A22FCF778
:1081A000A7F843F2BC62C2F200020121938AA14007
:1081B00043EA0105C00708BF23EA0105204695826E
:1081C00086E04BF20B50C0F6000002F07DFD00246B
:1081D000A0B2FDF773FD0134082CF9D1B0BD3EA16A
:1081E0002846FCF705F8D0B143F2E870C2F200006F
:1081F00000680028F2D000210A22FCF779F843F247
:10820000BC62C2F200020121D38AA14043EA010507
:10821000C00708BF23EA01052046D58258E030A1F7
:108220002846FBF7E5FFD0B143F2E870C2F2000048
:1082300000680028D2D000210A22FCF759F843F246
:10824000BC62C2F200020121138BA14043EA010586
:10825000C00708BF23EA01052046158338E021A1A5
:108260002846FBF7C5FFB0B143F2E870C2F2000048
:1082700000680028B2D000211022FCF739F843F240
:10828000BC62C2F200020146000C02EBC402108480
:10829000204651841CE014A12846FBF7A9FFB0B189
:1082A00043F2E870C2F200000068002896D0002176
:1082B0001022FCF71DF843F2BC62C2F20002014634
:1082C000000C02EBC40290842046D18400E02046DA
:1082D000BDE8B040FDF7F2BC7363616C650000005F
:1082E00061637400723000007231000070B54BF6AB
:1082F0002C160025C0F6000605A400BF70197159A0
:108300004268204602F0A8FC0C35782DF6D170BDED
:10831000202573202D3E20257300000010B543F268
:10832000E070C2F200000468C4B320A12046FBF74D
:108330005FFF18B1BDE81040FDF726BD4BF60811F0
:10834000C0F600012046FBF753FF78B143F2482006
:10835000C2F200000021C0F85811C0F85C11C0F84A
:108360006011C0F83811C0F83C1110BD10A12046B2
:10837000FBF73EFF48B143F24820C2F2000081887B
:108380000DA0BDE8104002F067BC0FA12046FBF72E
:108390002FFF18B1BDE81040FCF788BF4BF2E64054
:1083A000C0F60000BDE8104002F08EBC7379730087
:1083B00072656773000000002046554E433D3078DB
:1083C000253034580A000000636C6B0010B543F28E
:1083D000E070C2F20000006880B141F200040021A8
:1083E0001022C4F20104FBF783FFC00707D1204627
:1083F0004FF40051BDE81040FEF7C0BC10BD204650
:108400004FF40051BDE81040FEF7BABCB0B543F2DE
:10841000E070C2F200000068C0B100211022FBF73A
:1084200067FF04466FF31100B0F1006F0FD047F6FD
:10843000FF7024EA0000B0F1005F08D04BF2D420B6
:10844000C0F60000BDE8B04002F03EBCB0BD43F253
:10845000E470C2F20000006830B100211022FBF786
:1084600047FF85B2072D01D84FF480752046294675
:10847000FCF7C6FE034603A021462A46BDE8B040ED
:1084800002F0EABB53544152543D307825303858FD
:10849000204C454E3D307825303858204352433DDE
:1084A0003078253034580A002DE9F04381B0FEF7CA
:1084B000F6FC10B101B0BDE8F08343F2E070C2F207
:1084C000000000680028F5D000211022FBF710FF03
:1084D000A8B1044643F2E470C2F20000006800252F
:1084E00090B100211022FBF703FF87B2B7F5807F20
:1084F00088BF0125072F98BF4FF4807706E04BF225
:10850000D420C0F6000021E04FF48077002D18BF82
:108510004FF48077B7B14BF66E0900260FF238089A
:10852000C0F60009002500BF300703D131194046CD
:1085300002F092FBA15D484602F08EFB0135AEB21F
:10854000B742F1D84BF66C00C0F6000001B0BDE8B0
:10855000F04302F0B9BB00BF0A307825303858200C
:108560000000000010B543F2E070C2F200000468A1
:1085700064B34BF6AF01C0F600012046FBF738FEAE
:1085800030B116A002F0A0FBBDE81040FCF7CBBD57
:108590004BF6DB01C0F600012046FBF729FE30B1A7
:1085A00017A002F091FBBDE81040FCF7FEBF4BF6B0
:1085B000CC01C0F600012046FBF71AFE30B118A02E
:1085C00002F082FBBDE81040FCF764BF4BF245604F
:1085D000C0F60000BDE8104002F076BB204C6F6191
:1085E0006420706172616D65746572732066726F6C
:1085F0006D20454550524F4D2E2E2E0A0000000092
:10860000205361766520706172616D657465727367
:1086100020746F20454550524F4D2E2E2E0A0000DB
:1086200020526573746F72652064656661756C7441
:1086300020706172616D65746572732E2E2E0A0052
:1086400043F2E070C2F20000006808B9002003E0C5
:1086500000210A22FBF74CFEFCF784FB03A002F08A
:1086600033FB012080F31388FDF73EFF2072656223
:108670006F6F74696E672E2E2E200A00F0B581B0E0
:1086800043F2482543F2E070C2F20005C2F2000056
:1086900095F82011006810B343F23C2201F001016B
:1086A000C2F2000252F821101022CE6800210027E9
:1086B000FBF71EFE6FF3DF20F06043F2E470C2F2BE
:1086C000000004684BF6D401C0F60001204637755F
:1086D000FBF78EFD60B10220707500200EE04BF2BA
:1086E0004040C0F6000001B0BDE8F04002F0ECBA36
:1086F00006F11A0120467775FCF7EAFC707695F8CA
:10870000200100F0010001B0BDE8F040FCF76EBFB1
:1087100010B543F2E070C2F2000004686CB34BF68F
:10872000C201C0F600012046FBF762FD002856D0CA
:1087300043F2E470C2F200000068002800F0838079
:1087400000210A22FBF7D4FDFDF7AAFD43F24821E0
:10875000C2F20001CA8800F00F0022F4706242EAFF
:108760000020C880C8884BF2AC01C0F30320C0F6DB
:10877000000151F8201061A073E04BF27750C0F671
:10878000000002F0A1FA43F24824C2F20004E0889B
:108790004BF2AC01C0F30320C0F6000151F82010E9
:1087A00076A002F059FAE0884BF69F02C0F301313F
:1087B000E0884BF6A40300F44050B0F5805F4BF620
:1087C0001200C0F60002C0F60000C0F6000308BFA9
:1087D0001A4602F041FAE088C1B26BA041E04BF6C4
:1087E000C701C0F600012046FBF702FDE8B343F2E3
:1087F000E470C2F200000068002854D000210A2270
:10880000FBF776FD43F24822C2F20002D1884BF614
:10881000A40321F4405160F30D31D180D088C0F61B
:108820000003C0F30131D0884BF69F0200F44050A2
:10883000C0F60002B0F5805F4BF2C43008BF1A46A4
:10884000C0F6000046E043F24820C2F20000C088B3
:108850004BF2AC01C0F30320C0F6000151F8201028
:1088600035A0BDE8104002F0F7B93DA12046FBF766
:10887000BFFC98B343F2E470C2F200000068A8B3F2
:1088800000210A22FBF734FD43F24821C2F2000125
:10889000CA8860F30702CA80C888C1B24BF29F50F1
:1088A000C0F60000DDE743F24820C2F20000C188B4
:1088B0004BF69F02C1F30131C0884BF6A40300F4CC
:1088C0004050C0F60002C0F60003B0F5805F08BF5C
:1088D0001A461EA0BDE8104002F0BEB94BF2775018
:1088E000C0F60000BDE8104002F0EEB943F24820A7
:1088F000C2F20000C088C1B21BA0B2E72073657449
:108900002055415254204241554420746F20256C1B
:10891000642C20736176652026207265626F6F7407
:1089200020746F206170706C79206E6577206261B1
:1089300075642E0A00000000205541525420424127
:108940005544203D20256C640A000000205541520A
:1089500054204D4F4445203D2025642025730A00B6
:10896000616464720000000020554152542041446B
:108970004452203D2025640A000000002042415559
:10898000443D256C640A000020414444523D256466
:108990000A00000070B54BF28E10C0F6000000888F
:1089A000410AC0F3431200F01F030BA002F054F978
:1089B0004FF2E8760025C1F6FF7610A436F81510C0
:1089C000204602F049F90135062DF7D10DA0BDE88A
:1089D000704002F079B900BF2055534243414E2008
:1089E0006F6E204744333245313033207625642E74
:1089F00025642E256420534E3A000000253034585B
:108A0000000000000A204543484F205374756469F4
:108A10006F203C6563686F2E786A747540676D617E
:108A2000696C2E636F6D3E2E20416C6C205269671D
:108A30006874732052657365727665642E200A002F
:108A4000406A70474162704710B541F6FF31C4F289
:108A5000000188421BDC40F6FF31C4F2000188426D
:108A600030DD41F2FF31C4F20001884251DC40F6B2
:108A70000041C4F2000188426AD041F20001C4F210
:108A80000001884240F0838040F2044477E043F2E2
:108A9000FF31C4F20101884226DD44F6FF71C4F2C1
:108AA0000101884244DC43F20041C4F201018842E2
:108AB00051D044F60041C4F20101884267D140F22E
:108AC00013345CE0B0F1804F48D040F20041C4F272
:108AD0000001884245D040F60001C4F200018842FE
:108AE00055D140F202444AE041F60041C4F200018F
:108AF000884239D042F20001C4F20001884236D0E7
:108B000042F60041C4F20101884240D140F20B34E8
:108B100035E041F20041C4F2000188422AD041F61A
:108B20000001C4F20001884231D140F2064426E03F
:108B300045F20001C4F2010188421ED045F2004115
:108B4000C4F20101884218BF10BD40F2153416E08E
:108B500040F2034413E040F20D3410E04FF480641F
:108B60000DE040F201440AE040F2074407E04FF410
:108B7000816404E040F2054401E04FF4457420466E
:108B8000FEF78CFB2046BDE81040FEF777BB10BD1A
:108B9000016841F001010160704780B50A8843F225
:108BA000004C826240F6FF32C4F200029042C4F2EE
:108BB000010C0DDCB0F1804F18D040F20043C4F23C
:108BC0000003984212D040F60003C4F200030BE009
:108BD00040F60043C4F20003984207D0604505D038
:108BE00042F60043C4F2010398420FD1036823F018
:108BF000700303604B88026803F060031A4302604D
:108C00008A88036802F010021A43026041F20042AF
:108C1000D1F808E040F48063C4F200029342C0F847
:108C20002CE009D0026822F4407202608A8903684D
:108C300002F440721A430260604505D042F60042D9
:108C4000C4F20102904201D1897B0163416941F084
:108C50000101416180BD00002DE9F04381B043F284
:108C60003C2001F00104C2F2000050F824502868B2
:108C70008669FDF747FE43F24829C2F20009EF6812
:108C8000B9F8041043F2F07811F0300FC2F2000886
:108C90000BD0034658F82400704010F0060F04D0A3
:108CA0001BA02146324601F0D7FFE87910BBF87DC2
:108CB00000BB700707F10C000AD518F8241049070B
:108CC00006D443F24071C2F20001E522E5270BE031
:108CD000B1070FD518F8241089070BD443F240715F
:108CE000C2F20001E322E327FCF731F92846FEF740
:108CF00019FBEF7109EB8400D0F85001F1B2084381
:108D000004BF0020E87148F8246001B0BDE8F0839A
:108D10004572723A2043414E25645F4552523D30C0
:108D20007825303858204C45433D25640A00000022
:108D30002DE9F04143F24826C2F2000696F86A0196
:108D4000002800F0BE80002043F2BC6186F86A0172
:108D5000C2F20001D6F83401B1F8681040F60044C0
:108D6000C4F201048842A4F580604FF0020102D9E8
:108D7000FEF706F801E0FEF701F843F2FA75C2F2D9
:108D80000005288843F2F97801306FF35F2043F241
:108D9000F877B0F5FF7FC2F20008C2F20007288022
:108DA00016DA20B3012848D196F86C01FF21FF287C
:108DB00088F8000086F86C113FD143F23C20C2F2E3
:108DC00000004068407A98B320464FF400611FE0ED
:108DD00021D040F2FF1188422FD1D6F8740160B340
:108DE000012086F86C010020C6F8740125E096F891
:108DF0006B01FF21FF28387086F86B111ED143F2FA
:108E00003C20C2F200000068407A70B12046202168
:108E1000FDF7B6FF11E0D6F8700170B1012086F8B9
:108E20006B010020C6F8700107E02046202102E017
:108E300020464FF40061FDF7A1FF3878022808D0E2
:108E4000012819D12888B0F5817F11D0022805D0DA
:108E500012E0288800F03F01032904D12046202198
:108E6000FDF78EFF08E0203000F03F00032803D11B
:108E700020462021FDF782FF98F80000022808D044
:108E800001281ED12888B0F5827F13D0042805D090
:108E900017E0288800F03F01052906D120464FF44D
:108EA0000061BDE8F041FDF76BBF203000F03F00EE
:108EB000052806D120464FF40061BDE8F041FDF7DA
:108EC0005DBFBDE8F0810000B0B543F2482EC2F2AC
:108ED000000EDEF8281143F2FE730131CEF828119E
:108EE00043F6000CC2F20003C2F2000C1A88BCF870
:108EF0000010501C82B242F211740131A2420AB237
:108F0000ACF80010188032D3002018809EF8201191
:108F10000EF1100301EB011103EBC1018C8804F089
:108F20003F048C809EF8201101EB011153F83110A1
:108F30009EF820419EF8205104EB041405EB051522
:108F400003EBC505AD8803EBC40404EB4504E180E5
:108F50009EF8201101EB011143F831009EF8200129
:108F600000EB001003EBC0008188013181800A2AE8
:108F70001FDB43F2FC73C2F20003188800220130A9
:108F800081B2B1F57A7FACF8002018800BD31A803B
:108F9000DEF82C010130CEF82C01BEF8000040F0C4
:108FA0001000AEF80000DEF824010130CEF82401F4
:108FB000B0BD072A35D8DFE802F004050B0F1823EF
:108FC000292FF0E7DEF830010130CEF83001B0BDD6
:108FD00001208EF86A01B0BDDEF8500108B3DEF85A
:108FE00050010138CEF85001B0BDDEF8540102281E
:108FF00038BFB0BDDEF854010138CEF85401B0BD21
:10900000DEF834010130CEF83401B0BDDEF83801AD
:109010000130CEF83801B0BDDEF83C010130CEF8A9
:109020003C01B0BD2DE9F04F81B043F23255C2F2A0
:1090300000052878002867D04BF6720105F1C100C1
:10904000C0F60001FBF7FAF843F2DC7643F2E07B6E
:1090500043F2E47443F2E87843F2EC79C2F200069A
:10906000C2F2000BC2F20004C2F20008C2F2000910
:10907000306028B34BF67201C0F600010020FBF708
:10908000DDF8CBF80000D8B14BF67201C0F6000154
:109090000020FBF7D3F8206090B14BF67201C0F6C8
:1090A00000010020FBF7CAF8C8F8000040B14BF6F9
:1090B0007201C0F600010020FBF7C0F8C9F80000FB
:1090C000A14634684BF62C1A0027C0F6000A00BFF0
:1090D0005AF807102046FBF78BF818B90C37C02F49
:1090E000F6D103E00AEB07008068804743F2EC7199
:1090F0000020C2F200013060CBF80000C9F8000087
:10910000C8F800000860287001B0BDE8F08F0000CA
:10911000F0B581B043F24825C2F2000595F8691117
:1091200000293BD0002143F20F46044695F869011F
:1091300085F86911C2F200063178122930D17178B0
:10914000013914292CD8DFE811F015002B00370065
:109150005F002B0082002B002B002B002B002B002C
:109160009D00AC00C400E0002B002B00060139017B
:109170004D018A01042840F08B81B078012840F02D
:10918000878143F2205040F21211C2F20000C0F277
:10919000830101604FF4817181800DE101B0F0BD68
:1091A000A88810F0300F00F073814BF2CF20C0F68A
:1091B0000000FCF751FE6BE1072840F0698130792F
:1091C00043F23C22C0F30011C2F2000252F8211017
:1091D00043F60402C2F20002116000224FF0FF3396
:1091E000C1E904238A610122B6F805300A77022218
:1091F00002EA9010A1F81D30C87743F22050C2F265
:10920000000040F212311EE00D2840F04181B0789C
:109210000A2840F03D8143F60401D6F80500C2F269
:1092200000010968D6F8092000BA086112BA30793D
:10923000D2434A61C0F38010087743F22050C2F253
:10924000000040F21241C0F28101016081E0052876
:1092500040F01E81B078022840F01A8143F220507D
:1092600040F21261C2F20000C0F28A0101600121E5
:1092700001710021C0F8051040F29531C0F80910C5
:109280000D2003E1072840F00381B078042840F066
:10929000FF8030797179B279C0F30010FBF77AFB67
:1092A0004FE0062840F0F480B078032840F0F080CA
:1092B00043F2205740F61250C2F20007C0F282007B
:1092C000386030797179C0F30010FBF7B1F938716B
:1092D00086E0052840F0DC80B078022840F0D88095
:1092E0003079042101EA900043F23C21C2F20001EE
:1092F000085843F60407C2F200073860FBF715FA76
:1093000038680121417281711BE0052840F0C0805E
:10931000B078122840F0BC803079042101EA900036
:1093200043F23C21C2F20001085843F60407C2F29E
:1093300000073860FBF75DF93868417A09B1002110
:109340004172308843F22051C2F20001088081202E
:10935000488004209AE0042840F09A80B0780128E0
:1093600040F096804BF28E10C0F6000000884CF65C
:10937000CD4200F01F01CCF6CC42A1FB023743F2F4
:10938000205341F21226C2F20003C0F28306FF0806
:109390001E6007EB8706A1EB460141EA0711197130
:1093A000C0F34310A0FB0212D10801EB8102A0EB35
:1093B000420040EA01105871062067E0042867D196
:1093C000B078012864D143F2205041F21231C2F248
:1093D0000000C0F282010160A988C1F3012101717E
:1093E000052053E0042853D1B078012850D143F22E
:1093F000205641F21240C2F20006C0F28D002EA1AA
:10940000306008894A68897AB0812B48B173314647
:1094100041F8040FFC20B260C0F600000068FCF7C1
:1094200012FB4BF28E10C0F6000000884CF6CD41C6
:10943000CCF6CC41A0FB0123400AA0FB0112302155
:1094400041EA13317173D10801EB8101A0EB4100B6
:1094500040F03000B0730020F073102016E00428B4
:1094600016D1B078012813D143F2205041F21251A5
:1094700045F25532C2F20000C0F28701C4F2423216
:10948000C0E9001244F6416101810A20FDF71FFF87
:10949000A88800F03000302802D10AA0FCF7DCFCDC
:1094A00043F20F42C2F2000220460121102301B014
:1094B000BDE8F04000F085BF32303134303932320F
:1094C00030303000496E666F3A000000B0B543F2AC
:1094D0004824C2F2000494F86611F1B1D4F83811AE
:1094E000332942D3002584F86651016A0A6842F0A4
:1094F00000620A60812101F002F843F61700C2F20F
:109500000000A0F841510570A08810F0300F2CD059
:1095100016A0BDE8B04001F09FBB43F61705C2F2AC
:10952000000595F900100129B8BFB0BD95F84211AA
:10953000132211FB0252294491F831310132812169
:1095400000F059FF012084F866010020C4F83801BA
:1095500095F84201411CCAB20F2A88BFA0F10F0141
:1095600085F84211287801382870B0BD4572723AEA
:109570002074736B557362436D6452657020746917
:109580006D656F75740A00002DE9F04743F6160A01
:10959000C2F2000A9AF80010044606292ED8DFE825
:1095A00011F0070038008200D800EC00F700390104
:1095B00043F24822C2F2000292F86701002800F04C
:1095C000278192F8681143F61400C2F200000023CC
:1095D0001329017082F8673118BF392940F064817E
:1095E000D2F85C010130C2F85C0143F61500C2F20A
:1095F0000000C2F83431037003204AE143F27C6278
:10960000C2F2000220460221402300F0DAFE0020D0
:10961000FCE043F61508C2F2000898F8000043F297
:109620007C61C2F20001132210FB021143F6080014
:10963000C2F20000016088794FF0040943F23C2235
:1096400009EA9000C2F20002145843F60C06E068E2
:1096500043F6100700F10C05C2F20006C2F2000743
:10966000284634603D60FBF753FB20462946FBF754
:1096700019FB3068C17F022940F0FC8043F61400DA
:10968000C2F20000007846F6CB31CAF62871A0FB82
:109690000112801A02EB5000000988F800008AF8D5
:1096A0000090BDE8F08743F60C07C2F20007386867
:1096B00043F2C439C2F20009006899F80010FBF7C0
:1096C000D0F93968054609680846FDF71BF943F2E9
:1096D0004828C2F20008B8F804100446890604D5E8
:1096E000A8A02946224601F0B7FA042D18BF022D82
:1096F00000F08E80012D0BD0032C40F0DE8043F66D
:109700001000C2F200000068C07A002800F0D58086
:10971000396843F61500C2F20000C96802780B6888
:1097200001320270581C0860D0B21321484343F63E
:109730001401C2F2000109780422884238BF0322D2
:109740008AF8002000224FF080400021C8F8302124
:10975000A6E043F24820C2F2000084884FF0804027
:10976000FFF76EF943F2BC61C2F20001B1F86A1072
:10977000620788424CD9012048E043F27C62C2F281
:10978000000220460221402300F01BFE05207BE062
:1097900043F24825C2F2000595F86601C0BB4FF0C0
:1097A0008040FFF74DF943F2BC61C2F20001B1F80D
:1097B0006C1088422CD943F6100143F22052C2F2B9
:1097C0000001C2F20002132009681070087B43F602
:1097D0001501C2F200010978507091702046812174
:1097E000032300F008FE012085F866010020C5F87B
:1097F000380140F60000C4F201000421FDF7C0FA70
:10980000D5F860010130C5F8600106208AF8000033
:10981000BDE8F08743F60C00C2F200000068C07992
:10982000002843F24820C2F200000ED143F6100196
:10983000C2F200010968097B00EB8102D2F85021D5
:109840001AB90144012281F86B2190F8661129B1FF
:10985000D0F83801332838BFBDE8F087002240F641
:109860000000C4F2010004218AF80020BDE8F0479E
:10987000FDF784BA00683968FBF7B8F843F2C431E1
:10988000C2F200010870022043F24822C2F2000234
:1098900000238AF800004FF080400021C2F83031E8
:1098A000BDE8F047FFF7CEB826293FF499AE90887F
:1098B00010F0300FACD03FA05FE0D8F8300140F29C
:1098C000816188421CD843F61000C2F20000016892
:1098D000032D0BD1087B0222404480F86B21087BCA
:1098E0004FF47A7208EB8000C0F8502138680068A5
:1098F000FBF77CF889F80000BDE8F047FDF726BAD1
:109900003868006899F80010FAF7DCFD3868C0681C
:1099100041680131416004208AF800000020C8F845
:1099200030014FF080400021FFF78CF843F6100023
:10993000C2F2000000683968037BE222CA7108EBBA
:109940000301022281F86B21017B4FF47A7208EB4C
:109950008101C1F8502143F24071C2F20001E222BC
:10996000FBF7F5FA3868FDF7DDFCB8F8040010F0F5
:10997000300F3FF44DAF07A02146BDE8F04701F09E
:109980006BB900BF535441543D2564204C45433DC1
:1099900025640A004572723A205472616E736D69D3
:1099A00074204661696C6564204C45433D25640A1A
:1099B000000000004572723A206461744F75744C67
:1099C000656E3D25640A0000FCF7DCBCB0B50446BA
:1099D00044F6FF30C4F200000D4684424FF0000010
:1099E00013DD44F60041C4F200018C4219D045F267
:1099F0000001C4F200018C4213D043F60001C4F20E
:109A000001018C4210D103200CE044F20041C4F269
:109A100000018C4205D044F60001C4F200018C42E2
:109A200002D10220FDF786FB00EB5500B0FBF5F0FC
:109A300080B2A060B0BD10B544F6FF31C4F20001A1
:109A4000884215DD44F60041C4F2000188421ED070
:109A500045F20001C4F2000188421BD043F6000128
:109A6000C4F20101884218BF10BD40F20E3416E066
:109A700044F20041C4F2000188420ED044F60001D5
:109A8000C4F20001884212D140F2124407E040F2D1
:109A9000134404E040F2144401E040F21144204633
:109AA000FDF7FCFB2046BDE81040FDF7E7BB10BD0D
:109AB000C16841F40051C160704701F01F0289097B
:109AC0004FF0010C0B580CFA02F21A430A5070477F
:109AD000C26822F4C062C260C2681143C1607047AC
:109AE000C26822F004021143C1607047026922F487
:109AF000405202610269114301617047C26822F05D
:109B000008021143C1607047C26822F48052C260EB
:109B1000C2681143C1607047F0B581B00C4605467C
:109B20004FF0000C022180F804C04170027032B185
:109B3000012A4FD1042208204FF0A04304E0002363
:109B400006220C20C4F20403EB60A870EA70A5F8AA
:109B5000051043F4006043F4806185F807C0C4E950
:109B60000030A16004F10C006C2143F4886643F4DA
:109B70006067FAF732FB04F17C003C21A667FAF734
:109B80002CFBC4F8B870E87878B1E968002201F5D8
:109B9000306100BFA1F5007304EB82070132FB6066
:109BA0007962824201F12001F4D3A87880B1EA6899
:109BB000002302F5A06102F5805200BF04EB830789
:109BC0000133F963FA672031834202F58052F5D3FD
:109BD000002000E0012001B0F0BDC17949B1416928
:109BE0008968C90705D0D0F8C800016821F00301D1
:109BF0000160704770B5049D0C46C1F3074601F43F
:109C00007F412868B1F5807F1FD1816B21F48031BD
:109C100081631EB1816B41F480118163C1684FF68D
:109C2000BF72CFF6DF721140C160C16821F48011AC
:109C3000C160016941F00101016100BF0169C9070B
:109C4000FCD1032000F0A8FA1FE0C16841F04001F8
:109C5000C160016941F00101016100BF0169C907EB
:109C6000FCD1032000F098FA2868816B41F4502160
:109C70008163816B41F4001181631EB1816B41F4FA
:109C800080118163142000F0C7F8E0B2012808D1E8
:109C90002868816821F01E018160816841F02A01F5
:109CA0008160002070BD416B1822C6F208020A6173
:109CB0000279012A18BF704700F21C404861086809
:109CC00040F08020086070470068C26822F0C042FF
:109CD000C26029B1012918BF70474FF0005101E05F
:109CE0004FF08041C2681143C16070472DE9F041D7
:109CF0000446D0F8C8004FF00008C0F80080606942
:109D000004F11005016821F4C0510160016801608F
:109D1000016821F0030101602178012911D1016856
:109D2000002741F0030101602868402131A641620B
:109D300036F81720F9B2284600F098F80137042FBA
:109D4000F6D12846102100F005FA284600F072F8F6
:109D5000D4F814E04FF0FF3CCEF81080CEF8148019
:109D6000CEF818C0CEF81C80E27812B34FF000088D
:109D7000FF26002504EB8507F86900210368B3F18D
:109D8000FF3F4FF0000302DC036843F090430360A1
:109D9000016186607F6B3868B0F1FF3F02DC386894
:109DA00040F09041013595423960C7F81080BE609F
:109DB000E0D3DEF8100040F01000CEF8100021696A
:109DC0006FF08040C1F804C0486140F60000C8F25E
:109DD00000008861207918B9886940F01000886116
:109DE000886943F20802C0F23C02024300208A6103
:109DF000BDE8F0814000400040004000426900EBB7
:109E000081001369526BC06922FA01F1C901C9B21C
:109E1000806819430840704710B548B1044600BF38
:109E20004FF47A7000F0B8F9FCF790FF013CF7D1DD
:109E300010BD000080B50068102101610169C906EC
:109E4000FCD4032000F0A8F9002080BD03320023D9
:109E5000B3EB920F07D0C06F920800BF0368013ABE
:109E600041F8043BFAD108467047000010B5D0F81D
:109E700000C0DCF82400D1B1DCF82830B1F1010ECB
:109E800000EB13430CD00021002000BF0CEB81013C
:109E9000D1F804410130C1B28E4503EB1443F5D82B
:109EA00043EA02400CEB8E01C1F8040110BD40EA08
:109EB0000240CCF8280010BD80B581B0002200928D
:109EC00091F90020B2F1FF3F02F00F0E08DD00EB28
:109ED0008E02536B0EF1100C012202FA0CF205E017
:109EE00000EB8E03DB69012202FA0EF200921A687F
:109EF000120427D4D3F800C04FF60002CFF6334245
:109F000002EA0C02BEF1000F1A6002D0B1F804C0E0
:109F100009E04269926802F0060C4BF2DD02C0F6DD
:109F2000000212F80CC01A6842EA0C021A60497862
:109F30001A6842EA8E5242EA814141F0805141F46E
:109F40000041196000994269D06901430020D16144
:109F500001B080BD91F90020B2F1FF3F02F00F0285
:109F600000EB8200CCBF406BC069026822F4001293
:109F70000260497801F0FE01022903D1016841F035
:109F8000805101600020704791F90010B1F1FF3F4E
:109F900001F00F0100EB810202DD526B103100E095
:109FA000D269136823F40043136042690120D36926
:109FB000884023EA00010020D161704770B582B06B
:109FC0000A7800F1100C02F00F020CEB8203DB6840
:109FD0001D6801951D690095009D05F0604500957F
:109FE000D1F80CE0BEF1000F0AD0BAB18C880EEBAC
:109FF0000405013DB5FBF4F4009D45EAC44416E0B8
:10A00000009D4FF0000E45F4002500954C78009D12
:10A01000012C4FF000041D6117D024E08C88A64568
:10A0200028BFA646C1F80CE0009C44F4002400942C
:10A03000009C44EA0E0400944D78009C012D10D140
:10A0400044F000540094009C1C614469A568019C84
:10A05000ED0554BF44F0005444F0805401940124B1
:10A0600001E01C6100240579012D08D1886958613F
:10A07000019840F0044001900198186019E0019E99
:10A0800046F004460196019E1E6095B9019D1D6033
:10A0900034B189681FFA8EF3604600F069F808E071
:10A0A000BEF1000F05D040690121436B9140194377
:10A0B0004163002002B070BD10B50A7812F00F02A3
:10A0C00000EB8202526BD2F800C014698B8804F056
:10A0D000604E0BD0CC684CB11C44013CB4FBF3F493
:10A0E0004EEAC44E634343EA0E0303E043EA0E0321
:10A0F00043F4002313610079012804BF886950618B
:10A100004878012806D1C87800280CBF4CF0805C44
:10A110004CF0005C4CF004410020116010BD91F93E
:10A120000010B1F1FF3F01F00F0100EB810001DDF4
:10A13000416B08E0C1690868B0F1FF3F03DC0868C3
:10A1400040F080400860086840F4001200200A6077
:10A150007047000080B5890100682031016100BFAF
:10A1600001698906FCD4032000F016F8002080BDA8
:10A1700003F1030C0023B3EB9C0F0AD000EB820029
:10A18000C06F4FEA9C0200BF51F8043B013A0360E4
:10A19000FAD100207047000010B504464FF080400F
:10A1A0000021FEF74FFC00BF4FF08040FEF748FC57
:10A1B000A042F9D310BDD0F82C044178FF291CBF70
:10A1C000FF2141700020704710B58221044600F045
:10A1D000E1F82046022100F0DDF82046812100F060
:10A1E000D9F82046012100F0D5F8002010BDB0B507
:10A1F000012911D0022924D1C1EBC10100EB810258
:10A20000D2F8DC10F9B1B2F8D420B1FBF2F303FBC1
:10A210001211C1B902210EE0C1EBC10100EB8102B4
:10A22000D2F8DC10F9B1B2F8D420B1FBF2F303FBA1
:10A230001211C1B9012100220023002400F0DBF833
:10A2400024E0022422E040F60005C4F2010528467D
:10A250000121FCF795FD43F24820C2F200000024E2
:10A2600080F865410EE040F60005C4F2010528467D
:10A270000121FCF785FD43F24820C2F200000024D2
:10A2800080F8664128460121FCF778FD2046B0BDE4
:10A29000B0B54BF6EC15C0F6000505F120010446FB
:10A2A00000F0C3F805F12701204600F0BEF805F1E3
:10A2B0001201204600F0B9F805F11901204600F01E
:10A2C000B4F843F20F42C2F20002204601211023EB
:10A2D00000F077F843F27C62C2F2000220460221CD
:10A2E000402300F06EF80020B0BD70B5012904468F
:10A2F00026D002292ED140F60005C4F201052846D9
:10A3000001210126FCF73CFD28460421FCF738FD1D
:10A3100043F24820C2F2000080F86761D4F8BC1212
:10A3200080F86811D0F858110131C0F8581128464A
:10A330000421FCF723FD28460121FCF71FFD07E05F
:10A34000D4F8A00243F24821C2F2000181F8690169
:10A35000002070BD022070BD0020704790F8CE2014
:10A36000032A03D18A8812F0FE0F01D00120704722
:10A37000D0F82C24D268104710B58021044600F094
:10A380008CF82046002100F088F82046BDE81040F7
:10A39000FFF789BC4AB2B2F1FF3F06DDC1EBC10154
:10A3A00000EB810101F51D7106E001F07F01C1EBB9
:10A3B000C10100EB8101D03180B5FFF7E5FD002040
:10A3C00080BD80B501F07F01C1EBC10100EB810CC4
:10A3D00090F804E00CF51D710CF51F77BEF1010F2C
:10A3E0004FF0000E87E80C4008BFCCF88C22FFF736
:10A3F00063FE002080BD80B501F07F01C1EBC1018B
:10A4000000EB810C90F804E00CF1D0010CF1D807BE
:10A41000BEF1010F4FF0000E87E80C4008BFCCF8EA
:10A42000E820FFF7CBFD002080BD10B58A78B1F899
:10A4300004C04FFA82FEBEF1FF3F0CDDC2EBC20248
:10A4400000EB820494F8743204F51D7203F07F036C
:10A4500084F874320AE00EF07F02C2EBC20200EB15
:10A46000820212F8D03F63F07F0313700EF00F04E6
:10A4700003F0F00323441370C9784BF2EC0301F0AE
:10A480000301C0F6000353F82110A2F804C0517074
:10A490001146FFF711FD002010BD4AB2B2F1FF3F97
:10A4A00006DDC1EBC10100EB810101F51D7106E084
:10A4B00001F07F01C1EBC10100EB8101D03180B51A
:10A4C00001228A70FFF72BFE002080BD4AB2B2F154
:10A4D000FF3F06DDC1EBC10100EB810101F51D71FC
:10A4E00006E001F07F01C1EBC10100EB8101D03139
:10A4F00080B500228A70FFF72DFD002080BD80B559
:10A500004AB2B2F1FF3F00F1100002DDFFF792FC0A
:10A5100003E001F07F01FFF71DFE002080BDB0B514
:10A52000044659B194F8CE00032851D1D4F82C0434
:10A53000C269002A4CD02046904749E094F8240490
:10A5400002281FD0012843D1B4F8D400D4F8E41075
:10A55000D4F8D8200B1A2179C4F8E430012904BFBB
:10A560000244C4F8D82020460021FFF744FFD4F865
:10A57000E400B4F8D4100222884288BF012284F893
:10A58000242425E094F8250448B120460021002227
:10A5900000230025FFF72FFF84F8255418E094F8D6
:10A5A000CE00032805D1D4F82C04416909B1204616
:10A5B00088470020C4F8E400062084F824042046DC
:10A5C000002100220023FFF7FCFE2046FFF76BFB73
:10A5D0000020B0BDB0B582B08C4600F11005C0F8C7
:10A5E0002824294662460446C0F82C34FFF794FA22
:10A5F0002069816821F00101816094E80F000095D5
:10A60000FFF7F8FA6069416841F0020141600320F8
:10A61000FFF702FC28460021FFF756FB2046FFF714
:10A6200065FBD4E90401826842F001028260486857
:10A6300020F0020048600320FFF7EEFB012084F8C1
:10A64000CE0002B0B0BD00002DE9F04F89B08046C9
:10A6500000694169C90740F02C824169806908405E
:10A6600000F027820090000352D5D8F814008169C9
:10A67000C0690840C0F30545002D49D008F5217692
:10A680004FF0000B4FF008094FF0010A002700BF00
:10A69000E80734D008EB8704606B8168D8F8142091
:10A6A0005269114008910899C9071FD0C0F808A045
:10A6B00098F80410012908D10069069036F80C0CAE
:10A6C00006996FF3DF41401A3060F9B2404600F05E
:10A6D000F3F95FB998F80400012807D198F8240429
:10A6E000062803D14046FFF7DEFA00BF08980007AE
:10A6F00005D5404600F02EFA606BC0F80890BBEB21
:10A70000550F4FEA550507F1010706F11C06BFD1A9
:10A710000098400340F19C80D8F814008169C0691A
:10A72000084010F03F0700F0938008F1100000246B
:10A730004FF0000A0390CDF8088000BFF80700F042
:10A740007F805FFA8AF140460591FFF757FB08903A
:10A750000898C00716D008EB8A00C0690121816003
:10A7600005994046FFF7DBFEBAF1000F0AD198F8D1
:10A770000400012806D198F82404052802D1404697
:10A78000FFF791FA089800065AD5CAEBCA0008EB01
:10A79000800C4546E04638F8D43F05EB8A01C646B2
:10A7A000C3465EF8080F5BF80C2F51F81C5F861A41
:10A7B0009E4288BF1E46AC690336A4B2B4EB960F26
:10A7C00028BF904237D90C460CF1D809012101FA73
:10A7D0000AF6D9F80010F643CDF810E0019601E032
:10A7E000B8F80030861A98B2864288BF06460398A9
:10A7F000059AB3B2FFF7BCFCD9F800008119C9F87B
:10A8000000100498DBF80020006832448242CBF844
:10A81000002007D1029BA4465B695D6B019C25402B
:10A8200064465D6325680336AB699BB2B3EB960F54
:10A8300028BF9042D4D88020A860DDF8088000248A
:10A84000B4EB570F4FEA57070AF1010A7FF476AFCE
:10A85000009C200531D598F807008DF82000D8F825
:10A860001400806800F001008DF8180098F8CE0000
:10A870000338B0FA80F040098DF81F0098F8CE0038
:10A8800088F8CF00042088F8CE009DF8200078B129
:10A890009DF8180060B19DF81F0048B1D8F8C800B5
:10A8A000016841F00301016001200021FCF7E0FB99
:10A8B000D8F810004FF400614161B4F1FF3F07DCAC
:10A8C000032088F8CE00D8F810004FF00041416115
:10A8D000200709D5D8F82C04416A09B140468847B9
:10A8E000D8F8100008214161E0064CD500200890FE
:10A8F000454655F8100F816921F010018161006A09
:10A9000008900898089900F00F00C1F30A160899FA
:10A91000089AC2F34342062A17D0022A2ED16EB3F8
:10A92000C0EBC00008EB8007D7F87C1228463246FF
:10A93000FFF78CFAD7F87C02D7F884123044C7F8B6
:10A940007C028819C7F8840218E011F4C03F15D1C1
:10A95000082E01BFC0EBC00008EB800696F8740219
:10A9600010F00F000AD108F21C4128460822FFF718
:10A970006DFAD6F884020830C6F884022868816926
:10A9800041F010018161E00455D5D8F8141008F1A8
:10A9900010004A684FF0000922F001024A600021CD
:10A9A000FFF7D8FB98F8030050B108F11C01FF2213
:10A9B0000B688F69013801F104019A60BA60F7D120
:10A9C000D8F814004FF0FF3181614FF00111C161DF
:10A9D0000921012641610661016821F4FE610160DF
:10A9E0004046FFF760F9D8F810004FF480514161FC
:10A9F0004020C8F87492A8F8780208F27A2016214C
:10AA000008F51D75F9F7E9FB40462946FFF754FAAA
:10AA10008020454625F8D00F4FF48000C8F8D200BA
:10AA200008F1D6001621F9F7D8FB40462946FFF772
:10AA300043FA88F8CE60A00421D5D8E904108268D2
:10AA4000436812F0060223F48073436043684FF4B6
:10AA5000A05243F480734360C86820F47050C8600B
:10AA60004FF0020008BF032088F80100C86808BF43
:10AA70004FF410521043C8604FF400504861E00298
:10AA80000AD5D8F82C04816A09B140468847D8F81D
:10AA900010004FF480114161A0020AD5D8F82C04AF
:10AAA000C16A09B140468847D8F810004FF4001138
:10AAB000416109B0BDE8F08F10B5044659B1D4F832
:10AAC0002C04026A002A43D094F8CE0003283FD118
:10AAD000204690473CE094F8240404281FD0032823
:10AAE00036D1B4F87802D4F88812D4F87C220B1A44
:10AAF0002179C4F88832012904BF0244C4F87C22B9
:10AB000020460021FFF75DFCD4F88802B4F87812E3
:10AB10000422884288BF032284F8242418E094F891
:10AB2000CE00032805D1D4F82C04816909B1204650
:10AB300088470020C4F88802052084F824042046B1
:10AB4000002100220023FFF756FC2046FFF7ABF858
:10AB5000002010BD10B582B00446D0F82004D4F80F
:10AB60001C14019001F060004028009107D02028BB
:10AB70000AD070B96946204600F04CF808E06946F2
:10AB8000204600F067F803E069462046FFF7E6FB41
:10AB900030B169462046FFF7EFFB002002B010BD40
:10ABA000BDF80600A8B19DF90000B0F1FF3F1DDD22
:10ABB000D4F87C22D4F8883220460021FFF701FC2B
:10ABC000D4F88802B4F878120422884288BF03229D
:10ABD0001CE0052084F824042046002100220023E4
:10ABE000FFF709FC2046FFF75EF8D6E7D4F8D82037
:10ABF000D4F8E43020460021FFF7FDFBD4F8E40050
:10AC0000B4F8D4100222884288BF012284F8242498
:10AC1000C3E700004A7802A353F82220104700BF80
:10AC2000B36600082565000851670008276800081A
:10AC30005167000855670008B565000823680008DB
:10AC4000896500089567000885660008796800082E
:10AC50009D6800080020704783B080B581B00DF179
:10AC60000C0C8CE80E0003A9009100F039F801B03B
:10AC7000BDE8804003B07047B0B543F28875044624
:10AC80000A28C2F200050ED1296821B1481C0D2204
:10AC900028600A7009E043F69C50C2F20000016887
:10ACA00089B10D208847286818B1411C29600470BB
:10ACB000B0BD43F69C50C2F20000016819B12046B5
:10ACC000BDE8B0400847B0BD10B5017839B1441CAB
:10ACD000C8B2FFF7D1FF14F8011B0029F8D110BD4D
:10ACE0002DE9F04F85B00DF104090C460546A9F198
:10ACF000010A00BF2A4615F8010B252802D00028BA
:10AD000047D11FE15078302803D02D2805D10221EA
:10AD100000E001219078D51C01E0951C0021A0F1F4
:10AD20003002D2B24FF0000B092A0DD80BEB8B0288
:10AD3000520052FA80F215F8010BA2F1300BA0F18B
:10AD40003003DBB20A2BF1D340F020026C2A04BF9F
:10AD500015F8010B0431002800F0F4800346602848
:10AD600088BF203BDAB24E2A0CDD4F3A092A10D8B0
:10AD7000DFE802F0050F0F0F160F120F0F14082255
:10AD800065E000BF422A61D0432A00F0D880442AFF
:10AD900002D0FFF771FFADE70A2258E0102256E01B
:10ADA00054F8046B002000BF0746305C002807F110
:10ADB0000100F9D18907A0F101081DD4D8458046CA
:10ADC0001AD2009443F2887443F69C58C2F20004ED
:10ADD000C2F20008206820B1411C216020210170CE
:10ADE00004E0D8F8001009B12020884701375F45FA
:10ADF000F0D3009C07F10108307840B1013600BF64
:10AE0000C0B2FFF739FF16F8010B0028F8D1D8457A
:10AE1000BFF470AF43F69C57009443F28874C2F2BB
:10AE20000007ABEB0806C2F20004B846202700BFBB
:10AE3000206818B1411C2160077004E0D8F80010A8
:10AE400009B120208847013EF2D176E002226FF05E
:10AE5000430754F8046B57FA83F3B3FA83F35B099F
:10AE6000002E4FF0000748BF012713EA070CA64643
:10AE70004FF0000818BF764278284FF0070008BF4F
:10AE8000272000BFB6FBF2F7444607FB126308F128
:10AE90000108092B88BF03443033B8F10F0F09F8BC
:10AEA000043002D8B2423E46ECD9BCF1000F18BFC4
:10AEB0000831080742BF2D2009F8080008F10108F1
:10AEC000C8074FF03006744608BF2026880747465B
:10AED0000CD4D84508D247463046FFF7CDFE01379F
:10AEE0005F45F9D3013701E008F101071AF80800BE
:10AEF000A8F10108FFF7C0FEB8F1000FF6D15F45D9
:10AF0000BFF4F8AEABEB070643F69C57009443F250
:10AF10008874C2F20007C2F20004B846202700BFBE
:10AF2000206818B1411C2160077004E0D8F80010B7
:10AF300009B120208847013EF2D1009CDAE614F8DE
:10AF4000040B26E705B0BDE8F08F0000004870470D
:10AF50000400002002E008C8121F08C1002AFAD12C
:10AF600070477047002001E001C1121F002AFBD189
:10AF700070470040404040404040404041414141D6
:10AF800041404040404040404040404040404040C0
:10AF900040404005020202020202020202020202D4
:10AFA0000202022020202020202020202002020255
:10AFB00002020202909090909090101010101010C9
:10AFC000101010101010101010101010101002029D
:10AFD0000202020288888888888808080808080809
:10AFE00008080808080808080808080808080202ED
:10AFF0000202400073AF0008000702000300E803EC
:10B000000004010005008403000501000500200381
:10B010000005010006009A02000601000600580221
:10B02000000300000C00F401000D02000500900177
:10B03000000601000C002C01000300001800FA00BB
:10B04000000801000F00C80000060100180096006B
:10B050000003000030007D00000801001E006400B5
:10B06000000C010019005A00000300004B005000C2
:10B07000000601003C003C00000801003C003200DA
:10B0800000030000960028000006010078001E0062
:10B09000000300002C0114000003000058020A0005
:10B0A00000070100580205001600000000100E0005
:10B0B000000807000084030000C2010000E1000056
:10B0C00000960000004B000080250000C012000028
:10B0D00060090000B00400002C0100000C00000317
:10B0E0000000000000010203040000000000000056
:10B0F000010000000200000003000000E48D700960
:10B100007BDD41DA886E0E95C161B92D18034500CB
:10B11000430048004F002000530074007500640095
:10B1200069006F0000000000000000000000000047
:10B13000000000000000000000000000000000000F
:10B1400000000000000000000000000000000000FF
:10B1500000000000000000000000000000000000EF
:10B1600000000000000000000000000000000000DF
:10B1700000000000000000000000000000000000CF
:10B180000000000000000000000000000000C72CCC
:10B190001803550053004200430041004E002D00AB
:10B1A00055004300310032000000000000000000A4
:10B1B000000000000000000000000000000000008F
:10B1C000000000000000000000000000000000007F
:10B1D000000000000000000000000000000000006F
:10B1E000000000000000000000000000000000005F
:10B1F000000000000000000000000000000000004F
:10B20000000000000000000000000000000000003E
:10B210000000320346004600460046004600460055
:10B2200046004600460046004600460046004600EE
:10B2300046004600460046004600460046004600DE
:10B240004600460000000000000000000000000072
:10B2500000000000000000000000000000000000EE
:10B2600000000000000000000000000000000000DE
:10B2700000000000000000000000000000000000CE
:10B2800000000000000000000000000000000000BE
:10B2900000000000196500080D650008A16800089D
:10B2A00030313233343536373839414243444546FC
:10B2B0000053696C656E745F4C6F6F704261636BB5
:10B2C000004E6F726D616C0053696C656E74004561
:10B2D00072723A0020426164204164726573732186
:10B2E000200A006D656D637263205B68657820617C
:10B2F0006464725D205B686578206C656E5D2053C8
:10B30000686F77204D656D6F7279204352432E0A26
:10B310000063616E206664656E205B307C315D2069
:10B32000456E61626C652F44697361626C65204390
:10B33000414E46442E0A00656570726F6D205B6C4D
:10B340006F61647C736176657C726561647C777221
:10B350006974655D205B616464725D205B64617427
:10B36000615D204F70657261746520496E742E2096
:10B37000454550524F4D2E0A00646973706C6179D7
:10B380002053572076657273696F6E20616E64205A
:10B39000534E2E0A00205761726E696E673A204341
:10B3A000616E206E6F742073656E64206D7367200C
:10B3B000756E6465722053696C656E74204D6F64A0
:10B3C000652E0A00207365742055415254206D6F1C
:10B3D000646520746F2025642025732C20736176AA
:10B3E000652026207265626F6F7420746F20617013
:10B3F000706C79206E6577206D6F64652E0A00652C
:10B400007874205B68657849445D205B68657844A2
:10B410004154417C72656D6F74655D2053656E6447
:10B4200020657874656E64656420646174612F7250
:10B43000656D6F7465206D6573736167652E0A00B5
:10B44000737464205B68657849445D205B68657847
:10B45000444154417C72656D6F74655D2053656E27
:10B4600064207374616E6461726420646174612F1E
:10B4700072656D6F7465206D6573736167652E0A03
:10B48000006374726C205B6563686F7C6C657665C5
:10B490006C7C746573747C6C65647C74696D655DCB
:10B4A000205B706172616D5D204465766963652023
:10B4B0004374726C2E0A007265626F6F74205B6455
:10B4C000656C6179206D735D20526573746172746F
:10B4D0002073797374656D2E0A0068656C7020495D
:10B4E0006E666F2E0A00696E666F205B7379737CDF
:10B4F000636C6561727C636C6B5D2053686F772F42
:10B5000053657420496E666F2E0A0066696C746517
:10B5100072205B302D375D205B6D6F64657C7363DB
:10B52000616C657C6163747C72307C72315D205B20
:10B53000706172616D5D2043414E2066696C746577
:10B54000722073657475702E0A0063616E205B62F1
:10B550006175647C6D6F64657C73706565647C6324
:10B560006C6561725D2043414E20706F7274207370
:10B57000657475702E0A0075617274205B62617566
:10B58000647C6D6F64657C616464725D20554152BA
:10B590005420706F72742073657475702E0A0020C9
:10B5A0007365742055415254204144445220746FB5
:10B5B0002025642C20736176652026207265626FD9
:10B5C0006F7420746F206170706C79206E657720C5
:10B5D000616464722E0A00656E76205B63687C731A
:10B5E000686F777C6164647C747866647C636E7475
:10B5F0007C7072645D205365742F53686F7720658B
:10B600006E7669726F6E6D656E74207661726961B7
:10B61000626C65732E0A002043414E2564205365F9
:10B620006E6420256C64202573206672616D6573DD
:10B6300020696E20256C646D73206174202564661A
:10B6400070732E0A00706172616D205B6C6F6164B3
:10B650007C736176657C726573746F72655D204F73
:10B6600070657261746520706172616D6574657278
:10B67000732E0A006C6564205B307C315D20636F43
:10B680006E74726F6C20746865206C6564206469E8
:10B6900073706C61792E0A006D656D7264205B6851
:10B6A000657820616464725D205B686578206C65F4
:10B6B0006E5D2053686F77204D656D6F72792E0A2D
:10B6C00000204348256420424155443D256C646B6D
:10B6D000204644424155443D25644D0A00204E6FAA
:10B6E0004D61696C426F78205374617475733D309D
:10B6F00078253032580A002043414E25645F42418C
:10B70000534520203D30782530384C580A002045DC
:10B7100043484F3D256420534F46543D2564204CFB
:10B720004556454C3D2564204348414E3D25642007
:10B7300054494D453D256C642044454C4159303DAC
:10B7400025642044454C4159313D25640A0020437D
:10B75000414E25645F4552522020203D30782530EF
:10B76000384C58205245433D2564205445433D25DF
:10B7700064204C45433D256420424F46463D2564A8
:10B7800020455056463D256420455747463D256493
:10B790000A00204644454E3D25640A002043414EA0
:10B7A00025645F4254202020203D30782530384CDD
:10B7B000582053494C4D3D2564204C424B4D3D256E
:10B7C0006420534A573D2564205453323D2564205C
:10B7D0005453313D2564204252503D25640A0020D7
:10B7E00052582564204F4B3D256C64204C4F5354D8
:10B7F0003D256C640A002054582564204F4B3D259C
:10B800006C64204C4F53543D256C640A002043481F
:10B810002564204D4F44453D25642025730A0020B2
:10B820004D4F444525643D25642025730A0020437F
:10B83000483D25642053484F573D256420414444EA
:10B840003D25642053494E474C453D2564205458BE
:10B8500046443D2564204252533D256420434E54C6
:10B860003D2564205052443D256475730A002530FF
:10B870003258200020545825643A2530386420443A
:10B88000415441204D53472049443D3078253034C0
:10B8900058204C454E3D256420444154413D0054C0
:10B8A00045524D00504B54006D656D637263006CE2
:10B8B0006F6164006C6564006D656D726400737423
:10B8C000640062617564006D6F6465007265737415
:10B8D0006F72650072656D6F7465007361766500E7
:10B8E0006374726C00706172616D00656570726F77
:10B8F0006D0063616E0076657273696F6E00696ECC
:10B90000666F0068656C7000636C656172006669E3
:10B910006C746572007265626F6F74007561727429
:10B920000065787400656E7600000000F2B80008CB
:10B930004AB5000871730008BEB8000840B400089A
:10B940007D86000821B90008FFB30008B180000817
:10B9500025B90008D7B50008C17C00081CB900084B
:10B9600077B50008118700080EB900080BB500086C
:10B9700049810008E5B8000845B60008658500085B
:10B9800015B90008B7B400084186000803B90008DB
:10B99000DAB40008ED820008F6B8000879B30008B0
:10B9A00095890008EBB8000837B30008E57A00086D
:10B9B000FEB80008E6B400081D830008E0B80008DF
:10B9C00081B4000865770008B4B8000874B60008B0
:10B9D000CD830008B8B8000898B60008A98400080C
:10B9E000A8B80008E3B200080D84000809022E0080
:10B9F000010100800F090400000400000000070599
:10BA000081031000010705010310000107058202F0
:10BA10004000010705020240000112011001000070
:10BA20000040710400120000010200013CBA00084D
:10BA30000CB1000890B1000812B200080403090418
:10BA400060BA0008000000200834000040440008EC
:10BA500030BB000808340020980D000064AF0008D7
:10BA6000A198D8B80500640040328C023220946856
:10BA7000004005F16419002009FF64010020640101
:10BA8000002001FF01FF01FF01FF01FF01FF01FF96
:10BA900001FF01FF01FF01FF01FF01FF01FF01FFA6
:10BAA00001FF01FF01FF01FF01FF01FF01FF01FF96
:10BAB00001FF3109FF3C1A00203C1A002001FF0160
:10BAC000FF01FF01FF01FF01FF01FF01FF01FF0176
:10BAD000FF01FF01FF01FF01FF01FF01FF01FF0166
:10BAE000FF01FF01FF01FF01FF01FF0141320C33A4
:10BAF000204C06FF20A0B2000801434201022001B1
:10BB0000021804420342FF9D91A20008C9A1000847
:10BB100059A30008DDB7A10008EFA10008EBA200BF
:10BB200008591ABA0008ECB90008152CBA00080028
:04000005080041515D
:00000001FF
