:020000040800F2
:10400000003F002065410008AD4D0008194D000833
:10401000394D00080144000849550008000000001F
:10402000000000000000000000000000034E000837
:104030006F49000800000000E54D000865500008C9
:104040007F4100087F4100087F4100087F41000850
:104050007F4100087F4100087F4100087F41000840
:104060007F4100087F4100087F4100087F41000830
:104070007F4100087F4100087F4100087F41000820
:104080007F4100087F4100087F4100087F41000810
:10409000034400087F4100087F4100087F41000879
:1040A0007F4100088B5300087F4100087F410008D2
:1040B0007F4100087F4100087F4100087F410008E0
:1040C0007F4100087F4100087F4100087F410008D0
:1040D0007F410008015400087F4100087F4100082B
:1040E0007F4100087F410008ED5400087F4100082F
:1040F0007F4100087F4100087F410008FFFFFFFF6C
:104100007F410008000000007F4100087F41000857
:104110007F4100087F4100087F4100087F4100087F
:104120007F4100087F4100087F4100087F4100086F
:104130007F41000800000000000000007F410008EF
:10414000114400087F4100087F410008E154000845
:10415000DFF80CD000F016F9004800472560000891
:10416000003F00200648804706480047FEE7FEE77C
:10417000FEE7FEE7FEE7FEE7FEE7FEE7FEE7FEE717
:104180006950000851410008004870479C8B0008A6
:10419000A0F14101192900D82030704740EA0103FD
:1041A0009B0703D009E008C9121F08C0042AFAD2ED
:1041B00003E011F8013B00F8013B521EF9D27047B1
:1041C000D2B201E000F8012B491EFBD27047002259
:1041D000F6E710B513460A4604461946FFF7F0FF06
:1041E000204610BD30B505462A460B4612F8010B95
:1041F00013F8014B08B1A042F8D01CB1002802D03E
:104200006D1CF1E7284630BD10B5044604E00B787C
:1042100000F8013B03B1491C521EF8D2204610BDE4
:10422000421C10F8011B0029FBD1801A70470000C6
:1042300070B50F4D00B92868002412E00A4602E06C
:104240009E4203D0521C1378002BF9D1DAB22243DC
:1042500005D02BB124B1002100F8011B04E0044675
:10426000401C0678002EE9D12860204670BD000071
:10427000000000202DE9F05F93460F46804604467B
:10428000002604F037FCD0F80090824614F8015B59
:104290002DB1FFF779FF0068405DC007F6D12B2DE7
:1042A00002D02D2D1AD0641E0021CAF800105A46E3
:1042B0003946204600F017F8014627B13868A04279
:1042C00001D1C7F80080DAF80000022809D0CAF846
:1042D0000090700505D54842BDE8F09F46F4806621
:1042E000E2E70846F8E72DE9F05F8246007800270C
:1042F00015468B460AF10104B946302801D09DB11C
:1043000013E014F8010B0127782803D0582801D0B6
:1043100045B10AE00DB1102D07D10027102514F882
:10432000010B02E0082500E00A250026B0460EE059
:1043300005FB080005FB06F1012701EB10461FFAFB
:1043400080F8B6F5803F00D3B94614F8010B294632
:1043500000F02AF80028EBDABBF1000F05D00FB10E
:10436000641E00E05446CBF80040B9F1000F06D0BF
:1043700004F0C0FB02210160C81EBDE8F09F48EABE
:104380000640FAE7064C074D06E0E06840F00103FE
:1043900094E8070098471034AC42F6D3FFF7DCFEF0
:1043A00050920008709200083A2800D2303820F06D
:1043B0002002412A01D3A2F13700884201D34FF0F5
:1043C000FF30704730B58C1810F8012B12F00F0336
:1043D00001D110F8013B120906D110F8012B03E0BE
:1043E00010F8015B01F8015B5B1EF9D101E001F8F7
:1043F000013B521EFBD1A142E6D3002030BD00009C
:10440000FEE740F28400C2F20000002100F002BA90
:1044100041F6C400C2F20000012100F0FBB910B562
:1044200004468068006801F0EAFAA068022100688A
:10443000BDE8104001F00EBC80B5024646F20040D7
:10444000C4F2000000F58060002A04BF46F200407C
:10445000C4F200000F294FF000025AD8DFE801F043
:1044600008591A595959313C59595959422F4E52E4
:1044700040F01C020168136812689B0F43EAC101F7
:104480000423006801F0120103EA1272114400F0E3
:10449000010012E040F00400D0F800C002684023A0
:1044A00003EA421203682021006801EAD3011023C5
:1044B00042EACC1203EA501011440A1829E06022A3
:1044C00027E040F01C0001680068C02201F03F01B5
:1044D00002EA904042181CE040F01C000068C0F363
:1044E000064216E001F09EFA011F02290ED30128B0
:1044F0000ED0022814BFC02240220AE0BDE880404E
:1045000001F0B1BBBDE8804001F006BC002200E034
:104510008022D0B280BD000048F650410022C0F693
:10452000000100BF31F82230834204D001320F2A4B
:10453000F8D1072203E090B20F2828BF072290B2DB
:1045400001EB800040887047F0B581B000F11C0697
:10455000044600203146002701F088FB04F12805BD
:104560000120294601F082FBE07E20774FF00120F8
:1045700020624FF48070A084218848F6A030C0F6F5
:10458000000000BF00EBC702D2888A4204D0013786
:10459000162FF7D10B2702E0162F28BF0B27F9B2F1
:1045A000152988BF0B2100EBC10230F8310091784A
:1045B000A4F81D00E177A06891880068E184314685
:1045C00001F09AFA012084F838000020217EA086AC
:1045D0000129E168208613D1022221F0070002EAB6
:1045E0005103276903444FF6F870090C384002EA7A
:1045F00057022185390C10446385A18501210CE007
:1046000020690A0C228561856FF00F0101EA1041D3
:10461000A1854FF6F0710840002140F24802C2F235
:104620000002E0850020E186944208BF0E206086EB
:10463000284601F008FAA0680221006801F00FFB8B
:104640000E2001B0BDE8F04001F0C2B900214FF0EA
:10465000FF320123C0E90012C0E9021370470000D5
:104660002DE9F04381B00446C06B012833DB41F6ED
:10467000280043F2101588462718C2F200054FF0B3
:10468000010900BF2046414600F0CCFB85F841916E
:104690000646E16A06EB460201EBC2012068B94218
:1046A00088BFA1F5C051E162022101F0D3FA206870
:1046B000E16B891BE163022101F0D1FA206B3044E8
:1046C000206300BF95F841010028FBD101F0F8FB01
:1046D000E06B0028D6DC206B01B0BDE8F08380B52C
:1046E00000EB011EDEF8B0C11CF004031372DEF80B
:1046F000B0C119BF4FEADC0353604FEA5C5313604B
:10470000DEF8B031002903F002035372DEF8B43151
:104710004FEA13231375DEF8B43103F00F03D3729D
:10472000DEF8B8311373DEF8B8314FEA1323537350
:10473000DEF8B8314FEA13439373DEF8B8314FEA2D
:104740001363D373DEF8BC311374DEF8BC314FEA67
:1047500013235374DEF8BC314FEA13439374DEF82D
:10476000BC314FEA1363D3744FF0100208BF0C2220
:10477000815841F02001815080BD1046704710B52E
:1047800002468068400109D49068000108D490680E
:10479000C0005CBF032010BD022002E0002000E04A
:1047A000012002EB0012D2F8803103F00103C2F8BD
:1047B000803191F808C0BCF1000F03D04B684CEA7F
:1047C000C30C02E00B684FEA435C4B7A91F80CE0B3
:1047D000D2F8804143EA0C032343C2F88031D2F877
:1047E000843123F00F03C2F88431D2F8843143EAD4
:1047F0000E03C2F88431D1F80D30C2F88831D1F8F7
:104800001110C2F88C11D2F8801141F00101C2F8E8
:10481000801110BD2DE9F04F81B004460068C268D8
:10482000920740D00D4641F6280104EB010943F2FE
:104830001011C2F2000101EB850202F5A47705EB2D
:10484000051201EBC20104F1380804F1340A01F148
:104850000C0641F2E87B00BFE16BFF2912DCA26A83
:104860000021FFF73CFFA06AE16B00F1180285729E
:104870004A4588BFA0EB0B02481CA262E063504689
:1048800004E000BF002101F0D1F840460168013189
:10489000016038680130386030680130306020686D
:1048A000C1688907D8D101B0BDE8F08F80B540F26A
:1048B000045001F0BCFD40F2025001F0B8FD4FF48D
:1048C000C06001F0A5FD40F2026001F0A1FD40F2E0
:1048D000036001F09DFD40F2046001F099FD40F29B
:1048E0001C7001F095FD40F20C5001F091FD40F27A
:1048F000197001F08DFD40F21A7001F089FD40F24F
:104900000E6001F085FD40F20B6001F081FD40F288
:10491000017001F07DFD43F6F421C2F20001002296
:1049200000200A60BDE8804001F0AFBD80B584B0D2
:1049300036228DF80020026843688068CDF8012097
:10494000AA228DF805202522CDF806308DF80A2000
:10495000CDF80B009B208DF80F00684600F006FC98
:104960009DE80F0048405040584004B080BD70475B
:10497000D1F8073002465809DB08C2E9000348793C
:1049800004239072887903EA501010728879022308
:1049900003EA501050728879C0F30010D072887901
:1049A00000F00F001073D1F80F00D1F80B10C2F80F
:1049B00011001320C2F80D107047000043F21011CF
:1049C000C2F20001D1F82021D1F820319B1A834294
:1049D00028BF704700BFF7E770B543F60045C0F643
:1049E00000054FF6FF76A81C0021802202F46073B8
:1049F00030F8024C2B431B880CB9B34215D001315F
:104A00008030082902F18002F0D143F28854C2F2CA
:104A100000040020208001F0F7F9208805EBC01089
:104A200001F0B7F901F0ACF905E043F28852C2F2A7
:104A3000000211800688304670BD000080B543F248
:104A40008850C2F20000018843F6024CC0F6000C08
:104A500001F0070202804FEAC21E4CEAC21043F284
:104A60000852831C0020C2F2000200BF195A1152E2
:104A700002307C28FAD14EEA0C000088A2F87C00B3
:104A800080BD43F20852C0B2C2F2000232F81000F8
:104A9000088070472DE9F04143F28856C2F20006C3
:104AA000308843F2085400F00700C2F2000443F6D5
:104AB0000048308020463E21C0F6000800F05AF938
:104AC000054601F0A1F931884FF48072481C00F0CE
:104AD000070002EBC111308001F4607131F8082049
:104AE0004FF6FF739A4204D041EA080001F051F9F1
:104AF000308808EBC010290401F099F9002700BFA5
:104B0000308808EB470101EBC01054F8171004304F
:104B100001F08DF9B91C8FB23E2FF1D3054601F09B
:104B20002FF92846BDE8F08143F20853C2B2C2F221
:104B30000003084623F812107047704743F2101222
:104B4000C2F20002D2F82421130A0A704B70130C2F
:104B5000120E8B70CA7000228A80C27A8A71837AA0
:104B600003F0010342EA03128A71437A022B04BF65
:104B700042F040028A71037A042B05D142F0800290
:104B80008A71031D032201E0052203461B6803FA14
:104B900002F2C1F80720D0E903321320C1F80F2038
:104BA000C1F80B307047B0B50C4643F21011C2F299
:104BB0000001D1F824110546080A21706070080C24
:104BC000A070080EE070002022716071287B012126
:104BD00081430844A071E97A01F0010140EA011023
:104BE000A071697A022904BF40F04000A071297ABF
:104BF000042904BF40F08000A071E32A06D0E22A15
:104C000015D16020A4F8070000200DE0E87A0C21FF
:104C1000FFF712FCE071E87A0E21FFF70DFC20721D
:104C2000E87A0F21FFF708FC60720020A0720021D3
:104C30001320C4F80F10C4F80B10B0BDB0B540F687
:104C40000004C4F201042046182101224FF400732D
:104C500001F052F92046482101224FF4806301F00F
:104C60004BF904F58065284610210222202301F02B
:104C700043F92846482103224FF4807301F03CF9A0
:104C80002846182103224FF4007301F035F94FF440
:104C9000EA10012101F087F92846102102224FF481
:104CA000006301F029F92846482103224FF480537C
:104CB00001F022F92846182103224FF4005301F095
:104CC0001BF92046182103224FF4006301F014F968
:104CD0002046182103224FF4805301F00DF904F50A
:104CE0000060102102224FF4005301F005F9204624
:104CF000482101224FF4807301F0FEF82046102174
:104D00000322012301F0F8F8204610210322042396
:104D1000BDE8B04001F0F0B8FEE780B543F20850BE
:104D2000C2F20000382100F025F80021002808BF59
:104D30004FF0FF31084680BDFEE70000B0B54FF6EA
:104D4000FF72A9B14FF0000C4AF2010E10F80C30BE
:104D50005A4000238EEA5204D50703F1010308BF2D
:104D60005408082B2246F5D30CF1010C8C45EDD1EB
:104D700090B2B0BDB0B54FF6FF72A9B14FF0000CC4
:104D80004AF2010E30F81C305A4000238EEA5204D9
:104D9000D50703F1010308BF5408082B2246F5D3B9
:104DA0000CF1010C8C45EDD190B2B0BD704780B5CF
:104DB0004FF4A06001F02EFA43200121002201F0FF
:104DC000F6F914200221012201F0F1F9402002211C
:104DD000022201F0ECF9252003210122BDE88040E8
:104DE00001F0E5B9704710B543F20854C2F200046F
:104DF000A01C6C21FF22FFF7E3F945F2FF40208061
:104E000010BD704710B543F20854C2F200042046AA
:104E10003721FFF7AFFFA4F86E00BDE81040FFF7A1
:104E200039BE00002DE9F0478846D1F83024C56A24
:104E3000C16B02F1400A0904B1F5003F1FDD41F6E4
:104E400028014718002441F2E87900BF0AEB040169
:104E5000284605F11806FFF771FEBE4204F113045F
:104E600088BFA5EB0906392C3546EFD14046822193
:104E70005246392303F093F80320BDE8F087B1F5DB
:104E8000803F22D0B1F5003F2CD141F628014718D0
:104E9000002441F2E87900BF0AEB0401284605F13D
:104EA0001806FFF74BFEBE4204F1130488BFA5EBC2
:104EB0000906262C3546EFD140468221524626234C
:104EC00003F06DF80220BDE8F08728465146FFF751
:104ED00035FE404682215246132303F060F801203C
:104EE000BDE8F0870020BDE8F08700002DE9F0471D
:104EF0000D46C97A43F2041201F00101C2F2000228
:104F000052F821708146B868A97A027BD9F83084BA
:104F10008A4201D1BA784AB303291DD8DFE801F0EB
:104F200002040E13012100E00021FA7E87F823100D
:104F3000911EB1FA81F1490949000CE00121FA7E84
:104F400087F8231004E0002187F82310FA7E01215E
:104F5000022A08BF03213977006807F11C0100F01D
:104F6000CBFDA97AB86801730021B970F97E0229D6
:104F700002D10120BDE8F08743F21014C2F2000410
:104F80000021C4F82C1100BF00682946FFF7F7FB89
:104F9000D4F82C110A2928D8C6B2032E01D1B8683A
:104FA000F2E70020C4F82C0197F823000128E0D193
:104FB00040F2836AB8683146006800F0B1FE01280B
:104FC000D7D0D4F82C0150450AD200F079FF97F8D9
:104FD000230001284FF0010018BFBDE8F087E9E782
:104FE000B8683146006800F079FE08F1800628466E
:104FF0003146E222FFF7D7FD48463146132201F041
:1050000079FA0020BDE8F08743F20C1CC2F2000CD4
:10501000DCF80030020F9A5C0A70DCF80020C0F364
:105020000363D25C4A70DCF80020C0F30353D25C07
:105030008A70DCF80020C0F30343D25CCA70DCF84D
:105040000020C0F30333D35C0B71C0F30323D35CA4
:105050004B71C0F30313D35C00F00F008B71105C35
:10506000C871704701F031BF4EF68851CEF2000191
:105070000A6841F2000042F47002C4F202000A60C1
:1050800001684FF6FF7241F00101016000214160AB
:10509000C1620168CEF6F622114001604FF47F0133
:1050A0008160016821F480210160016841F4803150
:1050B00001604FF6FE7100BF03684A1E8A4203D2A8
:1050C00013F400311146F7D00168890301D400BF01
:1050D000FEE742F20001C4F202010A68022363F310
:1050E00002020A6041684FF6FF7241604168CDF6E6
:1050F000C3724160416841F4806141604168114080
:10510000416041684FF2000241F0005141F4A0219A
:105110004160C16ACBF6FE721140C162C16A41F4BE
:10512000843141F01901C162016841F08061016080
:1051300001680901FCD5016841F08071016000BF80
:1051400001688901FCD5416821F003014160416893
:1051500041F00201416000BF41680907FCD54FF0F2
:1051600000604FF4804101F05FB800002DE9F04786
:10517000D0F800A0846847F6B91E4FF000084FF041
:10518000150CC9F6376E00BFF044C8F3810900263C
:1051900000EB86077F68BA00FD0882EA541285EAB0
:1051A00004152A4486EA090551F8255087EA0803C0
:1051B0006C4023445A4002EB0A0440F82640013672
:1051C000022EBA46E4D1D0F800A082684FEA8A03E2
:1051D0004FEADA0583EA541385EA04152B4489F073
:1051E000020551F825508AEA08066C4034446340B1
:1051F0009C185FEA0C628460ACF1010C08BFBDE84A
:10520000F087C1E770B5044600200D46A4F84201BE
:10521000FEF7BAFF0068405D10F03E0F19D0B4F8F9
:10522000466101203F2EA4F8420184F8415008D87D
:105230002846FEF7ADFF711CA4F84611A11981F8AC
:10524000C100B4F84201402824BF0020A4F8420164
:1052500070BD0C2D0DDD0D2D27D01B2D55D01D2D16
:105260000BD1B4F84801411C0AB2012AC8BF411E43
:1052700052E0082D72D00A2DE3D043F20C10C2F296
:10528000000000682909415C0122A4F8422184F849
:10529000411005F00F01405C84F842000320A4F89F
:1052A0004201202084F84300CBE740F60D20A4F80B
:1052B0004100B4F8460102213F28A4F842115ED80B
:1052C00004F1C10100220A540120A4F846212070F3
:1052D000B4F9480100EBD07222F00102801A43F2C7
:1052E000BC22C2F20002A4F8480102EBC0108022E6
:1052F000FEF78AFFB4F94801013000EBD07121F0CC
:105300000101401AA4F848019BE7B4F84801411E86
:105310000AB2002A48BF411C43F2BC25A4F8481138
:1053200009B2C2F2000504F1C10005EBC1118022EF
:10533000FEF76AFFFEF774FFA4F84601B4F94811BE
:1053400004F1410005EBC1118022FEF75DFFFEF77D
:1053500067FF014680B2A4F8421174E742F20800E8
:10536000A4F841000320A4F84201B4F84601082142
:10537000002884F843103FF464AF013802E00020B5
:1053800084F80001A4F846015BE770472DE9F0417D
:1053900084B040F20044C4F2000404F59435284679
:1053A00001F08EFB47206E46009000274FF6FF78F5
:1053B00028463146ADF80470CDF80880ADF80C7081
:1053C0008DF80E7001F025FC284601F01DFC2046EA
:1053D00001F076FB40F6B730009020463146ADF83C
:1053E0000470CDF80880ADF80C708DF80E7001F0E7
:1053F00010FC204601F008FC04B0BDE8F08100007C
:1054000010B582B043F600000021C4F20100ADF8EF
:1054100006100168090703D54168C9B2ADF8061046
:105420000168890621D5406843F2BE34C0B2ADF8A8
:105430000600BDF80600C2F20004C1B22046FFF724
:10544000E1FE0020ADF80600BDF80600B4F84211F8
:1054500088420AD2BDF80600204490F8410000F0CE
:1054600031F8BDF806000130ECE702B010BD10B510
:1054700043F60004C4F20104204602F0E9F8204695
:105480004FF4E13102F0AFF82046002102F02DF98F
:105490002046002102F045F92046002102F033F9B0
:1054A0002046082102F037F92046042102F025F9B0
:1054B000204640F2053102F00DF92046BDE81040CB
:1054C00002F003B943F60001C4F201010A681206B2
:1054D000FCD56FF35F20486008684006FCD5704734
:1054E00043F2D050C2F2000002F082BE80B543F217
:1054F000D050C2F20000C07968B1FFF7B5FDFFF7E8
:10550000D5F940F20C5000F083FF43F2D050C2F2C4
:10551000000002F065F94FF48020BDE8804000F003
:1055200029BC4FF2E070C1F6FF70008843F2905141
:10553000C2F200010880800243F28C5100F1006049
:10554000C2F2000108607047FEE780B500F0C8FCB9
:105550004FF47A70052100F081FC00F0B1FCBDE849
:10556000804000F0B5BC0000F0B581B043F2D055EA
:10557000C2F2000595F8CE00032842D041F20004A3
:1055800043F210170026C4F20104C2F2000700BF64
:1055900020464FF4005100F0ADFCD7F82001D7F8B9
:1055A0002011091A312905D800BFD7F82011091A8E
:1055B0003229F9D320464FF4005100F099FCD7F876
:1055C0002001D7F82011091A312905D800BFD7F8D2
:1055D0002011091A3229F9D31E2E07D2013600F004
:1055E0006FFC95F8CE000328D2D10AE020464FF494
:1055F000005100F07DFC43F2BC30C2F200000121FA
:10560000017001B0F0BD00004EF60C50BFF34F8F9B
:10561000CEF200000168042201F4E061C0F2FA5207
:1056200011430160BFF34F8F00BFFDE7D0F828049E
:105630004068817811807047D0F8280400680178AC
:1056400011807047B0B50C460978054601F003019A
:1056500002290FD031BB95F8CE00022803D095F86F
:10566000CE0003281ED1608801281BD1002085F8B8
:105670001A04B0BDA08895F8CE10032912D1618814
:1056800071B940F08001C9B2802909D0C1B2284661
:1056900002F0F0FCD5F82C042146C2682846904759
:1056A0000020B0BD0120B0BD90F8CE2000F1CC01AB
:1056B000032A05D0022A01D10A7822B101207047BD
:1056C0000A78002AFAD0C0F8D8100121C0F8E410F6
:1056D0000020704770B50D460978044601F00301BB
:1056E00001290BD0002944D1698801200A0A022A25
:1056F0000BDC012A14D0022A2CD03BE0D4F82C0475
:105700002946C2682046904734E0032A1ED00F2A5B
:1057100030D1D4F8280480688178A4F8E41026E019
:1057200048F64060C0F6000000EB820050F8043CF0
:1057300004F1E406C9B2204632469847E988C4F825
:10574000D800402904BF0820306012E001F0FE00BC
:1057500005280ED848F64060C0F6000000EB820035
:1057600050F8043C04F1E402C9B220469847C4F85A
:10577000D8000120D4F8E41099B1EA888AB19142A6
:105780000CD2B4F8D40081420AD3B1FBF0F202FB90
:10579000101028B9012084F8250401E0C4F8E420A1
:1057A000002070BD024690F8CE0003281CBF0120E7
:1057B0007047888810F0FE0F4FF0010018BF704747
:1057C000D2F82C140131C2F8D810C2F8E40000203D
:1057D00070470A78898802F00302022A1FD0012A42
:1057E00013D052BB90F8CE10022903D090F8CE10FF
:1057F000032922D190F8182490F81A14002A18BF0F
:105800000122002918BF911C21E090F8CE2011F050
:10581000FE0F4FF0010129D1032A1DD026E090F898
:10582000CE20032A09D10A0609D4C9B2C1EBC101AD
:1058300000EB810101F2762108E0012116E001F080
:105840007F01C1EBC10100EB8101D231097843F244
:10585000A022C2F20002117043F2A021C2F20001A4
:10586000C0F8D8100221C0F8E410002108467047A3
:10587000012070478A8852B9CA8842B9897801F0F4
:105880007F0180F8CD1090F8CE20032A01D10120AD
:10589000704742690029136823F4FE63136013689C
:1058A00043EA011313600CBF0121022180F8CE10DE
:1058B0000020704770B50446488843F2A226C2F221
:1058C000000610F0FE0F307001D0012529E094F899
:1058D000CE10032910D00229F7D1010620D0D4F828
:1058E0002C144A68C1B220469047307884F8CC0026
:1058F000032084F8CE0013E0010614D094F8CC20E5
:10590000C1B28A420CD0D4F82C0482682046904759
:10591000D4F82C0431784268204684F8CC109047A3
:105920000025284670BDD4F82C040021826820464A
:1059300000259047307884F8CC00022084F8CE000F
:10594000EFE70020704780B50A7802F00302022AD0
:105950000FD0FAB990F8CE20022A03D090F8CE20CA
:10596000032A17D14988012904BF012180F81A149C
:105970000EE08A8890F8CE30032B0BD1498839B9D4
:1059800042F08001C9B2802902D0D1B202F059FBA5
:10599000002080BD012080BD80B590F8CE20032A74
:1059A00003D18A8812F0FE0F01D0012080BDD0F80B
:1059B0002C24126902B19047002080BD002070475E
:1059C000D0F82804C06850F8210001781180704791
:1059D00046F20061C4F200010A6800F03F0042F0A4
:1059E00001020A600A6822F47C520A600A6842EAEC
:1059F00000200860086820F001000860704710B5BA
:105A000046F20041C4F2000140F21A44884208BF45
:105A100040F21944204600F029FD2046BDE8104020
:105A200000F014BD8069C0F30210704729B101294C
:105A300002D1102102E000BFFEE70C210A5842F01B
:105A400020020A507047B0B546F20061C4F200016E
:105A500044890A684FF0010C42F001020A60CB69E8
:105A60000CFA04F5AB43CB61C3896FEA050C012B3B
:105A700010D023BBCB6803EA0C03CB60B0F806E080
:105A8000438843EA0E434FEAC40E01EBC404236487
:105A900003460DE0CB682B43CB60B0F800E04388B1
:105AA00043EA0E434FEAC40E01EBC4042364831D92
:105AB00084881B8843EA044301EB0E0463648389F2
:105AC0004C68002B44EA050208BF04EA0C024A6055
:105AD00002894B69002A43EA050408BF03EA0C0463
:105AE0004C61007C012802D1C8692843C86108685C
:105AF00020F001000860B0BD2DE9F041026840F2DD
:105B0000010C22F0020202600268CFF6FF7C42F034
:105B100001026346026000BF426823B112F0010235
:105B200003F10103F8D04268D20704BF0020BDE8AA
:105B3000F081036ADA0724D143F0010202620A7895
:105B400091F801E08C789207CD7804F00F0804F00A
:105B500070046EF31C624E8942EA841205F0070756
:105B600005F0180542EA0842013E42EA85226FF339
:105B70009F2642EA07523244C26123F001020262C8
:105B80001DE00A7891F801E08F789207CE7807F04F
:105B90000F0507F070076EF31C624B8942EA87120B
:105BA00006F0070406F0180642EA0542013B42EA05
:105BB00086226FF39F2342EA04521A44C2610268AC
:105BC0000F7922F080034E798D79CC79012F08BFAF
:105BD00042F0800303600268012E22F0400308BFF8
:105BE00042F0400303600268012D22F0200308BF49
:105BF00042F0200303600268012C42F0100308BF4A
:105C000022F0100303600A7A0368012A23F00807D0
:105C100008BF43F008070760497A0268012922F0AB
:105C2000040308BF42F004030360016821F001018E
:105C3000016000BF42686146BCF1000F04D012F061
:105C4000010201F1010CF5D1002918BF012108461C
:105C5000BDE8F081426922EA010141617047426971
:105C60001143416170478069000E704781B104287B
:105C700010D880B5DFE800F0030F18292C004FF092
:105C800080608860002048604FF40030086080BD6C
:105C9000FEE700BFFEE700204FF480320874CA60C0
:105CA00008604860886080BD4FF4806088824FF44F
:105CB000007008820120887400204FF48072887080
:105CC0000A80C1E90100C86080BD08464E2101E09C
:105CD00008464F21FEF77BFA80BD000002290BD059
:105CE000012911D0B9B9816841F08001816000BFFC
:105CF00081680906FCD40EE0816841F400018160EE
:105D000081680902FCD406E0816841F400418160A9
:105D100081680904FCD470478069C0F3074070476C
:105D2000022910D849B210A252F821108068084008
:105D300040F2FF21C0F60001884206DC18B10321C1
:105D4000C0F200410AE00220704740F20031C0F684
:105D50000001884206D00021C1F2030188421CBF25
:105D60000020704701207047030000040003000872
:105D70000000031040F21441C4F2010108607047B2
:105D800042F21000C4F20200016841F0800101609B
:105D90007047B0B5044600F017F800B1B0BD42F24C
:105DA0001005C4F20205286840F0020028606C600B
:105DB000286840F04000286000F006F8296821F0CB
:105DC00002012960B0BD0000002142F20C00CFF6B4
:105DD000F071C4F2020000BF0268D20704D00131A2
:105DE00024BF05207047F7E70168C90644BF0420B7
:105DF00070470168490744BF0220704700680321CB
:105E0000000701EAE070704742F20400C4F20200A9
:105E1000C168090658BF704740F22311C4F26751A8
:105E2000016048F6AB11CCF6EF510160704770B5D8
:105E30000C460546FFF7C8FF00B170BD42F21006E0
:105E4000C4F20206306840F0010030602C60FFF7B9
:105E5000BBFF316821F00101316070BD80B540F2B7
:105E6000020ECFF6F07E43F2000CC4F2000C45F2B5
:105E700055527346CCF80020DCF80C2002F00102E9
:105E80001BB1002A03F10103F6D16AB9CCF8041062
:105E9000DCF80C10BEF1000F01F0020103D0002964
:105EA0000EF1010EF4D109B1002080BD6FF31F3057
:105EB000CCF808004AF6AA20CCF80000012080BDEA
:105EC00043F20000C4F200004AF6AA2101607047C4
:105ED00043F20000C4F200004CF6CC410160704770
:105EE00043F20000C4F2000045F2555101607047D2
:105EF00041617047016170472DE9F047CF0601F01D
:105F00000F0C09D5042A05D1C26B4CF0030C1A43BF
:105F1000C26301E04CEA020C00F1100E00F114081B
:105F200000244FF0010A4FF00F0900270AFA07F288
:105F30001A4010D0056809FA04F6B5430CFA04F6C5
:105F4000282946EA050603D0482903D1754600E012
:105F500045462A6006600137082F04F10404E5D1A4
:105F6000082400254FF0010A4FF00F090AFA04F245
:105F70001A4010D0466809FA05F7BE430CFA05F737
:105F8000282947EA060703D0482903D1764600E0CE
:105F90004646326047600134102C05F1040508BF05
:105FA000BDE8F087E2E7B0B50422C4F2010213466F
:105FB00002F1180E002848BF73461B6800F4401415
:105FC000C0F30345B4F5401F1FFA80FC06D11468E6
:105FD00023F0E06324F0E06414600DE0C40206D412
:105FE0006FF00F0404EA50440CFA04F401E00324B7
:105FF000AC40A34343F0E06331B16FF00F0101EA1D
:1060000050410CFA01F10B43002848BF724613605F
:10601000B0BD42F21C00C4F20200006840F3400030
:1060200070470000FEF742FCFEF708FEFFF779FA22
:10603000FEF7D2FCFEF702FDFEF76FFE18B9FEF781
:10604000D2FEFEF7DFFEFEF7B2FEFFF79FF9FEF786
:1060500074FDFFF77AFA40F20800C2F2000000680F
:1060600041F25971CDF2B711A0FB01014FF0FF30A1
:1060700043F6F82200EB513047F2E351C2F200023E
:10608000C0F60001B0F1807F116000D3FEE74EF250
:106090001001CEF2000148604EF62350CEF200000F
:1060A000F02202700020886007200860FC20C0F603
:1060B0000000056848F6A8414FF2E87041F200047C
:1060C000C0F60001C1F6FF70C4F20104FEF72EFC19
:1060D000854242D1FFF7CBF943F2D055C2F2000519
:1060E00043F2902243F26023C2F20002C2F20003A4
:1060F0002846012102F042F8FFF736FA20464FF415
:106100000051FFF7F7FE40F2840441F6C406C2F2E4
:106110000004C2F2000600BF95F8CE00032815D196
:10612000284600F0CDFF284601F09EF9204629467A
:10613000FEF796FA30462946FEF792FA00202946E5
:1061400000F0C5FD0120294600F0C1FD00F005FE6C
:1061500000F040FFFFF7B4FEDEE743F21015C2F295
:10616000000500BF20464FF40051FFF7C3FED5F8ED
:106170002001D5F82011091A312905D800BFD5F81A
:106180002011091A3229F9D320464FF40051FFF7A4
:10619000AFFED5F82001D5F82011091A3129E1D830
:1061A00000BFD5F82011091A3229F9D3DAE74EF6E3
:1061B0000C5CCEF2000CDCF8003003F4E063A3F5D5
:1061C0004073B3F5A06F03D21B0AC3F1040C08E0BF
:1061D00040F20053C0F2FA53CCF8003002234FF0E3
:1061E000020C99400F2323FA0CF31A4011434EF28C
:1061F0000012CEF20002090140EA020383F8001304
:1062000000F01F01012303FA01F11C2303EAD0006F
:106210008150704740F080604EF60C5140F0FD70A8
:10622000CEF20001086070474FF68072C1F6FF722F
:10623000114008434EF60851CEF200010860704745
:10624000B0B547F20003C4F200031A6843F29C5E43
:1062500022F003021A60D3F800C04EF2001240EAA6
:106260000C00CEF200021860D2F8100C43F2985CD9
:1062700040F00400C2F8100C52F8F00CC2F2000C0E
:10628000CCF800001068C2F2000ECEF8000053688F
:1062900043F2A050C2F200000360946843F2A4539A
:1062A000C2F200031C6052F8F04C0425C0F2010554
:1062B0002C4042F8F04C4FF63D04CFF67F74C2F804
:1062C00080406FF4E064C2F884404FF0FF34C2F8BD
:1062D000884000290FBF30BF40BF20BF20BFDCF87F
:1062E000001042F8F01CDEF80010116000685060E9
:1062F00018689060D2F8100C20F00400C2F8100C5E
:10630000B0BD000010B541F2040EC4F2020EDEF87A
:10631000001001F00C01082941F20021C0F27A01BD
:1063200046D1DEF80030DB0304D440F6001CC0F296
:106330003D0C25E0DEF82830DEF828C05B0046F68C
:106340000043C0F2DC2358BF0B465FEACC3110D5C6
:10635000DEF82810C1F3031CDEF828100CF1010C44
:10636000C1F30321B3FBFCF30231112908BF14214F
:106370004B43DEF8281001F00F010131B3FBF1FCB3
:10638000DEF800301022C3F38343DEF8001002EA87
:106390005161194401220F2938BF022253180F2BD3
:1063A00011BF03FB0CF10CEB4C01490001EB5C014C
:1063B000DEF800200328C2F30313DEF80020C2F346
:1063C000022CDEF800400DD80DA2D25C48F6904EAB
:1063D00021FA02F3C0F6000EDFE800F00F02060912
:1063E00019460AE0002108E01EF80C0003E0C4F39F
:1063F000C2201EF8000023FA00F1084610BD00BFBD
:106400000000000000000000010203040607080964
:1064100041F2000300F01F018009C4F202034FF0B3
:10642000010CC2580CFA01F11143C150704741F2FE
:10643000000300F01F018009C4F202034FF0010CB9
:10644000C2580CFA01F11143C150704741F20003E8
:1064500000F01F018009C4F202034FF0010CC25882
:106460000CFA01F122EA0101C150704741F2000328
:1064700000F01F018009C4F202034FF0010CC25862
:106480000CFA01F11143C150704741F20401C4F20A
:1064900002010A6822F440021043086070470000BD
:1064A00010B543F21014C2F200049446D4F820311F
:1064B00094F842218AB103F57A7100BF94F8422121
:1064C000B2B1D4F820218A42F8D9002184F84211CF
:1064D000812101F0E8FD022010BD8E468121724627
:1064E000634601F05CFD012084F84201002010BDEC
:1064F000012010BD10B543F21014C2F200049446FE
:10650000D4F8203194F841218AB103F57A7100BFA3
:1065100094F84121B2B1D4F820218A42F8D900215F
:1065200084F84111822101F0BEFD022010BD8E468B
:1065300082217246634601F032FD012084F8410158
:10654000002010BD012010BD704700002DE9F0476C
:1065500082B043F2AC50C2F2000004680020002C6C
:10656000ADF8060000F093804DA12046FDF73AFEFD
:1065700008B343F2B050C2F200000068002800F0F7
:106580008C8000211022FDF775FE43F2B451C2F257
:10659000000109680546E1B3084600211022FDF715
:1065A00069FE6FF0070184B211FA80F0382888BFC5
:1065B00040247CBB4EE041A12046FDF713FE00289D
:1065C0004DD043F2B050C2F200000068002864D001
:1065D00043F2B454C2F20004216800295DD00021C6
:1065E0001022FDF747FE21680446084600211022CC
:1065F000FDF740FEE4B285B220462946FEF794FA44
:1066000030A0294602F0FCF833A0214602F0F8F849
:1066100043E04024EDB200200FF28C080DF1060992
:106620000FF2900A002600BF47193E2F12D84007EC
:1066300003D14046394602F0E3F8B8B24946FEF7C6
:1066400020FABDF80610504602F0DAF80136B0B272
:106650008442E9D849F2F200C0F600001BE049F29A
:106660000111C0F600012046FDF7BCFD18B1FEF790
:10667000E5F920A00FE049F21411C0F60001204610
:10668000FDF7B0FD18B1FEF705FA21A003E048F6CA
:106690009A60C0F6000002F0EBF802B0BDE8F087A7
:1066A00072656164000000000A307825303458209B
:1066B00020000000253034582000000077726974F3
:1066C00065000000207772697465203078253034C9
:1066D0005820746F0000000020656570726F6D2097
:1066E0006164647265737320307825303458202ECD
:1066F0002E2E0A004C6F61642066726F6D20496E09
:10670000742E20454550524F4D2E2E2E0A0000006B
:106710005361766520746F20496E742E2045455074
:10672000524F4D2E2E2E0A007047704770470000C2
:1067300070B549F254160025C0F6000605A400BF46
:10674000701971594268204602F05AF80C35782DBC
:10675000F6D170BD202573202D3E2025730000004A
:1067600010B543F2AC50C2F20000006880B141F2B3
:10677000000400211022C4F20104FDF77BFDC007D4
:1067800007D120464FF40051BDE81040FFF7B0BBE1
:1067900010BD20464FF40051BDE81040FFF7AABBE2
:1067A000B0B543F2AC50C2F200000068C0B10021A5
:1067B0001022FDF75FFD04466FF31100B0F1006F8A
:1067C0000FD047F6FF7024EA0000B0F1005F08D058
:1067D00048F65D60C0F60000BDE8B04002F048B881
:1067E000B0BD43F2B050C2F20000006830B10021E9
:1067F0001022FDF73FFD85B2072D01D84FF48075BB
:1068000020462946FEF79AFA034603A021462A4667
:10681000BDE8B04001F0F4BF53544152543D3078CC
:1068200025303858204C454E3D307825303858209A
:106830004352433D3078253034580A002DE9F04367
:1068400081B0FFF7E6FB10B101B0BDE8F08343F281
:10685000AC50C2F2000000680028F5D000211022E0
:10686000FDF708FDA8B1044643F2B050C2F20000A3
:106870000068002590B100211022FDF7FBFC87B2D3
:10688000B7F5807F88BF0125072F98BF4FF4807729
:1068900006E048F65D60C0F6000021E04FF4807726
:1068A000002D18BF4FF48077B7B149F2F4090026E4
:1068B0000FF23808C0F60009002500BF300703D1E9
:1068C0003119404601F09CFFA15D484601F098FF58
:1068D0000135AEB2B742F1D849F2F200C0F600007D
:1068E00001B0BDE8F04301F0C3BF00BF0A30782516
:1068F000303858200000000010B543F2AC50C2F20E
:10690000000004684CB349F20111C0F600012046B2
:10691000FDF768FC30B115A001F0AAFFBDE81040FA
:10692000FEF7FBB949F21411C0F600012046FDF74D
:1069300059FC30B116A001F09BFFBDE81040FEF7F6
:1069400061BA1BA12046FDF74DFC30B11AA001F041
:106950008FFFBDE81040FEF746BA49F27800C0F656
:106960000000BDE8104001F083BF00BF204C6F6104
:106970006420706172616D65746572732066726FF8
:106980006D20454550524F4D2E2E2E0A000000001E
:10699000205361766520706172616D6574657273F4
:1069A00020746F20454550524F4D2E2E2E0A000068
:1069B000726573746F72650020526573746F7265CF
:1069C0002064656661756C7420706172616D6574B8
:1069D0006572732E2E2E0A0043F2AC50C2F20000F4
:1069E000006808B9002003E000210A22FDF742FCFC
:1069F000FDF7E4FF03A001F03BFF012080F31388C3
:106A0000FEF702FE207265626F6F74696E672E2E4C
:106A10002E200A007047704770B548F63A50C0F60D
:106A200000000088410AC0F3431200F01F030BA0CE
:106A300001F0E6FE4FF2E8760025C1F6FF760DA4E0
:106A400036F81510204601F0DBFE0135062DF7D192
:106A50000AA0BDE8704001F00BBF00BF20555342B3
:106A600043414E207625642E25642E256420534E06
:106A70003A00000025303458000000000A20454349
:106A8000484F2053747564696F203C6563686F2EAE
:106A9000786A747540676D61696C2E636F6D3E2E08
:106AA00020416C6C2052696768747320526573656D
:106AB000727665642E200A00406A70474162704712
:106AC00010B541F6FF31C4F2000188421BDC40F6EC
:106AD000FF31C4F20001884230DD41F2FF31C4F2DF
:106AE0000001884251DC40F60041C4F200018842B6
:106AF0006AD041F20001C4F20001884240F0838074
:106B000040F2044477E043F2FF31C4F201018842CD
:106B100026DD44F6FF71C4F20101884244DC43F2F1
:106B20000041C4F20101884251D044F60041C4F250
:106B30000101884267D140F213345CE0B0F1804F2C
:106B400048D040F20041C4F20001884245D040F6EE
:106B50000001C4F20001884255D140F202444AE0EB
:106B600041F60041C4F20001884239D042F20001EE
:106B7000C4F20001884236D042F60041C4F201015D
:106B8000884240D140F20B3435E041F20041C4F27A
:106B9000000188422AD041F60001C4F20001884277
:106BA00031D140F2064426E045F20001C4F2010171
:106BB00088421ED045F20041C4F20101884218BF4C
:106BC00010BD40F2153416E040F2034413E040F2E9
:106BD0000D3410E04FF480640DE040F201440AE00F
:106BE00040F2074407E04FF4816404E040F20544BA
:106BF00001E04FF445742046FFF738FC2046BDE81D
:106C00001040FFF723BC10BD016841F00101016095
:106C1000704780B50A8843F2004C826240F6FF322A
:106C2000C4F200029042C4F2010C0DDCB0F1804FBE
:106C300018D040F20043C4F20003984212D040F64C
:106C40000003C4F200030BE040F60043C4F200036B
:106C5000984207D0604505D042F60043C4F20103D4
:106C600098420FD1036823F0700303604B880268D9
:106C700003F060031A4302608A88036802F010027E
:106C80001A43026041F20042D1F808E040F4806308
:106C9000C4F200029342C0F82CE009D0026822F44A
:106CA000407202608A89036802F440721A430260EB
:106CB000604505D042F60042C4F20102904201D183
:106CC000897B0163416941F00101416180BD70B57B
:106CD0000C4643F2041100F00100C2F2000151F829
:106CE000206043F2A421C2F20001B268C8721168A8
:106CF000D4F830048969F27812B1480710D070BD19
:106D00004A070FD48A0716D4C90708BF70BD00F11F
:106D1000800543F2A420C2F200002946E42212E0DA
:106D2000002018E000F1800543F2A420C2F2000028
:106D30002946E52207E000F1800543F2A420C2F2D3
:106D400000002946E322FDF72EFF204629461322A4
:106D5000FFF7D0FB0120F07070BDF0B581B043F2B9
:106D60001010C2F2000090F84511002900F0AB802D
:106D7000002143F2BE5580F84511C2F20005298872
:106D800040F6004401316FF35F2143F2BD5643F2F8
:106D9000BC57C4F20104B1F5FF7FC2F20006C2F293
:106DA0000007298015DA19B3012947D190F8471156
:106DB000FF22FF29317080F847213FD143F20410B0
:106DC000C2F200004068407998B320464FF4006159
:106DD0001FE021D040F2FF1291422FD1D0F84C1188
:106DE00061B3012180F847110021C0F84C1125E062
:106DF00090F84611FF22FF29397080F846211ED1F4
:106E000043F20410C2F200000068407970B12046DD
:106E10002021FFF76FF811E0D0F8481171B101217E
:106E200080F846110021C0F8481107E020462021D3
:106E300002E020464FF40061FFF75AF83978022942
:106E400008D0012919D12888B0F5817F11D00228F6
:106E500005D012E0288800F03F01032904D1204624
:106E60002021FFF747F808E0203000F03F0003281A
:106E700003D120462021FFF73BF83078022808D0C4
:106E8000012820D12888B0F5827F14D0042805D0AD
:106E900019E0288800F03F01052907D120464FF46A
:106EA000006101B0BDE8F040FFF724B8203000F0E9
:106EB0003F00052807D120464FF4006101B0BDE82E
:106EC000F040FFF715B801B0F0BDB0B543F2101EA9
:106ED000C2F2000EDEF8241143F2C2530131CEF8A3
:106EE000241143F2C45CC2F20003C2F2000C1A88FF
:106EF000BCF80010501C82B242F211740131A2425F
:106F00000AB2ACF80010188032D3002018809EF826
:106F10001C110EF10C0301EB011103EBC1018C8874
:106F200004F03F048C809EF81C1101EB011153F812
:106F300031109EF81C419EF81C5104EB041405EB23
:106F4000051503EBC505AD8803EBC40404EB45044C
:106F5000E1809EF81C1101EB011143F831009EF80D
:106F60001C0100EB001003EBC0008188013181801F
:106F70000A2A1ADB43F2C053C2F200031888002227
:106F8000013081B2B1F57A7FACF80020188011D3BE
:106F90001A80DEF828010130CEF82801BEF8000082
:106FA00040F01000AEF8000004E0022A08D0012AE8
:106FB0000AD042B9DEF820010130CEF82001B0BD80
:106FC00001208EF84501B0BDDEF82C010130CEF86D
:106FD0002C01B0BD2DE9F04F81B043F2BE35C2F2B5
:106FE00000052878002867D049F2F80105F1C100B2
:106FF000C0F60001FDF71CF943F2A85643F2AC5B62
:1070000043F2B05443F2B45843F2B859C2F2000606
:10701000C2F2000BC2F20004C2F20008C2F2000980
:10702000306028B349F2F801C0F600010020FDF7F6
:10703000FFF8CBF80000D8B149F2F801C0F6000122
:107040000020FDF7F5F8206090B149F2F801C0F694
:1070500000010020FDF7ECF8C8F8000040B149F24B
:10706000F801C0F600010020FDF7E2F8C9F80000C1
:10707000A146346849F2541A0027C0F6000A00BF3E
:107080005AF807102046FDF7ADF818B90C37A82FAD
:10709000F6D103E00AEB07008068804743F2B8515D
:1070A0000020C2F200013060CBF80000C9F80000F7
:1070B000C8F800000860287001B0BDE8F08F00003B
:1070C0002DE9F04143F21011C2F200010446D0F85C
:1070D000307491F8440100283CD0002207F1C0052B
:1070E00091F8440181F844212978122940F0AE81B9
:1070F00097F8C1100139142900F2A88107F1D006D0
:10710000DFE811F01500A4012A005700A401730064
:10711000A401A401A401A401A4018F00A200B9004C
:10712000D900A401A401040139014C0189010428FA
:1071300040F08C8197F8C200012840F0878140F22E
:107140001210C0F28300C7F8D0004FF48170A7F886
:10715000D4000CE1BDE8F081072840F0778197F872
:10716000C400042101EA900043F20411C2F20001BC
:10717000095843F2C858B7F8C500C2F20008C8F869
:107180000010FDF7C9F9D8F8001021F80C0B0846DB
:10719000FDF75CFA97F8C500D8F80010022248768F
:1071A00097F8C600887697F8C40002EA9010C8766F
:1071B000A1E00D2840F04A8197F8C2000A2840F06B
:1071C000458143F2C851D7F8C500C2F200010968F1
:1071D00000BAC860D7F8C90000BAC043086197F880
:1071E000C400C0F38010087685E0052840F02E81A9
:1071F00097F8C200022840F0298140F21260C0F2E4
:107200008A00C7F8D000012087F8D4000020C7F812
:10721000D50040F29530C7F8D900204631460D22FE
:1072200012E1072840F0128197F8C200042840F0CC
:107230000D8197F8C40097F8C51097F8C620C0F3E1
:107240000010FDF79AFA56E0062840F0FF8097F804
:10725000C200032840F0FA8040F61250C0F28200CB
:10726000C7F8D00097F8C40097F8C510C0F3001015
:10727000FDF7E2F88CE0052840F0E88097F8C200BE
:10728000022840F0E38097F8C400042101EA90004E
:1072900043F20411C2F20001085843F2C858C2F286
:1072A0000008C8F80000FDF74FF9D8F800000121E8
:1072B000417181701FE0052840F0C88097F8C20036
:1072C000122840F0C38097F8C400042101EA90001E
:1072D00043F20411C2F20001085843F2C858C2F246
:1072E0000008C8F80000FDF79AF8D8F800004179C6
:1072F00009B100214171B7F8C0003146A7F8D000AC
:107300008120A7F8D200204604229DE0042840F006
:107310009D8097F8C200012840F0988048F63A50C6
:10732000C0F6000000884CF6CD4C00F01F01CCF6F2
:10733000CC4CA1FB0C3241F21223C0F28303D208E1
:10734000C7F8D03002EB8203A1EB430141EA0211FE
:1073500087F8D410C0F34310A0FB0C12D10801EB46
:107360008102A0EB420040EA011087F8D5002046D8
:107370003146062268E0042868D197F8C200012847
:1073800064D141F21230C0F28200C7F8D00002206E
:1073900087F8D40020463146052255E0042855D10F
:1073A00097F8C200012851D141F21240C0F28D007D
:1073B00007F1D408C7F8D00028A140460B22FCF7FB
:1073C000EDFEFC20C0F6000000684146FDF71CFE03
:1073D00048F63A50C0F6000000884CF6CD41CCF695
:1073E000CC41A0FB0123400AA0FB0112302141EA5D
:1073F000133187F8DD10D10801EB8101A0EB4100CA
:1074000040F0300087F8DE00002087F8DF002046DB
:107410003146102218E0042818D197F8C20001283C
:1074200014D141F21250C0F28700C7F8D00045F2E3
:107430005530C4F24230C7F8D40044F64160A7F892
:10744000D800204631460A22FFF72AF820460121BB
:107450002A461023BDE8F04100F087BD32303134B8
:1074600030393232303030002DE9F04F81B0D0F871
:1074700030440546A079042101EA900043F204114A
:1074800043F21016C2F20001C2F2000651F800A049
:1074900096F8430118B3002196F8430186F843118A
:1074A0009AF80510002900F0938043F2A42B04F110
:1074B000D0093928C2F2000B14D0262835D0132861
:1074C0004CD143F2A427C2F2000738462146FDF70B
:1074D0004FFA28463946FDF709FD07463FE001B05F
:1074E000BDE8F08F43F2A427C2F2000738462146D8
:1074F000FDF73EFA28463946FDF7F8FC804604F1D0
:1075000013013846FDF734FA28463946FDF7EEFCFC
:10751000804404F126013846FDF72AFA2846394608
:10752000FDF7E4FC08EB000719E043F2A427C2F2E0
:10753000000738462146FDF71BFA28463946FDF775
:10754000D5FC804604F113013846FDF711FA2846B0
:107550003946FDF7CBFC00EB080700E000279BF85D
:107560000B10132084F8D00084F8D1102846494627
:10757000032284F8D270FEF793FF380618D09BF8E8
:107580000B000122311881F8462143F2CC51C2F29E
:10759000000131F81020013293B2032B21F81020A2
:1075A00016D3032221F8102000208AF803000FE0F0
:1075B0009BF80B1001208AF803007018022280F853
:1075C000462143F2CC50C2F20000002220F81120E4
:1075D000284602212246402301B0BDE8F04F00F0CA
:1075E000C4BCFDF76FBFB0B5044644F6FF30C4F22B
:1075F00000000D4684424FF0000013DD44F60041C8
:10760000C4F200018C4219D045F20001C4F200011D
:107610008C4213D043F60001C4F201018C4210D118
:1076200003200CE044F20041C4F200018C4205D07A
:1076300044F60001C4F200018C4202D10220FEF7A0
:1076400061FE00EB5500B0FBF5F080B2A060B0BD6C
:1076500010B544F6FF31C4F20001884215DD44F64E
:107660000041C4F2000188421ED045F20001C4F27C
:10767000000188421BD043F60001C4F20101884298
:1076800018BF10BD40F20E3416E044F20041C4F2BF
:10769000000188420ED044F60001C4F20001884285
:1076A00012D140F2124407E040F2134404E040F2E9
:1076B000144401E040F211442046FEF7D7FE204674
:1076C000BDE81040FEF7C2BE10BDC16841F40051D4
:1076D000C160704701F01F0289094FF0010C0B587F
:1076E0000CFA02F21A430A507047C26822F4C062D0
:1076F000C260C2681143C1607047C26822F00402D0
:107700001143C1607047026922F44052026102696C
:10771000114301617047C26822F008021143C16041
:107720007047C26822F48052C260C2681143C160CF
:107730007047000070B50C46054600200221012A62
:10774000287169702A701CBF012070BD40F200468C
:107750004FF0A0424FF48163C5F20006EA606B80EF
:10776000A5F80510E87106F58060C4E9002004F171
:107770000C006C21A660FCF72AFD06F14000A06712
:1077800004F17C003C21FCF722FD06F52060C4F8E2
:10779000B800E87878B1E968002201F5306100BFEF
:1077A000A1F5007304EB82060132F360716282423C
:1077B00001F12001F4D3A87880B1EA68002302F532
:1077C000A06102F5805200BF04EB83060133F16330
:1077D000F2672031834202F58052F5D3002070BD5C
:1077E000C17949B141698968C90705D0D0F8C80095
:1077F000016821F0030101607047000070B5049D2D
:107800000C46C1F3074601F47F412868B1F5807F3B
:107810001FD1816B21F4803181631EB1816B41F4F2
:1078200080118163C1684FF6BF72CFF6DF721140DD
:10783000C160C16821F48011C160016941F001019A
:10784000016100BF0169C907FCD1032000F0A8FA5B
:107850001FE0C16841F04001C160016941F00101D0
:10786000016100BF0169C907FCD1032000F098FA4B
:107870002868816B41F450218163816B41F40011D0
:1078800081631EB1816B41F480118163142000F08B
:10789000C7F8E0B2012808D12868816821F01E01EC
:1078A0008160816841F02A018160002070BD416BD8
:1078B0001822C6F208020A610279012A18BF70472D
:1078C00000F21C404861086840F080200860704762
:1078D0000068C26822F0C042C26029B1012918BF05
:1078E00070474FF0005101E04FF08041C2681143F2
:1078F000C16070472DE9F0410446D0F8C8004FF050
:107900000008C0F80080606904F11005016821F4E6
:10791000C051016001680160016821F0030101604C
:107920002178012911D10168002741F0030101608C
:107930002868402131A6416236F81720F9B228465E
:1079400000F098F80137042FF6D12846102100F0F6
:1079500005FA284600F072F8D4F814E04FF0FF3C26
:10796000CEF81080CEF81480CEF818C0CEF81C8067
:10797000E27812B34FF00008FF26002504EB8507DC
:10798000F86900210368B3F1FF3F4FF0000302DC08
:10799000036843F090430360016186607F6B386841
:1079A000B0F1FF3F02DC386840F09041013595426C
:1079B0003960C7F81080BE60E0D3DEF8100040F0F8
:1079C0001000CEF8100021696FF08040C1F804C0AB
:1079D000486140F60000C8F200008861207918B9BB
:1079E000886940F010008861886943F20802C0F29B
:1079F0003C02024300208A61BDE8F0814000400063
:107A000040004000426900EB81001369526BC0697D
:107A100022FA01F1C901C9B28068194308407047D0
:107A200010B548B1044600BF4FF47A7000F0B8F9C1
:107A3000FEF746FA013CF7D110BD000080B50068A2
:107A4000102101610169C906FCD4032000F0A8F9E6
:107A5000002080BD03320023B3EB920F07D0C06F2C
:107A6000920800BF0368013A41F8043BFAD1084686
:107A70007047000010B5D0F800C0DCF82400D1B188
:107A8000DCF82830B1F1010E00EB13430CD00021DB
:107A9000002000BF0CEB8101D1F804410130C1B2DC
:107AA0008E4503EB1443F5D843EA02400CEB8E01FC
:107AB000C1F8040110BD40EA0240CCF8280010BD16
:107AC00080B581B00022009291F90020B2F1FF3F11
:107AD00002F00F0E08DD00EB8E02536B0EF1100C5E
:107AE000012202FA0CF205E000EB8E03DB690122B1
:107AF00002FA0EF200921A68120427D4D3F800C0DA
:107B00004FF60002CFF6334202EA0C02BEF1000F3C
:107B10001A6002D0B1F804C009E04269926802F02C
:107B2000060C48F68C42C0F6000212F80CC01A6827
:107B300042EA0C021A6049781A6842EA8E5242EA16
:107B4000814141F0805141F400411960009942693E
:107B5000D06901430020D16101B080BD91F90020BE
:107B6000B2F1FF3F02F00F0200EB8200CCBF406B8E
:107B7000C069026822F400120260497801F0FE0137
:107B8000022903D1016841F0805101600020704753
:107B900091F90010B1F1FF3F01F00F0100EB8102FC
:107BA00002DD526B103100E0D269136823F4004308
:107BB000136042690120D369884023EA0001002054
:107BC000D161704770B582B00A7800F1100C02F0F4
:107BD0000F020CEB8203DB681D6801951D6900959F
:107BE000009D05F060450095D1F80CE0BEF1000F56
:107BF0000AD0BAB18C880EEB0405013DB5FBF4F454
:107C0000009D45EAC44416E0009D4FF0000E45F487
:107C1000002500954C78009D012C4FF000041D615B
:107C200017D024E08C88A64528BFA646C1F80CE0F2
:107C3000009C44F400240094009C44EA0E04009448
:107C40004D78009C012D10D144F000540094009C0C
:107C50001C614469A568019CED0554BF44F00054C3
:107C600044F080540194012401E01C610024057952
:107C7000012D08D188695861019840F004400190B5
:107C80000198186019E0019E46F004460196019E95
:107C90001E6095B9019D1D6034B189681FFA8EF38D
:107CA000604600F069F808E0BEF1000F05D04069B9
:107CB0000121436B914019434163002002B070BD24
:107CC00010B50A7812F00F0200EB8202526BD2F864
:107CD00000C014698B8804F0604E0BD0CC684CB1A6
:107CE0001C44013CB4FBF3F44EEAC44E634343EA44
:107CF0000E0303E043EA0E0343F40023136100790B
:107D0000012804BF886950614878012806D1C878E5
:107D100000280CBF4CF0805C4CF0005C4CF004413F
:107D20000020116010BD91F90010B1F1FF3F01F08A
:107D30000F0100EB810001DD416B08E0C1690868BB
:107D4000B0F1FF3F03DC086840F08040086008683D
:107D500040F4001200200A607047000080B58901DD
:107D600000682031016100BF01698906FCD403204D
:107D700000F016F8002080BD03F1030C0023B3EBE4
:107D80009C0F0AD000EB8200C06F4FEA9C0200BF3C
:107D900051F8043B013A0360FAD10020704700001B
:107DA000B0B542F60045C4F201050446284600215C
:107DB000FEF784FE2846FEF77FFEA042FAD3B0BD50
:107DC000D0F82C044178FF291CBFFF21417000200E
:107DD000704710B58221044600F0B0F82046022119
:107DE00000F0ACF82046812100F0A8F820460121DF
:107DF00000F0A4F8002010BD10B5012911D002290F
:107E000024D1C1EBC10100EB8102D2F8DC10F9B141
:107E1000B2F8D420B1FBF2F303FB1211C1B9022175
:107E20000EE0C1EBC10100EB8102D2F8DC10B9B168
:107E3000B2F8D420B1FBF2F303FB121181B9012196
:107E400000220023002400F0AAF810E002240EE033
:107E500043F21010C2F20000002480F8414106E015
:107E600043F21010C2F20000002480F84241204684
:107E700010BDB0B549F2FC15C0F6000505F12001B2
:107E8000044600F0A6F805F12701204600F0A1F80D
:107E900005F11201204600F09CF805F11901204679
:107EA00000F097F843F60C25C2F2000505F1C00278
:107EB000204601211023C4F8305400F056F8204623
:107EC00002212A46402300F050F80020B0BD0129CD
:107ED0000CD002291CBF02207047D0F8BC0243F22C
:107EE0001011C2F2000181F8430107E0D0F8A002AE
:107EF00043F21011C2F2000181F8440100207047E2
:107F00000020704790F8CE20032A03D18A8812F00F
:107F1000FE0F01D001207047D0F82C24D268104702
:107F200010B58021044600F08CF82046002100F0B6
:107F300088F82046BDE81040FFF7B9BC4AB2B2F15C
:107F4000FF3F06DDC1EBC10100EB810101F51D71B1
:107F500006E001F07F01C1EBC10100EB8101D031EE
:107F600080B5FFF715FE002080BD80B501F07F01D0
:107F7000C1EBC10100EB810C90F804E00CF51D7120
:107F80000CF51F77BEF1010F4FF0000E87E80C4093
:107F900008BFCCF88C22FFF793FE002080BD80B58F
:107FA00001F07F01C1EBC10100EB810C90F804E00E
:107FB0000CF1D0010CF1D807BEF1010F4FF0000E0B
:107FC00087E80C4008BFCCF8E820FFF7FBFD002055
:107FD00080BD10B58A78B1F804C04FFA82FEBEF1B8
:107FE000FF3F0CDDC2EBC20200EB820494F8743256
:107FF00004F51D7203F07F0384F874320AE00EF07A
:108000007F02C2EBC20200EB820212F8D03F63F0A3
:108010007F0313700EF00F0403F0F003234413707A
:10802000C97848F6984301F00301C0F6000353F8FD
:108030002110A2F804C051701146FFF741FD002045
:1080400010BD4AB2B2F1FF3F06DDC1EBC10100EB4A
:10805000810101F51D7106E001F07F01C1EBC10155
:1080600000EB8101D03180B501228A70FFF75BFE01
:10807000002080BD4AB2B2F1FF3F06DDC1EBC10175
:1080800000EB810101F51D7106E001F07F01C1EBFC
:10809000C10100EB8101D03180B500228A70FFF769
:1080A0005DFD002080BD80B54AB2B2F1FF3F00F116
:1080B000100002DDFFF7C2FC03E001F07F01FFF7D3
:1080C0004DFE002080BDB0B5044659B194F8CE00F5
:1080D000032851D1D4F82C04C269002A4CD0204680
:1080E000904749E094F8240402281FD0012843D186
:1080F000B4F8D400D4F8E410D4F8D8200B1A2179BD
:10810000C4F8E430012904BF0244C4F8D820204652
:108110000021FFF744FFD4F8E400B4F8D4100222A1
:10812000884288BF012284F8242425E094F825049D
:1081300048B120460021002200230025FFF72FFF31
:1081400084F8255418E094F8CE00032805D1D4F81B
:108150002C04416909B1204688470020C4F8E40096
:10816000062084F824042046002100220023FFF783
:10817000FCFE2046FFF79BFB0020B0BDB0B582B0EF
:108180008C4600F11005C0F82824294662460446B2
:10819000C0F82C34FFF7CEFA2069816821F0010184
:1081A000816094E80F000095FFF728FB6069416843
:1081B00041F0020141600320FFF732FC2846002114
:1081C000FFF786FB2046FFF795FBD4E904018268A0
:1081D00042F001028260486820F0020048600320FB
:1081E000FFF71EFC012084F8CE0002B0B0BD0000F5
:1081F0002DE9F04F89B0804600694169C90740F018
:108200002C8241698069084000F0278200900003B9
:1082100052D5D8F814008169C0690840C0F30545FB
:10822000002D49D008F521764FF0000B4FF00809DA
:108230004FF0010A002700BFE80734D008EB87049D
:10824000606B8168D8F81420526911400891089930
:10825000C9071FD0C0F808A098F80410012908D158
:108260000069069036F80C0C06996FF3DF41401A4E
:108270003060F9B2404600F0F3F95FB998F80400B5
:10828000012807D198F82404062803D14046FFF7B7
:108290000EFB00BF0898000705D5404600F02EFAF7
:1082A000606BC0F80890BBEB550F4FEA550507F11E
:1082B000010706F11C06BFD10098400340F19C80E5
:1082C000D8F814008169C069084010F03F0700F039
:1082D000938008F1100000244FF0000A0390CDF8BD
:1082E000088000BFF80700F07F805FFA8AF14046FF
:1082F0000591FFF787FB08900898C00716D008EB98
:108300008A00C0690121816005994046FFF7DBFEC4
:10831000BAF1000F0AD198F80400012806D198F8A4
:108320002404052802D14046FFF7C1FA0898000648
:108330005AD5CAEBCA0008EB800C4546E04638F82F
:10834000D43F05EB8A01C646C3465EF8080F5BF8CA
:108350000C2F51F81C5F861A9E4288BF1E46AC69DE
:108360000336A4B2B4EB960F28BF904237D90C461F
:108370000CF1D809012101FA0AF6D9F80010F643E8
:10838000CDF810E0019601E0B8F80030861A98B2F6
:10839000864288BF06460398059AB3B2FFF7ECFC05
:1083A000D9F800008119C9F800100498DBF8002002
:1083B000006832448242CBF8002007D1029BA446D9
:1083C0005B695D6B019C254064465D6325680336EF
:1083D000AB699BB2B3EB960F28BF9042D4D88020F4
:1083E000A860DDF808800024B4EB570F4FEA570768
:1083F0000AF1010A7FF476AF009C200531D598F888
:1084000007008DF82000D8F81400806800F0010003
:108410008DF8180098F8CE000338B0FA80F04009C3
:108420008DF81F0098F8CE0088F8CF00042088F857
:10843000CE009DF8200078B19DF8180060B19DF83D
:108440001F0048B1D8F8C800016841F0030101607D
:1084500001200021FDF7F4FED8F810004FF4006170
:108460004161B4F1FF3F07DC032088F8CE00D8F863
:1084700010004FF000414161200709D5D8F82C04C5
:10848000416A09B140468847D8F810000821416187
:10849000E0064CD500200890454655F8100F81693C
:1084A00021F010018161006A08900898089900F095
:1084B0000F00C1F30A160899089AC2F34342062A2C
:1084C00017D0022A2ED16EB3C0EBC00008EB800794
:1084D000D7F87C1228463246FFF7BCFAD7F87C0260
:1084E000D7F884123044C7F87C028819C7F8840290
:1084F00018E011F4C03F15D1082E01BFC0EBC00039
:1085000008EB800696F8740210F00F000AD108F20A
:108510001C4128460822FFF79DFAD6F8840208304D
:10852000C6F884022868816941F010018161E00485
:1085300055D5D8F8141008F110004A684FF000091A
:1085400022F001024A600021FFF708FC98F80300BE
:1085500050B108F11C01FF220B688F69013801F14D
:1085600004019A60BA60F7D1D8F814004FF0FF31D7
:1085700081614FF00111C16109210126416106614C
:10858000016821F4FE6101604046FFF790F9D8F8D8
:1085900010004FF4805141614020C8F87492A8F84F
:1085A000780208F27A20162108F51D75FBF70FFEF8
:1085B00040462946FFF784FA8020454625F8D00F2B
:1085C0004FF48000C8F8D20008F1D6001621FBF75E
:1085D000FEFD40462946FFF773FA88F8CE60A004F6
:1085E00021D5D8E904108268436812F0060223F40A
:1085F0008073436043684FF4A05243F48073436038
:10860000C86820F47050C8604FF0020008BF032013
:1086100088F80100C86808BF4FF410521043C860C2
:108620004FF400504861E0020AD5D8F82C04816A62
:1086300009B140468847D8F810004FF480114161D5
:10864000A0020AD5D8F82C04C16A09B1404688476F
:10865000D8F810004FF40011416109B0BDE8F08F67
:1086600010B5044659B1D4F82C04026A002A43D04C
:1086700094F8CE0003283FD1204690473CE094F880
:10868000240404281FD0032836D1B4F87802D4F883
:108690008812D4F87C220B1A2179C4F88832012977
:1086A00004BF0244C4F87C2220460021FFF75DFC91
:1086B000D4F88802B4F878120422884288BF0322D2
:1086C00084F8242418E094F8CE00032805D1D4F8C7
:1086D0002C04816909B1204688470020C4F888022B
:1086E000052084F824042046002100220023FFF7FF
:1086F00056FC2046FFF7DBF8002010BD10B582B015
:108700000446D0F82004D4F81C14019001F0600055
:108710004028009107D020280AD070B96946204629
:1087200000F04CF808E06946204600F067F803E0E6
:1087300069462046FFF7E6FB30B169462046FFF761
:10874000EFFB002002B010BDBDF80600A8B19DF9F6
:108750000000B0F1FF3F1DDDD4F87C22D4F8883250
:1087600020460021FFF701FCD4F88802B4F8781203
:108770000422884288BF03221CE0052084F82404D8
:108780002046002100220023FFF709FC2046FFF7C6
:108790008EF8D6E7D4F8D820D4F8E430204600216B
:1087A000FFF7FDFBD4F8E400B4F8D41002228842AD
:1087B00088BF012284F82424C3E700004A7802A37A
:1087C00053F82220104700BFD35700084556000831
:1087D000715800084759000871580008755800087A
:1087E000D556000843590008A9560008B558000896
:1087F000A557000899590008BD5900080020704786
:1088000083B080B581B00DF10C0C8CE80E0003A98B
:10881000009100F039F801B0BDE8804003B0704726
:10882000B0B543F2945504460A28C2F200050ED1B1
:10883000296821B1481C0D2228600A7009E043F61E
:10884000F820C2F20000016889B10D20884728682D
:1088500018B1411C29600470B0BD43F6F820C2F283
:108860000000016819B12046BDE8B0400847B0BD1E
:1088700010B5017839B1441CC8B2FFF7D1FF14F824
:10888000011B0029F8D110BD2DE9F04F85B00DF185
:1088900004090C460546A9F1010A00BF2A4615F84D
:1088A000010B252802D0002847D11FE1507830283D
:1088B00003D02D2805D1022100E001219078D51C9C
:1088C00001E0951C0021A0F13002D2B24FF0000B64
:1088D000092A0DD80BEB8B02520052FA80F215F8E0
:1088E000010BA2F1300BA0F13003DBB20A2BF1D364
:1088F00040F020026C2A04BF15F8010B0431002857
:1089000000F0F4800346602888BF203BDAB24E2A8C
:108910000CDD4F3A092A10D8DFE802F0050F0F0FDF
:10892000160F120F0F14082265E000BF422A61D013
:10893000432A00F0D880442A02D0FFF771FFADE748
:108940000A2258E0102256E054F8046B002000BFC1
:108950000746305C002807F10100F9D18907A0F132
:1089600001081DD4D84580461AD2009443F294548D
:1089700043F6F828C2F20004C2F20008206820B1D1
:10898000411C21602021017004E0D8F8001009B1D9
:108990002020884701375F45F0D3009C07F101088C
:1089A000307840B1013600BFC0B2FFF739FF16F88A
:1089B000010B0028F8D1D845BFF470AF43F6F82773
:1089C000009443F29454C2F20007ABEB0806C2F2E3
:1089D0000004B846202700BF206818B1411C216060
:1089E000077004E0D8F8001009B120208847013E44
:1089F000F2D176E002226FF0430754F8046B57FA85
:108A000083F3B3FA83F35B09002E4FF0000748BFEE
:108A1000012713EA070CA6464FF0000818BF76425C
:108A200078284FF0070008BF272000BFB6FBF2F7F9
:108A3000444607FB126308F10108092B88BF034471
:108A40003033B8F10F0F09F8043002D8B2423E4675
:108A5000ECD9BCF1000F18BF0831080742BF2D2028
:108A600009F8080008F10108C8074FF030067446FD
:108A700008BF2026880747460CD4D84508D2474669
:108A80003046FFF7CDFE01375F45F9D3013701E0EE
:108A900008F101071AF80800A8F10108FFF7C0FE65
:108AA000B8F1000FF6D15F45BFF4F8AEABEB0706A7
:108AB00043F6F827009443F29454C2F20007C2F23E
:108AC0000004B846202700BF206818B1411C21606F
:108AD000077004E0D8F8001009B120208847013E53
:108AE000F2D1009CDAE614F8040B26E705B0BDE8E5
:108AF000F08F0000004870470400002002E008C822
:108B0000121F08C1002AFAD170477047002001E007
:108B100001C1121F002AFBD1704700404040404075
:108B20004040404041414141414040404040404040
:108B30004040404040404040404040050202020268
:108B4000020202020202020202020220202020206F
:108B50002020202020020202020202029090909027
:108B60009090101010101010101010101010101005
:108B70001010101010100202020202028888888869
:108B80008888080808080808080808080808080865
:108B90000808080808080202020240001B8B0008AF
:108BA000000702000300E80300040100050084033D
:108BB00000050100050020030005010006009A02DF
:108BC0000006010006005802000300000C00F4013A
:108BD000000D020005009001000601000C002C01B0
:108BE000000300001800FA00000801000F00C80090
:108BF00000060100180096000003000030007D0010
:108C0000000801001E006400000C010019005A0059
:108C1000000300004B005000000601003C003C0037
:108C2000000801003C00320000030000960028000C
:108C30000006010078001E00000300002C01140053
:108C40000003000058020A00000701005802050056
:108C50000014E8030016200380B69A02001CF401F9
:108C600080FA9001011CFA0081FAC800031C7D0003
:108C7000041C640083FF5000091C320087FF280099
:108C8000181C1400311C0A00BFFF0500000003007F
:108C900000000000010203040000000001000000C9
:108CA0000200000003000000E48D70097BDD41DA62
:108CB000886E0E95C161B92D180345004300480028
:108CC0004F002000530074007500640069006F00BD
:108CD0000000000000000000000000000000000094
:108CE0000000000000000000000000000000000084
:108CF0000000000000000000000000000000000074
:108D00000000000000000000000000000000000063
:108D10000000000000000000000000000000000053
:108D20000000000000000000000000000000000043
:108D3000000000000000000000000A2B180355008E
:108D400053004200430041004E002D0055004300F7
:108D500031003200000000000000000000000000B0
:108D60000000000000000000000000000000000003
:108D700000000000000000000000000000000000F3
:108D800000000000000000000000000000000000E3
:108D900000000000000000000000000000000000D3
:108DA00000000000000000000000000000000000C3
:108DB000000000000000000000000000000032037E
:108DC0004600460046004600460046004600460073
:108DD0004600460046004600460046004600460063
:108DE0004600460046004600460046004600460053
:108DF0000000000000000000000000000000000073
:108E00000000000000000000000000000000000062
:108E10000000000000000000000000000000000052
:108E20000000000000000000000000000000000042
:108E30000000000000000000000000000000000032
:108E4000395600082D560008C15900083031323318
:108E50003435363738394142434445460020426173
:108E6000642041647265737321200A006D656D632F
:108E70007263205B68657820616464725D205B6862
:108E80006578206C656E5D2053686F77204D656D49
:108E90006F7279204352432E0A00656570726F6DC0
:108EA000205B6C6F61647C736176657C7265616464
:108EB0007C77726974655D205B616464725D205BC0
:108EC000646174615D204F70657261746520496EE4
:108ED000742E20454550524F4D2E0A006469737020
:108EE0006C61792053572076657273696F6E2061CB
:108EF0006E6420534E2E0A00657874205B68657896
:108F000049445D205B686578444154417C72656DDD
:108F10006F74655D2053656E6420657874656E645A
:108F2000656420646174612F72656D6F7465206D76
:108F30006573736167652E0A00737464205B6865EE
:108F40007849445D205B686578444154417C726592
:108F50006D6F74655D2053656E64207374616E641B
:108F600061726420646174612F72656D6F74652035
:108F70006D6573736167652E0A007265626F6F7449
:108F8000205B64656C6179206D735D20526573743C
:108F90006172742073797374656D2E0A0068656C54
:108FA0007020496E666F2E0A0066696C74657220C7
:108FB0005B302D375D205B6D6F64657C7363616C26
:108FC000657C6163747C72307C72315D205B7061A2
:108FD00072616D5D2043414E2066696C746572203C
:108FE00073657475702E0A0063616E205B62617533
:108FF000647C6D6F64657C73706565647C636C65AF
:1090000061725D2043414E20706F727420736574ED
:1090100075702E0A0075617274205B626175647CE4
:109020006D6F64657C616464725D205541525420AB
:10903000706F72742073657475702E0A00656E7699
:10904000205B63687C73686F777C6164647C636EAB
:10905000747C7072645D205365742F53686F772041
:10906000656E7669726F6E6D656E74207661726979
:1090700061626C65732E0A00706172616D205B6CB9
:109080006F61647C736176657C726573746F726501
:109090005D204F70657261746520706172616D65ED
:1090A000746572732E0A006C6564205B307C315DE0
:1090B00020636F6E74726F6C20746865206C6564D9
:1090C00020646973706C61792E0A006D656D72643D
:1090D000205B68657820616464725D205B686578F8
:1090E000206C656E5D2053686F77204D656D6F72E3
:1090F000792E0A002530325820006D656D63726349
:10910000006C6F6164006C6564006D656D72640075
:10911000737464007361766500706172616D0065DF
:109120006570726F6D0063616E0076657273696F52
:109130006E0068656C700066696C746572007265BB
:10914000626F6F7400756172740065787400656E8B
:109150007600000026910008E88F000849650008A5
:1091600010910008398F0008156A00084A9100081C
:10917000F88E00082B6700084E9100083D9000080B
:10918000296700084591000815900008176A000833
:1091900037910008A98F00082D6700081991000871
:1091A00078900008F96800083E9100087A8F00085E
:1091B000D9690008329100089D8F000831670008C6
:1091C0002A910008DC8E0008196A00081F91000827
:1091D0009A8E00084D65000806910008A7900008C7
:1091E000616700080A910008CB9000083D680008FC
:1091F000FA9000086C8E0008A167000809022E0092
:10920000010100800F0904000004000000000705B0
:109210008103100001070501031000010705820208
:109220004000010705020240000112011001000088
:109230000040710400120000010200014C9200087D
:10924000B88C00083C8D0008BE8D0008040309049A
:109250007092000800000020A0320000C443000803
:1092600040930008A0320020600C00000C8B000826
:10927000A194A24A0432840239200532C418002085
:10928000042564004032C43320C402FF2001FF01E2
:10929000FF01FF01FF01FF01FF01FF01FF01FF01CE
:1092A000FF01FF01FF01FF01FF01FF01FF01FF01BE
:1092B000FF01FF01FF01FF01FF01FF0142042568DB
:1092C000004009FF041900200419002001FF01FFDC
:1092D00001FF01FF01FF01FF01FF01FF01FF01FF8E
:1092E00001FF01FF01FF01FF01FF01FF01FF01FF7E
:1092F00001FF01FF01FF01FF01FF0141320C33209B
:109300004806FF204C8E000801334201C2010210C2
:109310000442FF9D737E0008D37D0008017F000892
:10932000DDC17D0008F97D0008CF7E0008592A9232
:109330000008FC910008153C9200080000000000A5
:04000005080041515D
:00000001FF
