:020000040800F2
:10400000F047002065410008A552000889500008CB
:10401000315200087545000885680008000000005E
:104020000000000000000000000000000B59000824
:10403000A54C000800000000C95500089361000865
:104040007F4100087F4100087F4100087F41000850
:104050007F4100087F4100087F4100087F41000840
:104060007F4100087F4100087F4100087F41000830
:104070007F4100087F4100087F4100087F41000820
:104080007F4100087F4100087F4100087F41000810
:10409000774500087F4100087F4100087F41000804
:1040A0007F410008496600087F4100087F41000801
:1040B0007F4100087F4100087F4100087F410008E0
:1040C0007F4100087F4100087F4100087F410008D0
:1040D0007F410008CD6600087F4100087F4100084D
:1040E0007F4100087F410008296800087F410008DF
:1040F0007F4100087F4100087F410008FFFFFFFF6C
:104100007F410008000000007F4100087F41000857
:104110007F4100087F4100087F4100087F4100087F
:104120007F4100087F4100087F4100087F4100086F
:104130007F41000800000000000000007F410008EF
:10414000854500087F4100087F4100081D68000880
:10415000DFF80CD000F01CF9004800474D7600084D
:10416000F04700200648804706480047FEE7FEE784
:10417000FEE7FEE7FEE7FEE7FEE7FEE7FEE7FEE717
:10418000996100085141000800487047E4A90008FF
:10419000A0F16101192900D820387047A0F1410130
:1041A000192900D82030704740EA01039B0703D04B
:1041B00009E008C9121F08C0042AFAD203E011F866
:1041C000013B00F8013B521EF9D27047D2B201E028
:1041D00000F8012B491EFBD270470022F6E710B50C
:1041E00013460A4604461946FFF7F0FF204610BD65
:1041F00030B505462A460B4612F8010B13F8014B61
:1042000008B1A042F8D01CB1002802D06D1CF1E723
:10421000284630BD10B5044604E00B7800F8013B99
:1042200003B1491C521EF8D2204610BD421C10F8A2
:10423000011B0029FBD1801A7047000070B50F4D9B
:1042400000B92868002412E00A4602E09E4203D02A
:10425000521C1378002BF9D1DAB2224305D02BB1CE
:1042600024B1002100F8011B04E00446401C06783C
:10427000002EE9D12860204670BD0000000000201B
:104280002DE9F05F93460F4680460446002606F06F
:1042900055FBD0F80090824614F8015B2DB1FFF772
:1042A00073FF0068405DC007F6D12B2D02D02D2D85
:1042B0001AD0641E0021CAF800105A46394620461A
:1042C00000F017F8014627B13868A04201D1C7F8BD
:1042D0000080DAF80000022809D0CAF800907005C2
:1042E00005D54842BDE8F09F46F48066E2E70846FF
:1042F000F8E72DE9F05F82460078002715468B46E7
:104300000AF10104B946302801D09DB113E014F838
:10431000010B0127782803D0582801D045B10AE0C5
:104320000DB1102D07D10027102514F8010B02E064
:10433000082500E00A250026B0460EE005FB08002F
:1043400005FB06F1012701EB10461FFA80F8B6F5D0
:10435000803F00D3B94614F8010B294600F02AF833
:104360000028EBDABBF1000F05D00FB1641E00E0AE
:104370005446CBF80040B9F1000F06D006F0DEFA43
:1043800002210160C81EBDE8F09F48EA0640FAE736
:10439000064C074D06E0E06840F0010394E8070092
:1043A00098471034AC42F6D3FFF7D6FE60B400084D
:1043B00080B400083A2800D2303820F02002412A88
:1043C00001D3A2F13700884201D34FF0FF3070478C
:1043D00030B58C1810F8012B12F00F0301D110F832
:1043E000013B120906D110F8012B03E010F8015B24
:1043F00001F8015B5B1EF9D101E001F8013B521E9F
:10440000FBD1A142E6D3002030BD416E4A7AC2B949
:10441000006846F20042C4F20002904211D1087ACC
:1044200078B944F22030C2F20000408B0A686FF382
:10443000DF20824205D1C87A012802D1087B06F02C
:1044400013B9704742F60020C2F20000D0F80824E9
:104450000023B3EB922F10D1D0F8002400F2FF33E9
:104460001170D0F800144A1C9A4288BFA1F2FF32A2
:1044700000F58161C0F8002401E000F20C410A68F7
:1044800001320A60D0F8080480B2704710B50446C3
:10449000D0F801004AF6124144F8410FC0F600017D
:1044A00034F83C0C0988A08008BA000CE08042F681
:1044B0001460C2F200000189090A21720189617247
:1044C0004189090AA17240890E21E0720020A08171
:1044D000204600F0AFFEE08110BD0000B0B5B0F89E
:1044E0000110054620F8411F4FF2E873811C00229D
:1044F000C1F6FF73D45C8C5401320C2AFAD10E2120
:1045000000F098FEA5F84F00B0BD10B50446D0F8F5
:10451000010044F8410F34F83D0C14F83B1C00BA7C
:10452000020C042928BF042101EB10403F2834F875
:104530003C0C88BF81F03F02A08044F22030C2F2E0
:10454000000000EB42014B78A37110F81200E071FB
:10455000C8782072887860724879A0720879E07211
:10456000C879207388790E216073204600F062FEBE
:10457000E08110BDFEE740F20810C2F20000002109
:1045800000F080BA41F28050C2F20000012100F038
:1045900079BA06294AF6E81C88BF0221C0F6000C49
:1045A00040B13CF831300CEBC10203829378928821
:1045B000837482820CEBC100C08840EA01407047DE
:1045C0002DE9F04381B000F0010642F6F810C2F286
:1045D000000050F82650A868006802F000FC05F1C1
:1045E0001C04002021464FF0000802F09DFD4FF012
:1045F000012028624FF48070A88442F61460C2F251
:10460000000000EB46063089C0F301102877B0891E
:1046100000F01F01204600F076F9A86821460068E6
:1046200002F0CAFC05F128040220214602F07CFDBC
:10463000308900F0010085F8280040F20110A5F84B
:10464000290040F20440A5F84400284640F8408F75
:10465000C5E90B08C5F83480B089C0F302212046B3
:10466000FFF797FFA8682146006802F0CBFB44F2F1
:10467000203705F14804C2F200074FF00109002677
:10468000A5F85260B88A09FA06F1084018BF01205F
:10469000FA8AA5F8540011EA020018BF0120A5F813
:1046A000560007EBC600028CA5F84820428C3B8BD5
:1046B000A5F84A20828C1940A5F84C2018BF01218A
:1046C000C08C85F85810A5F84E002046A5F85080FB
:1046D00002F019FC0136082ED2D1042002F068FB4A
:1046E000A8680221006801B0BDE8F04302F017BDE0
:1046F00003288FBF02A000B203A151F82000704729
:10470000556E6B6E6F776E008DAD000884AD00083E
:1047100094AD00087DAD00084AF622220021C0F6C3
:10472000000200BF02EBC103DB88834204D00131E9
:104730001629F7D1052102E0162928BF052102EB31
:10474000C100C08840EA0140704700002DE9F041F7
:104750000446406F01283CDB41F2284042F61467D2
:1047600088462618C2F2000741F2B035F88800F4F6
:104770004050B0F5805F05D12046414600F0AEFDC7
:104780000DE000BFF88800F44050B0F5005F03D1A1
:104790002046FFF73AFE02E0204601F0B5FE616ECA
:1047A000206801F15002B24288BF4A1B02216266B2
:1047B00002F0B0FC2068616F01396167022102F0EC
:1047C000AEFCA06E0130A06602F08AFE606F002889
:1047D000CCDCA06EBDE8F08170B582B0044600EB81
:1047E00001100E46D0F8B01111F004011172D0F88A
:1047F000B01119BFC9085160490D1160D0F8B0114E
:1048000001F002015172D0F8B411090A82F84C107B
:10481000D0F8B411C1F3C01182F84D10236ADB0740
:1048200025D100295AD1D0F8B41101F00F01D1726D
:10483000D0F8B8111173D0F8B811090A5173D0F833
:10484000B811090C9173D0F8B811090ED173D0F8D2
:10485000BC111174D0F8BC11090A5174D0F8BC1104
:10486000090C9174D0F8BC01000ED07441E0D0F86E
:10487000B41101F00F01092906D34AF67833C0F6C6
:104880000003194411F8091CD172D0F8B4310D1F7E
:10489000C3F3401382F84E30D0F8B431C3F30013A1
:1048A00082F84F304FF0FF3303EB9103B3FA83F3F9
:1048B0004FEA531318BF01252B4003EB91010C3233
:1048C000019291B1D0F8B821019B01391A60019A87
:1048D0000B0602F104020192F4D10AE04AF63550C7
:1048E000C0F6000005F0E8FE03E0D0F8B801019939
:1048F00008601020002E08BF0C20215841F0200134
:10490000215002B070BD15294AF6222C88BF05211E
:10491000C0F6000C48B13CF831300CEBC102A0F8F5
:10492000013093789288C37042810CEBC100C0883B
:1049300040EA014070470000F0B581B082680D4642
:10494000520107D48168090106D48168C90005D4E1
:10495000032789E0002702E0012700E0022700EB9F
:104960000716D6F8801101F00101C6F88011297AE6
:1049700019B16A6841EAC20201E029684A056B7A06
:1049800095F84D10D6F880411A432243C6F880218D
:1049900049B1006AC0071BD14AF63550C0F6000085
:1049A00005F08AFE5AE0D6F8840120F0BF00C6F870
:1049B0008401287BD6F884110843C6F88401D5F811
:1049C0000D00C6F88801D5F81100C6F88C0145E045
:1049D000287B092801D2024613E04AF678330022E8
:1049E000C0F600039C5CA0420AD00132072AF9D12C
:1049F0001FA005F061FE287B95F84D10002200E015
:104A0000093295F84E3095F84F4042EA431242EA97
:104A1000041242EAC111C6F884114FF0FF3101EBD4
:104A20009001B1FA81F14909021F18BF012211401A
:104A300001EB900005F10D01009158B1009901388A
:104A400009680206C6F88811009901F10401009175
:104A5000F4D103E000980068C6F88801D6F8800118
:104A600040F00100C6F88001384601B0F0BD00BF3B
:104A7000646C656E20697320696E76616C69640A86
:104A8000000000002DE9F04F81B004460068C268C4
:104A9000920740D00D4641F2284104EB010942F64D
:104AA0001461C2F2000101EB850202F5A67705EB65
:104AB000051201EBC20104F1700804F16C0A01F166
:104AC000100641F2B03B00BF616F3F2912DC226E3D
:104AD0000021FFF781FE206E616F00F150028572A8
:104AE0004A4588BFA0EB0B02481C2266606750460F
:104AF00004E000BF002102F0F9F9404601680131ED
:104B000001603868013038603068013030602068FA
:104B1000C1688907D8D101B0BDE8F08F80B540F2F7
:104B2000045002F0B2FF40F2025002F0AEFF4FF428
:104B3000C06002F09BFF40F2026002F097FF40F27B
:104B4000036002F093FF40F2046002F08FFF40F236
:104B50001C7002F08BFF40F20C5002F087FF40F215
:104B6000197002F083FF40F21A7002F07FFF40F2EA
:104B70000E6002F07BFF40F20B6002F077FF44F220
:104B8000E431C2F200014FF400024FF400000A6069
:104B9000BDE8804002F0A7BF80B584B036228DF812
:104BA0000020026843688068CDF80120AA228DF8B1
:104BB00005202522CDF806308DF80A20CDF80B000F
:104BC0009B208DF80F00684601F068FB9DE80F0000
:104BD00048405040584004B080BD0000B0B500F0DF
:104BE000010442F6F810C2F2000050F824002146F9
:104BF00085680020C5E91B00C5E901000BA005F090
:104C000023FDD5E91B234BF26720C0F600002146A7
:104C100005F01AFDD5E901234BF27E20C0F6000015
:104C20002146BDE8B04005F00FBD00BF2043482538
:104C30006420436C6561722052582F545820436F92
:104C4000756E746572732E0A00000000B0B590F89E
:104C500006E0BEF1040F28BF4FF0040EBEF1000FB6
:104C600008BFB0BD818844F2203C09BA0A0C0EEBA3
:104C700002013F294FF00003C2F2000C4FF0000187
:104C800088BF8EF03F0200BF00EB4304B4F807403A
:104C9000013124BA9D188BB2240C9E452CF8154086
:104CA000F2D8B0BD7047000042F61461C2F20001B4
:104CB000D1F82421D1F824319B1A834228BF7047B0
:104CC00000BFF7E770B543F60045C0F600054FF6A4
:104CD000FF76A81C0021802202F4607330F8024C99
:104CE0002B431B880CB9B34215D001318030082901
:104CF00002F18002F0D144F2A034C2F2000400209C
:104D0000208002F091FB208805EBC01002F052FBDE
:104D100002F047FB05E044F2A032C2F2000211802B
:104D20000688304670BD000080B544F2A030C2F263
:104D30000000018843F6024CC0F6000C01F00702A7
:104D400002804FEAC21E4CEAC21044F22032831C99
:104D50000020C2F2000200BF195A115202307C2812
:104D6000FAD14EEA0C000088A2F87C0080BD44F223
:104D70002032C0B2C2F2000232F810000880704740
:104D80002DE9F04144F2A036C2F20006308844F228
:104D9000203400F00700C2F2000443F600483080DF
:104DA00020463E21C0F6000800F060FA054602F0F9
:104DB0003BFB31884FF48072481C00F0070002EB87
:104DC000C111308001F4607131F808204FF6FF7393
:104DD0009A4204D041EA080002F0ECFA308808EB6D
:104DE000C010290402F033FB002700BF308808EB15
:104DF000470101EBC01054F81710043002F027FBF4
:104E0000B91C8FB23E2FF1D3054602F0CAFA2846EC
:104E1000BDE8F08144F22033C2B2C2F2000308467A
:104E200023F812107047000070B544F2E03CC2F263
:104E3000000CD0F83064BCF9001040291BDB44F2B0
:104E4000DE3142F6727406F14A020023C2F200011A
:104E5000C2F20004B1F90050655DD5540D880133EC
:104E600001356FF3DF25402B0D80F3D1BCF8001026
:104E70004023403923E0BCF9001001291CDB44F237
:104E8000DE3342F6727E0021C2F20003C2F2000E4F
:104E9000002200BFB3F9004031441EF80440013243
:104EA00081F84A40198801316FF3DF211980BCF97C
:104EB000004091B2A142EDDBBCF800300021ACF81B
:104EC000001006F14A028121BDE8704004F09BBF4A
:104ED0002DE9F04381B0D0F8306480460120707035
:104EE00044F25400C2F2000000270770B8F8D8025C
:104EF00042F61469C6F88C00C2F20009B9F806102F
:104F00000028C1F301313DD044F256050020C2F221
:104F100000050024002700BF012905D13044817A13
:104F2000284600F03DFA23E0B9F80610304401F4B9
:104F30004052817A2846B2F5005F03D1FFF782FA2A
:104F400016E000BF01F0F6F9B5F8C20280B100200A
:104F5000394600BF2A1892F841204F1C16FA81F1F9
:104F600081F84A20B5F8C212013088423946F1D39F
:104F70000134D6F88C10B9F80620A0B28142C2F3F1
:104F80000131C9D831B906F14A02BBB2404681218C
:104F900004F039FF06F10A0240460321402301B024
:104FA000BDE8F04304F015BF7047B0B540F600040B
:104FB000C4F201042046182101224FF4007302F0CC
:104FC000ABFA2046482101224FF4806302F0A4FA94
:104FD00004F58065284610210222202302F09CFA65
:104FE0002846482103224FF4807302F095FA2846A0
:104FF000182103224FF4007302F08EFA4FF4EA10E6
:10500000012102F0E5FA2846102102224FF4006344
:1050100002F082FA2846482103224FF4805302F01E
:105020007BFA2846182103224FF4005302F074FA49
:105030002046182103224FF4006302F06DFA204647
:10504000182103224FF4805302F066FA04F5006041
:10505000102102224FF4005302F05EFA204648214C
:1050600001224FF4807302F057FA204610210322E8
:10507000012302F051FA2046102103220423BDE847
:10508000B04002F049BA0000FEE70000F0B581B080
:105090000C46054600266FF02F0700BFA85DFFF7FE
:1050A00077F857FA80F10A2902D2D02105E000BF33
:1050B000C1B24139052910D8C921F207014403D1F1
:1050C0000901700803E000BF7008225C114301363B
:1050D000802E2154E2D1402001E0F0B2400801B01E
:1050E000F0BD80B540F60000C4F201004FF48071BD
:1050F00002F069FA42F6707CC2F2000CBCF8003093
:1051000048B10020D908632B88BF012000227C29E8
:1051100088BF022006E04FF47A720020B3F57A7F50
:1051200038BF5A1CACF8002080BD10B544F22034C2
:10513000C2F200042046382100F098F808B100209F
:1051400010BD218842F61460C2F20000C180A1891E
:105150008181E189C181218A0181618A4181C1887E
:1051600001F44051B1F5405F03D1C18821F44051B1
:10517000C1804AF60432C188C0F600021278C1F339
:105180000321914205D3C18821F4706101F540717A
:10519000C180C2884FF0FF3344F2560153FA82F3C4
:1051A000C2F20001F72B81F8C12208D3C28842F075
:1051B000010222F0FE02C280012281F8C1224AF6D9
:1051C000D2218289C0F60001097802F01F028A42CA
:1051D00005D3828942F0050222F01A0282814AF642
:1051E00020228389C0F600021278C3F3022393427F
:1051F00005D3838923F4E06303F500738381C389B6
:1052000003F01F038B4205D3C18941F0050121F052
:105210001A01C181C189C1F30221914205D3C1891B
:1052200021F4E06101F50071C1814FF0FF3010BD44
:10523000FEE70000B0B54FF6FF72A9B14FF0000CC9
:105240004AF2010E10F80C305A4000238EEA520444
:10525000D50703F1010308BF5408082B2246F5D3F4
:105260000CF1010C8C45EDD190B2B0BDB0B54FF64C
:10527000FF72A9B14FF0000C4AF2010E30F81C3059
:105280005A4000238EEA5204D50703F1010308BFF8
:105290005408082B2246F5D30CF1010C8C45EDD1B6
:1052A00090B2B0BD704780B54FF4A06002F0E0FA54
:1052B00043200121002202F0A8FA14200221012239
:1052C00002F0A3FA40200221022202F09EFA2520D9
:1052D00003210122BDE8804002F097BAB0B50C4628
:1052E00094F8C1320268416E204600F8413F4B7A83
:1052F000022B06D083B90B7A042B08D063B9302374
:1053000008E00B7A042B04D033B9402302E0502389
:1053100000E0602384F8423046F20043C4F2000308
:10532000D21A18BF0122CB7A94F8425043EAC21233
:105330002A4384F842200A7A0B1D002A14BFCA7936
:10534000002284F843200A7A04F14105002A14BFA0
:10535000CA88002284F844200A7A002A1A4608BF24
:105360000A461268120A84F845200A7A002A08BF01
:105370000B461A6884F84620D1E90312C4F8471096
:105380000E21C4F84B20FFF755FFA4F84F0000246E
:10539000285D05F069F90134102CF9D1B0BD000089
:1053A000F0B581B0044642F61460C2F20000002558
:1053B000C0F82451B4F8C42200203F2A15D8A01800
:1053C0004170B4F8C402012808D048B994F8C10269
:1053D000401AB0FA80F04509002006E0022504E0FA
:1053E000052888BF0D2804D8451CA4F8C45201B074
:1053F000F0BD0E2835D00F285FD1651C284610213E
:10540000FFF718FF002858D1A17801F0700030385C
:1054100000090328C1F3C01251D842F6F811C2F2B4
:10542000000151F822108A68DFE800F0022E1D23E7
:105430006079A179002541EA0020114641F8100F5A
:105440001583A07800F00F001077D4F80B00D4F883
:105450000730C2F821001068C2F81D30FFF76CFA5F
:10546000BAE70F25C1E7D4F8030000BA5061042061
:1054700005E0D4F8030000BA50614FF401701083C6
:10548000A07802F110010AE06079A17941EA0020D8
:10549000114641F8100F4FF400701083A07800F00F
:1054A0000F001077D4F80B00D4F80730C2F82100B1
:1054B0001068C2F81D30FFF73FFA00258CE701F0B5
:1054C0000F0001380828F8D8DFE800F0054D262A3B
:1054D00017662D3D1A0004F1410630462946102278
:1054E000FEF762FE00270025F05D05F0BDF80137EC
:1054F000102F4FF00000F7D177E7FFF741FCDCE712
:10550000E07900283FD041F20000C4F201004FF4DE
:10551000005101F0FFFFD0E72046FFF797FBCCE7F3
:10552000FFF702FCC9E72046FEF7B0FF04F1410691
:1055300000270025F05D05F097F80137102F4FF098
:105540000000F7D151E72046FEF7C8FF04F14106FD
:1055500000270025F05D05F087F80137102F4FF088
:105560000000F7D141E72046FEF7CFFF04F14106E6
:1055700000270025F05D05F077F80137102F4FF078
:105580000000F7D131E741F20000C4F201004FF40E
:10559000005101F0BDFF90E7012080F3138801F076
:1055A00011FA42F61461C2F20001CA8802F44052B4
:1055B000B2F5805F18BF7047D1F82411652924BF68
:1055C0000021A0F8C41270477047000010B50020F9
:1055D00002F0C6F9014614A005F036F8012002F0E9
:1055E000BFF9014615A005F02FF8022002F0B8F926
:1055F000014617A005F028F8032002F0B1F9014692
:1056000018A005F021F842F61464C2F20004D4F8A0
:10561000241119A005F018F8D4F828111BA0BDE832
:10562000104005F011B800BF20434B5F5359532081
:1056300020203D20256C640A0000000020434B5FC1
:105640004148422020203D20256C640A00000000D3
:1056500020434B5F4150423120203D20256C640A9D
:105660000000000020434B5F4150423220203D208B
:10567000256C640A00000000205449434B20202080
:1056800020203D20256C640A000000002053544176
:105690004D50202020203D20256C640A0000000091
:1056A0002DE9F04742F6146AC2F2000A9AF8200186
:1056B00000EB00100AEBC000868A1CA004F0C4FFB7
:1056C0004BF2F42800270FF26C09C0F60008002402
:1056D000002500BF9AF82001F11900EB001001F03D
:1056E0003F010AEBC00000EB4100C18A4846A142DD
:1056F00038BF0C46A94288BF0D4604F0A5FF07F04D
:105700000700072802D1404604F0D6FF0137402F9A
:10571000E0D10AA004F098FF9AF8201117A02246C1
:105720002B46BDE8F04704F08FBF00BF4F6C6465A7
:1057300073740A0025366420000000002020202019
:105740002020202020202020202020202020202059
:105750002020202020202020202020202020202049
:105760002020202020202020202020202020202039
:1057700020204E65776573740A00000043414E2572
:1057800064205258207370656564206174206C61D8
:105790007374203634207365636F6E64732E204DEE
:1057A000494E3D2564667073204D41583D25646621
:1057B00070730A0010B544F22034C2F20004A01C39
:1057C0006C21FF22FEF702FD42F61460C2F20000D7
:1057D0000021C180C288012342F0010222F0FE02B2
:1057E000C280C28822F4706202F54072C280C28810
:1057F00022F44052C280C28863F39F32C280C288C2
:1058000022808181828942F0050222F01A0282817F
:10581000828922F4E06202F5007282818289C2816B
:105820008289A281C289E2810181018941F001015D
:105830000181018921F002010181018941F0040106
:105840000181018921F030010181018921F48071F8
:105850000181018941F400710181018921F4806194
:105860000181018941810189218240894021608231
:105870000020CFF6FF7060611120C0F28700A061A8
:1058800004F12000FEF7A9FC10BD10B590F8CE1071
:10589000032938D143F27471C2F200010A6801325F
:1058A000052A0A602FD300220A6040F24C01C2F29E
:1058B0000001096839B344F2AA34C2F20004217825
:1058C00009BB44F2DE3C44F2E232C2F2000CC2F206
:1058D0000002BCF8003011888B4214D0B2F90010DD
:1058E000BCF9003012889942BCF80010B8BF02F52C
:1058F0000062511A44F2E032C2F200021180FFF756
:1059000093FA01202070002010BD704710B542F6B8
:105910001460C2F20000C18844F22034C2F20004D4
:1059200021808189A181C189E18101892182408908
:10593000372160822046FFF799FCA4F86E00BDE88D
:105940001040FFF71DBA00002DE9F04F85B042F678
:10595000146AC2F2000A0646DAF8248156F8105B8F
:105960008346E869B0F1FF3F40F324814FF000091E
:105970008AF821919AF820010AEB8000D0F834418E
:10598000012CC0F2668142F60047C4F201070BF118
:105990001D000490039401F0A3FD38460021CAF8CD
:1059A000289103F03FFA00BF28463146FEF7C4FFB6
:1059B0000446384603F034FAB0F57A7F00F21E81CF
:1059C000032CF1D09AF82001C1460AEB400000896F
:1059D00040050DD42846214601F0FCFBDAF82811D9
:1059E0008046B1F57A7F00F21381B8F1010FF1D151
:1059F0009AF8200143F27871C2F200010B4631F8A7
:105A0000101001318AB2032A23F810100ED39AF82D
:105A1000200143F27871C2F20001032221F8102024
:105A20009AF820010021504480F856119AF820017C
:105A30000121504480F84A119AF82001C8460AEB27
:105A4000400000894FF00009800551D59BF81910DE
:105A50009BF8180081B1142300289AF82011DBF874
:105A6000042008BF10235BF803309CA093A408BF58
:105A7000204604F0E9FD3BE0142300289AF82011A9
:105A8000DBF8042008BF10235BF803309BF81CC030
:105A90009AA04BF2FC24C0F6000408BF2046CDF8C3
:105AA00000C004F0D1FD9BF85D0028B14AF64F50CC
:105AB000C0F6000004F000FE9BF81C00C0B10024FA
:105AC0000498015D4BF2F620C0F6000004F0BCFD26
:105AD00004F00F000F2805D14AF64F50C0F6000021
:105AE00004F0EAFD9BF81C0001348442E8D300BFB7
:105AF0004BF2F420C0F6000004F0DEFD9AF820011D
:105B00000AEB40000089C00505D5DBE9040101303E
:105B10000131CBE90401DBF804000130CBF80400CB
:105B20009AF82101039C002840F090809AF8200107
:105B300042F211710AEB8000D0F83C01013C88422E
:105B40001DD300BFDAF828019AF8201164220AEB6D
:105B50008101D1F83C115043884227D2DAF828015C
:105B600048F29F61C0F2010188421FD801F0B8FCE1
:105B70009AF821010028E5D08AF8219116E09AF8D8
:105B800020010AEB8000D0F83C0178B1384603F0E0
:105B900047F99AF820110AEB8101D1F83C118842AB
:105BA00004D2DAF82801C828F0D300BF002C3FF750
:105BB000F1AE4EE04AF65C60C0F6000004F07CFDF9
:105BC0009AF820419AF820010AF1080131F81000F2
:105BD000C0F301159AF8200131F81000C0F301104C
:105BE000FEF786FD03464BF2A720C0F600002146D3
:105BF0002A4605B0BDE8F04F04F026BD4BF249102F
:105C0000C0F60000214605B0BDE8F04F04F01CBD11
:105C10002846214601F0C0FA43A0414604F014FD95
:105C20009AF820010121504480F856119AF8200179
:105C300043F278720021C2F2000222F810109AF8A2
:105C400020010221504480F84A1134E000208AF8F3
:105C500021019AF820010AEB8000D0F83401652870
:105C600029D3DAF824019AF820110AF59A7252F829
:105C700021104FF47A734B439AF820119AF820714F
:105C8000A0EB0800B3FBF0F652F827209BF8187041
:105C90004BF299334BF24635C0F60003C0F60005CF
:105CA000002F08BF2B4600904BF28300C0F6000087
:105CB000019604F0C9FC05B0BDE8F08F20545825CA
:105CC000643A253038642052454D4F5445204D5399
:105CD000472049443D307825303458002054582519
:105CE000643A253038642052454D4F5445204D5379
:105CF000472049443D3078253038580020545825F5
:105D0000643A253038642044415441204D534720A3
:105D100049443D307825303858204C454E3D256467
:105D200020444154413D00002054784661696C652F
:105D300064205374617475733D3078253032580A8D
:105D400000000000F0B585B000F0010442F6F81044
:105D5000C2F2000050F824002146806805684BF22A
:105D60007A10C0F600002A4604F06EFC2A684BF256
:105D70006310C0F60000214604F066FC6A684BF22E
:105D80009110C0F60000214604F05EFCAA684BF2B8
:105D9000A810C0F60000214604F056FCEA684BF259
:105DA000BF10C0F60000214604F04EFC2A692EA068
:105DB000214604F049FC6A6931A0214604F044FC04
:105DC0002A6A35A0214604F03FFC6A6A38A02146C1
:105DD00004F03AFCAA6A3CA0214604F035FCEA6AC9
:105DE0003FA0214604F030FCAA69D5F818E0A96963
:105DF000C1F3074CAB69C3F30211AB69C3F3800075
:105E0000AB69C3F34006AF69CDE900C1CDE9020635
:105E10004BF2D6104FEA1E6307F00107C0F60000F0
:105E20002146049704F010FCEA69E869E969C1F3C6
:105E3000807CEB69C3F30167EB69C3F30256EB693E
:105E4000C3F30341ED69C30F4BF224206FF39F2589
:105E5000CDE900C7CDE90261C0F6000021460495F6
:105E600004F0F2FB05B0F0BD2043414E25645F52C3
:105E70004649464F313D30782530384C580A0000AD
:105E80002043414E25645F494E54454E203D3078B5
:105E90002530384C580A00002043414E25645F46A7
:105EA0004443544C203D30782530384C580A00008B
:105EB0002043414E25645F4644535441543D30785D
:105EC0002530384C580A00002043414E25645F4677
:105ED00044544443203D30782530384C580A000063
:105EE0002043414E25645F4442542020203D3078B9
:105EF0002530384C580A0000F0B581B000F001049C
:105F000042F6F810C2F2000050F824004AF62221AE
:105F1000866842F61460C2F2000000EB4407B889BC
:105F2000C0F6000100F01F0001EBC000C28819A0FC
:105F3000214604F089FBB889C0F30221388900F0BA
:105F4000010218A004F080FB3889C0F301153889DC
:105F5000C0F30110FEF7CCFB02464BF29A20C0F6CC
:105F60000000294604F070FBD6E91B234BF26720A2
:105F7000C0F60000214604F067FBD6E901234BF28E
:105F80007E20C0F60000214601B0BDE8F04004F0DC
:105F90005BBB00BF204348256420424155443D255A
:105FA0006C646B00204644424155443D25644D20BD
:105FB0004644454E3D25640070B504461AA021466E
:105FC00004F042FB44F22035C2F20005A88A012108
:105FD00001FA04F619A106421AA016A208BF11463A
:105FE00004F032FBE88A1BA106421BA018A208BFDE
:105FF000114604F029FB288BE04000F0010119A0B4
:1060000004F022FB05EBC404208C618C41EA0041C2
:1060100016A004F019FBA08CE18C41EA004116A007
:10602000BDE8704004F010BB2066696C7465722096
:106030002564000069646D61736B000069646C69BC
:1060400073740000204D4F44453D2573000000004F
:106050003136000033320000205343414C453D258A
:1060600073000000204143543D2564002052303D20
:1060700030782530385800002052313D30782530B6
:1060800038580A00B0B542F61465C2F20005E88837
:1060900041F20004C0F30130C4F2010448B3022805
:1060A00070D0012818BFB0BD20464FF4005101F058
:1060B0002FFAD5F82401D5F82411091A632905D837
:1060C00000BFD5F82411091A6429F9D320464FF4EA
:1060D000005101F01FFAD5F82401D5F82411091A4E
:1060E00063294FD800BFD5F82411091A6429F9D3C0
:1060F00048E020464FF4005101F00AFAD5F8240197
:10610000D5F82411091A632906D800BF00BFD5F8B5
:106110002411091A6429F9D320464FF4005101F0E3
:10612000F9F9D5F82401D5F82411091A632905D8FD
:1061300000BFD5F82411091A6429F9D320464FF479
:10614000005101F0E5F9D5F82401D5F82411091A18
:10615000632905D800BFD5F82411091A6429F9D399
:1061600020464FF4005101F0D5F9D5F82401D5F8B7
:106170002411091A632905D800BFD5F82411091A7A
:106180006429F9D320464FF40051BDE8B04001F036
:10619000BFB903F0E3B800004EF68851CEF200011B
:1061A0000A6841F2000042F47002C4F202000A6080
:1061B00001684FF6FF7241F001010160002141606A
:1061C000C1620168CEF6F622114001604FF47F01F2
:1061D0008160016821F480210160016841F480310F
:1061E00001604FF6FE7100BF03684A1E8A4203D267
:1061F00013F400311146F7D00168890301D400BFC0
:10620000FEE742F20001C4F202010A68032363F3CD
:1062100002020A6041684FF6FF7241604168CDF6A4
:10622000C3724160416841F480614160416811403E
:10623000416041684FF2000241F0005141F45411B5
:106240004160C16ACBF6FE721140C162C16A41F47D
:10625000843141F01901C162016841F0806101603F
:1062600001680901FCD5016841F08071016000BF3F
:1062700001688901FCD5416821F003014160416852
:1062800041F00201416000BF41680907FCD54FF0B1
:1062900000604FF4804101F0F5BA00002DE9F047AD
:1062A000D0F800A0846847F6B91E4FF000084FF000
:1062B000150CC9F6376E00BFF044C8F381090026FB
:1062C00000EB86077F68BA00FD0882EA541285EA6F
:1062D00004152A4486EA090551F8255087EA08037F
:1062E0006C4023445A4002EB0A0440F82640013631
:1062F000022EBA46E4D1D0F800A082684FEA8A03A1
:106300004FEADA0583EA541385EA04152B4489F031
:10631000020551F825508AEA08066C40344463406F
:106320009C185FEA0C628460ACF1010C08BFBDE808
:10633000F087C1E770B5044600200D46A4F8C202FC
:10634000FDF722FF0068405D10F03E0F19D0B4F851
:10635000C6620120FF2EA4F8C20284F841501DD865
:106360002846FDF71BFF711CA4F8C612A11981F87D
:10637000C10013E0B0F5807F24BF0020A4F8C20262
:1063800070BD1A2D1DDCA5F10800082825D8DFE80E
:1063900000F0082E052E2E462E2E7700B4F8C202ED
:1063A000E8E742F20800A4F841000320A4F8C20282
:1063B000B4F8C6020821002884F84310EED0013852
:1063C0009FE01B2D6FD01D2D11D1B4F8C802411CC8
:1063D0000AB2012AC8BF411E6CE0032D07D142F664
:1063E0001460C2F20000012180F82111D6E742F6C4
:1063F0001060C2F2000000682909415C0122A4F883
:10640000C22284F8411005F00F01405C84F842007C
:106410000320A4F8C202202084F84300BEE740F61F
:106420000D20A4F84100B4F8C6020221FF28A4F808
:10643000C21263D804F1C10100220A540120A4F859
:10644000C6222070B4F9C80200EBD07222F001021B
:10645000801A43F65442C2F20002A4F8C80202EBCA
:1064600040204FF40072FDF7D5FEB4F9C8020130A8
:1064700000EBD07121F00101401AA4F8C8028DE7A9
:1064800042F61460C2F2000090F8201100EB4100C7
:106490000189028901F4007122F40072114481F42F
:1064A000007101817AE7B4F8C802411E0AB2002ADD
:1064B00048BF411C43F65445A4F8C81209B2C2F2C1
:1064C000000504F1C10005EB41214FF40072FDF716
:1064D000A1FEFDF7ABFEA4F8C602B4F9C81204F1A0
:1064E000410005EB41214FF40072FDF793FEFDF7EB
:1064F0009DFE014680B2A4F8C2123BE7002084F85A
:10650000C001A4F8C60249E72DE9F04182B0016854
:1065100046F20042C4F20002891A42F61462C2F244
:106520000002466E18BF012102EB4102128992055A
:106530005CBF02B0BDE8F081737A327A63B12CA5FA
:10654000002A826E18BF0436336821A708BF3D4673
:10655000284604F079F834E0002A826E30464AF684
:1065600052572BA518BF04300368F47AC0F6000711
:1065700008BF3D462846009404F066F896F84D00A2
:1065800028B14AF64F50C0F6000004F095F8F07AB2
:10659000B8B14AF64F5806F10C07002527A4C0F6FB
:1065A000000800BF795D204604F04EF805F00F00AA
:1065B0000F2802D1404604F07FF8F07A0135854279
:1065C000F0D320A002B0BDE8F04104F075B800BFE0
:1065D00020525825643A253038642052454D4F5496
:1065E00045204D53472049443D30782530345800EC
:1065F00020525825643A253038642052454D4F5476
:1066000045204D53472049443D30782530385800C7
:1066100020525825643A25303864204441544120A2
:106620004D53472049443D307825303858204C455B
:106630004E3D256420444154413D000025303258F0
:10664000200000000A000000704710B584B042F638
:106650000044C4F20104204602F0E6FB77200090DB
:1066600000204FF6FF71ADF804000291ADF80C0068
:106670008DF80E006946204602F07FFC204602F0AD
:1066800077FC04B010BD00004AF6D4220021C0F609
:10669000000200BF52F82130834203D901310C2996
:1066A000F8D10C21C8B270474AF6D4220021C0F6B6
:1066B000000200BF52F82130834208BF7047013109
:1066C0000C29F7D14FF4E1307047000010B582B0CB
:1066D00043F600000021C4F20100ADF80610016885
:1066E000090703D54168C9B2ADF8061001688906EB
:1066F00049D544F25401C2F2000101220A7002F0AD
:106700006DFFADF8060042F61460C2F20000C188C9
:1067100001F44051B1F5805F09D1BDF80600C1B266
:1067200044F25600C2F20000FEF73AFE2BE0C088A9
:1067300000F44051BDF80600B1F5005F07D1C1B2C9
:1067400044F25600C2F20000FDF77CFE1BE044F26A
:106750005604C2F20004C1B22046FFF7EBFD002050
:10676000ADF80600BDF80600B4F8C21288420AD29D
:10677000BDF80600204490F8410000F041F8BDF853
:1067800006000130ECE702B010BDB0B542F614606F
:10679000C2F20000C0884AF6D42143F60004C0F3D8
:1067A0000320C0F60001C4F2010451F82050204635
:1067B00002F018FF2846FFF777FF0146204602F057
:1067C000D8FE2046002102F066FF2046002102F09C
:1067D0007EFF2046002102F06CFF2046082102F0D7
:1067E00070FF2046042102F05EFF204640F2053192
:1067F00002F046FF2046BDE8B04002F030BF000086
:1068000043F60001C4F201010A681206FCD56FF3D9
:106810005F20486008684006FCD5704743F28070EE
:10682000C2F2000003F008BC80B543F28070C2F2EF
:106830000000C07968B1FFF7AFFCFEF76FF940F2D6
:106840000C5001F013F943F28070C2F2000002F024
:106850009DFF4FF48020BDE8804000F09CBD4FF2CA
:10686000E070C1F6FF70008844F2A831C2F2000166
:106870000880800244F2A43100F10060C2F20001FD
:1068800008607047FEE70000B0B544F2AA35C2F2D6
:1068900000052978044621B100F022FE287800285E
:1068A000FAD140F24C00C2F200000021016044F233
:1068B000E231C2F20001B1F9002042F67273C2F275
:1068C00000039C540A8801326FF3DF220A804FF0E4
:1068D000FF320260088844F2DE31C2F2000101306A
:1068E000B1F900106FF3DF20884218BFB0BD0A2055
:1068F000BDE8B040FEF7D8B980B500F001FE4FF416
:106900007A70052100F0BAFD00F0EAFDBDE8804094
:1069100000F0EEBD2DE9F04143F2807841F2000431
:10692000C2F20008C4F2010498F8CE6020464FF489
:10693000005100F0EFFD032E08BFBDE8F08142F6E4
:1069400014670026C2F20007D7F82401D7F82411F3
:10695000091A312906D800BF00BFD7F82411091A37
:106960003229F9D320464FF4005100F0D1FDD7F879
:106970002401D7F82411091A312905D800BFD7F806
:106980002411091A3229F9D31E2E0DD2013600F036
:10699000A7FD98F8CE5020464FF4005100F0BAFD04
:1069A000032DD1D1BDE8F08120464FF4005100F015
:1069B000AFFD44F25400C2F2000001210170BDE8B5
:1069C000F08100004EF60C50BFF34F8FCEF2000066
:1069D0000168042201F4E061C0F2FA52114301603F
:1069E000BFF34F8F00BFFDE74EF60C50BFF34F8F44
:1069F000CEF200000168042201F4E061C0F2FA5214
:106A000011430160BFF34F8F00BFFDE7D0F82804AA
:106A10004068817811807047D0F8280400680178B8
:106A200011807047B0B50C460978054601F00301A6
:106A300002290FD031BB95F8CE00022803D095F87B
:106A4000CE0003281ED1608801281BD1002085F8C4
:106A50001A04B0BDA08895F8CE10032912D1618820
:106A600071B940F08001C9B2802909D0C1B228466D
:106A700003F034FAD5F82C042146C2682846904722
:106A80000020B0BD0120B0BD90F8CE2000F1CC01B7
:106A9000032A05D0022A01D10A7822B101207047C9
:106AA0000A78002AFAD0C0F8D8100121C0F8E41002
:106AB0000020704770B50D460978044601F00301C7
:106AC00001290BD0002944D1698801200A0A022A31
:106AD0000BDC012A14D0022A2CD03BE0D4F82C0481
:106AE0002946C2682046904734E0032A1ED00F2A68
:106AF00030D1D4F8280480688178A4F8E41026E026
:106B00004AF61850C0F6000000EB820050F8043C32
:106B100004F1E406C9B2204632469847E988C4F831
:106B2000D800402904BF0820306012E001F0FE00C8
:106B300005280ED84AF61850C0F6000000EB820077
:106B400050F8043C04F1E402C9B220469847C4F866
:106B5000D8000120D4F8E41099B1EA888AB19142B2
:106B60000CD2B4F8D40081420AD3B1FBF0F202FB9C
:106B7000101028B9012084F8250401E0C4F8E420AD
:106B8000002070BD024690F8CE0003281CBF0120F3
:106B90007047888810F0FE0F4FF0010018BF704753
:106BA000D2F82C140131C2F8D810C2F8E400002049
:106BB00070470A78898802F00302022A1FD0012A4E
:106BC00013D052BB90F8CE10022903D090F8CE100B
:106BD000032922D190F8182490F81A14002A18BF1B
:106BE0000122002918BF911C21E090F8CE2011F05D
:106BF000FE0F4FF0010129D1032A1DD026E090F8A5
:106C0000CE20032A09D10A0609D4C9B2C1EBC101B9
:106C100000EB810101F2762108E0012116E001F08C
:106C20007F01C1EBC10100EB8101D231097843F250
:106C30007C72C2F20002117043F27C71C2F2000158
:106C4000C0F8D8100221C0F8E410002108467047AF
:106C5000012070478A8852B9CA8842B9897801F000
:106C60007F0180F8CD1090F8CE20032A01D10120B9
:106C7000704742690029136823F4FE6313601368A8
:106C800043EA011313600CBF0121022180F8CE10EA
:106C90000020704770B50446488843F27E76C2F201
:106CA000000610F0FE0F307001D0012529E094F8A5
:106CB000CE10032910D00229F7D1010620D0D4F834
:106CC0002C144A68C1B220469047307884F8CC0032
:106CD000032084F8CE0013E0010614D094F8CC20F1
:106CE000C1B28A420CD0D4F82C0482682046904766
:106CF000D4F82C0431784268204684F8CC109047B0
:106D00000025284670BDD4F82C0400218268204656
:106D100000259047307884F8CC00022084F8CE001B
:106D2000EFE70020704780B50A7802F00302022ADC
:106D30000FD0FAB990F8CE20022A03D090F8CE20D6
:106D4000032A17D14988012904BF012180F81A14A8
:106D50000EE08A8890F8CE30032B0BD1498839B9E0
:106D600042F08001C9B2802902D0D1B203F09DF86F
:106D7000002080BD012080BD80B590F8CE20032A80
:106D800003D18A8812F0FE0F01D0012080BDD0F817
:106D90002C24126902B19047002080BD002070476A
:106DA000D0F82804C06850F821000178118070479D
:106DB00046F20061C4F200010A6800F03F0042F0B0
:106DC00001020A600A6822F47C520A600A6842EAF8
:106DD00000200860086820F001000860704710B5C6
:106DE00046F20041C4F2000140F21A44884208BF52
:106DF00040F21944204600F067FE2046BDE81040EE
:106E000000F052BEB0B5B9B1026840F2010E22F0F6
:106E1000020202600268CFF6FF7E42F00102734672
:106E2000026000BF426823B112F0010203F10103C6
:106E3000F8D04268D20701D1002154E00B7C4FF01A
:106E4000E0654C7C05EA03638D7C64F3134305F035
:106E500007048D8A43EA04536C1E6FF39F24234476
:106E60004A7891F802C0C362D1E90234012A44EAA7
:106E7000030444F0040308BF24F00403BCF1010F31
:106E800015D1D1F804C0BCF1000FD5D0DCF800203A
:106E90009CF8055002F020021A4342F010039CF8BF
:106EA000042002F07F0265F30E22826201E023F0EB
:106EB0001003097823F00102012908BF43F0010201
:106EC0000262016821F00101016000BF4268714661
:106ED000BEF1000F04D012F0010201F1010EF5D154
:106EE000002918BF01210846B0BD000029B10129C1
:106EF00002D1102102E000BFFEE70C210A5842F047
:106F000020020A507047B0B546F20061C4F2000199
:106F100044890A684FF0010C42F001020A60CB6913
:106F20000CFA04F5AB43CB61C3896FEA050C012B66
:106F300010D023BBCB6803EA0C03CB60B0F806E0AB
:106F4000438843EA0E434FEAC40E01EBC4042364B2
:106F500003460DE0CB682B43CB60B0F800E04388DC
:106F600043EA0E434FEAC40E01EBC4042364831DBD
:106F700084881B8843EA044301EB0E04636483891D
:106F80004C68002B44EA050208BF04EA0C024A6080
:106F900002894B69002A43EA050408BF03EA0C048E
:106FA0004C61007C012802D1C8692843C861086887
:106FB00020F001000860B0BD2DE9F041026840F208
:106FC000010C22F0020202600268CFF6FF7C42F060
:106FD00001026346026000BF426823B112F0010261
:106FE00003F10103F8D04268D20704BF0020BDE8D6
:106FF000F081036ADA0724D143F0010202620A78C1
:1070000091F801E08C789207CD7804F00F0804F035
:1070100070046EF31C624E8942EA841205F0070781
:1070200005F0180542EA0842013E42EA85226FF364
:107030009F2642EA07523244C26123F001020262F3
:107040001DE00A7891F801E08F789207CE7807F07A
:107050000F0507F070076EF31C624B8942EA871236
:1070600006F0070406F0180642EA0542013B42EA30
:1070700086226FF39F2342EA04521A44C2610268D7
:107080000F7922F080034E798D79CC79012F08BFDA
:1070900042F0800303600268012E22F0400308BF23
:1070A00042F0400303600268012D22F0200308BF74
:1070B00042F0200303600268012C42F0100308BF75
:1070C00022F0100303600A7A0368012A23F00807FC
:1070D00008BF43F008070760497A0268012922F0D7
:1070E000040308BF42F004030360016821F00101BA
:1070F000016000BF42686146BCF1000F04D012F08D
:10710000010201F1010CF5D1002918BF0121084647
:10711000BDE8F081426922EA01014161704742699C
:10712000114341617047000081B1042810D880B537
:10713000DFE800F0030F18292C004FF08060886012
:10714000002048604FF40030086080BDFEE700BFBB
:10715000FEE700204FF480320874CA60086048607F
:10716000886080BD4FF4806088824FF40070088290
:107170000120887400204FF4807288700A80C1E971
:107180000100C86080BD08464E2101E008464F213D
:10719000FDF723F880BD000002290BD0012911D092
:1071A000B9B9816841F08001816000BF816809063A
:1071B000FCD40EE0816841F400018160816809021D
:1071C000FCD406E0816841F40041816081680904D3
:1071D000FCD47047022910D849B210A252F82110ED
:1071E0008068084040F2FF21C0F60001884206DCBA
:1071F00018B10321C0F200410AE00220704740F2BA
:107200000031C0F60001884206D00021C1F203011E
:1072100088421CBF00207047012070470300000413
:10722000000300080000031010B58121044602F09D
:10723000B9FD2046032102F0B5FD2046822102F06F
:10724000B1FD002010BD80B5012929D1C1EBC101DC
:1072500000EB8102D2F8DC1061B1B2F8D420B1FBAE
:10726000F2F303FB121129B901210022002302F0DD
:10727000CAFD15E044F2E031C2F20001098800299C
:1072800044F2AA31C2F2000106D140F24C030022BE
:10729000C2F200030A701A60097809B1FDF7C4FD53
:1072A000002080BDB0B54AF60535C0F6000505F1F1
:1072B0003C01044602F0C1FD05F13501204602F013
:1072C000BCFD05F12501204602F0B7FD43F6BC31B7
:1072D000C2F2000140F20110088000204FF4E132B8
:1072E000C1E92302A1F89400082081F8960000204B
:1072F000C4F83014B0BD032904D180B5FDF7E8FD12
:10730000BDE88040002070474B78D0F83024212B16
:107310000ED0202B1CD1D0F82C34C9884FF0200C73
:1073200083F801C0C0F88812911CC0F87C120FE0ED
:10733000D2F8901042F8021F92F89210B2F89330EF
:1073400011710721A2F80530C0F8D820C0F8E41068
:107350000020704710B50446D0F82C044078FF2870
:1073600017D0D4F830044023D0F80210C0F89010A1
:107370008179B0F8072080F89410A0F8952000F1EA
:107380000A022046032102F024FDD4F82C04FF2138
:107390004170002010BD40F21441C4F201010860A8
:1073A000704742F21000C4F20200016841F080010F
:1073B00001607047B0B5044600F016F800B1B0BDEA
:1073C00042F21005C4F20205286840F0020028606D
:1073D0006C60286840F04000286000F005F82968DB
:1073E00021F002012960B0BD002142F20C00CFF66D
:1073F000F071C4F2020000BF0268D20704D001316C
:1074000024BF05207047F7E70168C90644BF042080
:1074100070470168490744BF022070470068032194
:10742000000701EAE070704742F20400C4F2020073
:10743000C168090658BF704740F22311C4F2675172
:10744000016048F6AB11CCF6EF510160704770B5A2
:107450000C460546FFF7C8FF00B170BD42F21006AA
:10746000C4F20206306840F0010030602C60FFF783
:10747000BBFF316821F00101316070BD80B540F281
:10748000020ECFF6F07E43F2000CC4F2000C45F27F
:1074900055527346CCF80020DCF80C2002F00102B3
:1074A0001BB1002A03F10103F6D16AB9CCF804102C
:1074B000DCF80C10BEF1000F01F0020103D000292E
:1074C0000EF1010EF4D109B1002080BD6FF31F3021
:1074D000CCF808004AF6AA20CCF80000012080BDB4
:1074E00043F20000C4F200004AF6AA21016070478E
:1074F00043F20000C4F200004CF6CC41016070473A
:1075000043F20000C4F2000045F25551016070479B
:1075100041617047016170472DE9F047CF0601F0E6
:107520000F0C09D5042A05D1C26B4CF0030C1A4389
:10753000C26301E04CEA020C00F1100E00F11408E5
:1075400000244FF0010A4FF00F0900270AFA07F252
:107550001A4010D0056809FA04F6B5430CFA04F68F
:10756000282946EA050603D0482903D1754600E0DC
:1075700045462A6006600137082F04F10404E5D16E
:10758000082400254FF0010A4FF00F090AFA04F20F
:107590001A4010D0466809FA05F7BE430CFA05F701
:1075A000282947EA060703D0482903D1764600E098
:1075B0004646326047600134102C05F1040508BFCF
:1075C000BDE8F087E2E78068084018BF01207047F7
:1075D000B0B50422C4F20102134602F1180E0028CD
:1075E00048BF73461B6800F44014C0F30345B4F56C
:1075F000401F1FFA80FC06D1146823F0E06324F0DA
:10760000E06414600DE0C40206D46FF00F0404EAD5
:1076100050440CFA04F401E00324AC40A34343F0CB
:10762000E06331B16FF00F0101EA50410CFA01F152
:107630000B43002848BF72461360B0BD42F21C00E5
:10764000C4F20200006840F340007047FDF766FA9C
:10765000FDF7ABFCFFF703F9FDF734FBFDF764FB27
:10766000FDF763FD18B9FEF7A5F8FEF74FF9FDF732
:107670001AFEFEF7EAFFFDF797FCFFF73DF940F22F
:107680000800C2F20000006841F25971CDF2B71152
:10769000A0FB01014FF0FF3044F2E83200EB513023
:1076A00049F25F51C2F20002C0F60001B0F1807FE2
:1076B000116000D3FEE74EF21001CEF200014860E7
:1076C0004EF62350CEF20000F022027000208860B7
:1076D00007200860FC20C0F6000004684AF67F31ED
:1076E0004FF2E870C0F60001C1F6FF70FDF754FAE2
:1076F00084425DD141F20000C4F20100A0F50060B7
:107700004FF48071FFF75FFF0020FCF759FF012065
:10771000FCF756FFFFF739F843F2807040F23C0265
:1077200040F20C03C2F20000C2F20002C2F20003F7
:10773000012102F047FCFFF7EDF8FEF7A3FC44F24D
:107740005400C2F200000078012808BF01F018FBC5
:1077500042F6146740F2081444F2560541F280568E
:10776000C2F20007C2F20004C2F20005C2F2000633
:10777000F88810F4405F08BF01F07CFE01F05CFC6B
:1077800001F0C9FD20462946FCF7E0FF30462946B6
:10779000FCF7DCFF002001F0B1FC012001F0AEFCA1
:1077A0002846FDF7FEFE01F015FDFFF799FEDFE725
:1077B00041F2000442F61465C4F20104C2F200056D
:1077C00020464FF40051FFF7A5FED5F82401D5F867
:1077D0002411091A312905D800BFD5F82411091A36
:1077E0003229F9D320464FF40051FFF791FED5F826
:1077F0002401D5F82411091A3129E1D800BFD5F8A0
:107800002411091A3229F9D3DAE74EF60C5CCEF2CC
:10781000000CDCF8003003F4E063A3F54073B3F52B
:10782000A06F03D21B0AC3F1040C08E040F200531E
:10783000C0F2FA53CCF8003002234FF0020C99400A
:107840000F2323FA0CF31A4011434EF20012CEF22A
:107850000002090140EA020383F8001300F01F014F
:10786000012303FA01F11C2303EAD0008150704781
:1078700040F080604EF60C5140F0FD70CEF20001F9
:10788000086070474FF68072C1F6FF7211400843DE
:107890004EF60851CEF2000108607047B0B547F2CD
:1078A0000003C4F200031A6844F2B43E22F003025B
:1078B0001A60D3F800C04EF2001240EA0C00CEF27B
:1078C00000021860D2F8100C44F2B03C40F0040002
:1078D000C2F8100C52F8F00CC2F2000CCCF8000008
:1078E0001068C2F2000ECEF80000536844F2B830BF
:1078F000C2F200000360946844F2BC33C2F2000399
:107900001C6052F8F04C0425C0F201052C4042F8EE
:10791000F04C4FF63D04CFF67F74C2F880406FF410
:10792000E064C2F884404FF0FF34C2F88840002978
:107930000FBF30BF40BF20BF20BFDCF8001042F8AF
:10794000F01CDEF80010116000685060186890604C
:10795000D2F8100C20F00400C2F8100CB0BD0000EA
:1079600010B541F2040EC4F2020EDEF8001001F070
:107970000C01082941F20021C0F27A0146D1DEF85B
:107980000030DB0304D440F6001CC0F23D0C25E0BF
:10799000DEF82830DEF828C05B0046F60043C0F26F
:1079A000DC2358BF0B465FEACC3110D5DEF8281037
:1079B000C1F3031CDEF828100CF1010CC1F3032104
:1079C000B3FBFCF30231112908BF14214B43DEF84D
:1079D000281001F00F010131B3FBF1FCDEF800309B
:1079E0001022C3F38343DEF8001002EA5161194408
:1079F00001220F2938BF022253180F2B11BF03FB9E
:107A00000CF10CEB4C01490001EB5C01DEF80020AD
:107A10000328C2F30313DEF80020C2F3022CDEF8C1
:107A200000400DD80DA2D25C4AF65E3E21FA02F368
:107A3000C0F6000EDFE800F00F02060919460AE062
:107A4000002108E01EF80C0003E0C4F3C2201EF879
:107A5000000023FA00F1084610BD00BF000000003E
:107A600000000000010203040607080941F20003B8
:107A700000F01F018009C4F202034FF0010CC2584C
:107A80000CFA01F11143C150704741F2000300F0BC
:107A90001F018009C4F202034FF0010CC2580CFA16
:107AA00001F11143C150704741F2000300F01F0182
:107AB0008009C4F202034FF0010CC2580CFA01F124
:107AC00022EA0101C150704741F2000300F01F019A
:107AD0008009C4F202034FF0010CC2580CFA01F104
:107AE0001143C150704741F20401C4F202010A6817
:107AF00022F44002104308607047000070B544F261
:107B0000C430C2F20000046864B34BF24A31C0F6DC
:107B100000012046FCF76CFBA0B344F2C830C2F26F
:107B200000000068002871D000210A22FCF7A8FBA1
:107B30004FF0FF3111FA80F1052900F28A8042F6F8
:107B40001464C2F2000494F8201104F10C0232F81B
:107B5000113000F0070023F4E06343EA002022F82C
:107B6000110091E04AF6B670C0F6000002F0A4FDE4
:107B700042F61460C2F2000090F82001BDE87040A7
:107B8000FEF7BAB94BF24F31C0F600012046FCF7C0
:107B90002FFB002800F0998044F2C830C2F20000A8
:107BA0000068002800F0A38000210A22FCF768FB8F
:107BB00042F61466C2F2000696F8201106F1080299
:107BC00032F8113000F0030023F0300343EA0010D4
:107BD00022F8110096F8204196F8200132F81000A2
:107BE000C0F3011596F8200132F81000C0F301101F
:107BF000FCF77EFD03464BF29520C0F600002146BF
:107C00002A4602F021FD96F820015AE091A002F0E8
:107C100053FD42F61460C2F2000090F8201190F873
:107C2000202100F10C0333F8122090F820014AF6CD
:107C3000222502F01F02C0F6000533F8100005EB04
:107C4000C202D288C0F302234BF22D10C0F600000E
:107C50006DE080B2FCF760FD4AF6D221C0F600016B
:107C60000978B1EB104F98BF70BD42F61464C2F2B0
:107C7000000494F8201104F10C0232F81130000CC9
:107C800060F3040322F8113094F8201194F82001D5
:107C90004AF6222332F8100094F8205100F01F0019
:107CA000C0F6000303EBC00032F81530C2884BF277
:107CB0002D10C3F30223C0F6000002F0C5FC94F8B7
:107CC0002001BDE87040FCF77BBC77A12046FCF7A3
:107CD0008FFA80B344F2C830C2F20000006898B353
:107CE00000210A22FCF7CCFA00F0010030E064A089
:107CF00002F0E2FC42F61460C2F2000090F820416B
:107D000090F8201100F1080232F81110C1F30115AA
:107D100090F8200132F81000C0F30110FCF7E8FCE5
:107D200003464BF29520C0F6000021462A46BDE8E6
:107D3000704002F089BC5DA12046FCF759FA58B1A9
:107D4000BDE87040FDF7ACBC0020FDF7FBFF012053
:107D5000BDE87040FDF7F6BF56A12046FCF748FA93
:107D600060B144F2C830C2F200000068C0B1002126
:107D70000A22FCF785FA00F0010017E04FA1204627
:107D8000FCF736FAB0B144F2C830C2F20000006825
:107D9000C8B300210A22FCF773FA00F00100EDE6F7
:107DA00042F61460C2F2000090F82001BDE8704075
:107DB000FCF714BF43A12046FCF71AFA40B344F283
:107DC000C830C2F20000006850B300210A22FCF75C
:107DD00057FA42F61464C2F2000494F8201104F138
:107DE000080232F8113060F3000322F8113094F8E1
:107DF000200136A132F81000C00739A008BF08469C
:107E000002F05AFC5BE70020FEF776F80120B5E6A9
:107E10004AF6B670C0F60000BDE8704002F04CBCF7
:107E20004AF6D850C0F6000002F046FC42F6146054
:107E3000C2F2000090F8201100EB4100008900F030
:107E400001014BF21A20C0F60000BDE8704002F0BC
:107E5000FBBB00BF2063616E2062617564205B62C2
:107E600061756420696E206B6270735D2073657448
:107E70002043414E2062617564726174652E0A0070
:107E80002063616E206D6F6465205B307C317C32D5
:107E90007C335D207365742043414E20776F726B95
:107EA000206D6F64652E0A007265670073706565EA
:107EB00064000000636C656172000000737461749B
:107EC000000000006664656E000000004469736194
:107ED000626C652043414E46442E2E2E0A0000005F
:107EE000456E61626C652043414E46442E2E2E0A3B
:107EF000000000002DE9F04782B044F2C430C2F225
:107F0000000004680020002CADF8060000F093800B
:107F10004DA12046FCF76CF908B344F2C830C2F218
:107F200000000068002800F08C8000211022FCF77F
:107F3000A7F944F2CC31C2F2000109680546E1B369
:107F4000084600211022FCF79BF96FF0070184B26C
:107F500011FA80F0382888BF40247CBB4EE041A154
:107F60002046FCF745F900284DD044F2C830C2F253
:107F700000000068002864D044F2CC34C2F200044F
:107F8000216800295DD000211022FCF779F92168D1
:107F90000446084600211022FCF772F9E4B285B2CB
:107FA00020462946FCF736FF30A0294602F04CFB5C
:107FB00033A0214602F048FB43E04024EDB200200C
:107FC0000FF28C080DF106090FF2900A002600BF8F
:107FD00047193E2F12D8400703D14046394602F0D8
:107FE00033FBB8B24946FCF7C2FEBDF80610504656
:107FF00002F02AFB0136B0B28442E9D84BF2F420F9
:10800000C0F600001BE04BF23731C0F600012046FD
:10801000FCF7EEF818B1FCF787FE20A00FE04BF25A
:108020006331C0F600012046FCF7E2F818B1FCF716
:10803000A7FE21A003E04AF6FE50C0F6000002F0C1
:108040003BFB02B0BDE8F087726561640000000090
:108050000A3078253034582020000000253034586C
:108060002000000077726974650000002077726953
:1080700074652030782530345820746F000000007B
:1080800020656570726F6D20616464726573732022
:10809000307825303458202E2E2E0A004C6F616423
:1080A0002066726F6D20496E742E20454550524FE8
:1080B0004D2E2E2E0A0000005361766520746F202D
:1080C000496E742E20454550524F4D2E2E2E0A00DB
:1080D00070B586B044F2C430C2F20000046854B3F4
:1080E000D5A12046FCF784F8002869D044F2C830B6
:1080F000C2F20000006842F61464C2F2000478B1D3
:1081000000210A22FCF7BCF894F8201100F00100CD
:1081100004EB41010A8922F4007242EA40200881FE
:1081200094F8201194F8200104EB40000089C0F37A
:108130004022C3A09FE04BF24300C0F6000002F0D3
:10814000BBFA42F6146CC2F2000C9CF820119CF8A9
:1081500020210CF1080434F81220C2F340229CF8CC
:10816000203134F81330C3F300239CF8200134F895
:108170001000C0F3802E9CF8200134F81000C0F3EA
:1081800040009CF8205134F81540C4F380049CF85A
:1081900020510CEB8505D5F834519CF820610CEB8F
:1081A0008606D6F83C61CDE900E04BF2B620C0F679
:1081B0000000CDE90245049602F046FA06B070BD13
:1081C000A3A12046FCF714F840B344F2C830C2F231
:1081D0000000006898B100210A22FCF751F842F62D
:1081E0001461C2F2000191F8202100F0010001EBBE
:1081F00042010A8922F4807242EA0020088142F694
:108200001460C2F2000090F8201190F8202100EBD9
:1082100042000089C0F300228EA02CE091A12046EC
:10822000FBF7E6FF60B344F2C830C2F2000000681A
:1082300098B100210A22FCF723F842F61461C2F239
:10824000000191F8202100F0010001EB42010A89B0
:1082500022F4806242EA8020088142F61460C2F271
:10826000000090F8201190F8202100EB42000089D6
:10827000C0F380227DA006B0BDE8704002F0E4B9F2
:108280007EA12046FBF7B4FF30B344F2C830C2F2FF
:108290000000006898B100210A22FBF7F1FF42F6C6
:1082A0001461C2F2000191F8202100F0010001EBFD
:1082B00042010A8922F0020242EA4000088142F6A5
:1082C0001460C2F2000090F8201100EB4100008918
:1082D000C0F340016BA02AE06DA12046FBF788FFA8
:1082E00050B344F2C830C2F20000006898B10021D7
:1082F0000A22FBF7C5FF42F61461C2F2000191F8B1
:10830000202100F0010001EB42010A8922F0040261
:1083100042EA8000088142F61460C2F2000090F840
:10832000201100EB41000089C0F3800159A006B084
:10833000BDE8704002F088B959A12046FBF758FF0C
:1083400008B344F2C830C2F20000006868B10021EE
:108350000A22FBF795FF42F61461C2F2000191F880
:10836000202101EB8201C1F8340142F61460C2F20F
:10837000000090F8201190F8202100EB8200D0F846
:10838000342148A077E74BA12046FBF731FF08B323
:1083900044F2C830C2F20000006868B100210A222D
:1083A000FBF76EFF42F61461C2F2000191F8202142
:1083B00001EB8201C1F83C0142F61460C2F20000F8
:1083C00090F8201190F8202100EB8200D0F83C2199
:1083D00039A050E73CA12046FBF70AFFC8B144F2A0
:1083E000C830C2F20000006858B100210A22FBF731
:1083F00047FF42F6146100F00100C2F2000181F86B
:10840000200142F61460C2F2000090F820112FA063
:108410008DE730A12046FBF7EBFE20B106B0BDE8AA
:108420007040FDF7D3B84BF24300C0F6000006B031
:10843000BDE8704002F040B973686F77000000003B
:10844000434825642053484F573D25640A000000E7
:108450006164640043482564204144443D25640A26
:108460000000000073696E676C6500004348256476
:108470002053494E474C453D25640A007478666494
:108480000000000020545846443D25640A000000C6
:1084900062727300204252533D25640A00000000BE
:1084A000636E74004348256420434E543D25640A9E
:1084B000000000007072640043482564205052445C
:1084C0003D256475730A0000636800002043483D41
:1084D00025640A007263630070B542F6146544F2C5
:1084E000C430C2F20005C2F2000095F82011006805
:1084F00068B342F6F812C2F2000252F821101022BC
:108500008C6800210026FBF7BBFE20F06040606114
:108510000420207695F8200144F2C83105EB400094
:108520000089C2F20001C0F3400084F85D000D68CC
:1085300001204BF25C31A4F85E00C0F60001284631
:10854000FBF756FE58B102206076267726E04AF601
:10855000C660C0F60000BDE8704002F0ADB804F19E
:108560001D0128466676FCF791FD94F85D10207792
:1085700071B1092811D34AF678320021C0F6000201
:10858000535C834208D201310729F9D1402004E02D
:10859000082828BF082000E0184620772046BDE8BC
:1085A0007040FDF7D1B90000B0B544F2C430C2F25A
:1085B00000000468ACB34BF25431C0F60001204611
:1085C000FBF716FED0BB204600210A22FBF758FE1F
:1085D00044F2C831C2F200010D684BF24F3100F095
:1085E0000704C0F600012846FBF702FE38B344F248
:1085F000CC30C2F20000006800B300210A22FBF771
:108600003FFE44F22032C2F200020121938AA140CF
:1086100043EA0105C00708BF23EA01052046958209
:1086200086E04AF67770C0F6000002F045F80024B4
:10863000A0B2FDF7C1FC0134082CF9D1B0BD3EA1B8
:108640002846FBF7D5FDD0B144F2CC30C2F2000091
:1086500000680028F2D000210A22FBF711FE44F244
:108660002032C2F200020121D38AA14043EA01056F
:10867000C00708BF23EA01052046D58258E030A193
:108680002846FBF7B5FDD0B144F2CC30C2F2000071
:1086900000680028D2D000210A22FBF7F1FD44F245
:1086A0002032C2F200020121138BA14043EA0105EE
:1086B000C00708BF23EA01052046158338E021A141
:1086C0002846FBF795FDB0B144F2CC30C2F2000071
:1086D00000680028B2D000211022FBF7D1FD44F23F
:1086E0002032C2F200020146000C02EBC4021084E8
:1086F000204651841CE014A12846FBF779FDB0B157
:1087000044F2CC30C2F200000068002896D000216C
:108710001022FBF7B5FD44F22032C2F200020146FE
:10872000000C02EBC40290842046D18400E0204675
:10873000BDE8B040FDF740BC7363616C65000000AC
:1087400061637400723000007231000070B54BF24A
:10875000A4360025C0F6000605A400BF70197159A3
:108760004268204601F070FF0C35782DF6D170BDBF
:10877000202573202D3E20257300000010B544F203
:10878000C430C2F20000006880B141F20004002150
:108790001022C4F20104FBF773FDC00707D1204685
:1087A0004FF40051BDE81040FEF7B2BE10BD2046A8
:1087B0004FF40051BDE81040FEF7ACBEB0B544F236
:1087C000C430C2F200000068C0B100211022FBF7E3
:1087D00057FD04466FF31100B0F1006F0FD047F65C
:1087E000FF7024EA0000B0F1005F08D04AF69B5009
:1087F000C0F60000BDE8B04001F05EBFB0BD44F27D
:10880000C830C2F20000006830B100211022FBF72E
:1088100037FD85B2072D01D84FF4807520462946D3
:10882000FCF708FD034603A021462A46BDE8B040F8
:1088300001F00ABF53544152543D30782530385826
:10884000204C454E3D307825303858204352433D2A
:108850003078253034580A002DE9F04381B0FEF716
:10886000EDFE10B101B0BDE8F08344F2C430C2F2B5
:10887000000000680028F5D000211022FBF700FD61
:10888000A8B1044644F2C830C2F2000000680025D6
:1088900090B100211022FBF7F3FC87B2B7F5807F7F
:1088A00088BF0125072F98BF4FF4807706E04AF66E
:1088B0009B50C0F6000021E04FF48077002D18BFD8
:1088C0004FF48077B7B14BF2F62900260FF2380843
:1088D000C0F60009002500BF300703D1311940461A
:1088E00001F0B2FEA15D484601F0AEFE0135AEB228
:1088F000B742F1D84BF2F420C0F6000001B0BDE859
:10890000F04301F0D9BE00BF0A3078253038582036
:108910000000000010B544F2C430C2F20000046848
:1089200064B34BF23731C0F600012046FBF760FC20
:1089300030B116A001F0C0FEBDE81040FCF7F5BB59
:108940004BF26331C0F600012046FBF751FC30B119
:1089500017A001F0B1FEBDE81040FCF7D7BF4BF205
:108960005431C0F600012046FBF742FC30B118A09C
:1089700001F0A2FEBDE81040FCF71CBF4BF2B100B5
:10898000C0F60000BDE8104001F096BE204C6F61BB
:108990006420706172616D65746572732066726FB8
:1089A0006D20454550524F4D2E2E2E0A00000000DE
:1089B000205361766520706172616D6574657273B4
:1089C00020746F20454550524F4D2E2E2E0A000028
:1089D00020526573746F72652064656661756C748E
:1089E00020706172616D65746572732E2E2E0A009F
:1089F00044F2C430C2F20000006808B9002003E06D
:108A000000210A22FBF73CFCFCF74EF903A001F021
:108A100053FE012080F31388FDF7E6FF20726562A4
:108A20006F6F74696E672E2E2E200A0070B542F6A5
:108A3000146544F2C430C2F20005C2F2000095F899
:108A40002011006860B342F6F812C2F2000252F838
:108A5000211010228C6800210026FBF711FC6FF317
:108A6000DF202061267695F8200144F2C83105EB1D
:108A700040000089C2F20001C0F3400084F85D00AC
:108A80000D6801204BF25C31A4F85E00C0F60001D5
:108A90002846FBF7ADFB58B102206076267727E029
:108AA0004AF60770C0F60000BDE8704001F004BE51
:108AB00004F11D0128466676FCF7E8FA94F85D108B
:108AC000207779B1092812D34AF678320021C0F60E
:108AD000000200BF535C834208D201310729F9D15B
:108AE000402004E0082828BF082000E0184620772E
:108AF0002046BDE87040FCF727BF000010B544F2E7
:108B0000C430C2F2000004686CB34BF24A31C0F6C4
:108B100000012046FBF76CFB002856D044F2C83019
:108B2000C2F200000068002800F0838000210A22C1
:108B3000FBF7A6FBFDF7A8FD42F61461C2F20001A7
:108B4000CA8800F00F0022F4706242EA0020C88058
:108B5000C8884AF6D421C0F30320C0F6000151F8BA
:108B6000201061A073E04AF6E370C0F6000001F047
:108B7000A3FD42F61464C2F20004E0884AF6D42150
:108B8000C0F30320C0F6000151F8201076A001F0D8
:108B90005BFDE0884BF22732C0F30131E0884BF2F5
:108BA0002C3300F44050B0F5805F4BF29A20C0F6B1
:108BB0000002C0F60000C0F6000308BF1A4601F02C
:108BC00043FDE088C1B26BA041E04BF24F31C0F6EB
:108BD00000012046FBF70CFBE8B344F2C830C2F2B8
:108BE00000000068002854D000210A22FBF748FB4F
:108BF00042F61462C2F20002D1884BF22C3321F407
:108C0000405160F30D31D180D088C0F60003C0F32D
:108C10000131D0884BF2273200F44050C0F60002F8
:108C2000B0F5805F4AF68B6008BF1A46C0F60000B8
:108C300046E042F61460C2F20000C0884AF6D42131
:108C4000C0F30320C0F6000151F8201035A0BDE8A4
:108C5000104001F0F9BC3DA12046FBF7C9FA98B3DA
:108C600044F2C830C2F200000068A8B300210A2212
:108C7000FBF706FB42F61461C2F20001CA8860F3FA
:108C80000702CA80C888C1B24BF20B00C0F60000D0
:108C9000DDE742F61460C2F20000C1884BF22732D1
:108CA000C1F30131C0884BF22C3300F44050C0F6C0
:108CB0000002C0F60003B0F5805F08BF1A461EA090
:108CC000BDE8104001F0C0BC4AF6E370C0F60000F9
:108CD000BDE8104001F0F0BC42F61460C2F20000A2
:108CE000C088C1B21BA0B2E7207365742055415201
:108CF00054204241554420746F20256C642C20730D
:108D00006176652026207265626F6F7420746F2013
:108D10006170706C79206E657720626175642E0ACF
:108D20000000000020554152542042415544203D4E
:108D300020256C640A0000002055415254204D4FFC
:108D40004445203D2025642025730A006164647237
:108D50000000000020554152542041444452203D1F
:108D60002025640A0000000020424155443D256C46
:108D7000640A000020414444523D25640A0000007A
:108D800070B54AF61240C0F600000088410AC0F3F0
:108D9000431200F01F030BA001F056FC4FF2E876DF
:108DA0000025C1F6FF760DA436F81510204601F017
:108DB0004BFC0135062DF7D10AA0BDE8704001F04B
:108DC0007BBC00BF2056434F4D43414E2076256467
:108DD0002E25642E256420534E3A00002530345849
:108DE000000000000A204543484F20537475646911
:108DF0006F203C6563686F2E786A747540676D619B
:108E0000696C2E636F6D3E2E20416C6C2052696739
:108E10006874732052657365727665642E200A004B
:108E2000406A70474162704710B541F6FF31C4F2A5
:108E3000000188421BDC40F6FF31C4F20001884289
:108E400030DD41F2FF31C4F20001884251DC40F6CE
:108E50000041C4F2000188426AD041F20001C4F22C
:108E60000001884240F0838040F2044477E043F2FE
:108E7000FF31C4F20101884226DD44F6FF71C4F2DD
:108E80000101884244DC43F20041C4F201018842FE
:108E900051D044F60041C4F20101884267D140F24A
:108EA00013345CE0B0F1804F48D040F20041C4F28E
:108EB0000001884245D040F60001C4F2000188421A
:108EC00055D140F202444AE041F60041C4F20001AB
:108ED000884239D042F20001C4F20001884236D003
:108EE00042F60041C4F20101884240D140F20B3405
:108EF00035E041F20041C4F2000188422AD041F637
:108F00000001C4F20001884231D140F2064426E05B
:108F100045F20001C4F2010188421ED045F2004131
:108F2000C4F20101884218BF10BD40F2153416E0AA
:108F300040F2034413E040F20D3410E04FF480643B
:108F40000DE040F201440AE040F2074407E04FF42C
:108F5000816404E040F2054401E04FF4457420468A
:108F6000FEF7B2FD2046BDE81040FEF79DBD10BDE6
:108F7000016841F001010160704780B50A8843F241
:108F8000004C826240F6FF32C4F200029042C4F20A
:108F9000010C0DDCB0F1804F18D040F20043C4F258
:108FA0000003984212D040F60003C4F200030BE025
:108FB00040F60043C4F20003984207D0604505D054
:108FC00042F60043C4F2010398420FD1036823F034
:108FD000700303604B88026803F060031A43026069
:108FE0008A88036802F010021A43026041F20042CC
:108FF000D1F808E040F48063C4F200029342C0F864
:109000002CE009D0026822F4407202608A89036869
:1090100002F440721A430260604505D042F60042F5
:10902000C4F20102904201D1897B0163416941F0A0
:109030000101416180BD00002DE9F04381B042F69D
:109040001460C2F2000090F8200142F6F81100F01E
:109050000100C2F2000151F8200044F22031C2F2B6
:109060000001498B86686FF3DF213446002044F805
:10907000101F3083012042F600273077C2F200072C
:10908000D7F80804B8B344F20048C4F2000807F265
:10909000FF3900BFD7F8040400250078707700BFBF
:1090A00030682146FBF748FC032806D1FEF718FA82
:1090B000B5F5704F05F10105F2D9D7F80404411C4C
:1090C000494588BFA0F2FF31C7F80414404640F27A
:1090D000053100F0C9FAD7F8080440F2053101382B
:1090E000C7F80804404600F0CBFAFEF7F9F9D7F8C4
:1090F00008040028CED101B0BDE8F083B0B584B03B
:1091000000F0010142F6F810C2F2000050F8210010
:1091100080680068846942F61460C2F20000084466
:1091200090F8562100F5AB7504F0070012B1D0B9E4
:10913000002017E0B8B10DA001F086FAC4F3074390
:10914000C4F30210C4F38001220EC4F3400C04F0F7
:10915000010E8DE803100FA02146CDF80CE001F0C0
:1091600073FA0120287004B0B0BD00BF20576172AF
:109170006E696E673A2043414E2564206275732004
:109180006572726F72206F636375727265642E2EE2
:109190002E0A00002043414E5F4552523D30782553
:1091A00030384C58205245433D2564205445433DBA
:1091B0002564204C45433D256420424F46463D25CD
:1091C0006420455056463D256420455747463D2579
:1091D000640A0000F0B581B042F61460C2F20000EB
:1091E00090F84911002900F09480002144F2D6350E
:1091F00080F84911C2F20005298840F60044013187
:109200006FF35F2144F2D53644F2D437C4F201043F
:10921000B1F5FF7FC2F20006C2F2000729800EDA24
:10922000E1B1012930D190F84B11FF22FF293170B3
:1092300080F84B2128D120464FF4006118E01AD065
:1092400040F2FF1291421FD1D0F85011E1B101213B
:1092500080F84B110021C0F8501115E090F84A1128
:10926000FF22FF29397080F84A210ED120462021A3
:10927000FEF74EF908E0D0F84C1129B1012180F831
:109280004A110021C0F84C113978022908D001296F
:1092900019D12888B0F5817F11D0022805D012E0BD
:1092A000288800F03F01032904D120462021FEF741
:1092B00031F908E0203000F03F00032803D12046B8
:1092C0002021FEF725F93078022808D0012820D186
:1092D0002888B0F5827F14D0042805D019E02888AA
:1092E00000F03F01052907D120464FF4006101B08D
:1092F000BDE8F040FEF70EB9203000F03F00052831
:1093000007D120464FF4006101B0BDE8F040FEF700
:10931000FFB801B0F0BD42F61460C2F2000001785F
:10932000022904D0012918BF7047FCF7ABBEC188E1
:109330004AF6AB22C1F301310131CAF6AA22A1FBE0
:1093400002235A08C38802EB4202891A23F44052CE
:1093500042EA0131C180FBF713BD0000B0B542F60F
:109360001465C2F20005D5F8280144F2DA32013062
:10937000C5F8280144F2DC3CC2F20002C2F2000C43
:109380001188BCF80030481C81B242F211740133DC
:10939000A14219B2ACF80030108034D34FF0000E67
:1093A000A2F800E095F8202105F1100302EB02126B
:1093B00003EBC202948804F03F04948095F82021C6
:1093C00002EB021253F8322095F8204195F8200163
:1093D00004EB041400EB001003EBC000808803EBE7
:1093E000C40404EB4000C28095F8200100EB00109B
:1093F00043F830E095F8200100EB001003EBC000CB
:109400008288013282800A2918DB44F2D832C2F203
:10941000000210880021013083B2B3F57A7FACF8E6
:109420000010108011D31180D5F82C010130C5F83F
:109430002C01688840F01000688006E0032988BF8E
:10944000B0BDDFE801F00210080CD5F824010130AE
:10945000C5F82401B0BD012085F84901B0BDFBF776
:1094600040FE2870B0BDD5F830010130C5F830019C
:10947000B0BD00002DE9F04F81B044F25605C2F2B4
:1094800000052878002867D04BF2FA2105F1C100C9
:10949000C0F60001FAF7D2FE44F2C03644F2C43BF3
:1094A00044F2C83444F2CC3844F2D039C2F2000657
:1094B000C2F2000BC2F20004C2F20008C2F20009BC
:1094C000306028B34BF2FA21C0F600010020FAF711
:1094D000B5FECBF80000D8B14BF2FA21C0F600017E
:1094E0000020FAF7ABFE206090B14BF2FA21C0F6F3
:1094F00000010020FAF7A2FEC8F8000040B14BF2CC
:10950000FA21C0F600010020FAF798FEC9F8000021
:10951000A14634684BF2A43A0027C0F6000A00BF07
:109520005AF807102046FAF763FE18B90C37A82F2F
:10953000F6D103E00AEB07008068804744F2D0319F
:109540000020C2F200013060CBF80000C9F8000032
:10955000C8F800000860287001B0BDE8F08F44F240
:109560005401C2F20001097809B1FDF749B9FDF7CC
:109570008BB9B0B5044644F6FF30C4F200000D4686
:1095800084424FF0000013DD44F60041C4F20001B4
:109590008C4219D045F20001C4F200018C4213D074
:1095A00043F60001C4F201018C4210D103200CE00B
:1095B00044F20041C4F200018C4205D044F600019F
:1095C000C4F200018C4202D10220FEF7C9F900EB7F
:1095D0005500B0FBF5F080B2A060B0BD40686FF3FD
:1095E0005F20704710B544F6FF31C4F20001884295
:1095F00015DD44F60041C4F2000188421ED045F258
:109600000001C4F2000188421BD043F60001C4F2FD
:109610000101884218BF10BD40F20E3416E044F23A
:109620000041C4F2000188420ED044F60001C4F2A9
:109630000001884212D140F2124407E040F2134484
:1096400004E040F2144401E040F211442046FEF7E9
:109650003BFA2046BDE81040FEF726BA10BDC168AF
:1096600041F40051C160704701F01F0289094FF0B9
:10967000010C0B580CFA02F223EA02020A5070475E
:1096800001F01F0289094FF0010C0B580CFA02F28D
:109690001A430A507047C26822F4C062C260C268AE
:1096A0001143C1607047C26822F004021143C160D7
:1096B0007047026922F4405202610269114301615C
:1096C0007047C26822F008021143C1607047C26847
:1096D00022F48052C260C2681143C160704700002A
:1096E00070B50C46054600200221012A28716970D8
:1096F0002A701CBF012070BD40F200464FF0A0420E
:109700004FF48163C5F20006EA606B80A5F805108E
:10971000E87106F58060C4E9002004F10C006C21BA
:10972000A660FAF75AFD06F14000A06704F17C003C
:109730003C21FAF752FD06F52060C4F8B800E8783D
:1097400078B1E968002201F5306100BFA1F500732E
:1097500004EB82060132F3607162824201F1200162
:10976000F4D3A87880B1EA68002302F5A06102F57D
:10977000805200BF04EB83060133F163F2672031AE
:10978000834202F58052F5D3002070BDC17949B102
:1097900041698968C90705D0D0F8C800016821F07F
:1097A000030101607047000070B5049D0C46C1F3D1
:1097B000074601F47F412868B1F5807F1FD1816B96
:1097C00021F4803181631EB1816B41F4801181638A
:1097D000C1684FF6BF72CFF6DF721140C160C16839
:1097E00021F48011C160016941F00101016100BFF4
:1097F0000169C907FCD1032000F0A8FA1FE0C16885
:1098000041F04001C160016941F00101016100BF07
:109810000169C907FCD1032000F098FA2868816B20
:1098200041F450218163816B41F4001181631EB1C9
:10983000816B41F480118163142000F0C7F8E0B21D
:10984000012808D12868816821F01E0181608168A3
:1098500041F02A018160002070BD416B1822C6F2E0
:1098600008020A610279012A18BF704700F21C4001
:109870004861086840F08020086070470068C2684E
:1098800022F0C042C26029B1012918BF70474FF0D1
:10989000005101E04FF08041C2681143C160704740
:1098A0002DE9F0410446D0F8C8004FF00008C0F898
:1098B0000080606904F11005016821F4C051016065
:1098C00001680160016821F003010160217801292C
:1098D00011D10168002741F003010160286840218F
:1098E00031A6416236F81720F9B2284600F098F800
:1098F0000137042FF6D12846102100F005FA28463A
:1099000000F072F8D4F814E04FF0FF3CCEF810806D
:10991000CEF81480CEF818C0CEF81C80E27812B3CE
:109920004FF00008FF26002504EB8507F8690021A9
:109930000368B3F1FF3F4FF0000302DC036843F01C
:1099400090430360016186607F6B3868B0F1FF3F30
:1099500002DC386840F09041013595423960C7F823
:109960001080BE60E0D3DEF8100040F01000CEF8AA
:10997000100021696FF08040C1F804C0486140F6D2
:109980000000C8F200008861207918B9886940F0A9
:1099900010008861886943F20802C0F23C02024369
:1099A00000208A61BDE8F081400040004000400096
:1099B000426900EB81001369526BC06922FA01F120
:1099C000C901C9B2806819430840704710B548B151
:1099D000044600BF4FF47A7000F0B8F9FDF780FD3F
:1099E000013CF7D110BD000080B500681021016175
:1099F0000169C906FCD4032000F0A8F9002080BD4D
:109A000003320023B3EB920F07D0C06F920800BF60
:109A10000368013A41F8043BFAD108467047000058
:109A200010B5D0F800C0DCF82400D1B1DCF8283043
:109A3000B1F1010E00EB13430CD00021002000BF58
:109A40000CEB8101D1F804410130C1B28E4503EB2A
:109A50001443F5D843EA02400CEB8E01C1F804012F
:109A600010BD40EA0240CCF8280010BD80B581B09E
:109A70000022009291F90020B2F1FF3F02F00F0E98
:109A800008DD00EB8E02536B0EF1100C012202FA7E
:109A90000CF205E000EB8E03DB69012202FA0EF204
:109AA00000921A68120427D4D3F800C04FF60002BF
:109AB000CFF6334202EA0C02BEF1000F1A6002D068
:109AC000B1F804C009E04269926802F0060C4AF657
:109AD0005A32C0F6000212F80CC01A6842EA0C02B0
:109AE0001A6049781A6842EA8E5242EA814141F08E
:109AF000805141F40041196000994269D0690143E5
:109B00000020D16101B080BD91F90020B2F1FF3F8A
:109B100002F00F0200EB8200CCBF406BC06902680C
:109B200022F400120260497801F0FE01022903D1FB
:109B3000016841F0805101600020704791F90010E8
:109B4000B1F1FF3F01F00F0100EB810202DD526B2A
:109B5000103100E0D269136823F4004313604269B6
:109B60000120D369884023EA00010020D1617047B9
:109B700070B582B00A7800F1100C02F00F020CEB05
:109B80008203DB681D6801951D690095009D05F045
:109B900060450095D1F80CE0BEF1000F0AD0BAB1D3
:109BA0008C880EEB0405013DB5FBF4F4009D45EAFD
:109BB000C44416E0009D4FF0000E45F400250095CA
:109BC0004C78009D012C4FF000041D6117D024E05B
:109BD0008C88A64528BFA646C1F80CE0009C44F43A
:109BE00000240094009C44EA0E0400944D78009CEC
:109BF000012D10D144F000540094009C1C61446974
:109C0000A568019CED0554BF44F0005444F0805415
:109C10000194012401E01C6100240579012D08D183
:109C200088695861019840F00440019001981860DB
:109C300019E0019E46F004460196019E1E6095B90A
:109C4000019D1D6034B189681FFA8EF3604600F0F3
:109C500069F808E0BEF1000F05D040690121436BAF
:109C6000914019434163002002B070BD10B50A78DD
:109C700012F00F0200EB8202526BD2F800C014699E
:109C80008B8804F0604E0BD0CC684CB11C44013C76
:109C9000B4FBF3F44EEAC44E634343EA0E0303E01D
:109CA00043EA0E0343F4002313610079012804BF43
:109CB000886950614878012806D1C87800280CBF0F
:109CC0004CF0805C4CF0005C4CF0044100201160D2
:109CD00010BD91F90010B1F1FF3F01F00F0100EB51
:109CE000810001DD416B08E0C1690868B0F1FF3F08
:109CF00003DC086840F080400860086840F4001207
:109D000000200A607047000080B58901006820319A
:109D1000016100BF01698906FCD4032000F016F838
:109D2000002080BD03F1030C0023B3EB9C0F0AD08D
:109D300000EB8200C06F4FEA9C0200BF51F8043B69
:109D4000013A0360FAD1002070470000B0B542F636
:109D50000045C4F20105044628460021FFF762F8D9
:109D60002846FFF75DF8A042FAD3B0BD90F8CE20A8
:109D7000032A03D18A8812F0FE0F01D00120704718
:109D8000D0F82C24D268104710B58021044600F08A
:109D90008CF82046002100F088F82046BDE81040ED
:109DA000FFF75BBD4AB2B2F1FF3F06DDC1EBC10177
:109DB00000EB810101F51D7106E001F07F01C1EBAF
:109DC000C10100EB8101D03180B5FFF7B7FE002063
:109DD00080BD80B501F07F01C1EBC10100EB810CBA
:109DE00090F804E00CF51D710CF51F77BEF1010F22
:109DF0004FF0000E87E80C4008BFCCF88C22FFF72C
:109E000035FF002080BD80B501F07F01C1EBC101AD
:109E100000EB810C90F804E00CF1D0010CF1D807B4
:109E2000BEF1010F4FF0000E87E80C4008BFCCF8E0
:109E3000E820FFF79DFE002080BD10B58A78B1F8BC
:109E400004C04FFA82FEBEF1FF3F0CDDC2EBC2023E
:109E500000EB820494F8743204F51D7203F07F0362
:109E600084F874320AE00EF07F02C2EBC20200EB0B
:109E7000820212F8D03F63F07F0313700EF00F04DC
:109E800003F0F00323441370C9784AF6683301F0F5
:109E90000301C0F6000353F82110A2F804C051706A
:109EA0001146FFF7E3FD002010BD4AB2B2F1FF3FBB
:109EB00006DDC1EBC10100EB810101F51D7106E07A
:109EC00001F07F01C1EBC10100EB8101D03180B510
:109ED00001228A70FFF7FDFE002080BD4AB2B2F178
:109EE000FF3F06DDC1EBC10100EB810101F51D71F2
:109EF00006E001F07F01C1EBC10100EB8101D0312F
:109F000080B500228A70FFF7FFFD002080BDB0B54C
:109F1000044659B194F8CE00032851D1D4F82C044A
:109F2000C269002A4CD02046904749E094F82404A6
:109F300002281FD0012843D1B4F8D400D4F8E4108B
:109F4000D4F8D8200B1A2179C4F8E430012904BFD1
:109F50000244C4F8D82020460021FFF754FFD4F86B
:109F6000E400B4F8D4100222884288BF012284F8A9
:109F7000242425E094F8250448B12046002100223D
:109F800000230025FFF73FFF84F8255418E094F8DC
:109F9000CE00032805D1D4F82C04416909B120462C
:109FA00088470020C4F8E400062084F824042046F2
:109FB000002100220023FFF70CFF2046FFF74DFC95
:109FC0000020B0BDB0B582B08C4600F11005C0F8DD
:109FD0002824294662460446C0F82C34FFF780FB4B
:109FE0002069816821F00101816094E80F000095EB
:109FF000FFF7DAFB6069416841F00201416003202C
:10A00000FFF7E4FC28460021FFF738FC2046FFF765
:10A0100047FCD4E90401826842F00102826048688A
:10A0200020F0020048600320FFF7D0FC012084F8F4
:10A03000CE0002B0B0BD00002DE9F04F89B08046DF
:10A0400000694169C90740F02C8241698069084074
:10A0500000F027820090000352D5D8F814008169DF
:10A06000C0690840C0F30545002D49D008F52176A8
:10A070004FF0000B4FF008094FF0010A002700BF16
:10A08000E80734D008EB8704606B8168D8F81420A7
:10A090005269114008910899C9071FD0C0F808A05B
:10A0A00098F80410012908D10069069036F80C0CC4
:10A0B00006996FF3DF41401A3060F9B2404600F074
:10A0C000F3F95FB998F80400012807D198F824043F
:10A0D000062803D14046FFF7C0FB00BF08980007E1
:10A0E00005D5404600F02EFA606BC0F80890BBEB37
:10A0F000550F4FEA550507F1010706F11C06BFD1C0
:10A100000098400340F19C80D8F814008169C06930
:10A11000084010F03F0700F0938008F11000002481
:10A120004FF0000A0390CDF8088000BFF80700F058
:10A130007F805FFA8AF140460591FFF739FC08906D
:10A140000898C00716D008EB8A00C0690121816019
:10A1500005994046FFF7DBFEBAF1000F0AD198F8E7
:10A160000400012806D198F82404052802D14046AD
:10A17000FFF773FB089800065AD5CAEBCA0008EB34
:10A18000800C4546E04638F8D43F05EB8A01C646C8
:10A19000C3465EF8080F5BF80C2F51F81C5F861A57
:10A1A0009E4288BF1E46AC690336A4B2B4EB960F3C
:10A1B00028BF904237D90C460CF1D809012101FA89
:10A1C0000AF6D9F80010F643CDF810E0019601E048
:10A1D000B8F80030861A98B2864288BF06460398BF
:10A1E000059AB3B2FFF79EFDD9F800008119C9F8AE
:10A1F00000100498DBF80020006832448242CBF85B
:10A20000002007D1029BA4465B695D6B019C254041
:10A2100064465D6325680336AB699BB2B3EB960F6A
:10A2200028BF9042D4D88020A860DDF808800024A0
:10A23000B4EB570F4FEA57070AF1010A7FF476AFE4
:10A24000009C200531D598F807008DF82000D8F83B
:10A250001400806800F001008DF8180098F8CE0016
:10A260000338B0FA80F040098DF81F0098F8CE004E
:10A2700088F8CF00042088F8CE009DF8200078B13F
:10A280009DF8180060B19DF81F0048B1D8F8C800CB
:10A29000016841F00301016001200021FDF7FEFA91
:10A2A000D8F810004FF400614161B4F1FF3F07DCC2
:10A2B000032088F8CE00D8F810004FF0004141612B
:10A2C000200709D5D8F82C04416A09B140468847CF
:10A2D000D8F8100008214161E0064CD50020089014
:10A2E000454655F8100F816921F010018161006A1F
:10A2F00008900898089900F00F00C1F30A16089911
:10A30000089AC2F34342062A17D0022A2ED16EB30E
:10A31000C0EBC00008EB8007D7F87C122846324615
:10A32000FFF76EFBD7F87C02D7F884123044C7F8E9
:10A330007C028819C7F8840218E011F4C03F15D1D7
:10A34000082E01BFC0EBC00008EB800696F874022F
:10A3500010F00F000AD108F21C4128460822FFF72E
:10A360004FFBD6F884020830C6F884022868816959
:10A3700041F010018161E00455D5D8F8141008F1BE
:10A3800010004A684FF0000922F001024A600021E3
:10A39000FFF7BAFC98F8030050B108F11C01FF2246
:10A3A0000B688F69013801F104019A60BA60F7D136
:10A3B000D8F814004FF0FF3181614FF00111C161F5
:10A3C0000921012641610661016821F4FE610160F5
:10A3D0004046FFF742FAD8F810004FF4805141612F
:10A3E0004020C8F87492A8F8780208F27A20162162
:10A3F00008F51D75F9F7F1FE40462946FFF736FBD3
:10A400008020454625F8D00F4FF48000C8F8D200D0
:10A4100008F1D6001621F9F7E0FE40462946FFF77D
:10A4200025FB88F8CE60A00421D5D8E90410826805
:10A43000436812F0060223F48073436043684FF4CC
:10A44000A05243F480734360C86820F47050C86021
:10A450004FF0020008BF032088F80100C86808BF59
:10A460004FF410521043C8604FF400504861E002AE
:10A470000AD5D8F82C04816A09B140468847D8F833
:10A4800010004FF480114161A0020AD5D8F82C04C5
:10A49000C16A09B140468847D8F810004FF400114E
:10A4A000416109B0BDE8F08F10B5044659B1D4F848
:10A4B0002C04026A002A43D094F8CE0003283FD12E
:10A4C000204690473CE094F8240404281FD0032839
:10A4D00036D1B4F87802D4F88812D4F87C220B1A5A
:10A4E0002179C4F88832012904BF0244C4F87C22CF
:10A4F00020460021FFF76DFCD4F88802B4F87812EA
:10A500000422884288BF032284F8242418E094F8A7
:10A51000CE00032805D1D4F82C04816909B1204666
:10A5200088470020C4F88802052084F824042046C7
:10A53000002100220023FFF766FC2046FFF78DF97B
:10A54000002010BD10B582B00446D0F82004D4F825
:10A550001C14019001F060004028009107D02028D1
:10A560000AD070B96946204600F04CF808E0694608
:10A57000204600F067F803E069462046FFF7F6FB47
:10A5800030B169462046FFF7FFFB002002B010BD46
:10A59000BDF80600A8B19DF90000B0F1FF3F1DDD38
:10A5A000D4F87C22D4F8883220460021FFF711FC31
:10A5B000D4F88802B4F878120422884288BF0322B3
:10A5C0001CE0052084F824042046002100220023FA
:10A5D000FFF719FC2046FFF740F9D6E7D4F8D8205A
:10A5E000D4F8E43020460021FFF70DFCD4F8E40055
:10A5F000B4F8D4100222884288BF012284F82424AF
:10A60000C3E700004A7802A353F82220104700BF96
:10A61000B36B0008256A0008516C0008276D00081C
:10A62000516C0008556C0008B56A0008236D0008DD
:10A63000896A0008956C0008856B0008796D000830
:10A640009D6D00080120704783B080B581B00DF189
:10A650000C0C8CE80E0003A9009100F039F801B051
:10A66000BDE8804003B07047B0B544F2AC35044655
:10A670000A28C2F200050ED1296821B1481C0D221A
:10A6800028600A7009E044F2E830C2F20000016874
:10A6900089B10D208847286818B1411C29600470D1
:10A6A000B0BD44F2E830C2F20000016819B12046A2
:10A6B000BDE8B0400847B0BD10B5017839B1441CC1
:10A6C000C8B2FFF7D1FF14F8011B0029F8D110BD63
:10A6D0002DE9F04F85B00DF104090C460546A9F1AE
:10A6E000010A00BF2A4615F8010B252802D00028D0
:10A6F00047D11FE15078302803D02D2805D1022101
:10A7000000E001219078D51C01E0951C0021A0F10A
:10A710003002D2B24FF0000B092A0DD80BEB8B029E
:10A72000520052FA80F215F8010BA2F1300BA0F1A1
:10A730003003DBB20A2BF1D340F020026C2A04BFB5
:10A7400015F8010B0431002800F0F480034660285E
:10A7500088BF203BDAB24E2A0CDD4F3A092A10D8C6
:10A76000DFE802F0050F0F0F160F120F0F1408226B
:10A7700065E000BF422A61D0432A00F0D880442A15
:10A7800002D0FFF771FFADE70A2258E0102256E031
:10A7900054F8046B002000BF0746305C002807F126
:10A7A0000100F9D18907A0F101081DD4D8458046E0
:10A7B0001AD2009444F2AC3444F2E838C2F20004F5
:10A7C000C2F20008206820B1411C216020210170E4
:10A7D00004E0D8F8001009B12020884701375F4510
:10A7E000F0D3009C07F10108307840B1013600BF7A
:10A7F000C0B2FFF739FF16F8010B0028F8D1D84591
:10A80000BFF470AF44F2E837009444F2AC34C2F2C3
:10A810000007ABEB0806C2F20004B846202700BFD1
:10A82000206818B1411C2160077004E0D8F80010BE
:10A8300009B120208847013EF2D176E002226FF074
:10A84000430754F8046B57FA83F3B3FA83F35B09B5
:10A85000002E4FF0000748BF012713EA070CA64659
:10A860004FF0000818BF764278284FF0070008BF65
:10A87000272000BFB6FBF2F7444607FB126308F13E
:10A880000108092B88BF03443033B8F10F0F09F8D2
:10A89000043002D8B2423E46ECD9BCF1000F18BFDA
:10A8A0000831080742BF2D2009F8080008F1010807
:10A8B000C8074FF03006744608BF20268807474671
:10A8C0000CD4D84508D247463046FFF7CDFE0137B5
:10A8D0005F45F9D3013701E008F101071AF80800D4
:10A8E000A8F10108FFF7C0FEB8F1000FF6D15F45EF
:10A8F000BFF4F8AEABEB070644F2E837009444F23D
:10A90000AC34C2F20007C2F20004B846202700BFF0
:10A91000206818B1411C2160077004E0D8F80010CD
:10A9200009B120208847013EF2D1009CDAE614F8F4
:10A93000040B26E705B0BDE8F08F00000048704723
:10A940000400002002E008C8121F08C1002AFAD142
:10A9500070477047002001E001C1121F002AFBD19F
:10A9600070470040404040404040404041414141EC
:10A9700041404040404040404040404040404040D6
:10A9800040404005020202020202020202020202EA
:10A99000020202202020202020202020200202026B
:10A9A00002020202909090909090101010101010DF
:10A9B00010101010101010101010101010100202B3
:10A9C000020202028888888888880808080808081F
:10A9D0000808080808080808080808080808020203
:10A9E0000202400063A90008000702000500E80316
:10A9F000000702000500E803000502000300D0077D
:10AA0000000502000200B80B000705000100A00FBE
:10AA10000005040001008813000403000100701702
:10AA20000700000702000500E80300070100060018
:10AA30008403000A020005002003000A0200060049
:10AA40009A02000601000A005802000601000C00EC
:10AA5000F401000A02000A0090010006010014003F
:10AA60002C01000601001800FA00000A0200140080
:10AA7000C800000601002800960000060100300012
:10AA80007D00000A020028006400000701003C006D
:10AA90005A00000A02003200500000060100640063
:10AAA0003C000006010078003200000A0200640049
:10AAB000280000060100C8001E00000A0200C800AD
:10AAC0001400000A020090010A00000A020020039C
:10AAD0000500160000100E000008070000840300A7
:10AAE00000C2010000E1000000960000004B0000E1
:10AAF00080250000C012000060090000B0040000C2
:10AB00002C0100000C0902430002010080320904FC
:10AB100000000102020100052400100105240100CB
:10AB2000010424020205240600010705820308002F
:10AB30000A09040100020A000000070503024000A0
:10AB400000070581024000001201000202000040DF
:10AB5000E9288A010001010203010000030000004E
:10AB600000000102030400000000000001000000DA
:10AB700002000000030000000C101418203040E414
:10AB80008D70097BDD41DA886E0E95C161B92D1695
:10AB900003470069006700610044006500760069B2
:10ABA00000630065000000000000000000000000DD
:10ABB0000000000000000000000000000000000095
:10ABC0000000000000000000000000000000000085
:10ABD0000000000000000000000000000000000075
:10ABE0000000000000000000000000000000000065
:10ABF0000000000000000000000000000000000055
:10AC00000000000000000000000000000000000044
:10AC10000000342B3803470044003300320020008A
:10AC20005500530042002000430044004300200030
:10AC3000410043004D00200069006E0020004600E6
:10AC4000530020004D006F0064006500000000000C
:10AC500000000000000000000000000000000000F4
:10AC600000000000000000000000000000000000E4
:10AC700000000000000000000000000000000000D4
:10AC800000000000000000000000000000000000C4
:10AC90000000000000003203460046004600460067
:10ACA0004600460046004600460046004600460074
:10ACB0004600460046004600460046004600460064
:10ACC000460046004600460000000000000000006C
:10ACD0000000000000000000000000000000000074
:10ACE0000000000000000000000000000000000064
:10ACF0000000000000000000000000000000000054
:10AD00000000000000000000000000000000000043
:10AD10000000000000000000196A00080D6A000829
:10AD2000A16D00083031323334353637383941427D
:10AD3000434445460043414E2046442066756E63B9
:10AD400074696F6E2064697361626C65640A000ADD
:10AD5000200020525825643A25303864204441545C
:10AD600041204D53472049443D3078253034582008
:10AD70004C454E3D256420444154413D0053696C8F
:10AD8000656E745F4C6F6F704261636B004E6F72E3
:10AD90006D616C0053696C656E74002042616420C3
:10ADA00041647265737321200A006D656D6372637F
:10ADB000205B68657820616464725D205B686578FB
:10ADC000206C656E5D2053686F77204D656D6F72E6
:10ADD00079204352432E0A0063616E206664656EDB
:10ADE000205B307C315D20456E61626C652F44696B
:10ADF0007361626C652043414E46442E0A006565CE
:10AE000070726F6D205B6C6F61647C736176657CC2
:10AE1000726561647C77726974655D205B616464EE
:10AE2000725D205B646174615D204F706572617456
:10AE30006520496E742E20454550524F4D2E0A0014
:10AE4000646973706C6179205357207665727369F9
:10AE50006F6E20616E6420534E2E0A00205761727F
:10AE60006E696E673A2043616E206E6F7420736561
:10AE70006E64206D736720756E6465722053696C13
:10AE8000656E74204D6F64652E0A00207365742012
:10AE900055415254206D6F646520746F20256420E5
:10AEA00025732C20736176652026207265626F6F92
:10AEB0007420746F206170706C79206E6577206DDE
:10AEC0006F64652E0A00657874205B686578494474
:10AED0005D205B686578444154417C72656D6F7498
:10AEE000655D2053656E6420657874656E64656485
:10AEF00020646174612F72656D6F7465206D657378
:10AF0000736167652E0A00737464205B6865784915
:10AF1000445D205B686578444154417C72656D6F87
:10AF200074655D2053656E64207374616E64617234
:10AF30006420646174612F72656D6F7465206D6546
:10AF400073736167652E0A007265626F6F74205BB0
:10AF500064656C6179206D735D20526573746172F4
:10AF6000742073797374656D2E0A0068656C7020A7
:10AF7000496E666F2E0A0066696C746572205B30DC
:10AF80002D375D205B6D6F64657C7363616C657CE0
:10AF90006163747C72307C72315D205B70617261C0
:10AFA0006D5D2043414E2066696C74657220736547
:10AFB0007475702E0A0063616E205B626175647C3B
:10AFC0006D6F64657C73706565647C636C656172CC
:10AFD0005D2043414E20706F7274207365747570EC
:10AFE0002E0A0075617274205B626175647C6D6FFE
:10AFF00064657C616464725D205541525420706FB9
:10B0000072742073657475702E0A00207365742045
:10B0100055415254204144445220746F2025642CE1
:10B0200020736176652026207265626F6F742074CC
:10B030006F206170706C79206E6577206164647236
:10B040002E0A00656E76205B63687C73686F777C80
:10B050006164647C747866647C636E747C70726412
:10B060005D205365742F53686F7720656E76697223
:10B070006F6E6D656E74207661726961626C657366
:10B080002E0A002043414E25642053656E6420251E
:10B090006C64202573206672616D657320696E2073
:10B0A000256C646D732061742025646670732E0AAC
:10B0B00000706172616D205B6C6F61647C7361769E
:10B0C000657C726573746F72655D204F7065726127
:10B0D000746520706172616D65746572732E0A000B
:10B0E0006C6564205B307C315D20636F6E74726FC1
:10B0F0006C20746865206C656420646973706C6191
:10B10000792E0A006D656D7264205B686578206138
:10B110006464725D205B686578206C656E5D2053A9
:10B12000686F77204D656D6F72792E0A0020434855
:10B13000256420424155443D256C646B20464442C1
:10B140004155443D25644D0A00204E6F4D61696CA8
:10B15000426F78205374617475733D3078253032B6
:10B16000580A002043414E25645F43544C20202060
:10B170003D30782530384C580A002043414E256434
:10B180005F4241534520203D30782530384C580AE5
:10B19000002043414E25645F5354415420203D30EC
:10B1A000782530384C580A002043414E25645F54BE
:10B1B00053544154203D30782530384C580A0020F3
:10B1C00043414E25645F524649464F303D30782515
:10B1D00030384C580A002043414E25645F45525296
:10B1E0002020203D30782530384C58205245433DB2
:10B1F0002564205445433D2564204C45433D25644A
:10B2000020424F46463D256420455056463D256424
:10B2100020455747463D25640A00204644454E3D9B
:10B2200025640A002043414E25645F4254202020BB
:10B23000203D30782530384C582053494C4D3D2521
:10B2400064204C424B4D3D256420534A573D2564B4
:10B25000205453323D2564205453313D256420420F
:10B2600052503D25640A002052582564204F4B3D22
:10B27000256C64204C4F53543D256C640A002054C7
:10B28000582564204F4B3D256C64204C4F53543D52
:10B29000256C640A002043482564204D4F44453DF9
:10B2A00025642025730A00204D4F444525643D2523
:10B2B000642025730A002043483D25642053484FED
:10B2C000573D2564204144443D25642053494E4761
:10B2D0004C453D256420545846443D256420425247
:10B2E000533D256420434E543D2564205052443D37
:10B2F000256475730A0025303258200020545825E3
:10B30000643A253038642044415441204D5347204D
:10B3100049443D307825303458204C454E3D256415
:10B3200020444154413D005445524D00504B54007F
:10B330006D656D637263006C6F6164006C656400C1
:10B340006D656D7264007374640062617564006D94
:10B350006F646500726573746F72650072656D6FFE
:10B360007465007361766500706172616D0065657A
:10B3700070726F6D0063616E0076657273696F6ED7
:10B380000068656C700066696C7465720072656255
:10B390006F6F7400756172740065787400656E7605
:10B3A0000000000075B30008B6AF0008FD7A000881
:10B3B00046B3000807AF00082D8A000899B30008BB
:10B3C000C6AE0008D98400089DB3000843B0000849
:10B3D000D180000894B30008E3AF0008FD8A00089C
:10B3E00086B3000877AF0008A985000868B3000895
:10B3F000B1B00008158900088DB3000848AF0008F7
:10B40000F189000881B300086BAF00084D87000880
:10B4100079B3000840AE0008818D00086EB30008C3
:10B42000FEAD0008F57E00083CB30008E0B000085F
:10B430007D87000840B3000804B10008598800085F
:10B4400030B30008AAAD0008BD8700085CB400084E
:10B450008FAB000814AC000896AC00080403090484
:10B4600080B4000800000020702F0000D0430008C6
:10B4700058B50008702F00208018000054A900085B
:10B48000A1450E2707FF9DA5720008297200080933
:10B490007300082F5573000847720008F772000800
:10B4A0008B5892085948AB000805AB0008994CB47A
:10B4B0000008FFFFFFFF0559080100200552801515
:10B4C0000020045D64004009FF800100208001002D
:10B4D0002001FF01FF01FF01FF01FF01FF01FF014B
:10B4E000FF01FF01FF01FF01FF01FF01FF01FF015C
:10B4F000FF01FF01FF01FF013A045D68004009FF01
:10B50000F8150020F815002001FF01FF01FF01FFE1
:10B5100001FF01FF01FF01FF01FF01FF01FF01FF2B
:10B5200001FF01FF01FF01FF01FF01FF01FF0139E1
:10B5300032503320AC02FF2001FF01FF01FFA19830
:10B540002A0020002A002005FF24AD000801374210
:08B550000102240100000000CB
:04000005080041515D
:00000001FF
