:020000040800F2
:10400000F047002065410008A95200088D500008C3
:1040100035520008754500088D6800080000000052
:104020000000000000000000000000000F59000820
:10403000A94C000800000000CD5500089B61000855
:104040007F4100087F4100087F4100087F41000850
:104050007F4100087F4100087F4100087F41000840
:104060007F4100087F4100087F4100087F41000830
:104070007F4100087F4100087F4100087F41000820
:104080007F4100087F4100087F4100087F41000810
:10409000774500087F4100087F4100087F41000804
:1040A0007F410008516600087F4100087F410008F9
:1040B0007F4100087F4100087F4100087F410008E0
:1040C0007F4100087F4100087F4100087F410008D0
:1040D0007F410008D56600087F4100087F41000845
:1040E0007F4100087F410008316800087F410008D7
:1040F0007F4100087F4100087F410008FFFFFFFF6C
:104100007F410008000000007F4100087F41000857
:104110007F4100087F4100087F4100087F4100087F
:104120007F4100087F4100087F4100087F4100086F
:104130007F41000800000000000000007F410008EF
:10414000854500087F4100087F4100082568000878
:10415000DFF80CD000F01CF9004800475576000845
:10416000F04700200648804706480047FEE7FEE784
:10417000FEE7FEE7FEE7FEE7FEE7FEE7FEE7FEE717
:10418000A1610008514100080048704724AA0008B6
:10419000A0F16101192900D820387047A0F1410130
:1041A000192900D82030704740EA01039B0703D04B
:1041B00009E008C9121F08C0042AFAD203E011F866
:1041C000013B00F8013B521EF9D27047D2B201E028
:1041D00000F8012B491EFBD270470022F6E710B50C
:1041E00013460A4604461946FFF7F0FF204610BD65
:1041F00030B505462A460B4612F8010B13F8014B61
:1042000008B1A042F8D01CB1002802D06D1CF1E723
:10421000284630BD10B5044604E00B7800F8013B99
:1042200003B1491C521EF8D2204610BD421C10F8A2
:10423000011B0029FBD1801A7047000070B50F4D9B
:1042400000B92868002412E00A4602E09E4203D02A
:10425000521C1378002BF9D1DAB2224305D02BB1CE
:1042600024B1002100F8011B04E00446401C06783C
:10427000002EE9D12860204670BD0000000000201B
:104280002DE9F05F93460F4680460446002606F06F
:1042900075FBD0F80090824614F8015B2DB1FFF752
:1042A00073FF0068405DC007F6D12B2D02D02D2D85
:1042B0001AD0641E0021CAF800105A46394620461A
:1042C00000F017F8014627B13868A04201D1C7F8BD
:1042D0000080DAF80000022809D0CAF800907005C2
:1042E00005D54842BDE8F09F46F48066E2E70846FF
:1042F000F8E72DE9F05F82460078002715468B46E7
:104300000AF10104B946302801D09DB113E014F838
:10431000010B0127782803D0582801D045B10AE0C5
:104320000DB1102D07D10027102514F8010B02E064
:10433000082500E00A250026B0460EE005FB08002F
:1043400005FB06F1012701EB10461FFA80F8B6F5D0
:10435000803F00D3B94614F8010B294600F02AF833
:104360000028EBDABBF1000F05D00FB1641E00E0AE
:104370005446CBF80040B9F1000F06D006F0FEFA23
:1043800002210160C81EBDE8F09F48EA0640FAE736
:10439000064C074D06E0E06840F0010394E8070092
:1043A00098471034AC42F6D3FFF7D6FE98B4000815
:1043B000B8B400083A2800D2303820F02002412A50
:1043C00001D3A2F13700884201D34FF0FF3070478C
:1043D00030B58C1810F8012B12F00F0301D110F832
:1043E000013B120906D110F8012B03E010F8015B24
:1043F00001F8015B5B1EF9D101E001F8013B521E9F
:10440000FBD1A142E6D3002030BD416E4A7AC2B949
:10441000006846F20042C4F20002904211D1087ACC
:1044200078B944F22030C2F20000408B0A686FF382
:10443000DF20824205D1C87A012802D1087B06F02C
:1044400033B9704742F60020C2F20000D0F80824C9
:104450000023B3EB922F10D1D0F8002400F2FF33E9
:104460001170D0F800144A1C9A4288BFA1F2FF32A2
:1044700000F58161C0F8002401E000F20C410A68F7
:1044800001320A60D0F8080480B2704710B50446C3
:10449000D0F801004AF64A4144F8410FC0F6000145
:1044A00034F83C0C0988A08008BA000CE08042F681
:1044B0001460C2F200000189090A21720189617247
:1044C0004189090AA17240890E21E0720020A08171
:1044D000204600F0B1FEE08110BD0000B0B5B0F89C
:1044E0000110054620F8411F4FF2E873811C00229D
:1044F000C1F6FF73D45C8C5401320C2AFAD10E2120
:1045000000F09AFEA5F84F00B0BD10B50446D0F8F3
:10451000010044F8410F34F83D0C14F83B1C00BA7C
:10452000020C042928BF042101EB10403F2834F875
:104530003C0C88BF81F03F02A08044F22030C2F2E0
:10454000000000EB42014B78A37110F81200E071FB
:10455000C8782072887860724879A0720879E07211
:10456000C879207388790E216073204600F064FEBC
:10457000E08110BDFEE740F20810C2F20000002109
:1045800000F082BA41F28050C2F20000012100F036
:104590007BBA05294AF6282C88BF0121C0F6000CF9
:1045A00040B13CF831300CEBC10203829378928821
:1045B000837482820CEBC100C08840EA01407047DE
:1045C0002DE9F04381B000F0010642F6F810C2F286
:1045D000000050F82650A868006802F004FC05F1BD
:1045E0001C04002021464FF0000802F0A1FD4FF00E
:1045F000012028624FF48070A88442F61460C2F251
:10460000000000EB4607398900EB8606C1F3011173
:104610002977B08900F01F01204600F076F9A868DC
:104620002146006802F0CCFC05F128040220214656
:1046300002F07EFD388900F0010085F8280040F284
:104640000110A5F8290040F20440A5F844002846CE
:1046500040F8408FC5E90B08C5F83480B089C0F335
:1046600003212046FFF795FFA8682146006802F065
:10467000CDFB44F2203705F14804C2F200074FF0A9
:1046800001090026A5F85260B88A09FA06F1084027
:1046900018BF0120FA8AA5F8540011EA020018BFD9
:1046A0000120A5F8560007EBC600028CA5F84820AB
:1046B000428C3B8BA5F84A20828C1940A5F84C20EF
:1046C00018BF0121C08C85F85810A5F84E0020466F
:1046D000A5F8508002F01BFC0136082ED2D1042030
:1046E00002F06AFBA8680221006801B0BDE8F0434F
:1046F00002F019BD03288FBF02A000B203A151F838
:1047000020007047556E6B6E6F776E00C5AD000868
:10471000BCAD0008CCAD0008B5AD00084AF65A2281
:104720000021C0F6000200BF02EBC103DB88834218
:1047300004D001311629F7D1052102E0162928BF3E
:10474000052102EBC100C08840EA0140704700002B
:104750002DE9F0410446406F01283CDB41F228403E
:1047600042F6146788462618C2F2000741F2B035B7
:10477000F88800F44050B0F5805F05D120464146EE
:1047800000F0AEFD0DE000BFF88800F44050B0F539
:10479000005F03D12046FFF738FE02E0204601F01B
:1047A000B7FE616E206801F15002B24288BF4A1B19
:1047B0000221626602F0B2FC2068616F0139616714
:1047C000022102F0B0FCA06E0130A06602F08CFE67
:1047D000606F0028CCDCA06EBDE8F08170B582B0BF
:1047E000044600EB01100E46D0F8B01111F00401A0
:1047F0001172D0F8B01119BFC9085160490D11608C
:10480000D0F8B01101F002015172D0F8B411090AC8
:1048100082F84C10D0F8B411C1F3C01182F84D10D9
:10482000236ADB0725D100295AD1D0F8B41101F051
:104830000F01D172D0F8B8111173D0F8B811090A6C
:104840005173D0F8B811090C9173D0F8B811090E52
:10485000D173D0F8BC111174D0F8BC11090A51748D
:10486000D0F8BC11090C9174D0F8BC01000ED074C2
:1048700041E0D0F8B41101F00F01092906D34AF63E
:10488000B033C0F60003194411F8091CD172D0F8F6
:10489000B4310D1FC3F3401382F84E30D0F8B43159
:1048A000C3F3001382F84F304FF0FF3303EB910353
:1048B000B3FA83F34FEA531318BF01252B4003EBE0
:1048C00091010C32019291B1D0F8B821019B0139CC
:1048D0001A60019A0B0602F104020192F4D10AE077
:1048E0004AF66D50C0F6000005F006FF03E0D0F870
:1048F000B801019908601020002E08BF0C20215833
:1049000041F02001215002B070BD15294AF65A2C01
:1049100088BF0521C0F6000C48B13CF831300CEBE3
:10492000C102A0F8013093789288C37042810CEBE9
:10493000C100C08840EA014070470000F0B581B076
:1049400082680D46520107D48168090106D4816846
:10495000C90005D4032789E0002702E0012700E011
:10496000022700EB0716D6F8801101F00101C6F806
:104970008011297A19B16A6841EAC20201E0296806
:104980004A056B7A95F84D10D6F880411A432243B8
:10499000C6F8802149B1006AC0071BD14AF66D50A4
:1049A000C0F6000005F0A8FE5AE0D6F8840120F019
:1049B000BF00C6F88401287BD6F884110843C6F8E6
:1049C0008401D5F80D00C6F88801D5F81100C6F8A5
:1049D0008C0145E0287B092801D2024613E04AF603
:1049E000B0330022C0F600039C5CA0420AD0013222
:1049F000072AF9D11FA005F07FFE287B95F84D10FE
:104A0000002200E0093295F84E3095F84F4042EA16
:104A1000431242EA041242EAC111C6F884114FF06F
:104A2000FF3101EB9001B1FA81F14909021F18BF72
:104A30000122114001EB900005F10D01009158B1E8
:104A40000099013809680206C6F88811009901F139
:104A500004010091F4D103E000980068C6F88801D1
:104A6000D6F8800140F00100C6F88001384601B058
:104A7000F0BD00BF646C656E20697320696E76615D
:104A80006C69640A000000002DE9F04F81B0044613
:104A90000068C268920740D00D4641F2284104EBFD
:104AA000010942F61461C2F2000101EB850202F530
:104AB000A87705EB051201EBC20104F1700804F1BF
:104AC0006C0A01F1140641F2B03B00BF616F3F294F
:104AD00012DC226E0021FFF781FE206E616F00F173
:104AE000500285724A4588BFA0EB0B02481C226623
:104AF0006067504604E000BF002102F0FBF9404629
:104B00000168013101603868013038603068013077
:104B100030602068C1688907D8D101B0BDE8F08F46
:104B200080B540F2045002F0B4FF40F2025002F0AF
:104B3000B0FF4FF4C06002F09DFF40F2026002F04F
:104B400099FF40F2036002F095FF40F2046002F02A
:104B500091FF40F21C7002F08DFF40F20C5002F009
:104B600089FF40F2197002F085FF40F21A7002F0DE
:104B700081FF40F20E6002F07DFF40F20B6002F018
:104B800079FF44F2E431C2F200014FF400024FF425
:104B900000000A60BDE8804002F0A9BF80B584B083
:104BA00036228DF80020026843688068CDF8012025
:104BB000AA228DF805202522CDF806308DF80A208E
:104BC000CDF80B009B208DF80F00684601F06AFBC2
:104BD0009DE80F0048405040584004B080BD0000A0
:104BE000B0B500F0010442F6F810C2F2000050F82F
:104BF0002400214685680020C5E91B00C5E90100A5
:104C00000BA005F041FDD5E91B234BF29F20C0F618
:104C10000000214605F038FDD5E901234BF2B6200E
:104C2000C0F600002146BDE8B04005F02DBD00BF34
:104C3000204348256420436C6561722052582F54EC
:104C40005820436F756E746572732E0A0000000061
:104C5000B0B590F806E0BEF1040F28BF4FF0040E87
:104C6000BEF1000F08BFB0BD818844F2203C09BAF4
:104C70000A0C0EEB02013F294FF00003C2F2000CB8
:104C80004FF0000188BF8EF03F0200BF00EB4304ED
:104C9000B4F80740013124BA9D188BB2240C9E450C
:104CA0002CF81540F2D8B0BD7047000042F61461F0
:104CB000C2F20001D1F82821D1F828319B1A834291
:104CC00028BF704700BFF7E770B543F60045C0F650
:104CD00000054FF6FF76A81C0021802202F46073C5
:104CE00030F8024C2B431B880CB9B34215D001316C
:104CF0008030082902F18002F0D144F2A034C2F2DF
:104D000000040020208002F093FB208805EBC010F7
:104D100002F054FB02F049FB05E044F2A032C2F27B
:104D2000000211800688304670BD000080B544F254
:104D3000A030C2F20000018843F6024CC0F6000C1D
:104D400001F0070202804FEAC21E4CEAC21044F290
:104D50002032831C0020C2F2000200BF195A1152F7
:104D600002307C28FAD14EEA0C000088A2F87C00C0
:104D700080BD44F22032C0B2C2F2000232F810000C
:104D8000088070472DE9F04144F2A036C2F20006D7
:104D9000308844F2203400F00700C2F2000443F6E9
:104DA0000048308020463E21C0F6000800F060FA3E
:104DB000054602F03DFB31884FF48072481C00F03C
:104DC000070002EBC111308001F4607131F8082056
:104DD0004FF6FF739A4204D041EA080002F0EEFA5F
:104DE000308808EBC010290402F035FB002700BF13
:104DF000308808EB470101EBC01054F8171004305D
:104E000002F029FBB91C8FB23E2FF1D3054602F008
:104E1000CCFA2846BDE8F08144F22033C2B2C2F297
:104E20000003084623F812107047000070B544F2E2
:104E3000E03CC2F2000CD0F83064BCF9001040290C
:104E40001BDB44F2DE3142F6727406F14A020023A3
:104E5000C2F20001C2F20004B1F90050655DD55400
:104E60000D88013301356FF3DF25402B0D80F3D121
:104E7000BCF800104023403923E0BCF900100129A0
:104E80001CDB44F2DE3342F6727E0021C2F20003E4
:104E9000C2F2000E002200BFB3F9004031441EF8F8
:104EA0000440013281F84A40198801316FF3DF2153
:104EB0001980BCF9004091B2A142EDDBBCF8003092
:104EC0000021ACF8001006F14A028121BDE87040D3
:104ED00004F0B9BF2DE9F04381B0D0F830648046CA
:104EE0000120707044F25400C2F2000000270770E5
:104EF000B8F8D80242F61469C6F88C00C2F200096C
:104F0000B9F806100028C1F301313DD044F256052E
:104F10000020C2F200050024002700BF012905D1AE
:104F20003044817A284600F03DFA23E0B9F80610B3
:104F3000304401F44052817A2846B2F5005F03D133
:104F4000FFF780FA16E000BF01F0F8F9B5F8C202E9
:104F500080B10020394600BF2A1892F841204F1C2A
:104F600016FA81F181F84A20B5F8C2120130884260
:104F70003946F1D30134D6F88C10B9F80620A0B226
:104F80008142C2F30131C9D831B906F14A02BBB23C
:104F90004046812104F057FF06F10A0240460321F2
:104FA000402301B0BDE8F04304F033BF7047B0B513
:104FB00040F60004C4F201042046182101224FF4F7
:104FC000007302F0ADFA2046482101224FF48063BD
:104FD00002F0A6FA04F5806528461021022220235B
:104FE00002F09EFA2846482103224FF4807302F013
:104FF00097FA2846182103224FF4007302F090FA22
:105000004FF4EA10012102F0E7FA284610210222AB
:105010004FF4006302F084FA2846482103224FF43B
:10502000805302F07DFA2846182103224FF40053E2
:1050300002F076FA2046182103224FF4006302F0B2
:105040006FFA2046182103224FF4805302F068FAC9
:1050500004F50060102102224FF4005302F060FAC0
:105060002046482101224FF4807302F059FA20466D
:1050700010210322012302F053FA204610210322BB
:105080000423BDE8B04002F04BBA0000FEE7000088
:10509000F0B581B00C46054600266FF02F0700BF23
:1050A000A85DFFF775F857FA80F10A2902D2D021DE
:1050B00005E000BFC1B24139052910D8C921F20766
:1050C000014403D10901700803E000BF7008225CAD
:1050D00011430136802E2154E2D1402001E0F0B28C
:1050E000400801B0F0BD80B540F60000C4F20100F8
:1050F0004FF4807102F06BFA42F6707CC2F2000C41
:10510000BCF8003048B10020D908632B88BF0120CB
:1051100000227C2988BF022006E04FF47A7200202A
:10512000B3F57A7F38BF5A1CACF8002080BD10B5AB
:1051300044F22034C2F200042046382100F098F8EE
:1051400008B1002010BD218842F61460C2F20000B0
:10515000C180A1898181E1890182218A0181618ADD
:105160004181C18801F44051B1F5405F03D1C1884C
:1051700021F44051C1804AF63C32C188C0F6000299
:105180001278C1F30321914205D3C18821F47061E3
:1051900001F54071C180C2884FF0FF3344F25601DF
:1051A00053FA82F3C2F20001F72B81F8C12208D32F
:1051B000C28842F0010222F0FE02C280012281F880
:1051C000C1224AF60A318289C0F60001097802F04C
:1051D0001F028A4205D3828942F0050222F01A0298
:1051E00082814AF658228389C0F600021278C3F3FE
:1051F0000323934205D3838923F4706303F58073FB
:105200008381038A03F01F038B4205D3018A41F097
:10521000050121F01A010182018AC1F303219142A3
:1052200005D3018A21F4706101F5807101824FF08C
:10523000FF3010BDFEE70000B0B54FF6FF72A9B118
:105240004FF0000C4AF2010E10F80C305A400023C7
:105250008EEA5204D50703F1010308BF5408082B56
:105260002246F5D30CF1010C8C45EDD190B2B0BDC6
:10527000B0B54FF6FF72A9B14FF0000C4AF2010E23
:1052800030F81C305A4000238EEA5204D50703F14F
:10529000010308BF5408082B2246F5D30CF1010C7A
:1052A0008C45EDD190B2B0BD704780B54FF4A06091
:1052B00002F0E2FA43200121002202F0AAFA1420AF
:1052C0000221012202F0A5FA40200221022202F06E
:1052D000A0FA252003210122BDE8804002F099BAFE
:1052E000B0B50C4694F8C1320268416E204600F811
:1052F000413F4B7A022B06D083B90B7A042B08D09E
:1053000063B9302308E00B7A042B04D033B940236F
:1053100002E0502300E0602384F8423046F200436C
:10532000C4F20003D21A18BF0122CB7A94F842507B
:1053300043EAC2122A4384F842200A7A0B1D002A4B
:1053400014BFCA79002284F843200A7A04F1410587
:10535000002A14BFCA88002284F844200A7A002A4E
:105360001A4608BF0A461268120A84F845200A7ACB
:10537000002A08BF0B461A6884F84620D1E90312B8
:10538000C4F847100E21C4F84B20FFF755FFA4F8CE
:105390004F000024285D05F087F90134102CF9D165
:1053A000B0BD0000F0B581B0044642F61460C2F210
:1053B00000000025C0F82851B4F8C42200203F2A7C
:1053C00015D8A0184170B4F8C402012808D048B913
:1053D00094F8C102401AB0FA80F04509002006E0B6
:1053E000022504E0052888BF0D2804D8451CA4F830
:1053F000C45201B0F0BD0E2835D00F285FD1651C16
:1054000028461021FFF718FF002858D1A17801F095
:105410007000303800090328C1F3C01251D842F699
:10542000F811C2F2000151F822108A68DFE800F09A
:10543000022E1D236079A179002541EA0020114642
:1054400041F8100F1583A07800F00F001077D4F802
:105450000B00D4F80730C2F821001068C2F81D30E4
:10546000FFF76CFABAE70F25C1E7D4F8030000BADA
:105470005061042005E0D4F8030000BA50614FF4F5
:1054800001701083A07802F110010AE06079A1791F
:1054900041EA0020114641F8100F4FF400701083CC
:1054A000A07800F00F001077D4F80B00D4F8073084
:1054B000C2F821001068C2F81D30FFF73FFA00253E
:1054C0008CE701F00F0001380828F8D8DFE800F079
:1054D000054D262A17662D3D1A0004F14106304677
:1054E00029461022FEF760FE00270025F05D05F03A
:1054F000DBF80137102F4FF00000F7D177E7FFF707
:1055000041FCDCE7E07900283FD041F20000C4F222
:1055100001004FF4005102F001F8D0E72046FFF7F8
:1055200097FBCCE7FFF702FCC9E72046FEF7AEFF8A
:1055300004F1410600270025F05D05F0B5F80137BC
:10554000102F4FF00000F7D151E72046FEF7C6FFBD
:1055500004F1410600270025F05D05F0A5F80137AC
:10556000102F4FF00000F7D141E72046FEF7CDFFA6
:1055700004F1410600270025F05D05F095F801379C
:10558000102F4FF00000F7D131E741F20000C4F2D4
:1055900001004FF4005101F0BFFF90E7012080F3BC
:1055A000138801F013FA42F61461C2F20001CA88AE
:1055B00002F44052B2F5805F18BF7047D1F828114D
:1055C000652924BF0021A0F8C4127047704700006D
:1055D00010B5002002F0C8F9014614A005F054F8F7
:1055E000012002F0C1F9014615A005F04DF8022096
:1055F00002F0BAF9014617A005F046F8032002F0C0
:10560000B3F9014618A005F03FF842F61464C2F25F
:105610000004D4F8281119A005F036F8D4F82C119C
:105620001BA0BDE8104005F02FB800BF20434B5F22
:105630005359532020203D20256C640A00000000AF
:1056400020434B5F4148422020203D20256C640AC6
:105650000000000020434B5F4150423120203D209C
:10566000256C640A0000000020434B5F4150423229
:1056700020203D20256C640A00000000205449438E
:105680004B20202020203D20256C640A00000000D3
:10569000205354414D50202020203D20256C640A89
:1056A000000000002DE9F04742F6146AC2F2000A39
:1056B0009AF8240100EB00100AEBC000068B1CA036
:1056C00004F0E2FF4BF22C3800270FF26C09C0F611
:1056D00000080024002500BF9AF82401F11900EB0E
:1056E000001001F03F010AEBC00000EB4100418BCC
:1056F0004846A14238BF0C46A94288BF0D4604F077
:10570000C3FF07F00700072802D1404604F0F4FF6A
:105710000137402FE0D10AA004F0B6FF9AF8241117
:1057200017A022462B46BDE8F04704F0ADBF00BFEE
:105730004F6C646573740A00253664200000000015
:105740002020202020202020202020202020202059
:105750002020202020202020202020202020202049
:105760002020202020202020202020202020202039
:105770002020202020204E65776573740A000000E9
:1057800043414E2564205258207370656564206142
:1057900074206C617374203634207365636F6E649B
:1057A000732E204D494E3D2564667073204D41583F
:1057B0003D25646670730A0010B544F22034C2F2CD
:1057C0000004A01C6C21FF22FEF700FD42F61460CD
:1057D000C2F200000021C180C288012342F0010210
:1057E00022F0FE02C280C28822F4706202F540728A
:1057F000C280C28822F44052C280C28863F39F32C2
:10580000C280C28822808181828942F0050222F012
:105810001A028281828922F4706202F5807282818A
:10582000828902828289A281028AE28101810189C0
:1058300041F001010181018921F002010181018909
:1058400041F004010181018921F0300101810189C8
:1058500021F480710181018941F400710181018984
:1058600021F480610181018941810189218240897E
:10587000402160820020CFF6FF7060611120C0F2ED
:105880008700A06104F12000FEF7A7FC10BD10B551
:1058900090F8CE10032938D143F27471C2F200019E
:1058A0000A680132052A0A602FD300220A6040F2FA
:1058B0004C01C2F20001096839B344F2AA34C2F2C1
:1058C0000004217809BB44F2DE3C44F2E232C2F229
:1058D000000CC2F20002BCF8003011888B4214D0D8
:1058E000B2F90010BCF9003012889942BCF80010DF
:1058F000B8BF02F50062511A44F2E032C2F200026F
:105900001180FFF793FA01202070002010BD70472E
:1059100010B542F61460C2F20000C18844F220348F
:10592000C2F2000421808189A181018AE18101897B
:1059300021824089372160822046FFF799FCA4F834
:105940006E00BDE81040FFF71DBA00002DE9F04FD2
:1059500085B042F6146AC2F2000A0646DAF82881D7
:1059600056F8105B8346E869B0F1FF3F40F32481AD
:105970004FF000098AF825919AF824010AEB80007B
:10598000D0F83841012CC0F2668142F60047C4F2DB
:1059900001070BF11D000490039401F0A5FD3846AA
:1059A0000021CAF82C9103F05DFA00BF2846314669
:1059B000FEF7C4FF0446384603F052FAB0F57A7F8A
:1059C00000F21E81032CF1D09AF82401C1460AEBA3
:1059D0004000008940050DD42846214601F0FEFB19
:1059E000DAF82C118046B1F57A7F00F21381B8F114
:1059F000010FF1D19AF8240143F27871C2F200014B
:105A00000B4631F8101001318AB2032A23F8101026
:105A10000ED39AF8240143F27871C2F200010322F6
:105A200021F810209AF824010021504480F85A11DE
:105A30009AF824010121504480F84E119AF824016B
:105A4000C8460AEB400000894FF00009800551D597
:105A50009BF819109BF8180081B1142300289AF8BC
:105A60002411DBF8042008BF10235BF803309CA04E
:105A700093A408BF204604F007FE3BE0142300284F
:105A80009AF82411DBF8042008BF10235BF80330D8
:105A90009BF81CC09AA04BF23434C0F6000408BF37
:105AA0002046CDF800C004F0EFFD9BF85D0028B162
:105AB0004AF68750C0F6000004F01EFE9BF81C005A
:105AC000C0B100240498015D4BF22E30C0F60000F6
:105AD00004F0DAFD04F00F000F2805D14AF68750D4
:105AE000C0F6000004F008FE9BF81C00013484425C
:105AF000E8D300BF4BF22C30C0F6000004F0FCFDF0
:105B00009AF824010AEB40000089C00505D5DBE9BD
:105B1000040101300131CBE90401DBF8040001305C
:105B2000CBF804009AF82501039C002840F09080EF
:105B30009AF8240142F211710AEB8000D0F840017A
:105B4000013C88421DD300BFDAF82C019AF82411D9
:105B500064220AEB8101D1F840115043884227D2D8
:105B6000DAF82C0148F29F61C0F2010188421FD887
:105B700001F0BAFC9AF825010028E5D08AF82591B1
:105B800016E09AF824010AEB8000D0F8400178B1C1
:105B9000384603F065F99AF824110AEB8101D1F82F
:105BA0004011884204D2DAF82C01C828F0D300BF93
:105BB000002C3FF7F1AE4EE04AF69460C0F60000CC
:105BC00004F09AFD9AF824419AF824010AF1080198
:105BD00031F81000C0F301159AF8240131F81000D3
:105BE000C0F30110FEF786FD03464BF2DF20C0F63E
:105BF000000021462A4605B0BDE8F04F04F044BD40
:105C00004BF28110C0F60000214605B0BDE8F04F10
:105C100004F03ABD2846214601F0C2FA43A04146AD
:105C200004F032FD9AF824010121504480F85A1101
:105C30009AF8240143F278720021C2F2000222F89D
:105C400010109AF824010221504480F84E1134E0DB
:105C500000208AF825019AF824010AEB8000D0F888
:105C60003801652829D3DAF828019AF824110AF5B1
:105C70009C7252F821104FF47A734B439AF8241116
:105C80009AF82471A0EB0800B3FBF0F652F8272035
:105C90009BF818704BF2D1334BF27E35C0F60003FF
:105CA000C0F60005002F08BF2B4600904BF2BB004A
:105CB000C0F60000019604F0E7FC05B0BDE8F08FE7
:105CC00020545825643A253038642052454D4F54AD
:105CD00045204D53472049443D3078253034580005
:105CE00020545825643A253038642052454D4F548D
:105CF00045204D53472049443D30782530385800E1
:105D000020545825643A25303864204441544120B9
:105D10004D53472049443D307825303858204C4574
:105D20004E3D256420444154413D000020547846B6
:105D300061696C6564205374617475733D307825B6
:105D40003032580A00000000F0B585B000F00104C0
:105D500042F6F810C2F2000050F824002146806894
:105D600005684BF2B210C0F600002A4604F08CFC25
:105D70002A684BF29B10C0F60000214604F084FC18
:105D80006A684BF2C910C0F60000214604F07CFCA2
:105D9000AA684BF2E010C0F60000214604F074FC43
:105DA000EA684BF2F710C0F60000214604F06CFCE4
:105DB0002A692EA0214604F067FC6A6931A02146B9
:105DC00004F062FC2A6A35A0214604F05DFC6A6A90
:105DD00038A0214604F058FCAA6A3CA0214604F0F1
:105DE00053FCEA6A3FA0214604F04EFCAA69D5F8AC
:105DF00018E0A969C1F3074CAB69C3F30211AB69A1
:105E0000C3F38000AB69C3F34006AF69CDE900C1BD
:105E1000CDE902064BF20E204FEA1E6307F00107A0
:105E2000C0F600002146049704F02EFCEA69E869F8
:105E3000E969C1F3807CEB69C3F30167EB69C3F3E4
:105E40000256EB69C3F30341ED69C30F4BF25C20CB
:105E50006FF39F25CDE900C7CDE90261C0F60000D0
:105E60002146049504F010FC05B0F0BD2043414EDE
:105E700025645F524649464F313D30782530384CD5
:105E8000580A00002043414E25645F494E54454E58
:105E9000203D30782530384C580A00002043414ED0
:105EA00025645F464443544C203D30782530384CBF
:105EB000580A00002043414E25645F464453544134
:105EC000543D30782530384C580A00002043414E6C
:105ED00025645F4644544443203D30782530384C97
:105EE000580A00002043414E25645F44425420205C
:105EF000203D30782530384C580A0000F0B581B08C
:105F000000F0010442F6F810C2F2000042F61465F7
:105F100050F82400C2F2000505EB84078668B889B2
:105F20004AF65A2100F01F00C0F6000101EBC00044
:105F3000C2881AA0214604F0A7FBB88905EB4407E4
:105F4000C0F303203A89411C02F0010217A004F0BB
:105F50009BFB3889C0F301153889C0F30110FEF7A7
:105F6000C9FB02464BF2D220C0F60000294604F0DD
:105F70008BFBD6E91B234BF29F20C0F60000214685
:105F800004F082FBD6E901234BF2B620C0F60000F4
:105F9000214601B0BDE8F04004F076BB204348251F
:105FA0006420424155443D256C646B0020464442C8
:105FB0004155443D25644D204644454E3D256400F1
:105FC00070B504461AA0214604F05EFB44F2203569
:105FD000C2F20005A88A012101FA04F619A10642BD
:105FE0001AA016A208BF114604F04EFBE88A1BA1B6
:105FF00006421BA018A208BF114604F045FB288BDF
:10600000E04000F0010119A004F03EFB05EBC404E0
:10601000208C618C41EA004116A004F035FBA08C75
:10602000E18C41EA004116A0BDE8704004F02CBBB1
:106030002066696C746572202564000069646D6176
:10604000736B000069646C6973740000204D4F44E9
:10605000453D25730000000031360000333200005A
:10606000205343414C453D257300000020414354DB
:106070003D2564002052303D3078253038580000EE
:106080002052313D3078253038580A00B0B542F6FC
:106090001465C2F20005E88841F20004C0F3013043
:1060A000C4F2010448B3022870D0012818BFB0BD63
:1060B00020464FF4005101F02FFAD5F82801D5F809
:1060C0002811091A632905D800BFD5F82811091A23
:1060D0006429F9D320464FF4005101F01FFAD5F896
:1060E0002801D5F82811091A63294FD800BFD5F81F
:1060F0002811091A6429F9D348E020464FF40051C9
:1061000001F00AFAD5F82801D5F82811091A6329EF
:1061100006D800BF00BFD5F82811091A6429F9D3A1
:1061200020464FF4005101F0F9F9D5F82801D5F8CF
:106130002811091A632905D800BFD5F82811091AB2
:106140006429F9D320464FF4005101F0E5F9D5F860
:106150002801D5F82811091A632905D800BFD5F8F8
:106160002811091A6429F9D320464FF4005101F08F
:10617000D5F9D5F82801D5F82811091A632905D8C9
:1061800000BFD5F82811091A6429F9D320464FF425
:106190000051BDE8B04001F0BFB903F0FFB8000006
:1061A0004EF68851CEF200010A6841F2000042F436
:1061B0007002C4F202000A6001684FF6FF7241F0FB
:1061C0000101016000214160C1620168CEF6F62242
:1061D000114001604FF47F018160016821F480214A
:1061E0000160016841F4803101604FF6FE7100BF2B
:1061F00003684A1E8A4203D213F400311146F7D0D5
:106200000168890301D400BFFEE742F20001C4F235
:1062100002010A68032363F302020A6041684FF631
:10622000FF7241604168CDF6C3724160416841F43C
:106230008061416041681140416041684FF2000255
:1062400041F0005141F454114160C16ACBF6FE7235
:106250001140C162C16A41F4843141F01901C16247
:10626000016841F08061016001680901FCD50168A5
:1062700041F08071016000BF01688901FCD541686F
:1062800021F003014160416841F00201416000BF1B
:1062900041680907FCD54FF000604FF4804101F0E0
:1062A000F5BA00002DE9F047D0F800A0846847F661
:1062B000B91E4FF000084FF0150CC9F6376E00BF3D
:1062C000F044C8F38109002600EB86077F68BA0016
:1062D000FD0882EA541285EA04152A4486EA090573
:1062E00051F8255087EA08036C4023445A4002EBDA
:1062F0000A0440F826400136022EBA46E4D1D0F80E
:1063000000A082684FEA8A034FEADA0583EA541351
:1063100085EA04152B4489F0020551F825508AEAD4
:1063200008066C40344463409C185FEA0C62846049
:10633000ACF1010C08BFBDE8F087C1E770B50446B9
:1063400000200D46A4F8C202FDF71EFF0068405D64
:1063500010F03E0F19D0B4F8C6620120FF2EA4F849
:10636000C20284F841501DD82846FDF717FF711C62
:10637000A4F8C612A11981F8C10013E0B0F5807F1E
:1063800024BF0020A4F8C20270BD1A2D1DDCA5F1A7
:106390000800082825D8DFE800F0082E052E2E4634
:1063A0002E2E7700B4F8C202E8E742F20800A4F803
:1063B00041000320A4F8C202B4F8C6020821002854
:1063C00084F84310EED001389FE01B2D6FD01D2DB7
:1063D00011D1B4F8C802411C0AB2012AC8BF411E3B
:1063E0006CE0032D07D142F61460C2F200000121D7
:1063F00080F82511D6E742F61060C2F2000000686E
:106400002909415C0122A4F8C22284F8411005F058
:106410000F01405C84F842000320A4F8C20220204F
:1064200084F84300BEE740F60D20A4F84100B4F81C
:10643000C6020221FF28A4F8C21263D804F1C101E8
:1064400000220A540120A4F8C6222070B4F9C80220
:1064500000EBD07222F00102801A43F65442C2F2DD
:106460000002A4F8C80202EB40204FF40072FDF7CE
:10647000D1FEB4F9C802013000EBD07121F0010166
:10648000401AA4F8C8028DE742F61460C2F2000078
:1064900090F8241100EB41000189028901F4007198
:1064A00022F40072114481F4007101817AE7B4F89A
:1064B000C802411E0AB2002A48BF411C43F6544597
:1064C000A4F8C81209B2C2F2000504F1C10005EB3C
:1064D00041214FF40072FDF79DFEFDF7A7FEA4F8E1
:1064E000C602B4F9C81204F1410005EB41214FF492
:1064F0000072FDF78FFEFDF799FE014680B2A4F809
:10650000C2123BE7002084F8C001A4F8C60249E7A4
:106510002DE9F04182B0016846F20042C4F2000267
:10652000891A42F61462C2F20002466E18BF0121B7
:1065300002EB4102128992055CBF02B0BDE8F08116
:10654000737A327A63B12CA5002A826E18BF0436A2
:10655000336821A708BF3D46284604F095F834E08B
:10656000002A826E30464AF68A572BA518BF04309F
:106570000368F47AC0F6000708BF3D462846009439
:1065800004F082F896F84D0028B14AF68750C0F61C
:10659000000004F0B1F8F07AB8B14AF6875806F175
:1065A0000C07002527A4C0F6000800BF795D20462F
:1065B00004F06AF805F00F000F2802D1404604F0FD
:1065C0009BF8F07A01358542F0D320A002B0BDE8F7
:1065D000F04104F091B800BF20525825643A2530AC
:1065E00038642052454D4F5445204D53472049446F
:1065F0003D3078253034580020525825643A2530F3
:1066000038642052454D4F5445204D53472049444E
:106610003D3078253038580020525825643A2530CE
:1066200038642044415441204D53472049443D3073
:106630007825303858204C454E3D2564204441543F
:10664000413D000025303258200000000A000000C3
:10665000704710B584B042F60044C4F201042046ED
:1066600002F002FC7720009000204FF6FF71ADF899
:1066700004000291ADF80C008DF80E00694620462A
:1066800002F09BFC204602F093FC04B010BD000019
:106690004AF60C320021C0F6000200BF52F8213049
:1066A000834203D901310C29F8D10C21C8B27047BB
:1066B0004AF60C320021C0F6000200BF52F8213029
:1066C000834208BF704701310C29F7D14FF4E13004
:1066D0007047000010B582B043F600000021C4F2FC
:1066E0000100ADF806100168090703D54168C9B279
:1066F000ADF806100168890649D544F25401C2F28A
:10670000000101220A7002F089FFADF8060042F68E
:106710001460C2F20000C18801F44051B1F5805FFD
:1067200009D1BDF80600C1B244F25600C2F2000021
:10673000FEF738FE2BE0C08800F44051BDF806009B
:10674000B1F5005F07D1C1B244F25600C2F20000B9
:10675000FDF778FE1BE044F25604C2F20004C1B219
:106760002046FFF7EBFD0020ADF80600BDF806005F
:10677000B4F8C21288420AD2BDF80600204490F84C
:10678000410000F041F8BDF806000130ECE702B02E
:1067900010BDB0B542F61460C2F20000C0884AF6DF
:1067A0000C3143F60004C0F30320C0F60001C4F22C
:1067B000010451F82050204602F034FF2846FFF72C
:1067C00077FF0146204602F0F4FE2046002102F049
:1067D00082FF2046002102F09AFF2046002102F0AD
:1067E00088FF2046082102F08CFF2046042102F099
:1067F0007AFF204640F2053102F062FF2046BDE8F4
:10680000B04002F04CBF000043F60001C4F20101A9
:106810000A681206FCD56FF35F20486008684006DE
:10682000FCD5704743F28070C2F2000003F024BC34
:1068300080B543F28070C2F20000C07968B1FFF702
:10684000AFFCFEF76DF940F20C5001F013F943F282
:106850008070C2F2000002F0B9FF4FF48020BDE862
:10686000804000F09CBD4FF2E070C1F6FF700088E0
:1068700044F2A831C2F200010880800244F2A4313F
:1068800000F10060C2F2000108607047FEE70000FE
:10689000B0B544F2AA35C2F200052978044621B108
:1068A00000F022FE28780028FAD140F24C00C2F213
:1068B00000000021016044F2E231C2F20001B1F9AE
:1068C000002042F67273C2F200039C540A8801321F
:1068D0006FF3DF220A804FF0FF320260088844F233
:1068E000DE31C2F200010130B1F900106FF3DF2098
:1068F000884218BFB0BD0A20BDE8B040FEF7D6B947
:1069000080B500F001FE4FF47A70052100F0BAFD69
:1069100000F0EAFDBDE8804000F0EEBD2DE9F04159
:1069200043F2807841F20004C2F20008C4F201048C
:1069300098F8CE6020464FF4005100F0EFFD032E92
:1069400008BFBDE8F08142F614670026C2F20007D6
:10695000D7F82801D7F82811091A312906D800BF1D
:1069600000BFD7F82811091A3229F9D320464FF46D
:10697000005100F0D1FDD7F82801D7F82811091AE5
:10698000312905D800BFD7F82811091A3229F9D3BF
:106990001E2E0DD2013600F0A7FD98F8CE502046ED
:1069A0004FF4005100F0BAFD032DD1D1BDE8F081C4
:1069B00020464FF4005100F0AFFD44F25400C2F203
:1069C000000001210170BDE8F08100004EF60C507E
:1069D000BFF34F8FCEF200000168042201F4E061A2
:1069E000C0F2FA5211430160BFF34F8F00BFFDE7C1
:1069F0004EF60C50BFF34F8FCEF200000168042218
:106A000001F4E061C0F2FA5211430160BFF34F8F0D
:106A100000BFFDE7D0F828044068817811807047F6
:106A2000D0F828040068017811807047B0B50C4692
:106A30000978054601F0030102290FD031BB95F812
:106A4000CE00022803D095F8CE0003281ED160881E
:106A500001281BD1002085F81A04B0BDA08895F844
:106A6000CE10032912D1618871B940F08001C9B2FA
:106A7000802909D0C1B2284603F050FAD5F82C0479
:106A80002146C268284690470020B0BD0120B0BD15
:106A900090F8CE2000F1CC01032A05D0022A01D1C2
:106AA0000A7822B1012070470A78002AFAD0C0F88B
:106AB000D8100121C0F8E4100020704770B50D46D1
:106AC0000978044601F0030101290BD0002944D1C3
:106AD000698801200A0A022A0BDC012A14D0022A42
:106AE0002CD03BE0D4F82C042946C26820469047BD
:106AF00034E0032A1ED00F2A30D1D4F8280480684D
:106B00008178A4F8E41026E04AF65050C0F6000060
:106B100000EB820050F8043C04F1E406C9B22046C0
:106B200032469847E988C4F8D800402904BF0820B5
:106B3000306012E001F0FE0005280ED84AF65050F1
:106B4000C0F6000000EB820050F8043C04F1E402BF
:106B5000C9B220469847C4F8D8000120D4F8E41000
:106B600099B1EA888AB191420CD2B4F8D40081423A
:106B70000AD3B1FBF0F202FB101028B9012084F80F
:106B8000250401E0C4F8E420002070BD024690F81E
:106B9000CE0003281CBF01207047888810F0FE0F2C
:106BA0004FF0010018BF7047D2F82C140131C2F821
:106BB000D810C2F8E400002070470A78898802F0F3
:106BC0000302022A1FD0012A13D052BB90F8CE1024
:106BD000022903D090F8CE10032922D190F818246E
:106BE00090F81A14002A18BF0122002918BF911C1E
:106BF00021E090F8CE2011F0FE0F4FF0010129D1D5
:106C0000032A1DD026E090F8CE20032A09D10A06D7
:106C100009D4C9B2C1EBC10100EB810101F27621B7
:106C200008E0012116E001F07F01C1EBC10100EB9A
:106C30008101D231097843F27C72C2F200021170F4
:106C400043F27C71C2F20001C0F8D8100221C0F8F2
:106C5000E410002108467047012070478A8852B925
:106C6000CA8842B9897801F07F0180F8CD1090F888
:106C7000CE20032A01D10120704742690029136800
:106C800023F4FE631360136843EA011313600CBF1F
:106C90000121022180F8CE100020704770B5044613
:106CA000488843F27E76C2F2000610F0FE0F307084
:106CB00001D0012529E094F8CE10032910D0022933
:106CC000F7D1010620D0D4F82C144A68C1B220466E
:106CD0009047307884F8CC00032084F8CE0013E08D
:106CE000010614D094F8CC20C1B28A420CD0D4F85A
:106CF0002C04826820469047D4F82C0431784268EE
:106D0000204684F8CC1090470025284670BDD4F862
:106D10002C0400218268204600259047307884F8B2
:106D2000CC00022084F8CE00EFE70020704780B549
:106D30000A7802F00302022A0FD0FAB990F8CE20A6
:106D4000022A03D090F8CE20032A17D149880129BE
:106D500004BF012180F81A140EE08A8890F8CE3022
:106D6000032B0BD1498839B942F08001C9B280297F
:106D700002D0D1B203F0B9F8002080BD012080BD5F
:106D800080B590F8CE20032A03D18A8812F0FE0F36
:106D900001D0012080BDD0F82C24126902B19047A7
:106DA000002080BD00207047D0F82804C06850F84B
:106DB000210001781180704746F20061C4F20001A1
:106DC0000A6800F03F0042F001020A600A6822F4FB
:106DD0007C520A600A6842EA00200860086820F0D5
:106DE00001000860704710B546F20041C4F200018E
:106DF00040F21A44884208BF40F21944204600F08D
:106E000067FE2046BDE8104000F052BEB0B5B9B1F3
:106E1000026840F2010E22F0020202600268CFF620
:106E2000FF7E42F001027346026000BF426823B158
:106E300012F0010203F10103F8D04268D20701D138
:106E4000002154E00B7C4FF0E0654C7C05EA0363C5
:106E50008D7C64F3134305F007048D8A43EA0453E1
:106E60006C1E6FF39F2423444A7891F802C0C362DA
:106E7000D1E90234012A44EA030444F0040308BFC0
:106E800024F00403BCF1010F15D1D1F804C0BCF10A
:106E9000000FD5D0DCF800209CF8055002F020024D
:106EA0001A4342F010039CF8042002F07F0265F3BD
:106EB0000E22826201E023F01003097823F0010220
:106EC000012908BF43F001020262016821F00101BB
:106ED000016000BF42687146BEF1000F04D012F09D
:106EE000010201F1010EF5D1002918BF0121084668
:106EF000B0BD000029B1012902D1102102E000BF7C
:106F0000FEE70C210A5842F020020A507047B0B543
:106F100046F20061C4F2000144890A684FF0010C96
:106F200042F001020A60CB690CFA04F5AB43CB6175
:106F3000C3896FEA050C012B10D023BBCB6803EA91
:106F40000C03CB60B0F806E0438843EA0E434FEAF7
:106F5000C40E01EBC404236403460DE0CB682B434D
:106F6000CB60B0F800E0438843EA0E434FEAC40E1A
:106F700001EBC4042364831D84881B8843EA044313
:106F800001EB0E04636483894C68002B44EA05021C
:106F900008BF04EA0C024A6002894B69002A43EAEE
:106FA000050408BF03EA0C044C61007C012802D1EF
:106FB000C8692843C861086820F001000860B0BDB6
:106FC0002DE9F041026840F2010C22F00202026059
:106FD0000268CFF6FF7C42F001026346026000BF08
:106FE000426823B112F0010203F10103F8D04268B4
:106FF000D20704BF0020BDE8F081036ADA0724D17C
:1070000043F0010202620A7891F801E08C7892075D
:10701000CD7804F00F0804F070046EF31C624E8902
:1070200042EA841205F0070705F0180542EA084213
:10703000013E42EA85226FF39F2642EA075232441C
:10704000C26123F0010202621DE00A7891F801E0BA
:107050008F789207CE7807F00F0507F070076EF370
:107060001C624B8942EA871206F0070406F01806F4
:1070700042EA0542013B42EA86226FF39F2342EA3D
:1070800004521A44C26102680F7922F080034E79DB
:107090008D79CC79012F08BF42F08003036002682C
:1070A000012E22F0400308BF42F040030360026853
:1070B000012D22F0200308BF42F020030360026884
:1070C000012C42F0100308BF22F0100303600A7A7B
:1070D0000368012A23F0080708BF43F00807076088
:1070E000497A0268012922F0040308BF42F0040330
:1070F0000360016821F00101016000BF4268614640
:10710000BCF1000F04D012F0010201F1010CF5D125
:10711000002918BF01210846BDE8F081426922EA32
:1071200001014161704742691143416170470000AC
:1071300081B1042810D880B5DFE800F0030F1829CA
:107140002C004FF080608860002048604FF40030D1
:10715000086080BDFEE700BFFEE700204FF48032EC
:107160000874CA6008604860886080BD4FF4806021
:1071700088824FF4007008820120887400204FF448
:10718000807288700A80C1E90100C86080BD08462D
:107190004E2101E008464F21FDF71FF880BD000099
:1071A00002290BD0012911D0B9B9816841F08001C1
:1071B000816000BF81680906FCD40EE0816841F45B
:1071C0000001816081680902FCD406E0816841F415
:1071D0000041816081680904FCD47047022910D8FD
:1071E00049B210A252F821108068084040F2FF21F5
:1071F000C0F60001884206DC18B10321C0F200414C
:107200000AE00220704740F20031C0F600018842D7
:1072100006D00021C1F2030188421CBF0020704744
:107220000120704703000004000300080000031061
:1072300010B58121044602F0D5FD2046032102F05D
:10724000D1FD2046822102F0CDFD002010BD80B589
:10725000012929D1C1EBC10100EB8102D2F8DC1078
:1072600061B1B2F8D420B1FBF2F303FB121129B9DA
:1072700001210022002302F0E6FD15E044F2E03196
:10728000C2F200010988002944F2AA31C2F20001C9
:1072900006D140F24C030022C2F200030A701A60C9
:1072A000097809B1FDF7C2FD002080BDB0B54AF6EE
:1072B0003D35C0F6000505F13C01044602F0DDFD58
:1072C00005F13501204602F0D8FD05F125012046E3
:1072D00002F0D3FD43F6BC31C2F2000140F20110CE
:1072E000088000204FF4E132C1E92302A1F89400A4
:1072F000082081F896000020C4F83014B0BD03299E
:1073000004D180B5FDF7E6FDBDE880400020704760
:107310004B78D0F83024212B0ED0202B1CD1D0F864
:107320002C34C9884FF0200C83F801C0C0F88812B3
:10733000911CC0F87C120FE0D2F8901042F8021FA6
:1073400092F89210B2F8933011710721A2F805302B
:10735000C0F8D820C0F8E4100020704710B50446EB
:10736000D0F82C044078FF2817D0D4F830044023FC
:10737000D0F80210C0F890108179B0F8072080F89A
:107380009410A0F8952000F10A022046032102F093
:1073900040FDD4F82C04FF214170002010BD40F2C4
:1073A0001441C4F201010860704742F21000C4F2B7
:1073B0000200016841F0800101607047B0B50446E9
:1073C00000F016F800B1B0BD42F21005C4F202059B
:1073D000286840F0020028606C60286840F0400097
:1073E000286000F005F8296821F002012960B0BD8D
:1073F000002142F20C00CFF6F071C4F2020000BF8F
:107400000268D20704D0013124BF05207047F7E796
:107410000168C90644BF042070470168490744BF9A
:107420000220704700680321000701EAE0707047FE
:1074300042F20400C4F20200C168090658BF704756
:1074400040F22311C4F26751016048F6AB11CCF64B
:10745000EF510160704770B50C460546FFF7C8FF55
:1074600000B170BD42F21006C4F20206306840F06E
:10747000010030602C60FFF7BBFF316821F0010193
:10748000316070BD80B540F2020ECFF6F07E43F25F
:10749000000CC4F2000C45F255527346CCF80020A3
:1074A000DCF80C2002F001021BB1002A03F10103F9
:1074B000F6D16AB9CCF80410DCF80C10BEF1000F5C
:1074C00001F0020103D000290EF1010EF4D109B13F
:1074D000002080BD6FF31F30CCF808004AF6AA20C8
:1074E000CCF80000012080BD43F20000C4F200008F
:1074F0004AF6AA210160704743F20000C4F200007E
:107500004CF6CC410160704743F20000C4F2000029
:1075100045F2555101607047416170470161704704
:107520002DE9F047CF0601F00F0C09D5042A05D14B
:10753000C26B4CF0030C1A43C26301E04CEA020C2C
:1075400000F1100E00F1140800244FF0010A4FF072
:107550000F0900270AFA07F21A4010D0056809FA45
:1075600004F6B5430CFA04F6282946EA050603D0CA
:10757000482903D1754600E045462A600660013778
:10758000082F04F10404E5D1082400254FF0010A76
:107590004FF00F090AFA04F21A4010D0466809FAAF
:1075A00005F7BE430CFA05F7282947EA060703D07A
:1075B000482903D1764600E04646326047600134F0
:1075C000102C05F1040508BFBDE8F087E2E78068EC
:1075D000084018BF01207047B0B50422C4F2010270
:1075E000134602F1180E002848BF73461B6800F4CA
:1075F0004014C0F30345B4F5401F1FFA80FC06D1C8
:10760000146823F0E06324F0E06414600DE0C40229
:1076100006D46FF00F0404EA50440CFA04F401E0BD
:107620000324AC40A34343F0E06331B16FF00F019A
:1076300001EA50410CFA01F10B43002848BF7246A1
:107640001360B0BD42F21C00C4F20200006840F3B7
:1076500040007047FDF764FAFDF7A9FCFFF703F956
:10766000FDF732FBFDF762FBFDF761FD18B9FEF790
:10767000A3F8FEF74DF9FDF718FEFEF7EAFFFDF758
:1076800095FCFFF73DF940F20800C2F200000068E7
:1076900041F25971CDF2B711A0FB01014FF0FF305B
:1076A00044F2E83200EB513049F29F51C2F200023D
:1076B000C0F60001B0F1807F116000D3FEE74EF20A
:1076C0001001CEF2000148604EF62350CEF20000C9
:1076D000F02202700020886007200860FC20C0F6BD
:1076E000000004684AF6B7314FF2E870C0F60001B6
:1076F000C1F6FF70FDF752FA84425DD141F20000FD
:10770000C4F20100A0F500604FF48071FFF75FFF45
:107710000020FCF755FF0120FCF752FFFFF739F876
:1077200043F2807040F23C0240F20C03C2F20000CF
:10773000C2F20002C2F20003012102F063FCFFF773
:10774000EDF8FEF7A3FC44F25400C2F2000000780A
:10775000012808BF01F034FB42F6146740F2081418
:1077600044F2560541F28056C2F20007C2F200040C
:10777000C2F20005C2F20006F88810F4405F08BFAC
:1077800001F098FE01F078FC01F0E5FD2046294665
:10779000FCF7DEFF30462946FCF7DAFF002001F057
:1077A000CDFC012001F0CAFC2846FDF7FCFE01F0EB
:1077B00031FDFFF799FEDFE741F2000442F6146560
:1077C000C4F20104C2F2000520464FF40051FFF755
:1077D000A5FED5F82801D5F82811091A312905D8B0
:1077E00000BFD5F82811091A3229F9D320464FF4E1
:1077F0000051FFF791FED5F82801D5F82811091A94
:107800003129E1D800BFD5F82811091A3229F9D356
:10781000DAE74EF60C5CCEF2000CDCF8003003F434
:10782000E063A3F54073B3F5A06F03D21B0AC3F165
:10783000040C08E040F20053C0F2FA53CCF80030D8
:1078400002234FF0020C99400F2323FA0CF31A4045
:1078500011434EF20012CEF20002090140EA020387
:1078600083F8001300F01F01012303FA01F11C2328
:1078700003EAD0008150704740F080604EF60C5112
:1078800040F0FD70CEF20001086070474FF6807244
:10789000C1F6FF72114008434EF60851CEF20001C6
:1078A00008607047B0B547F20003C4F200031A68DD
:1078B00044F2B43E22F003021A60D3F800C04EF244
:1078C000001240EA0C00CEF200021860D2F8100C50
:1078D00044F2B03C40F00400C2F8100C52F8F00C36
:1078E000C2F2000CCCF800001068C2F2000ECEF814
:1078F0000000536844F2B830C2F20000036094689C
:1079000044F2BC33C2F200031C6052F8F04C042570
:10791000C0F201052C4042F8F04C4FF63D04CFF682
:107920007F74C2F880406FF4E064C2F884404FF086
:10793000FF34C2F8884000290FBF30BF40BF20BFCE
:1079400020BFDCF8001042F8F01CDEF800101160D7
:107950000068506018689060D2F8100C20F00400A5
:10796000C2F8100CB0BD000010B541F2040EC4F214
:10797000020EDEF8001001F00C01082941F200218E
:10798000C0F27A0146D1DEF80030DB0304D440F6C1
:10799000001CC0F23D0C25E0DEF82830DEF828C0DF
:1079A0005B0046F60043C0F2DC2358BF0B465FEA9B
:1079B000CC3110D5DEF82810C1F3031CDEF82810F6
:1079C0000CF1010CC1F30321B3FBFCF302311129CB
:1079D00008BF14214B43DEF8281001F00F010131DC
:1079E000B3FBF1FCDEF800301022C3F38343DEF872
:1079F000001002EA5161194401220F2938BF022206
:107A000053180F2B11BF03FB0CF10CEB4C01490079
:107A100001EB5C01DEF800200328C2F30313DEF85B
:107A20000020C2F3022CDEF800400DD80DA2D25C7B
:107A30004AF6963E21FA02F3C0F6000EDFE800F0A7
:107A40000F02060919460AE0002108E01EF80C00A2
:107A500003E0C4F3C2201EF8000023FA00F1084638
:107A600010BD00BF00000000000000000102030480
:107A70000607080941F2000300F01F018009C4F263
:107A800002034FF0010CC2580CFA01F11143C1502E
:107A9000704741F2000300F01F018009C4F20203A5
:107AA0004FF0010CC2580CFA01F11143C15070475C
:107AB00041F2000300F01F018009C4F202034FF0FD
:107AC000010CC2580CFA01F122EA0101C1507047C1
:107AD00041F2000300F01F018009C4F202034FF0DD
:107AE000010CC2580CFA01F11143C150704741F228
:107AF0000401C4F202010A6822F440021043086043
:107B00007047000070B544F2C430C2F2000004684F
:107B1000002C47D04BF28231C0F600012046FCF722
:107B200067FB00284ED044F2C830C2F20000006863
:107B3000002800F08B8000210A22FCF7A1FB4FF007
:107B4000FF3111FA80F1052900F2A38042F6146496
:107B5000C2F2000494F8241104F10C0232F821302E
:107B60004FF4706505EB002000F4706023F470633F
:107B7000184422F8210094F8241194F824014AF6BC
:107B80005A2332F8200094F8245100F01F00C0F668
:107B9000000303EBC00032F82530C288C3F3032092
:107BA000431CA6E04AF6EE70C0F6000002F0A4FD09
:107BB00042F61460C2F2000090F82401BDE8704063
:107BC000FEF79CB94BF28731C0F600012046FCF766
:107BD0000FFB002800F0998044F2C830C2F2000088
:107BE0000068002800F0A38000210A22FCF748FB6F
:107BF00042F61466C2F2000696F8241106F1080255
:107C000032F8113000F0030023F0300343EA001093
:107C100022F8110096F8244196F8240132F8100059
:107C2000C0F3011596F8240132F81000C0F30110DA
:107C3000FCF760FD03464BF2CD20C0F60000214664
:107C40002A4602F021FD96F824015AE091A002F0A4
:107C500053FD42F61460C2F2000090F8241190F82F
:107C6000242100F10C0333F8222090F824014AF675
:107C70005A2502F01F02C0F6000533F8200005EB7C
:107C8000C202D288C0F303234BF26510C0F6000095
:107C90006DE080B2FCF742FD4AF60A31C0F6000101
:107CA0000978B1EB104F98BF70BD42F61464C2F270
:107CB000000494F8241104F10C0232F82130000C75
:107CC00060F3040322F8213094F8241194F824017D
:107CD0004AF65A2332F8200094F8245100F01F008D
:107CE000C0F6000303EBC00032F82530C288C3F3AE
:107CF00003234BF26510C0F6000002F0C5FC94F8B7
:107D00002401BDE87040FCF75BBC77A12046FCF77E
:107D10006FFA80B344F2C830C2F20000006898B332
:107D200000210A22FCF7ACFA00F0010030E064A068
:107D300002F0E2FC42F61460C2F2000090F8244126
:107D400090F8241100F1080232F81110C1F3011566
:107D500090F8240132F81000C0F30110FCF7CAFCBF
:107D600003464BF2CD20C0F6000021462A46BDE86E
:107D7000704002F089BC5DA12046FCF739FA58B189
:107D8000BDE87040FDF78EBC0020FDF7DDFF01204F
:107D9000BDE87040FDF7D8BF56A12046FCF728FA91
:107DA00060B144F2C830C2F200000068C0B10021E6
:107DB0000A22FCF765FA00F0010017E04FA1204607
:107DC000FCF716FAB0B144F2C830C2F20000006805
:107DD000C8B300210A22FCF753FA00F00100EDE6D7
:107DE00042F61460C2F2000090F82401BDE8704031
:107DF000FCF7F6BE43A12046FCF7FAF940B344F283
:107E0000C830C2F20000006850B300210A22FCF71B
:107E100037FA42F61464C2F2000494F8241104F113
:107E2000080232F8113060F3000322F8113094F8A0
:107E3000240136A132F81000C00739A008BF084657
:107E400002F05AFC5BE70020FEF758F80120B5E687
:107E50004AF6EE70C0F60000BDE8704002F04CBC7F
:107E60004AF61060C0F6000002F046FC42F61460CC
:107E7000C2F2000090F8241100EB4100008900F0EC
:107E800001014BF25220C0F60000BDE8704002F044
:107E9000FBBB00BF2063616E2062617564205B6282
:107EA00061756420696E206B6270735D2073657408
:107EB0002043414E2062617564726174652E0A0030
:107EC0002063616E206D6F6465205B307C317C3295
:107ED0007C335D207365742043414E20776F726B55
:107EE000206D6F64652E0A007265670073706565AA
:107EF00064000000636C656172000000737461745B
:107F0000000000006664656E000000004469736153
:107F1000626C652043414E46442E2E2E0A0000001E
:107F2000456E61626C652043414E46442E2E2E0AFA
:107F3000000000002DE9F04782B044F2C430C2F2E4
:107F4000000004680020002CADF8060000F09380CB
:107F50004DA12046FCF74CF908B344F2C830C2F2F8
:107F600000000068002800F08C8000211022FCF73F
:107F700087F944F2CC31C2F2000109680546E1B349
:107F8000084600211022FCF77BF96FF0070184B24C
:107F900011FA80F0382888BF40247CBB4EE041A114
:107FA0002046FCF725F900284DD044F2C830C2F233
:107FB00000000068002864D044F2CC34C2F200040F
:107FC000216800295DD000211022FCF759F92168B1
:107FD0000446084600211022FCF752F9E4B285B2AB
:107FE00020462946FCF718FF30A0294602F04CFB3A
:107FF00033A0214602F048FB43E04024EDB20020CC
:108000000FF28C080DF106090FF2900A002600BF4E
:1080100047193E2F12D8400703D14046394602F097
:1080200033FBB8B24946FCF7A4FEBDF80610504633
:1080300002F02AFB0136B0B28442E9D84BF22C3070
:10804000C0F600001BE04BF26F31C0F60001204685
:10805000FCF7CEF818B1FCF769FE20A00FE04BF258
:108060009B31C0F600012046FCF7C2F818B1FCF7BE
:1080700089FE21A003E04AF63660C0F6000002F057
:108080003BFB02B0BDE8F087726561640000000050
:108090000A3078253034582020000000253034582C
:1080A0002000000077726974650000002077726913
:1080B00074652030782530345820746F000000003B
:1080C00020656570726F6D206164647265737320E2
:1080D000307825303458202E2E2E0A004C6F6164E3
:1080E0002066726F6D20496E742E20454550524FA8
:1080F0004D2E2E2E0A0000005361766520746F20ED
:10810000496E742E20454550524F4D2E2E2E0A009A
:1081100070B586B044F2C430C2F20000046854B3B3
:10812000D5A12046FCF764F8002869D044F2C83095
:10813000C2F20000006842F61464C2F2000478B192
:1081400000210A22FCF79CF894F8241100F00100A9
:1081500004EB41010A8922F4007242EA40200881BE
:1081600094F8241194F8240104EB40000089C0F332
:108170004022C3A09FE04BF27B00C0F6000002F05B
:10818000BBFA42F6146CC2F2000C9CF824119CF865
:1081900024210CF1080434F81220C2F340229CF888
:1081A000243134F81330C3F300239CF8240134F84D
:1081B0001000C0F3802E9CF8240134F81000C0F3A6
:1081C00040009CF8245134F81540C4F380049CF816
:1081D00024510CEB8505D5F838519CF824610CEB43
:1081E0008606D6F84061CDE900E04BF2EE20C0F6FD
:1081F0000000CDE90245049602F046FA06B070BDD3
:10820000A3A12046FBF7F4FF40B344F2C830C2F20A
:108210000000006898B100210A22FCF731F842F60C
:108220001461C2F2000191F8242100F0010001EB79
:1082300042010A8922F4807242EA0020088142F653
:108240001460C2F2000090F8241190F8242100EB91
:1082500042000089C0F300228EA02CE091A12046AC
:10826000FBF7C6FF60B344F2C830C2F200000068FA
:1082700098B100210A22FCF703F842F61461C2F219
:10828000000191F8242100F0010001EB42010A896C
:1082900022F4806242EA8020088142F61460C2F231
:1082A000000090F8241190F8242100EB420000898E
:1082B000C0F380227DA006B0BDE8704002F0E4B9B2
:1082C0007EA12046FBF794FF30B344F2C830C2F2DF
:1082D0000000006898B100210A22FBF7D1FF42F6A6
:1082E0001461C2F2000191F8242100F0010001EBB9
:1082F00042010A8922F0020242EA4000088142F665
:108300001460C2F2000090F8241100EB41000089D3
:10831000C0F340016BA02AE06DA12046FBF768FF87
:1083200050B344F2C830C2F20000006898B1002196
:108330000A22FBF7A5FF42F61461C2F2000191F890
:10834000242100F0010001EB42010A8922F004021D
:1083500042EA8000088142F61460C2F2000090F800
:10836000241100EB41000089C0F3800159A006B040
:10837000BDE8704002F088B959A12046FBF738FFEC
:1083800008B344F2C830C2F20000006868B10021AE
:108390000A22FBF775FF42F61461C2F2000191F860
:1083A000242101EB8201C1F8380142F61460C2F2C7
:1083B000000090F8241190F8242100EB8200D0F8FE
:1083C000382148A077E74BA12046FBF711FF08B3FF
:1083D00044F2C830C2F20000006868B100210A22ED
:1083E000FBF74EFF42F61461C2F2000191F824211E
:1083F00001EB8201C1F8400142F61460C2F20000B4
:1084000090F8241190F8242100EB8200D0F840214C
:1084100039A050E73CA12046FBF7EAFEC8B144F280
:10842000C830C2F20000006858B100210A22FBF7F0
:1084300027FF42F6146100F00100C2F2000181F84A
:10844000240142F61460C2F2000090F824112FA01B
:108450008DE730A12046FBF7CBFE20B106B0BDE88A
:108460007040FDF7B5B84BF27B00C0F6000006B0D7
:10847000BDE8704002F040B973686F7700000000FB
:10848000434825642053484F573D25640A000000A7
:108490006164640043482564204144443D25640AE6
:1084A0000000000073696E676C6500004348256436
:1084B0002053494E474C453D25640A007478666454
:1084C0000000000020545846443D25640A00000086
:1084D00062727300204252533D25640A000000007E
:1084E000636E74004348256420434E543D25640A5E
:1084F000000000007072640043482564205052441C
:108500003D256475730A0000636800002043483D00
:1085100025640A007263630070B542F6146544F284
:10852000C430C2F20005C2F2000095F824110068C0
:1085300068B342F6F812C2F2000252F8211010227B
:108540008C6800210026FBF79BFE20F060406061F4
:108550000420207695F8240144F2C83105EB400050
:108560000089C2F20001C0F3400084F85D000D688C
:1085700001204BF29431A4F85E00C0F600012846B9
:10858000FBF736FE58B102206076267726E04AF6E1
:10859000FE60C0F60000BDE8704002F0ADB804F126
:1085A0001D0128466676FCF773FD94F85D10207770
:1085B00071B1092811D34AF6B0320021C0F6000289
:1085C000535C834208D201310729F9D1402004E0ED
:1085D000082828BF082000E0184620772046BDE87C
:1085E0007040FDF7B3B90000B0B544F2C430C2F238
:1085F00000000468ACB34BF28C31C0F60001204699
:10860000FBF7F6FDD0BB204600210A22FBF738FE1F
:1086100044F2C831C2F200010D684BF2873100F01C
:108620000704C0F600012846FBF7E2FD38B344F228
:10863000CC30C2F20000006800B300210A22FBF730
:108640001FFE44F22032C2F200020121938AA140AF
:1086500043EA0105C00708BF23EA010520469582C9
:1086600086E04AF6AF70C0F6000002F045F800243C
:10867000A0B2FDF7A5FC0134082CF9D1B0BD3EA194
:108680002846FBF7B5FDD0B144F2CC30C2F2000071
:1086900000680028F2D000210A22FBF7F1FD44F225
:1086A0002032C2F200020121D38AA14043EA01052F
:1086B000C00708BF23EA01052046D58258E030A153
:1086C0002846FBF795FDD0B144F2CC30C2F2000051
:1086D00000680028D2D000210A22FBF7D1FD44F225
:1086E0002032C2F200020121138BA14043EA0105AE
:1086F000C00708BF23EA01052046158338E021A101
:108700002846FBF775FDB0B144F2CC30C2F2000050
:1087100000680028B2D000211022FBF7B1FD44F21E
:108720002032C2F200020146000C02EBC4021084A7
:10873000204651841CE014A12846FBF759FDB0B136
:1087400044F2CC30C2F200000068002896D000212C
:108750001022FBF795FD44F22032C2F200020146DE
:10876000000C02EBC40290842046D18400E0204635
:10877000BDE8B040FDF724BC7363616C6500000088
:1087800061637400723000007231000070B54BF20A
:10879000DC360025C0F6000605A400BF701971592B
:1087A0004268204601F070FF0C35782DF6D170BD7F
:1087B000202573202D3E20257300000010B544F2C3
:1087C000C430C2F20000006880B141F20004002110
:1087D0001022C4F20104FBF753FDC00707D1204665
:1087E0004FF40051BDE81040FEF796BE10BD204684
:1087F0004FF40051BDE81040FEF790BEB0B544F212
:10880000C430C2F200000068C0B100211022FBF7A2
:1088100037FD04466FF31100B0F1006F0FD047F63B
:10882000FF7024EA0000B0F1005F08D04AF6D35090
:10883000C0F60000BDE8B04001F05EBFB0BD44F23C
:10884000C830C2F20000006830B100211022FBF7EE
:1088500017FD85B2072D01D84FF4807520462946B3
:10886000FCF7EAFC034603A021462A46BDE8B040D7
:1088700001F00ABF53544152543D307825303858E6
:10888000204C454E3D307825303858204352433DEA
:108890003078253034580A002DE9F04381B0FEF7D6
:1088A000D1FE10B101B0BDE8F08344F2C430C2F291
:1088B000000000680028F5D000211022FBF7E0FC42
:1088C000A8B1044644F2C830C2F200000068002596
:1088D00090B100211022FBF7D3FC87B2B7F5807F5F
:1088E00088BF0125072F98BF4FF4807706E04AF62E
:1088F000D350C0F6000021E04FF48077002D18BF60
:108900004FF48077B7B14BF22E3900260FF23808BA
:10891000C0F60009002500BF300703D131194046D9
:1089200001F0B2FEA15D484601F0AEFE0135AEB2E7
:10893000B742F1D84BF22C30C0F6000001B0BDE8D0
:10894000F04301F0D9BE00BF0A30782530385820F6
:108950000000000010B544F2C430C2F20000046808
:1089600064B34BF26F31C0F600012046FBF740FCC8
:1089700030B116A001F0C0FEBDE81040FCF7D7BB37
:108980004BF29B31C0F600012046FBF731FC30B1C1
:1089900017A001F0B1FEBDE81040FCF7B9BF4BF2E3
:1089A0008C31C0F600012046FBF722FC30B118A044
:1089B00001F0A2FEBDE81040FCF7FEBE4BF2E9005C
:1089C000C0F60000BDE8104001F096BE204C6F617B
:1089D0006420706172616D65746572732066726F78
:1089E0006D20454550524F4D2E2E2E0A000000009E
:1089F000205361766520706172616D657465727374
:108A000020746F20454550524F4D2E2E2E0A0000E7
:108A100020526573746F72652064656661756C744D
:108A200020706172616D65746572732E2E2E0A005E
:108A300044F2C430C2F20000006808B9002003E02C
:108A400000210A22FBF71CFCFCF730F903A001F01F
:108A500053FE012080F31388FDF7CAFF2072656280
:108A60006F6F74696E672E2E2E200A0070B542F665
:108A7000146544F2C430C2F20005C2F2000095F859
:108A80002411006860B342F6F812C2F2000252F8F4
:108A9000211010228C6800210026FBF7F1FB6FF3F8
:108AA000DF202061267695F8240144F2C83105EBD9
:108AB00040000089C2F20001C0F3400084F85D006C
:108AC0000D6801204BF29431A4F85E00C0F600015D
:108AD0002846FBF78DFB58B102206076267727E009
:108AE0004AF63F70C0F60000BDE8704001F004BED9
:108AF00004F11D0128466676FCF7CAFA94F85D1069
:108B0000207779B1092812D34AF6B0320021C0F695
:108B1000000200BF535C834208D201310729F9D11A
:108B2000402004E0082828BF082000E018462077ED
:108B30002046BDE87040FCF709BF000010B544F2C4
:108B4000C430C2F2000004686CB34BF28231C0F64C
:108B500000012046FBF74CFB002856D044F2C830F9
:108B6000C2F200000068002800F0838000210A2281
:108B7000FBF786FBFDF78CFD42F61461C2F20001A3
:108B8000CA8800F00F0022F4706242EA0020C88018
:108B9000C8884AF60C31C0F30320C0F6000151F832
:108BA000201061A073E04BF21B00C0F6000001F042
:108BB000A3FD42F61464C2F20004E0884AF60C31C8
:108BC000C0F30320C0F6000151F8201076A001F098
:108BD0005BFDE0884BF25F32C0F30131E0884BF27D
:108BE000643300F44050B0F5805F4BF2D220C0F601
:108BF0000002C0F60000C0F6000308BF1A4601F0EC
:108C000043FDE088C1B26BA041E04BF28731C0F672
:108C100000012046FBF7ECFAE8B344F2C830C2F298
:108C200000000068002854D000210A22FBF728FB2E
:108C300042F61462C2F20002D1884BF2643321F48E
:108C4000405160F30D31D180D088C0F60003C0F3ED
:108C50000131D0884BF25F3200F44050C0F6000280
:108C6000B0F5805F4AF6C36008BF1A46C0F6000040
:108C700046E042F61460C2F20000C0884AF60C31A9
:108C8000C0F30320C0F6000151F8201035A0BDE864
:108C9000104001F0F9BC3DA12046FBF7A9FA98B3BA
:108CA00044F2C830C2F200000068A8B300210A22D2
:108CB000FBF7E6FA42F61461C2F20001CA8860F3DB
:108CC0000702CA80C888C1B24BF24300C0F6000058
:108CD000DDE742F61460C2F20000C1884BF25F3259
:108CE000C1F30131C0884BF2643300F44050C0F648
:108CF0000002C0F60003B0F5805F08BF1A461EA050
:108D0000BDE8104001F0C0BC4BF21B00C0F60000F3
:108D1000BDE8104001F0F0BC42F61460C2F2000061
:108D2000C088C1B21BA0B2E72073657420554152C0
:108D300054204241554420746F20256C642C2073CC
:108D40006176652026207265626F6F7420746F20D3
:108D50006170706C79206E657720626175642E0A8F
:108D60000000000020554152542042415544203D0E
:108D700020256C640A0000002055415254204D4FBC
:108D80004445203D2025642025730A0061646472F7
:108D90000000000020554152542041444452203DDF
:108DA0002025640A0000000020424155443D256C06
:108DB000640A000020414444523D25640A0000003A
:108DC00070B54AF64A40C0F600000088410AC0F378
:108DD000431200F01F030BA001F056FC4FF2E8769F
:108DE0000025C1F6FF760DA436F81510204601F0D7
:108DF0004BFC0135062DF7D10AA0BDE8704001F00B
:108E00007BBC00BF2056434F4D43414E2076256426
:108E10002E25642E256420534E3A00002530345808
:108E2000000000000A204543484F205374756469D0
:108E30006F203C6563686F2E786A747540676D615A
:108E4000696C2E636F6D3E2E20416C6C20526967F9
:108E50006874732052657365727665642E200A000B
:108E6000406A70474162704710B541F6FF31C4F265
:108E7000000188421BDC40F6FF31C4F20001884249
:108E800030DD41F2FF31C4F20001884251DC40F68E
:108E90000041C4F2000188426AD041F20001C4F2EC
:108EA0000001884240F0838040F2044477E043F2BE
:108EB000FF31C4F20101884226DD44F6FF71C4F29D
:108EC0000101884244DC43F20041C4F201018842BE
:108ED00051D044F60041C4F20101884267D140F20A
:108EE00013345CE0B0F1804F48D040F20041C4F24E
:108EF0000001884245D040F60001C4F200018842DA
:108F000055D140F202444AE041F60041C4F200016A
:108F1000884239D042F20001C4F20001884236D0C2
:108F200042F60041C4F20101884240D140F20B34C4
:108F300035E041F20041C4F2000188422AD041F6F6
:108F40000001C4F20001884231D140F2064426E01B
:108F500045F20001C4F2010188421ED045F20041F1
:108F6000C4F20101884218BF10BD40F2153416E06A
:108F700040F2034413E040F20D3410E04FF48064FB
:108F80000DE040F201440AE040F2074407E04FF4EC
:108F9000816404E040F2054401E04FF4457420464A
:108FA000FEF796FD2046BDE81040FEF781BD10BDDE
:108FB000016841F001010160704780B50A8843F201
:108FC000004C826240F6FF32C4F200029042C4F2CA
:108FD000010C0DDCB0F1804F18D040F20043C4F218
:108FE0000003984212D040F60003C4F200030BE0E5
:108FF00040F60043C4F20003984207D0604505D014
:1090000042F60043C4F2010398420FD1036823F0F3
:10901000700303604B88026803F060031A43026028
:109020008A88036802F010021A43026041F200428B
:10903000D1F808E040F48063C4F200029342C0F823
:109040002CE009D0026822F4407202608A89036829
:1090500002F440721A430260604505D042F60042B5
:10906000C4F20102904201D1897B0163416941F060
:109070000101416180BD00002DE9F04381B042F65D
:109080001460C2F2000090F8240142F6F81100F0DA
:109090000100C2F2000151F8200044F22031C2F276
:1090A0000001498B86686FF3DF213446002044F8C5
:1090B000101F3083012042F600273077C2F20007EC
:1090C000D7F80804B8B344F20048C4F2000807F225
:1090D000FF3900BFD7F8040400250078707700BF7F
:1090E00030682146FBF72AFC032806D1FEF7FCF97D
:1090F000B5F5704F05F10105F2D9D7F80404411C0C
:10910000494588BFA0F2FF31C7F80414404640F239
:10911000053100F0C9FAD7F8080440F205310138EA
:10912000C7F80804404600F0CBFAFEF7DDF9D7F89F
:1091300008040028CED101B0BDE8F083B0B584B0FA
:1091400000F0010142F6F810C2F2000050F82100D0
:1091500080680068846942F61460C2F20000084426
:1091600090F85A2100F5AD7504F0070012B1D0B99E
:10917000002017E0B8B10DA001F086FAC4F3074350
:10918000C4F30210C4F38001220EC4F3400C04F0B7
:10919000010E8DE803100FA02146CDF80CE001F080
:1091A00073FA0120287004B0B0BD00BF205761726F
:1091B0006E696E673A2043414E25642062757320C4
:1091C0006572726F72206F636375727265642E2EA2
:1091D0002E0A00002043414E5F4552523D30782513
:1091E00030384C58205245433D2564205445433D7A
:1091F0002564204C45433D256420424F46463D258D
:109200006420455056463D256420455747463D2538
:10921000640A0000F0B581B042F61460C2F20000AA
:1092200090F84D11002900F09480002144F2D635C9
:1092300080F84D11C2F20005298840F60044013142
:109240006FF35F2144F2D53644F2D437C4F20104FF
:10925000B1F5FF7FC2F20006C2F2000729800EDAE4
:10926000E1B1012930D190F84F11FF22FF2931706F
:1092700080F84F2128D120464FF4006118E01AD021
:1092800040F2FF1291421FD1D0F85411E1B10121F7
:1092900080F84F110021C0F8541115E090F84E11DC
:1092A000FF22FF29397080F84E210ED1204620215F
:1092B000FEF732F908E0D0F8501129B1012180F809
:1092C0004E110021C0F850113978022908D0012927
:1092D00019D12888B0F5817F11D0022805D012E07D
:1092E000288800F03F01032904D120462021FEF701
:1092F00015F908E0203000F03F00032803D1204694
:109300002021FEF709F93078022808D0012820D161
:109310002888B0F5827F14D0042805D019E0288869
:1093200000F03F01052907D120464FF4006101B04C
:10933000BDE8F040FEF7F2B8203000F03F0005280D
:1093400007D120464FF4006101B0BDE8F040FEF7C0
:10935000E3B801B0F0BD42F61460C2F2000001783B
:10936000022904D0012918BF7047FCF78FBEC188BD
:109370004AF6AB22C1F301310131CAF6AA22A1FBA0
:1093800002235A08C38802EB4202891A23F440528E
:1093900042EA0131C180FBF7F5BC0000B0B542F6EE
:1093A0001465C2F20005D5F82C0144F2DA3201301E
:1093B000C5F82C0144F2DC3CC2F20002C2F2000CFF
:1093C0001188BCF80030481C81B242F2117401339C
:1093D000A14219B2ACF80030108034D34FF0000E27
:1093E000A2F800E095F8242105F1140302EB021223
:1093F00003EBC202948804F03F04948095F8242182
:1094000002EB021253F8322095F8244195F824011A
:1094100004EB041400EB001003EBC000808803EBA6
:10942000C40404EB4000C28095F8240100EB001056
:1094300043F830E095F8240100EB001003EBC00086
:109440008288013282800A2918DB44F2D832C2F2C3
:10945000000210880021013083B2B3F57A7FACF8A6
:109460000010108011D31180D5F830010130C5F8FB
:109470003001688840F01000688006E0032988BF4A
:10948000B0BDDFE801F00210080CD5F8280101306A
:10949000C5F82801B0BD012085F84D01B0BDFBF72E
:1094A00022FE2870B0BDD5F834010130C5F8340172
:1094B000B0BD00002DE9F04F81B044F25605C2F274
:1094C00000052878002867D04BF2323105F1C10041
:1094D000C0F60001FAF7B2FE44F2C03644F2C43BD3
:1094E00044F2C83444F2CC3844F2D039C2F2000617
:1094F000C2F2000BC2F20004C2F20008C2F200097C
:10950000306028B34BF23231C0F600010020FAF788
:1095100095FECBF80000D8B14BF23231C0F6000115
:109520000020FAF78BFE206090B14BF23231C0F68A
:1095300000010020FAF782FEC8F8000040B14BF2AB
:109540003231C0F600010020FAF778FEC9F80000B9
:10955000A14634684BF2DC3A0027C0F6000A00BF8F
:109560005AF807102046FAF743FE18B90C37A82F0F
:10957000F6D103E00AEB07008068804744F2D0315F
:109580000020C2F200013060CBF80000C9F80000F2
:10959000C8F800000860287001B0BDE8F08F44F200
:1095A0005401C2F20001097809B1FDF72DB9FDF7A8
:1095B0006FB9B0B5044644F6FF30C4F200000D4662
:1095C00084424FF0000013DD44F60041C4F2000174
:1095D0008C4219D045F20001C4F200018C4213D034
:1095E00043F60001C4F201018C4210D103200CE0CB
:1095F00044F20041C4F200018C4205D044F600015F
:10960000C4F200018C4202D10220FEF7ADF900EB5A
:109610005500B0FBF5F080B2A060B0BD40686FF3BC
:109620005F20704710B544F6FF31C4F20001884254
:1096300015DD44F60041C4F2000188421ED045F217
:109640000001C4F2000188421BD043F60001C4F2BD
:109650000101884218BF10BD40F20E3416E044F2FA
:109660000041C4F2000188420ED044F60001C4F269
:109670000001884212D140F2124407E040F2134444
:1096800004E040F2144401E040F211442046FEF7A9
:109690001FFA2046BDE81040FEF70ABA10BDC168A7
:1096A00041F40051C160704701F01F0289094FF079
:1096B000010C0B580CFA02F223EA02020A5070471E
:1096C00001F01F0289094FF0010C0B580CFA02F24D
:1096D0001A430A507047C26822F4C062C260C2686E
:1096E0001143C1607047C26822F004021143C16097
:1096F0007047026922F4405202610269114301611C
:109700007047C26822F008021143C1607047C26806
:1097100022F48052C260C2681143C16070470000E9
:1097200070B50C46054600200221012A2871697097
:109730002A701CBF012070BD40F200464FF0A042CD
:109740004FF48163C5F20006EA606B80A5F805104E
:10975000E87106F58060C4E9002004F10C006C217A
:10976000A660FAF73AFD06F14000A06704F17C001C
:109770003C21FAF732FD06F52060C4F8B800E8781D
:1097800078B1E968002201F5306100BFA1F50073EE
:1097900004EB82060132F3607162824201F1200122
:1097A000F4D3A87880B1EA68002302F5A06102F53D
:1097B000805200BF04EB83060133F163F26720316E
:1097C000834202F58052F5D3002070BDC17949B1C2
:1097D00041698968C90705D0D0F8C800016821F03F
:1097E000030101607047000070B5049D0C46C1F391
:1097F000074601F47F412868B1F5807F1FD1816B56
:1098000021F4803181631EB1816B41F48011816349
:10981000C1684FF6BF72CFF6DF721140C160C168F8
:1098200021F48011C160016941F00101016100BFB3
:109830000169C907FCD1032000F0A8FA1FE0C16844
:1098400041F04001C160016941F00101016100BFC7
:109850000169C907FCD1032000F098FA2868816BE0
:1098600041F450218163816B41F4001181631EB189
:10987000816B41F480118163142000F0C7F8E0B2DD
:10988000012808D12868816821F01E018160816863
:1098900041F02A018160002070BD416B1822C6F2A0
:1098A00008020A610279012A18BF704700F21C40C1
:1098B0004861086840F08020086070470068C2680E
:1098C00022F0C042C26029B1012918BF70474FF091
:1098D000005101E04FF08041C2681143C160704700
:1098E0002DE9F0410446D0F8C8004FF00008C0F858
:1098F0000080606904F11005016821F4C051016025
:1099000001680160016821F00301016021780129EB
:1099100011D10168002741F003010160286840214E
:1099200031A6416236F81720F9B2284600F098F8BF
:109930000137042FF6D12846102100F005FA2846F9
:1099400000F072F8D4F814E04FF0FF3CCEF810802D
:10995000CEF81480CEF818C0CEF81C80E27812B38E
:109960004FF00008FF26002504EB8507F869002169
:109970000368B3F1FF3F4FF0000302DC036843F0DC
:1099800090430360016186607F6B3868B0F1FF3FF0
:1099900002DC386840F09041013595423960C7F8E3
:1099A0001080BE60E0D3DEF8100040F01000CEF86A
:1099B000100021696FF08040C1F804C0486140F692
:1099C0000000C8F200008861207918B9886940F069
:1099D00010008861886943F20802C0F23C02024329
:1099E00000208A61BDE8F081400040004000400056
:1099F000426900EB81001369526BC06922FA01F1E0
:109A0000C901C9B2806819430840704710B548B110
:109A1000044600BF4FF47A7000F0B8F9FDF764FD1A
:109A2000013CF7D110BD000080B500681021016134
:109A30000169C906FCD4032000F0A8F9002080BD0C
:109A400003320023B3EB920F07D0C06F920800BF20
:109A50000368013A41F8043BFAD108467047000018
:109A600010B5D0F800C0DCF82400D1B1DCF8283003
:109A7000B1F1010E00EB13430CD00021002000BF18
:109A80000CEB8101D1F804410130C1B28E4503EBEA
:109A90001443F5D843EA02400CEB8E01C1F80401EF
:109AA00010BD40EA0240CCF8280010BD80B581B05E
:109AB0000022009291F90020B2F1FF3F02F00F0E58
:109AC00008DD00EB8E02536B0EF1100C012202FA3E
:109AD0000CF205E000EB8E03DB69012202FA0EF2C4
