:020000040800F2
:104000003840002085410008B74E0008614D000887
:10401000B54E00089D440008DD6400080000000063
:10402000000000000000000000000000CF4F00086A
:10403000094B000800000000B94E0008B157000805
:104040009F4100089F4100089F4100089F410008D0
:104050009F4100089F4100089F4100089F410008C0
:104060009F4100089F4100089F4100089F410008B0
:104070009F4100089F4100089F4100089F410008A0
:104080009F4100089F4100089F4100089F41000890
:10409000635B00089F4100089F4100089F410008A2
:1040A0009F4100089F4100089F4100089F41000870
:1040B0009F4100089F4100089F4100089F41000860
:1040C0009F4100089F4100089F4100089F41000850
:1040D0009F410008715900089F4100089F41000856
:1040E0009F4100089F4100089F4100089F41000830
:1040F0009F4100089F4100089F410008FFFFFFFF0C
:10410000000000009F4100089F41000800000000DF
:104110009F4100089F4100080000000000000000CF
:104120009F4100089F4100089F4100089F410008EF
:10413000000000000000000000000000000000007F
:10414000000000000000000000000000000000006F
:104150009F4100089F4400089F4100089F410008BC
:104160009F4100089F410008795B00089F410008BB
:10417000DFF80CD000F030F9004800475D6F000810
:10418000384000200648804706480047FEE7FEE723
:10419000FEE7FEE7FEE7FEE7FEE7FEE7FEE7FEE7F7
:1041A0000D5900087141000800487047C0AA000876
:1041B000A0F16101192900D820387047A0F1410110
:1041C000192900D82030704730B505462A460B46DD
:1041D00012F8010B13F8014B08B1A042F8D01CB142
:1041E000002802D06D1CF1E7284630BD10B504460A
:1041F00004E00B7800F8013B03B1491C521EF8D2D1
:10420000204610BD421C10F8011B0029FBD1801A6A
:104210007047000070B50F4D00B92868002412E007
:104220000A4602E09E4203D0521C1378002BF9D1BB
:10423000DAB2224305D02BB124B1002100F8011BD2
:1042400004E00446401C0678002EE9D12860204690
:1042500070BD0000000000202DE9F04791460F4698
:1042600080460446002614F8015B2DB1FFF79CFF41
:104270000068405DC007F6D12B2D02D02D2D18D03F
:10428000641E4A463946204600F057F827B139687F
:10429000A14201D1C7F8008071054FF002040BD58F
:1042A0004042002803DD06F0B7FB0460A007BDE82C
:1042B000F08746F48066E4E70028F8DA06F0ACFB05
:1042C00004606FF00040F2E72DE9F05F93460F467F
:1042D00080460446002606F09FFBD0F800908246F8
:1042E00014F8015B2DB1FFF75FFF0068405DC00768
:1042F000F6D12B2D02D02D2D1AD0641E0021CAF824
:1043000000105A463946204600F017F8014627B1FA
:104310003868A04201D1C7F80080DAF8000002280E
:1043200009D0CAF80090700505D54842BDE8F09F55
:1043300046F48066E2E70846F8E72DE9F05F82463A
:104340000078002715468B460AF10104B94630284B
:1043500001D09DB113E014F8010B0127782803D098
:10436000582801D045B10AE00DB1102D07D1002722
:10437000102514F8010B02E0082500E00A250026AC
:10438000B0460EE005FB080005FB06F1012701EB36
:1043900010461FFA80F8B6F5803F00D3B94614F8EE
:1043A000010B294600F02AF80028EBDABBF1000FD8
:1043B00005D00FB1641E00E05446CBF80040B9F1BF
:1043C000000F06D006F028FB02210160C81EBDE8E0
:1043D000F09F48EA0640FAE7064C074D06E0E06821
:1043E00040F0010394E8070098471034AC42F6D33C
:1043F000FFF7C2FEA4B50008C4B500083A2800D2F1
:10440000303820F02002412A01D3A2F1370088423F
:1044100001D34FF0FF30704740EA01039B0703D000
:1044200009E008C9121F08C0042AFAD203E011F8F3
:10443000013B00F8013B521EF9D27047D2B201E0B5
:1044400000F8012B491EFBD270470022F6E710B599
:1044500013460A4604461946FFF7F0FF204610BDF2
:1044600030B58C1810F8012B12F00F0301D110F8A1
:10447000013B120906D110F8012B03E010F8015B93
:1044800001F8015B5B1EF9D101E001F8013B521E0E
:10449000FBD1A142E6D3002030BD0000FEE746F686
:1044A0000C00C4F200000068800714BF01207047B0
:1044B00000F05CBA2DE9F04381B000F001044AF647
:1044C000D830C0F6000050F82450286802F01EF9D9
:1044D0004FF001202946C5F821004FF48070A5F85F
:1044E000250043F27420C2F2000000EB4400008972
:1044F000C0F30112286801F8202F02F029F843F2D6
:10450000AC6705F128044FF000084FF001090026C0
:10451000C2F20007B88A09FA06F1084018BF012064
:10452000FA8A85F8290011EA020007EBC60218BFD3
:104530000120138C85F82C0085F82B60EB853B8BD4
:10454000508C19402886908C688618BF0121D08C29
:1045500085F8281085F82A802146A886286802F068
:104560004FF80136082ED5D12868416941F0020183
:10457000416101B0BDE8F0830F294FF0000255D82A
:104580004AF6D83300F00100C0F6000353F82000CB
:104590000068DFE801F0084B184B4B4B2D314B4BBB
:1045A0004B4B352B42450168C2690423920F42EA06
:1045B000C101C269006801F0120103EA127200F041
:1045C0000100114410E0D0F804C0426840232021CB
:1045D00003EA42124368406842EACC1201EAD3017E
:1045E000102303EA501011440A181FE060221DE056
:1045F000C069C0F3034219E0C069C0F3025215E07C
:104600008069C0F30210011F02290CD301280CD0CD
:10461000022814BFC022402208E08069020E05E093
:104620008069020C02E0002200E08022D0B27047D4
:104630002DE9F04F81B04AF6D83100F0010043F285
:104640007424C0F60001C2F2000451F82090D9F899
:104650000CB094F86501A0B1D4F83C013328C0F047
:10466000C680002040F63F7284F8650145F6084098
:10467000C4F200000168114048F2A00251400160FC
:10468000B5E0DBF8D400012823DBDBF8C480DBF8DD
:10469000D4000004B0F5003F44DD43F6780A0BF582
:1046A000C656002741F2E875C2F2000A0AEB07017C
:1046B000404608F1180400F0C7FAB44207F11307A6
:1046C00088BFA8EB0504A046392FEFD10326392374
:1046D0004AE09BF924000128C0F289809BF8BE00C3
:1046E0001321132310FB01B0822100F1250243F6B0
:1046F0003820C2F2000005F0C7FF012084F86501F0
:104700000020C4F83C019BF8BE00411CCAB2072A35
:1047100088BFC11F8BF8BE109BF8240001388BF8AE
:10472000240064E0B0F5803F23D0B0F5003F61D1B4
:1047300043F6780A0BF5C656002741F2E875C2F237
:10474000000A00BF0AEB0701404608F1180400F018
:104750007BFAB44207F1130788BFA8EB0504A04613
:10476000262FEFD10226262343F27424C2F200043E
:1047700008E043F678014046C2F2000100F064FA16
:104780000126132343F6382043F678028221C2F231
:104790000000C2F2000205F077FFDBF8C4800120C0
:1047A0000BF5C65184F865010020C4F83C0106EB06
:1047B000460008EBC000884288BFA0F5C050D9F879
:1047C0000010CBF8C400486920F002004861DBF813
:1047D000D400801BCBF8D400D9F80000416941F027
:1047E00002014161DBF8C8003044CBF8C80001B0D9
:1047F000BDE8F08F0026D2E710B5046802F03F0351
:104800004FF6FF7E03EB430324F002044FEA430C10
:104810000460046844F00103036000BFAEF10103CB
:104820004468734503D214F001049E46F6D04368F1
:10483000DB0708BF10BDC36940F6FF74A3436344A0
:104840000533C361C369C2F3871262F31963C3619D
:10485000C26961F31342C261C269C1F30B1161F312
:104860001652C261016821F0010101604FF6FF712B
:104870004A1E43688A4203D213F001011146F7D160
:10488000406810BD10B586468068042310F0806033
:1048900083EA106008BF10BD0EEB0013D3F880212F
:1048A00003F5C07402F00102C3F8802191F808C03A
:1048B000D3F880216CF38202C3F880210A7A2AB1EE
:1048C000D1F804C0226842EACC0C06E0D1F800C05E
:1048D00022686FF35F5242EA4C5CC4F800C091F862
:1048E00009C022686CF3410222600EEB001291F8BD
:1048F0000DC0D2F884316CF30303C2F88431D1F8CF
:104900000E30C2F88831D1F81210C2F88C1121682B
:1049100041F00101216010BD02290BD0012912D004
:10492000B1B98168C90711D0816889071BD4806833
:10493000400714E08168C90308D58168890312D44F
:10494000806840030BE08168C90503D402207047EA
:10495000002070478168890505D4806840050321DF
:1049600001EAE07070470120704700002DE9F04F28
:104970004AF6D83200F00101C0F6000252F821B028
:10498000DBF80070DBF80C203B4653F80C6FB607E1
:1049900008BFBDE8F08F43F2742500EB001602F16A
:1049A000D00C02F5C65E02F1CC094FF0200A41F2AC
:1049B000E878C2F2000505EB800405EBC60504F5B6
:1049C000B8741035D2F8D460FF2E4FDCD2F8C03066
:1049D000D7F8B061C6F3800119720029D7F8B06129
:1049E00019BFF1085960710D1960D7F8B011C1F302
:1049F00040015972D7F8B411090A1975D7F8B411E2
:104A000001F00F01D972D7F8B8111973D7F8B8119E
:104A1000090A5973D7F8B811090C9973D7F8B81166
:104A2000090ED973D7F8BC111974D7F8BC11090A4B
:104A30005974D7F8BC11090C9974D7F8BC11090E38
:104A4000D974C7F80CA0D2F8C010D2F8D43001F154
:104A500018068872764588BFA1EB0806591CC2F873
:104A6000C0604B46C2F8D41003E000BFC3F800A0FA
:104A70006346196801311960216801312160296894
:104A800001312960DBF800703B4653F80C1F8907A1
:104A900098D1BDE8F08F0000B0B500F001044AF6EF
:104AA000D830C0F60000214650F82400C568002028
:104AB000C5E93300C5E900000BA005F05DFE4BF22F
:104AC000FD20D5E933232146C0F6000005F054FE51
:104AD0004BF21430D5E900232146C0F60000BDE8B2
:104AE000B04005F049BE00BF204348256420436C18
:104AF0006561722052582F545820436F756E74654B
:104B000072732E0A000000007047000043F2742107
:104B1000C2F20001D1F82421D1F824319B1A83423A
:104B200028BF704700BFF7E780B543F22C7043F60B
:104B3000024C43F2AC63C2F20000C0F6000CC2F2B9
:104B40000003018801F0070202804CEAC2104FEA1C
:104B5000C21E821C002000BF115A195202307C284C
:104B6000FAD14EEA0C000088A3F87C0080BD00005A
:104B70002DE9F04381B043F22C7943F2AC654FF656
:104B8000FF7C00234AF201074FF6FF74C2F20009CE
:104B9000C2F20005B9F8002002F0070EA9F800E003
:104BA00035F813104C400021264687EA54040131A1
:104BB000F00708BF74080829F6D301333E2BEFD164
:104BC00042F2040840F2231043F60047C4F2020800
:104BD000C4F26750C0F60007C8F8000048F6AB10F2
:104BE000CCF6EF50C8F80000501C00F007014FF45D
:104BF000807000EBCE10A9F800103843028862459F
:104C000003D002F003F8B9F8001007EBC11021043B
:104C100002F071F8002600BFB9F8000007EB46016A
:104C200001EBC01055F81610043002F064F8B01C07
:104C300086B23E2EF0D3D8F80C0040F08000C8F8C1
:104C40000C0001B0BDE8F08343F27422C2F200020E
:104C5000D2F82821130A0A704B70130C120ECA7076
:104C600000228B708A80C27A8A71837A03F00103F2
:104C700042EA03128A71437A012B04BF42F04002D8
:104C80008A71037A012B05D142F08002031D8A71DB
:104C9000032201E0052203461B6803FA02F2C1F871
:104CA0000720D0E90302C1F80F20C1F80B007047BC
:104CB000B0B5044643F2742043F230750123C2F2CA
:104CC0000000C2F20005D0F8280194F809C029714B
:104CD000020A2870BCF1010F6A704FEA10424FEAD5
:104CE0001060AA70E8704FF00000627B6871207B52
:104CF00023EA02031A4400F0010342EA0312AA71F4
:104D000004BF42F04002AA71237A012B04BF42F093
:104D10008002AA71E32906D0E2291BD16020A5F800
:104D20000700002013E00C21FFF726FC217B4AF648
:104D3000D832E871C0F6000201F0010152F82110EA
:104D400008688069000E287208688069000C687223
:104D50000020A8720020C5F80F00C5F80B00B0BDF8
:104D6000FEE70000F0B581B00C46054600266FF066
:104D70002F0700BFA85DFFF71BFA57FA80F10A2939
:104D800002D2D02105E000BFC1B24139052910D8B7
:104D9000C921F207014403D10901700803E000BFF3
:104DA0007008225C114301362154102EE2D10820F4
:104DB00001E0F0B2400801B0F0BD000010B543F2D0
:104DC000AC6C4FF6FF704FF0000E4AF20103C2F2D6
:104DD000000C00BF3CF81E1048400021024683EA48
:104DE00050000131D40708BF50080829F6D30EF14E
:104DF000010EBEF1380FEDD108B1002010BD43F215
:104E00007420BCF86010C2F200008180BCF8001071
:104E1000C180BCF80C108181BCF80E10C181BCF8B7
:104E200010100181BCF812104181C18801F4405179
:104E3000B1F5405F03D1C18821F44051C180C188E0
:104E400001F44061B1F5406F05D1C18821F4706172
:104E500001F54071C180C2884FF0FF3343F2225107
:104E6000C2F2000153FA82F381F84121F72B08D3F3
:104E7000C28842F0010222F0FE02C280012281F8C3
:104E80004121818901F01E01162905D3818941F054
:104E9000050121F01A018181C18901F01E01162945
:104EA00005D3C18941F0050121F01A01C18101201A
:104EB00010BD0000FEE77047704710B543F2AC64C8
:104EC0006621FF22C2F20004A01CFFF7B7FA43F2EA
:104ED000742100200123C2F2000188808A8842F0F8
:104EE00001028A808A8822F002028A808A8822F05F
:104EF00004028A808A8842F0100222F020028A800E
:104F00008A8822F4407202F500728A808A88A4F8A6
:104F10006020C880CA8842F0010222F0FE02CA80E6
:104F2000CA8822F4706202F54072CA80CA8822F4EC
:104F30004052CA80CA8863F39F32CA80CA882280DE
:104F400088818A8942F0050222F01A028A818A89C0
:104F5000CA818A89A281CA89E28108810A8942F0CC
:104F600001020A810A8922F002020A810A8942F0BA
:104F700004020A810A8922F030020A810A8922F495
:104F800080720A810A8942F400720A810A8922F435
:104F900080620A810A894A810A892282112249890A
:104FA000C0F2870261820021CFF6FF71C4E90512C9
:104FB00045F2FF41A4F86C0004F12000E1831E21BA
:104FC000C0F21401A1664021FFF73FFA10BD7047FF
:104FD00010B543F2742143F2AC6C4FF0000E4AF26C
:104FE0000103C2F20001C2F2000C8888ACF8600034
:104FF000C888ACF800008A89ACF80C20CA89ACF8E3
:105000000E200A89ACF810204989ACF812104FF62E
:10501000FF7100BF414000200A4683EA5101013080
:10502000D40708BF51080828F6D30EF1010EBEF1CF
:10503000370F02D03CF81E00ECE7ACF86E10BDE86C
:105040001040FFF795BD00002DE9F04F8BB000F048
:1050500001084AF6D83043F27426C0F60000C2F2C6
:10506000000650F82840D6F824112068D4F80CB077
:10507000C069B0F1FF3F40F328810020079106EBA3
:10508000880E86F82101DEF84091B9F1010FC0F2D7
:105090006E8106EB080043F2000324224BF28C3AA7
:1050A0000BF10C050EF5A47700F5BD7100F26B1045
:1050B000C4F20003C4F20002C0F6000A0391069095
:1050C00006EB48000021083009904AF6AA20CDF8E6
:1050D0002880CDE9047E9046CDF820901860C6F86F
:1050E0002811116020682946FFF7CCFB414607468E
:1050F000D8F80010B1F57A7F00F20D81042FF1D0BD
:1051000096F8200106EB4000008940050DD400BF51
:1051100020683946FFF700FCD6F82811B1F57A7FF0
:10512000014600F202810129F2D143F2F8300A9BD4
:10513000C2F20000024630F81300013081B222F8BA
:105140001300032909D343F2F8300321C2F200000F
:1051500020F81310039800210170069801210170B6
:1051600009980088800551D59BF815109BF814000C
:1051700079B110210028DBF8002099A008BF0C218C
:105180005BF801308EA108BF08460A9905F0F4FAD1
:105190003CE010210028DBF8002099A008BF0C217A
:1051A0005BF801309BF819704BF2E231C0F6000158
:1051B00008BF08460A99009705F0DEFA9BF8190027
:1051C00020B300270BEB07005E46817E4BF28F3049
:1051D000C0F6000005F0D0FA07F00F000F280FD13D
:1051E0000A204FF0000900BFC0B20AEB090B05F01E
:1051F000EBFB09F101099BF80100B9F1020FF3D1B2
:10520000707E0137B3468742DCD300BF0A2005F029
:10521000DBFB09980088C00505D5DBE903010130F7
:105220000131CBE90301DBF8000043F2742643F2BD
:105230000003C2F20006C4F200030130CBF8000004
:1052400096F82101DDF814E0DDF82090002840F008
:105250008980049F42F211714246A9F10109386820
:1052600088421DD3DDF82880D6F828014FF0640C61
:10527000396800FB0CF088421ED248F29F61D6F8D4
:105280002801C0F20101884216D84AF6AA20186007
:1052900096F821010028E7D0002086F821010BE0D4
:1052A0003868DDF8288038B110683968884203D240
:1052B000D6F82801C828F7D3B9F1000F4AF6AA207A
:1052C0004FF000013FF707AF51E04AF6DA552020D2
:1052D0000124C0F6000500BFC0B205F075FB285DD3
:1052E00001342F2CF8D106EB48000189C1F30112DB
:1052F00000890C2101EA90004AF6D021C0F6000195
:105300000B584BF23D304146C0F600000BB0BDE8F3
:10531000F04F05F031BA4BF276103946C0F6000076
:105320000BB0BDE8F04F05F027BA022F08D84AF6B7
:10533000C4237AB22068C0F6000353F822208260AA
:105340003AA005F019FA03990120087043F2F831E8
:1053500000200A9AC2F2000121F8120006990220E8
:1053600008702AE0002086F82101DDF828800EF57B
:10537000A0700168652920D3D6F82411079A4FF44C
:105380007A734BF24F45C0F60005891A02685A43FA
:105390004BF2DA43B2FBF1F702689BF81400C0F657
:1053A000000300284BF2B00008BF2B460091414695
:1053B0000197C0F6000005F0DFF90BB0BDE8F08FF3
:1053C00020545825643A253038642052454D4F54B6
:1053D00045204D53472049443D307825303458000E
:1053E00020545825643A253038642052454D4F5496
:1053F00045204D53472049443D30782530385800EA
:1054000020545825643A25303864204441544120C2
:105410004D53472049443D307825303858204C457D
:105420004E3D256420444154413D000020547846BF
:1054300061696C6564205374617475733D307825BF
:105440003032580A00000000F0B585B000F00104C9
:105450004AF6D830C0F60000214650F8240005680E
:105460004BF29E10C0F600002A4605F085F92A6826
:105470002EA0214605F080F96A6832A0214605F089
:105480007BF9AA6835A0214605F076F9EA6839A0CB
:10549000214605F071F92A693CA0214605F06CF916
:1054A0006A6940A0214605F067F9AA69D5F818E0B5
:1054B000A969C1F3074CAB69C3F30211AB69C3F32C
:1054C0008000AB69C3F34006AF69CDE900C14FEA84
:1054D0001E632146CDE902064BF2F51007F00107E5
:1054E000C0F60000049705F047F9EA69E869E96940
:1054F000C1F3807CEB69C3F30167EB69C3F3025628
:10550000EB69C3F30341ED69C30F4BF24320CDE9CF
:1055100000C7CDE90261C0F6000021466FF39F2568
:10552000049505F029F905B0F0BD00BF2043414EB8
:1055300025645F43544C2020203D30782530384C82
:10554000580A00002043414E25645F5354415420C3
:10555000203D30782530384C580A00002043414E19
:1055600025645F5453544154203D30782530384CE5
:10557000580A00002043414E25645F524649464F79
:10558000303D30782530384C580A00002043414ED9
:1055900025645F524649464F313D30782530384CBE
:1055A000580A00002043414E25645F494E54454E41
:1055B000203D30782530384C580A0000B0B500F056
:1055C00001044AF6D830C0F60000214650F82450B5
:1055D0001DA0AA8805F0D0F843F27420C2F20000A2
:1055E00000EB44008189C1F30221008900F001022F
:1055F00019A005F0C1F895F82010032906D84AF63D
:10560000D020C0F6000050F8212000E017A24BF295
:105610003030C0F6000005F0AFF8E8682146D0E968
:1056200033234BF2FD20C0F6000005F0A5F8E86832
:105630002146D0E900234BF21430C0F60000BDE84B
:10564000B04005F099B800BF20434825642042418E
:1056500055443D256C646B00204644424155443D11
:1056600025644D204644454E3D256400556E6B6EC5
:105670006F776E0070B504461AA0214605F07CF8DD
:1056800043F2AC6501211AA2C2F2000501FA04F648
:1056900019A1A88A06421AA008BF114605F06CF8A5
:1056A000E88A1BA119A206421AA008BF114605F0FC
:1056B00063F8288BE04000F0010119A005F05CF8C8
:1056C00005EBC404208C618C41EA004116A005F072
:1056D00053F8A08CE18C41EA004116A0BDE870406F
:1056E00005F04AB82066696C746572202564000074
:1056F00069646D61736B000069646C6973740000A8
:10570000204D4F44453D2573000000003136000018
:1057100033320000205343414C453D2573000000C7
:10572000204143543D2564002052303D30782530DF
:10573000385800002052313D3078253038580A0062
:1057400070B582B043F2FD35014610A0C2F20005EB
:105750002A786B78AE78009605F00EF8A8780007E6
:105760000DD000260FA400BFA819C178204605F06F
:1057700003F8A878013600F00F008642F4D30BA09E
:1057800002B0BDE8704004F0F7BF00BF25732043AE
:105790004D443A25303258202530325820253032B9
:1057A0005800000020253032580000000A00000098
:1057B000B0B543F2742E43F6DA0343F6DC0C42F242
:1057C0001174C2F2000EC2F20003C2F2000CDEF845
:1057D00028110131CEF828111A88BCF80010501C8D
:1057E000013182B2ACF800101880A2420AB232D362
:1057F000002018800EF110039EF8201101EB01111A
:1058000003EBC1018C8804F03F048C809EF82011CA
:1058100001EB011153F831109EF820419EF8205100
:1058200005EB051504EB041403EBC50503EBC404F9
:10583000AD8804EB4504E1809EF8201101EB0111D5
:1058400043F831009EF8200100EB001003EBC0008C
:105850008188013181800A2A1FDB43F6D8030022A8
:10586000C2F20003ACF800201888013081B2188021
:10587000B1F57A7F0BD31A80DEF82C010130CEF817
:105880002C01BEF8000040F01000AEF80000DEF879
:1058900024010130CEF82401B0BD072A35D8DFE855
:1058A00002F004050B0F1823292FF0E7DEF8300172
:1058B0000130CEF83001B0BD01208EF86A01B0BDD4
:1058C000DEF8500108B3DEF850010138CEF850017F
:1058D000B0BDDEF85401022838BFB0BDDEF8540177
:1058E0000138CEF85401B0BDDEF834010130CEF8F5
:1058F0003401B0BDDEF838010130CEF83801B0BD5A
:10590000DEF83C010130CEF83C01B0BD4EF6085C3B
:1059100041F20001CEF2000CC4F20201DCF880205A
:1059200042F47002CCF880200A6842F001020A605A
:105930000A689207FCD54A6822F003024A6000BF59
:105940004A6812F00C0FFBD100224FF6FF704A603C
:10595000CFF6F2600B68184008604FF41F000A632E
:10596000886044F20000C0F60000CCF800007047E8
:10597000F0B581B043F600040020C4F20104ADF894
:1059800002002068000744BF6068ADF8020020688C
:1059900080064DD5606843F22255C2F20005C0B2C0
:1059A000ADF802000020BDF80260A5F84201FEF744
:1059B000FBFB0168F0B2095C11F03E0F3AD0B5F87C
:1059C0004671012185F84160A5F842113F2F07D8A3
:1059D000FEF7F4FB791CA5F84611E91981F8C1001E
:1059E000B5F842110020402906D3A5F84201ADF8D0
:1059F0000200BDF8020018E0ADF80200BDF8020098
:105A0000884212D2BDF80200284490F8410060603C
:105A100020680006FCD5BDF802000130ADF8020098
:105A2000BDF80200B5F84211EAE76FF020002060EF
:105A300001B0F0BD0C280DDD0D2823D01B2851D05E
:105A40001D280BD1B5F84801411C0AB2012AC8BF74
:105A5000411E4EE008286DD00A28C1D04BF21742F3
:105A6000010900F00F00C0F60002105C515C85F8DF
:105A70004200032085F84110A5F84201202085F856
:105A80004300ADE740F60D200221A5F84100B5F82E
:105A90004601A5F842113F285DD805F1C101002259
:105AA0000A540120A5F846212870B5F9480100EBF9
:105AB000D07222F00102801A43F20D42C2F20002BB
:105AC000A5F8480102EBC0108022FEF78FFBB5F964
:105AD0004801013000EBD07121F00101401AA5F816
:105AE00048017DE7B5F84801411E0AB2002A48BFC7
:105AF000411C43F20D4608B2A5F848118022C2F2BB
:105B0000000606EBC01105F1C100FEF76FFBFEF7C2
:105B100079FBB5F94811A5F8460105F1410080224D
:105B200006EBC111FEF762FBFEF76CFB81B2A5F834
:105B3000420157E742F208000821A5F8410003207E
:105B400085F84310A5F84201B5F8460100283FF456
:105B500047AF013802E0002085F80001A5F84601B2
:105B60003EE746F20C40C4F200000068800714BF14
:105B700000207047FEF7FABE2DE9F04F83B043F6E0
:105B8000382AC2F2000ADAF800B0DBF84400DBF889
:105B90004010CDE90110000444BFDBF844005FEA87
:105BA000004113D4029C600540F142846FF4806090
:105BB000CBF8440004F098FB9AF81600002800F097
:105BC000FB834020CAF8100000F000BC45F60049F5
:105BD0005946C4F2000900BF00F00F0551F8251026
:105BE00008063DD4080500F17F80080440F1688371
:105BF00059F8250040F68F72104049F82500C5EB92
:105C0000C5000AEB800C9CF8F600002800F03081FB
:105C1000D9F85000490446F2040100EBC500C4F273
:105C2000000100F1488101EB4000002281686FF320
:105C30009F21481CB2EB500F00F056814208BCF87F
:105C4000F200DCF8003109EB400000F5806700BF8E
:105C500037F8040B013A23F8020BF9D144E100BFF5
:105C600059F8250048F60F71002D00EA010046F2B0
:105C7000040149F82500C4F20001D9F8500000EBF6
:105C8000C50051F81000C5EBC5010AEB8108D8F832
:105C900020106FF39F20A8F81C0001EB0002C8F849
:105CA000202000F08980B8F81A30002B00F08480A2
:105CB0005046294604F0E8FC9AF8E401022840F036
:105CC000FF829AF8E601002800F0FA82DAF8001064
:105CD000CA6C60F30602CA64C86C40F08000C864F5
:105CE00000208AF8E601EBE2D9F8500046F2040100
:105CF0000023C4F2000100EBC50001EB4000826804
:105D0000C5EBC5000AEB80006FF39F22511CA0F881
:105D1000FC20B3EB510F0FD0B0F8F220480809EB8C
:105D200042010AF5EA7201F5806100BF31F8043BD7
:105D3000013822F8023BF9D1D9F8000040F68F7102
:105D40000840C9F800009AF8D8819AF8D9719AF8F1
:105D5000DB519AF8D4419AF8D6019AF8D7319AF8DB
:105D6000D51148EA07269AF8DA7140EA03228AF840
:105D7000CC418AF8CD11AAF8CE21AAF8D06147EA21
:105D8000052701258AF8E05104F01F05AAF8D27111
:105D9000AAF8E271022D36D0012D57D0002D40F027
:105DA0008F8214F0600F00F00181DAF804000AF528
:105DB000E67182685046D9E075B1DAF804004269AC
:105DC000002A3FF479AF9AF8E40103287FF476AF14
:105DD0005046294690476FE79AF8E00102287FF481
:105DE0006BAF434633F8260F33F8121C884240F25B
:105DF0000081401A87B218808F4238BF01468BB2AB
:105E00005046002156E704F06000202808D1DAF857
:105E100004000AF5E6718268504690479AF8CD1161
:105E2000032900F00681012900F03681002940F0A5
:105E300029829AF8E401032800F08881022840F0C2
:105E400021825FEA486040F0338139E29AF8E40148
:105E5000032840F01782DAF804000AF5E671826838
:105E600050469047BAF8D201002840F0298263E1F9
:105E7000D9F8500046F204010022C4F2000100EB00
:105E8000C50001EB400081686FF39F21481CB2EB15
:105E9000500F33D04208BCF8F200DCF8003109EBB7
:105EA000400000F5806700BF37F8040B013A23F883
:105EB000020BF9D122E051F8101000226FF39F215C
:105EC000481CB2EB500F0FD04208BCF8F000DCF8D1
:105ED000003109EB400000F5806700BF37F8040B84
:105EE000013A23F8020BF9D159F8250040F60F7258
:105EF000104048F2C002104349F82500634633F8C9
:105F0000FA7F1E461A4636F8020F52F8064F0C4426
:105F1000084430801460DFB1D5B1BCF8F400814290
:105F200016D3390414600024A1EB00423480B1EB95
:105F3000004F38BF2246100C43F60F71188059F8F5
:105F4000250008404BF28001484049F82500B7E1A0
:105F500075B1DAF804008269002A00F0B1819AF87C
:105F6000E401032840F0AC81504629469047A7E160
:105F70009AF8E001032840F0A381BCF80601BCF8C0
:105F8000F410884240F2D280401A0CF5837287B236
:105F900010808F4228BF0846002700043780A0EBFE
:105FA0000142B0EB014F38BF3A46C4E7092900F27D
:105FB0006981DFE811F00A00130167012801670118
:105FC00031014301670150015F019AF8E40100F0DB
:105FD000FE00022840F056819AF8E70128B1BAF88D
:105FE000EA0140F00200AAF8EA0102200AF5F5727F
:105FF000C1E0424632F8243F8B427AD1BAF8E2112E
:10600000884276D8002450460021002314800022C4
:1060100004F03AFBC8F80041C8F8FA4043F60F71A3
:1060200059F8250008404BF28001484049F8250006
:1060300042E69AF8E401032832D1BAF8CE0118BB3F
:1060400048F0800080281FD018F0800048F29003AC
:1060500008F07F00C0EBC0000AEB800000F10C01EB
:1060600008BF00F1EC0140F63F7008BF43F60F7027
:106070000A7859F8227008BF49F280033840584026
:1060800049F822000120C872DAF8040082680AF593
:10609000E671504690474FE09AF8E401032872D029
:1060A000022840F0EF8048F08000802800F008814E
:1060B00018F0800048F2900308F07F00C0EBC000A9
:1060C0000AEB800000F10C0108BF00F1EC0140F682
:1060D0003F7008BF43F60F700A7859F8227008BF66
:1060E00049F280033840584049F822000120C87224
:1060F000E6E0DAF80400C16829B19AF8E40103285F
:1061000001D150468847052043F60F718AF8E00117
:106110000020CAF80001CAF8FA00D9F800000840C7
:106120004BF280014840C9F80000C5E5DAF80400E8
:10613000016909B15046884704200021002200234C
:106140008AF8E001504604F09FFAB9E008F07F00B9
:106150005FEA0861C0EBC0000AEB800000F10C02AE
:1061600058BF00F1EC02D07A0138B0FA80F0400953
:1061700022F80C0F0220AAF826008AF8E001504607
:1061800000210223DFE7BAF8CE01002840F0988012
:106190005FEA4860D0D018F0800048F2B00308F001
:1061A0007F00C0EBC0000AEB800000F10C0108BFCB
:1061B00000F1EC0140F63F7008BF43F60F700A781B
:1061C00059F8227008BF4BF280033840584049F814
:1061D00022000022DAF80400CA7257E79AF8E401B4
:1061E00000F0FE0002284DD1012A69D10020DAF822
:1061F00004108AF8E701BAF8EA018A6820F0020080
:10620000AAF8EA0143E7012A5AD1DAF804008268C1
:1062100001208AF8E7013AE756EA070132D19AF8F5
:10622000E41103292ED010F07F008AF8E6014FF028
:10623000020008BF01208AF8E4017DE7591E062903
:1062400020D8DFE801F004576D1F1F1F1F00DAF888
:106250000800006851E0012F14D19AF8E4010328E6
:1062600069D002280ED100200AF5F4728AF8E801FC
:10627000012063E056EA070143F62441C2F200011F
:10628000087025D09AF8EC0043F60F7240F63F7381
:1062900059F82010114049F280025140012249F87A
:1062A00020108AF8F7209AF80C0059F820101940AD
:1062B00048F29003594049F820108AF8172000BF8F
:1062C000DBF8440001047FF56DACDAF8001083E4DC
:1062D0009AF8E41103293AD00229D3D100283FF4D7
:1062E0002BAFDAF804108AF8E90103208AF8E401F8
:1062F00009681FE7DAF80800806880470028DFD0C7
:1063000001880029DCD0BAF8D231002BD8D09942CC
:1063100038BF0B46426802200021AAF826300FE75A
:106320000528AFD8DFE800F00334383C4044DAF801
:1063300008000069E1E701200AF2E912AAF8260044
:1063400002208AF8E001504600210123FBE6B0B1AB
:106350009AF8E91181427FF4EFAEDAF8040041685F
:106360005046884743F62441DAF80400C2F200019F
:106370000978026850468AF8E9119047DCE6DAF8B5
:10638000041002228AF8E9018AF8E4214968D1E67A
:10639000DAF808004069B0E7DAF808008069ACE78D
:1063A000DAF80800C069A8E7DAF80800406AA4E74C
:1063B000DAF80800006AA0E79AF80E0001284FF00A
:1063C000400014BFAAF81200AAF810009AF8F600CC
:1063D00018B18020CAF8F00009E09AF8EE00012810
:1063E0004FF0800014BFAAF8F200AAF8F00050465F
:1063F00000210022402303F0A7FF50468021002205
:10640000402303F0A1FFDAE90001C26C22F07F0211
:10641000C264C26C42F08002C26401200A6A8AF837
:10642000E4012AB143F638200121C2F2000090476E
:10643000019800EA0405A8050CD56FF40070CBF8AC
:106440004400DAF80400C16921B143F63820C2F2F1
:1064500000008847E80544BF6FF48070CBF8440023
:1064600028051CD56FF40060CBF844009AF8E401CD
:106470008AF8E50104208AF8E401DAE90001026CF7
:1064800042F008020264026C42F0040202640A6AEA
:106490002AB143F638200221C2F200009047E804F6
:1064A00019D5DAE90001026C22F008020264026CDC
:1064B00022F0040202640A6A9AF8E5018AF8E4010B
:1064C0002AB143F638200321C2F2000090476FF44E
:1064D0008050CBF8440003B0BDE8F08FFEE7000029
:1064E0004EF60C50BFF34F8F0422CEF20000C0F2E4
:1064F000FA52016801F4E06111430160BFF34F8F6C
:1065000000BFFDE7B0B5027843F2787EC2F2000E1C
:10651000AAB101304FF0000C022300219CB20131DE
:10652000023344F001050EF804200EF805C010F8FF
:10653000012B002AF2D1022000EB410000E00220F2
:106540008EF80000032180B28EF80110B0BD00006B
:10655000026822F002020260026842F00102026058
:106560004FF6FF72531ED0F804C0934203D21CF0C2
:1065700001021A46F6D04268D20708BF70474A782F
:10658000036802F0010223F0800343EAC2120260B2
:106590008A78036862F386130360CA78036862F33B
:1065A000451303600A79036862F3041303604A79B0
:1065B000036862F3C30303608A79036862F38203AA
:1065C00003600A78C36902F0010223F0804343EAC2
:1065D0008272C2610978C269890762F31E01C161D2
:1065E000016821F0010101604FF6FF714A1E436806
:1065F0008A4203D213F001011146F7D14068704777
:1066000010B5CA78D0F800324FF0010C43F0010306
:106610000CFA02FEC0F800326FEA0E0CD0F81C3201
:1066200023EA0E02C0F81C220A79012A1BD0CABB39
:10663000D0F80C2202EA0C02C0F80C228A89CB782E
:10664000120400EBC304C4F840220A89D4F8403293
:106650001A4304F51173C4F840224A891204C4F89D
:1066600044228A1D1AE0D0F80C2242EA0E02C0F839
:106670000C22CA88CB78120400EBC304C4F8402271
:106680000A89D4F840321A4304F51173C4F8402241
:106690004A891204C4F8442201F10C0212881C68D1
:1066A00022431A604A78012A05D052B9D0F8042250
:1066B00002EA0C0203E0D0F8042242EA0E02C0F81B
:1066C00004228A78012A05D052B9D0F8142202EAAD
:1066D0000C0203E0D0F8142242EA0E02C0F81422A1
:1066E000097831B101290AD1D0F81C1241EA0E0112
:1066F00003E0D0F81C1201EA0C01C0F81C12D0F81B
:10670000001221F00101C0F8001210BD46F2004154
:10671000C4F2000188420BD046F60001C4F2000129
:10672000884218BF70476FF000404FF0004103E00F
:106730006FF000704FF0007141F21002C4F20202DB
:10674000136819431160116808401060704710B554
:106750008221044603F040FD2046022103F03CFD67
:106760002046812103F038FD2046012103F034FD4D
:10677000002010BD002070470020704700207047A7
:1067800010B500F10C02012901F07F030FD002299E
:1067900020D1C3EBC30102EB8102118AE1B112895E
:1067A000B1FBF2F303FB1211B1B902210CE0C3EB10
:1067B000C30102EB8102118AE1B11289B1FBF2F34C
:1067C00003FB1211B1B9012100220023002403F0C0
:1067D0005BFF1DE001241BE040F6100043F2742231
:1067E00001210024C4F20100C2F20002016082F81B
:1067F00065410CE040F6100043F2742201210024B0
:10680000C4F20100C2F20002016082F866414160F8
:10681000204610BDB0B5044690F8320010B1C0203B
:10682000E06207E094F82A0001284FF0C00014BF8E
:10683000E085A08594F8120120B14FF48070C4F86F
:106840000C0109E094F80A0101284FF4807014BF8C
:10685000A4F80E01A4F80C0194F84E0018B14FF4FE
:10686000A070A06409E094F8460001284FF4A070DD
:1068700014BFA4F84A00A4F8480094F82E0120B1EF
:106880004FF4C070C4F8280109E094F826010128EB
:106890004FF4C07014BFA4F82A01A4F828012046C0
:1068A000822101224023012503F04EFD20460221D2
:1068B0000122402303F048FD2046812102221023BB
:1068C00003F042FD204601210222102303F03CFD8B
:1068D00043F2707000214FF4801243F60F7C4BF2AC
:1068E000800EC2F20000057043F27170C2F2000027
:1068F000057043F27470C2F20000016043F2FD3093
:10690000A4F81811C2F20000C4F81C01B4F8100178
:10691000A2EB0043B2EB004F45F6044238BF0B46F2
:10692000180CC4F20002A4F816014FF4800310689A
:1069300000EA0C0080EA0E00106043F26C60A4F8DC
:106940003411C2F20000C4F83801B4F82C01A3EBF2
:106950000045B3EB004F38BF0D46280CA4F83201B8
:10696000506800EA0C0080EA0E0100205160B0BDC2
:10697000012920D002291CBF0120704740F61001D8
:1069800043F2742301224FF0040CC4F20101C2F25D
:1069900000030A60C1F800C083F8672190F8340151
:1069A00083F86801D3F858010130C3F85801C1F8E1
:1069B00004C04A6007E043F2742190F81801C2F263
:1069C000000181F869010020704780B50A7812F053
:1069D00060032ED0202B33D1CB88002B6FD0110633
:1069E00050D40321B0F8F420A0F806311B044FF076
:1069F000000C80F8E01143F2FD31A0F8FCC0C2F2B7
:106A00000001B3EB024FC0F80011A3EB024143F6C3
:106A10000F7238BF6146090CA0F8FA1045F6004025
:106A2000C4F20000016811404BF280025140016045
:106A300045E04A780B2A2ED00A2A33D0062A3ED1C6
:106A400045F6004C90F8EC1043F60F724FF0010E33
:106A5000C4F2000C5CF821301A4049F280035A401D
:106A60004CF8212040F63F71027B80F8F7E05CF89B
:106A70002230194048F2900359404CF8221080F817
:106A800017E01CE043F2FD320221C38480F8E011DC
:106A9000C2F2000210E0887843F2FC31C2F2000139
:106AA00008700CE0012143F2FC320123C184022171
:106AB000C2F2000280F8E011002103F0E5FD0020A1
:106AC00080BD00207047000010B541F20401C4F2FF
:106AD00002010A68C2F3810341F60032022BC0F2C0
:106AE000B7020ED0012B30D033B90A6D920544BFE6
:106AF000CA6A5FEA821252D441F20022C0F27A02DC
:106B000023E0D1F800C00B68C3F3834E0B68C3F3D6
:106B100041731C01002B04F10104234608BF02232A
:106B2000BEF10F0F08BF23465FEACC34734404D490
:106B300040F60012C0F23D0206E00C68A40344BF18
:106B400048F68052C0F25B025A4302604AF6C034F3
:106B50000B68C0F60004C3F30313E35C4AF6D034B9
:106B6000C0F60004DA4042600B68C3F30223E35C22
:106B700022FA03F3C3600B68C3F3C223E35C04246B
:106B8000DA4082600B68096804EA9363C1F38131DB
:106B9000194405A3595CB2FBF1F1016110BD46F641
:106BA0000042C0F2DC22D0E702040608020C081002
:106BB00042F20C02C4F202021168C907014609D16F
:106BC0001068400710D41068C0064FF0020058BF8C
:106BD000032017E0C1F101011068C00706D00131A0
:106BE0000129F9D10420704701200BE0106840070B
:106BF00006D41068C0064FF0020058BF032000E022
:106C000001204942002908BF04207047B0B504465E
:106C1000B0F1046F22D34FF0FF3000F03DF80328AD
:106C200038D142F21005C4F20205D5F8800040F0D8
:106C30000200C5F88000C5F88440D5F8800040F017
:106C40004000C5F880004FF0FF3000F025F8D5F87F
:106C5000800020F00200C5F88000B0BD4FF08040F9
:106C6000FFF7A6FF032818BFB0BD42F21005C4F21B
:106C70000205286840F0020028606C60286840F037
:106C8000400028604FF08040FFF792FF286820F016
:106C900002002860B0BD000042F28C02C4F2020281
:106CA0001168C907014609D11068400711D410685E
:106CB000C0064FF0020058BF032018E0C9B1C1F16F
:106CC000010100BF1068C00705D001310129F9D1C9
:106CD0000FE001200BE01068400706D41068C006E2
:106CE0004FF0020058BF032000E00120494201B1EB
:106CF00070470420704770B50446B0F1046F0D462C
:106D00004FF4801019D3FFF7C7FF03282BD142F2AD
:106D10001006C4F20206D6F8800040F00100C6F862
:106D200080004FF480102560FFF7B6FFD6F8801082
:106D300021F00101C6F8801070BDFFF739FF03286C
:106D400018BF70BD42F21006C4F20206306840F06F
:106D5000010030604FF480102560FFF729FF316893
:106D600021F00101316070BD80B507A0FFF7CAFBBB
:106D700043F6284143F27872C2F20001C2F20002E7
:106D8000088008464A6080BD55534243414E204327
:106D90006F6E66696700000043F628402E21C2F23C
:106DA000000001804AF6E031C0F600014160704702
:106DB00043F628401221C2F2000001804AF6104139
:106DC000C0F600014160704780B507A0FFF79AFB4D
:106DD00043F6284143F27872C2F20001C2F2000287
:106DE000088008464A6080BD55534243414E2049C1
:106DF0006E746572666163650000000043F62840AA
:106E00000421C2F2000001804AF62441C0F60001CC
:106E10004160704780B507A0FFF774FB43F6284137
:106E200043F27872C2F20001C2F200020880084602
:106E30004A6080BD4543484F2053747564696F00B4
:106E40000020704780B507A0FFF75CFB43F62841A0
:106E500043F27872C2F20001C2F2000208800846D2
:106E60004A6080BD55534243414E2D554331320057
:106E70000020704780B507A0FFF744FB43F6284188
:106E800043F27872C2F20001C2F2000208800846A2
:106E90004A6080BD464646464646464646464646C3
:106EA000464646464646464646464646000000009A
:106EB000B0B58B790A88032B09D05BB949792829A9
:106EC00001F00F0E12D0182908BF02610FE04FF039
:106ED000000E0CE003F0080C0B79C97903F00403F1
:106EE00001F00301634403EB010E00E0426111066F
:106EF00016D000234FF00F0C002100BF22FA01F43E
:106F0000E40709D004680CFA03F5AC430EFA03F564
:106F1000046004682C430460013104330829EDD176
:106F2000B2F5807F38BFB0BD120A00234FF00F0CBE
:106F3000002100BF22FA01F4E40709D044680CFAEA
:106F400003F5AC430EFA03F5446044682C434460F7
:106F5000013104330829EDD1B0BD000088B041F201
:106F60000405C4F2020555F8040C40F0010045F890
:106F7000040C00BF55F8040C8007FBD5286820F0EE
:106F800003002860286810F00C0FFBD100204FF69A
:106F9000FF722860CFF6F26255F8041C114045F8E4
:106FA000041CE8624FF41F00686055F8040C40F4BC
:106FB000803045F8040C00BF002000BF020B55F8DC
:106FC000041C022A04D811F4003100F10100F5D0AC
:106FD00055F8040C8003EFD5286840F48030286011
:106FE000286840F400302860286840F47010286059
:106FF000286820F0C0402860286840F000402860E1
:1070000055F8040C40F0807045F8040C55F8040C59
:107010008001FBD52868042120F0F0002860286852
:1070200020F460502860286861F30A20022128605B
:10703000286D40F030002865286861F30100286061
:10704000286800F00C000828FAD1286D20F03000E4
:1070500028652868C0F3810141F600300229C0F29A
:10706000B7000FD001292FD039B9286D800544BF52
:10707000E86A5FEA801001F15A8241F20020C0F212
:107080007A0021E029682A68C2F383422B68C3F39F
:1070900041731F01002B07F101073B4608BF022384
:1070A0000F2A08BF3B46C90303EB020104D440F694
:1070B0000010C0F23D0006E02A68920344BF48F683
:1070C0008050C0F25B00484343F2F0334AF6C032CE
:1070D00040F22C0940F6000703AE42F2040A4FF4D6
:1070E0008064C2F20003C0F60002C4F20109C4F2D7
:1070F0000107C4F2020A18602968C1F30311515C48
:10710000C84002211860686940F00400686168693D
:1071100040F008006861686940F0100068616869C3
:1071200040F001006861686940F480406861A869C6
:1071300040F40000A861A86940F00070A861A86947
:1071400040F00040A861A86940F00100A861A8696A
:1071500040F00200A861286840F4400028602868D8
:1071600020F000602860A86840F00400A860A868CB
:1071700020F00400A860A86840F00800A860A86893
:1071800020F00800A860A86840F01000A860A86877
:1071900020F01000A860A86840F00100A860A8686E
:1071A00020F00100A860D9F8040061F312403146D4
:1071B000C9F804000720ADF8104003904FF4887020
:1071C000ADF812003846FFF773FE41F6000B4FF49E
:1071D000807031460390C0F2001B3846CDF810B0E5
:1071E000FFF766FE40F200484FF40070314603900E
:1071F000C0F208183846CDF81080FFF759FE38461F
:107200003146CDE9034BFFF753FE4FF4C0503146F2
:10721000CDE903083846FFF74BFE4FF4026007F54F
:1072200080643146039040F20040C0F21010049098
:107230002046FFF73DFE4FF400503146039041F2E7
:107240000000C4F20100FFF733FE4FF488503146CE
:10725000CDE9030B2046FFF72BFE4FF408503146D3
:10726000CDE903082046FFF723FED9F800000221EC
:1072700061F30300C9F80000DAF81800800735D47C
:1072800048F6AB1440F223164FF08040C4F2675624
:10729000CCF6EF54CAF80060CAF80040FFF788FC4B
:1072A00003281DD1CAF80460CAF80440DAF80C00BB
:1072B0008005FBD5DAF80C0040F02000CAF80C007D
:1072C000DAF80C0040F04000CAF80C004FF08040A3
:1072D000FFF76EFCDAF80C0020F02000CAF80C0072
:1072E000DAF80C0040F08000CAF80C0043F60040C9
:1072F000002280234FF6FF76C0F60000811C00BFFD
:1073000003F4607431F8027C044324880FB9B4425A
:107310001FD0013280318033082AF1D143F22C7121
:107320000022C2F200010A8040F22311C4F2675128
:10733000CAF8001048F6AB11CCF6EF51CAF80010AD
:10734000FFF764FCDAF80C0040F08000CAF80C008B
:1073500005E043F22C70C2F200000280088843F27C
:10736000F03AC2F2000AFDF7DFFBFDF727FD18B97E
:10737000FDF7A3FDFDF72CFE4EF60C5E4FF6FF0267
:107380004EF214434EF2100C4FF0000904264FF059
:107390000108CEF2000ECEF20003CEF2000CDEF8B1
:1073A0000010114041F0806141F0FD71CEF80010F5
:1073B000AA6D42F00102AA65DEF8002083F836903B
:1073C0004FF48062CCF8F820DEF80020C2F30222ED
:1073D00082F00707042F28BF3746D41E4FF0FF3234
:1073E00002FA07F14FF0020738BF002427EA010133
:1073F000A14002FA04F428EA0404214309011970A7
:107400004FF48011CCF8F010DEF80010C1F3022127
:1074100081F00704042C28BF3446033902FA04F42F
:1074200038BF002127EA04048C4002FA01F127EA60
:1074300001012143090183F831102021CCF8F81013
:10744000DEF80040C4F3022484F00700042838BFAB
:107450000646E01E02FA06F44FF6FF7638BF00201B
:1074600027EA040404FA00F0000158741423CCF84D
:10747000F410C4F20003E86840F00100E860E86836
:1074800020F00100E8602F209E615861186840F0EC
:10749000010018604FF08040016821F440710160E4
:1074A000016821F070010160016841F00101016093
:1074B00040F2CF71E86840F00200E860E86820F030
:1074C0000200E86040F22840C4F20000466001601B
:1074D00041F25971D3F80004CDF2B71140F0010028
:1074E000C3F80004D3F8EC0320F44070C3F8EC03B5
:1074F000D3F8EC0320F07000C3F8EC03D3F8EC03EE
:1075000040F00100C3F8EC03DAF80000A0FB010131
:1075100002EB5132B2F1807F01D300BFFEE7F020D1
:1075200043F20004CCF8042005214AF2C5128EF87B
:1075300017000720CCF80890C4F20004C0F600023F
:10754000CCF8000045F255502060606861F30200FD
:1075500043F63041606040F27120C2F20001A06049
:107560004AF6AA2020604CF6CC40206040F254003D
:107570000A60C2F200000068FFF7C8F840F28C0011
:10758000C2F200000068FFF7C1F803A8FFF79CFAF9
:1075900005984BF2C53143F6382AC9F2A211C2F25E
:1075A000000A00EB80004000A0FB011245F2D5214B
:1075B000CEF60411A0FB0101100C0A0D02EB8203B0
:1075C000A0EB4300042843F60C00C4F2010050F87D
:1075D000043C88BF08EB115223EA0601114404F56C
:1075E000305240F8041C016821F480510160416868
:1075F00021F440514160016841F0080101600168D7
:1076000041F004010160016841F02001016001685E
:1076100041F40051016040F2080040F22C01C2F236
:107620000000C2F20001CAE90020CAF808108AF876
:10763000E48102F059FEDAF80000016C21F001014A
:1076400001648021C0F84490C0F8509043F274293E
:10765000C164C2F20009016C41F41E410164016C75
:1076600021F0020101649AF8E401032842D00020CD
:107670004FF4005141F20002C4F201021161D9F845
:107680002421D9F824319B1A312B05D800BFD9F811
:1076900024319B1A322BF9D341F20002C4F20102C9
:1076A0005161D9F82421D9F824319B1A312B05D8FE
:1076B00000BFD9F824319B1A322BF9D31E280CD2E3
:1076C00043F200024AF6AA230130C4F2000213601A
:1076D0009AF8E421032ACDD10CE041F200014FF4E5
:1076E0000050C4F20101486143F220500121C2F26E
:1076F0000000017041F200014FF4005043F2FD38E8
:1077000043F222564BF293344BF2E44B0025C4F281
:107710000101C2F20008C2F20006C0F60004C0F681
:10772000000B08610FF61460416802910189807AAC
:10773000019100909AF8E401032840F0E58499F85B
:107740006901002800F03B8299F8690189F86951C4
:1077500098F8001012292FD198F801100139142936
:107760002AD8DFE811F01500290036005C00290056
:107770007C00290029002900290029009800AA007E
:10778000C600160129002900420158017101BA0101
:10779000042840F0EC8198F80200012840F0E781CD
:1077A00043F2105040F21211C2F20000C0F2830105
:1077B00001604FF481712BE1B9F8040010F0300F33
:1077C00000F0D5814BF2DD30C0F60000FDF7B8FFC8
:1077D000CDE1072840F0CB8198F804004AF6D83272
:1077E0000123C0F60002C0F3001152F8211043F645
:1077F000E002C2F2000211604FF0FF320D61C1E9F8
:1078000005250B77B8F80520A1F81D20022202EA11
:107810009010C87743F2105040F2123147E00D2823
:1078200040F0A58198F802000A2840F0A08143F6B4
:10783000E002D8F80500D8F80910C2F20002126878
:1078400000BA09BAC943106198F80400516140F2C6
:107850001241C0F38010107743F2105027E0052842
:1078600040F0858198F80200022840F0808143F2C0
:107870001050C2F20000014640F21260C0F28A00CD
:10788000C1F8055008600120087140F29530C1F838
:1078900009000D2069E1072840F0698198F802008D
:1078A000042840F0648143F2105040F61241C2F2C5
:1078B0000000C0F28101016056E1062840F05781C6
:1078C00098F80200032840F0528143F2105098F8D3
:1078D0000510C2F20000044640F61250C0F28200C9
:1078E000206098F80400C0F30010FCF745FE2071FA
:1078F000A8E0052840F03B8198F80200022840F0FB
:10790000368198F80400042140F2011201EA900047
:107910004AF6D831C0F600010C5843F6E000C2F236
:1079200000000460E07F2146A4F8252001F8200F24
:107930004FF00120C4F821002068FEF709FE2068FE
:10794000A17F627FFCF758FF2146227F012084F847
:107950002C50C4F83250C4F82E5041F8285F84F8F7
:107960002A5008802069012A40F0D0804FF6F87C28
:107970004FF0020E676900EA0C020EEA50031A4447
:107980000CEA070C0EEA570363444FEA174C012731
:10799000C6E0052840F0EB8098F80200122840F07D
:1079A000E68098F80400042101EA90004AF6D831F4
:1079B000C0F600010C5843F6E000C2F2000004607B
:1079C0002068FEF7A3FE2068416921F002014161B1
:1079D000607A00B1657243F21051B8F80000C2F24B
:1079E0000001088081204880BEE0042840F0BF806C
:1079F00098F80200012840F0BA8043F2105041F29A
:107A00001221C2F20000C0F28301016041F20601BE
:107A100081800620A9E0042840F0A98098F802009F
:107A2000012840F0A48043F21050C2F20000014649
:107A300041F21230C0F282000860B9F80400C0F3CD
:107A400001200871052090E0042840F0908098F80B
:107A50000200012840F08B8043F210504BF2174394
:107A6000C2F20000C0F60003024641F21240C0F22A
:107A70008D001060DFF8C40A506002989060019891
:107A8000908100989073FC20C0F600000068010F00
:107A9000595C1171C0F30361595C5171C0F303511A
:107AA000595C9171C0F30341595CD171C0F303314A
:107AB000595C1172C0F30321595C5172C0F3031178
:107AC00000F00F00D573185C595CD07243F232207D
:107AD0009172A2F80D00102047E0042847D198F8D1
:107AE0000200012843D143F2105041F21251C2F278
:107AF0000000C0F28701016045F25531C4F2423105
:107B0000416044F6416101810A202EE062696FF014
:107B10000F03002703EA124C4FF6F073134002469E
:107B2000000C2286A4F832C0A38684F82C7084F856
:107B30002B50E0852068FEF763FD20680122416933
:107B400041F00201416143F6E000C2F20000B8F8E2
:107B5000001000684272827143F21050C2F20000BD
:107B60000246018081205080042000F02FFDB9F8EA
:107B7000040000F03000302803D10FF6CC10FDF7E0
:107B8000DFFDBAF810014FF48012CAF81C81AAF880
:107B90001851A2EB0041B2EB004F43F60F7238BF11
:107BA0002946080CAAF8160145F60440C4F2000064
:107BB0000146006810404BF280025040086099F87E
:107BC000660118B3D9F8380133284BD345F6044081
:107BD00089F8665140F63F72C4F200000146006821
:107BE000104048F2A0025040086043F6F300C2F291
:107BF0000000A0F841510570B9F8040010F0300FF2
:107C000030D00FF64C1002F0B7FD2BE043F6F30036
:107C1000C2F2000090F90000012823DB43F6F300D4
:107C20001321C2F20000044690F8420110FB01410A
:107C3000204490F8313150464A1C812102F024FD45
:107C4000012089F86601C9F8385194F84201411CB5
:107C5000CAB20F2A88BFA0F10F0184F84211207820
:107C60000138207043F6F200C2F2000000780628C6
:107C700060D8DFE810F007008800EB004A0135000B
:107C80006D01AD0199F867015746002800F0228286
:107C900099F8681143F6F0000022C2F2000013299F
:107CA000017089F8672118BF392940F0B683D9F8E7
:107CB0005C0103210130C9F85C0143F6F100C9F809
:107CC0003421C2F20000027043F6F200C2F200005A
:107CD00001701420C9F83021C4F200000261F9E1FA
:107CE00043F26C604FF48002AAF834515746C2F256
:107CF0000000CAF83801BAF82C01A2EB0041B2EB3F
:107D0000004F43F60F7238BF2946080CAAF832011B
:107D100045F60440C4F200000146406810404BF2B2
:107D200080025040486043F6F2010520C2F2000193
:107D30000870C8E143F26C604FF48002AAF8345135
:107D40005746C2F20000CAF83801BAF82C01A2EB7B
:107D50000041B2EB004F43F60F7238BF2946080CC2
:107D6000AAF8320145F60440C4F20000014640681A
:107D700010404BF280025040486043F6F200C2F2DD
:107D800000000570A6E143F6F10043F26C62132196
:107D900043F6E406C2F20000C2F20002C2F200069C
:107DA000007810FB012104228879316043F6E8064F
:107DB000C2F2000602EA90004AF6D832C0F600028B
:107DC0001458D1F80700E7684209C008346043F648
:107DD000EC06C2F200063B46386143F80C2F4879A6
:107DE0003360B8754A7902F00102FA758A79D209CE
:107DF0003A758A79C2F380127A758A79C2F30012D1
:107E00003A768A7902F00F027A76D1F80F20D1F80B
:107E10000B10C7F81E20C7F81A10E168097A8142D2
:107E200003D1A179002900F01C81032800F206810A
:107E3000DFE800F00202F9F9E07F012184F8241064
:107E40000238B0FA80F040094000F5E043F6E8005F
:107E500043F2F4315746C2F20000C2F20001046856
:107E600020680978FCF758FD216882468969C1F3CA
:107E70000218B9F80410890605D50FF208705146AA
:107E8000424602F079FCBAF1040F18BFBAF1020FB2
:107E900000F02081BAF1010F0CD0B8F1030F40F0CF
:107EA000C78243F6EC00C2F200000068C07A0028E6
:107EB00000F0BE8243F6E80043F6F101C2F2000092
:107EC000C2F2000100680B460978C06801310268FF
:107ED000197001320260C8B243F6F0011322C2F2F7
:107EE00000015043097888424FF0040043F6F20144
:107EF00038BF0320C2F20001087014200021C4F230
:107F00000000C9F830110161E4E0B9F804005746F7
:107F1000400709D543F6E800C2F200000068006897
:107F20004068800500F13C82142043F2AC61C4F249
:107F30000000C2F200010069B1F86A10884240F204
:107F4000C98043F6F2010120C2F200010870C1E0CD
:107F500099F8660100245746002840F0BB801420A1
:107F600043F2AC61C4F20000C2F200010069B1F852
:107F70006C10884240F2AE8043F6EC0043F210529F
:107F800013210323C2F20000C2F200020068117044
:107F900043F6F101C2F20001007B09785070917044
:107FA0003846812102F070FB0120042189F8660126
:107FB00040F60000C9F83841C4F201000161062111
:107FC000D9F860010130C9F8600143F6F20063E0BE
:107FD00043F6E80000225746C2F200000068C0796C
:107FE00070B943F6EC00C2F200000068007B09EBB8
:107FF0008001D1F8501119B94844012180F86B1162
:1080000099F8660118B1D9F83801332862D343F6DC
:10801000F2000421C2F20000027040F60000C4F237
:108020000100416156E0E07F012184F8241002281C
:108030004FF0010008BF032084F82000206804F1FD
:108040002001FEF785FA2068A17F627FFCF7D4FB50
:10805000B87DE168087243F6E800A571C2F200003D
:108060000468E07F574602281AD143F6F00046F62E
:10807000CB31C2F20000CAF628710078A0FB0112D1
:10808000801A43F6F10102EB5000C2F20001000930
:10809000087043F6F2000421C2F20000017019E0FA
:1080A00043F6EC012068C2F200010968FCF7EAFB24
:1080B00043F2F431C2F20001087043F6F2000221EB
:1080C000C2F2000001701420C9F83051C4F200005F
:1080D000056100BF0020FCF7ABFA0120FCF7A8FA0D
:1080E000002002F00BF8012002F008F843F2FD38FE
:1080F00043F222564BF29334BA460025C2F20008EE
:10810000C2F20006C0F6000499F86A01002800F0E7
:10811000DB8043F2AC6189F86A51C2F20001D9F800
:108120003401B1F86810884240F600004FF00201B7
:10813000C4F2010094BF4161016143F6D600C2F26E
:1081400000000146008801306FF35F20B0F5FF7F2B
:1081500008801BDA40B301285CD143F6D50299F8B8
:108160006C11C2F20002FF2911704FF0FF0189F873
:108170006C114FD140F28C01C2F20001497AE9B38F
:1081800040F600014FF4006224E000BF27D040F227
:10819000FF1188423ED1D9F87411D9B3012189F871
:1081A0006C11C9F8745135E043F6D40299F86B119B
:1081B000C2F200021170FF294FF0FF0289F86B2113
:1081C0002DD140F25401C2F20001497A81B140F64A
:1081D00000012022C4F20101C1F810241AE0D9F8EC
:1081E0007011B9B1012189F86B11C9F8705111E012
:1081F00041F200014FF61442202305E041F2000154
:108200004FF614424FF40063C4F20101CFF6FF723F
:108210008B5000BF43F6D401C2F200010978022955
:1082200008D0012922D1B0F5817F15D0022805D0D0
:108230001CE000BF00F03F01032907D140F6000118
:108240002022C4F20101C1F810240FE000F1200146
:1082500001F03F01032909D141F200014FF6144218
:108260002023C4F20101CFF6FF728B5043F6D501F3
:10827000C2F200010978022908D0012924D1B0F501
:10828000827F15D0042805D01EE000BF00F03F011A
:10829000052908D140F600004FF40061C4F2010046
:1082A000C0F8101410E0203000F03F0005280BD17A
:1082B00041F200004FF614414FF40062C4F2010095
:1082C000CFF6FF71425000BF307800285FD006F132
:1082D000C1002146FBF79EFF43F6B801C2F2000140
:1082E000086038B300202146FBF794FF43F6BC0139
:1082F000C2F200010860E8B100202146FBF78AFFC6
:1083000043F6C001C2F20001086098B10020214686
:10831000FBF780FF43F6C401C2F20001086048B1D8
:1083200000202146FBF776FF43F6C801C2F20001A8
:10833000086000BF43F6B8000027C2F200000468DE
:108340005BF807102046FBF73FFF18B90C37C02F2A
:10835000F6D103E00BEB07008068804743F6B800D6
:108360004BF29334C2F20000C0F60004056043F6FD
:10837000BC00C2F20000056043F6C000C2F200007B
:10838000056043F6C400C2F200000560357043F298
:1083900000004AF6AA21C4F200000160FFF7CAB942
:1083A000D9F8300140F283618842FFF493AE43F67E
:1083B000F2000421E2220223C2F200000170142024
:1083C0000021C4F20000C9F83011016143F6E80051
:1083D000C2F200000168044643F6EC00C2F200005D
:1083E0000068CA71017B09EB010209EB810182F887
:1083F0006B314FF47A72C1F85021E221FCF758FC3E
:10840000206800F00EF9B9F8040010F0300F3FF4C6
:1084100061AE56A002F0B0F95CE626293FF447AC05
:10842000B9F8040010F0300F3FF454AE61A07BE0C7
:10843000D9F8300140F28161884228D843F6EC0037
:10844000BAF1030FC2F2000001680BD1087B0223CE
:1084500009EB000209EB800082F86B314FF47A726D
:10846000C0F8502143F6E800C2F20000006800683E
:10847000FCF708FA43F2F431C2F20001087043F24B
:1084800000004AF6AA21C4F20000016022E643F689
:10849000E80043F2F432C2F20000C2F200020068C7
:1084A000016892F90020022A06D84AF6C423C0F6D1
:1084B000000353F822208A60C068E2220223416848
:1084C0000131416043F6F2000421C2F20000017064
:1084D00014200021C4F20000C9F83011016143F6F4
:1084E000E800C2F200000168044643F6EC00C2F264
:1084F00000000068CA71017B09EB010209EB8101F0
:1085000082F86B314FF47A72C1F85021E221FCF706
:10851000CFFB206800F085F8B9F8040010F0300FA8
:108520003FF4D8AD1BA0414602F026F9D2E546F64D
:108530000040C0F2DC20FEF7C7BD00BF323031344E
:108540003039323230303000496E666F3A00000008
:108550004572723A2074736B557362436D64526551
:10856000702074696D656F75740A00004572723A07
:10857000205472616E736D69742054696D656F75F6
:10858000740A0000535441543D2564204C45433D3A
:1085900025640A004572723A205472616E736D69E7
:1085A00074204661696C6564204C45433D25640A2E
:1085B000000000004572723A206461744F75744C7B
:1085C000656E3D25640A0000FDF78AFFB0B543F6ED
:1085D000F305C2F2000595F900100F291FDC0446CF
:1085E00095F841011321224610FB015043F210512E
:1085F000C2F200010130FBF70FFF287895F8411116
:108600002944013081F8314195F841114A1CD3B217
:108610000F2B88BFA1F10F0285F84121287028781F
:10862000B0BD10B50446C06890F9241007291BDCC2
:1086300090F8BD10132211FB020043F23071132297
:10864000C2F200012530FBF7E7FEE06890F8241045
:1086500090F8BD20531C0131DCB2072C88BFD31F1A
:1086600080F8BD3080F8241090F8240010BD000080
:108670002DE9F04381B043F6BC00C2F2000004686B
:10868000002C40D04BF253412046C0F60001FBF7CE
:108690009BFD002850D043F6C000C2F200000068E5
:1086A000002800F0898000210A22FBF70DFE4FF020
:1086B000FF3111FA80F1062980F0AB8043F2742477
:1086C00000F00700C2F2000494F8201104F10C023B
:1086D00032F8113023F4E06343EA00204AF6E02345
:1086E00022F81100C0F6000394F8201194F820013C
:1086F00032F8100094F8207100F01F0003EBC00066
:1087000032F81730CCE04AF6E37563200124C0F656
:10871000000500BFC0B202F057F9285D01342D2CCE
:10872000F8D143F27420C2F2000090F8200101B0A9
:10873000BDE8F043FCF742BF4BF258412046C0F67B
:108740000001FBF741FD002875D043F6C000C2F2DE
:1087500000000068002800F0B38000210A22FBF727
:10876000B3FD43F2742400F00300C2F2000494F855
:10877000201104F1080333F8112022F0300242EAFC
:10878000001023F8110094F8201194F8200133F818
:108790001000C0F3011294F8200133F810000C23EC
:1087A00003EA90004AF6D023C0F600031B584BF2B0
:1087B0002B30C0F600007AE04AF6EE652020012456
:1087C000C0F60005C0B202F0FFF8285D01342C2C81
:1087D000F8D143F274204AF6E027C2F20000C0F656
:1087E000000790F8201190F8202100F10C0333F8D5
:1087F000122090F8200133F8100002F01F0207EB5E
:10880000C202D288C0F302234BF25A10C0F6000015
:10881000C3E083B24AF6E02000220021C0F6000047
:1088200000EBC107FF889F421AD0013102F5803268
:108830001629F5D117E0B7A12046FBF7C5FC0028A3
:108840006AD043F6C000C2F200000068002800F0C1
:10885000B08000210A22FBF737FD00F00100ACE0F8
:10886000152940F29F80052143F27424C2F20004CE
:1088700094F8202104F10C0333F8127061F304071B
:1088800023F8127094F8201194F8202133F8122064
:1088900094F8207102F01F0233F8173000EBC20089
:1088A000C2884BF25A10C3F30223C0F6000001F055
:1088B00063FF94F8200101B0BDE8F043FBF7FABD77
:1088C0004AF6096520200124C0F60005C0B202F076
:1088D0007BF8285D0134282CF8D143F27420C2F2D1
:1088E000000090F8201190F8202100F1080333F8DF
:1088F0001220C2F3011290F8200133F810000C236B
:1089000003EA90004AF6D023C0F600031B584BF24E
:108910002B30C0F6000040E07FA12046FBF754FC5E
:1089200000284FD043F27429C2F2000999F82001BF
:1089300000EB001009EBC000868A79A001F01CFF53
:1089400000270FF2E4180024002500BF99F8200149
:10895000F11901F03F0100EB001009EBC00000EB42
:108960004100C18A4046A14238BF0C46A94288BF97
:108970000D4601F001FF07F00700072802D10A2089
:1089800002F022F80137402FE0D169A001F0F4FE97
:1089900099F8201176A022462B4601B0BDE8F0439D
:1089A00001F0EABE520C0A2A7FF65EAF01B0BDE8C4
:1089B000F0830020FCF748FD012001B0BDE8F04342
:1089C000FCF742BD4BF2B5412046C0F60001FBF773
:1089D000FBFB60B143F6C000C2F200000068E0B1EA
:1089E00000210A22FBF770FC00F001001BE04BF2B3
:1089F000C2412046C0F60001FBF7E6FBC0B143F6DA
:108A0000C000C2F20000006800284ED000210A22F7
:108A1000FBF75AFC00F0010089E643F27420C2F231
:108A2000000090F8200101B0BDE8F043FCF734B835
:108A30004BF29E412046C0F60001FBF7C5FBC8B3D0
:108A400043F6C000C2F200000068002840D00021B8
:108A50000A22FBF739FC43F27424C2F2000494F8B2
:108A6000201104F1080232F8113060F3000322F8FB
:108A700011304AF6734194F82001C0F6000132F833
:108A80001000C0074AF68440C0F6000008BF014647
:108A9000087800283FF40DAF4D1CC0B201F094FFE0
:108AA00015F8010B0028F8D103E70020FCF786FD3C
:108AB00001203CE64AF6E37563200124C0F6000578
:108AC000C0B201F081FF285D01342D2CF8D16DE793
:108AD0004AF6565563200124C0F60005C0B201F0E5
:108AE00073FF285D0134262CF8D143F27420C2F2C2
:108AF000000090F8201100EB4100008900F0010116
:108B00004BF23920C0F6000001B0BDE8F04301F09F
:108B100033BE00BF72656700737065656400000056
:108B20004F6C646573740A002536642000000000F1
:108B30002020202020202020202020202020202035
:108B40002020202020202020202020202020202025
:108B50002020202020202020202020202020202015
:108B60002020202020204E65776573740A000000C5
:108B700043414E256420525820737065656420611E
:108B800074206C617374203634207365636F6E6477
:108B9000732E204D494E3D2564667073204D41581B
:108BA0003D25646670730A00B0B584B043F6BC001E
:108BB000C2F200000468E4B1B3A12046FBF704FB55
:108BC00000284CD043F6C00043F27424C2F20000E7
:108BD000C2F20004006838B100210A22FBF73CFB16
:108BE000A18860F30001A180A08800F00101A8A085
:108BF00044E14AF61A7563200124C0F6000500BF5F
:108C0000C0B201F0E1FE285D0134362CF8D143F208
:108C1000742043F2AC61C2F20000C2F20001B0F86D
:108C200004C08288C2F380028388C3F3011385885D
:108C3000C5F30125D0F82C01B1F86A40B1F86CE019
:108C40000CF00101CDE900504BF2B5100294CDF8C3
:108C50000CE0C0F6000001F08FFD04B0B0BD8FA1A4
:108C60002046FBF7B1FAE0B143F6C000C2F20000C3
:108C7000006868B100210A22FBF7EEFA43F2742182
:108C8000C2F200018A8822F0020260F341028A8067
:108C900043F27420C2F200008088C0F3400181A03A
:108CA000ECE083A12046FBF78FFAE0B143F6C00069
:108CB000C2F20000006868B100210A22FBF7CCFA7A
:108CC00043F27421C2F200018A8822F0040260F3A8
:108CD00082028A8043F27420C2F200008088C0F3CE
:108CE000800175A0CAE077A12046FBF76DFAE0B1DC
:108CF00043F6C000C2F20000006868B100211022F3
:108D0000FBF7AAFA43F27421C2F200018A8822F02A
:108D1000300260F305128A8043F27420C2F2000030
:108D20008088C0F3011169A0A8E06BA12046FBF781
:108D30004BFAE0B143F6C000C2F20000006868B12F
:108D400000211022FBF788FA43F27421C2F20001DD
:108D50008A8822F4407260F309228A8043F27420E8
:108D6000C2F200008088C0F301215DA086E05FA10F
:108D70002046FBF729FAB8B143F6C000C2F2000062
:108D8000006848B100210A22FBF766FA43F2742119
:108D9000C2F20001C1F82C0143F27420C2F20000BB
:108DA000D0F82C1153A069E055A12046FBF70CFA2E
:108DB00080B143F6C000C2F20000006800B3002199
:108DC0000A22FBF749FA43F2AC61C2F20001A1F8B2
:108DD00068001BE04FA12046FBF7F6F9C8B143F647
:108DE000C000C2F20000006848B300210A22FBF76D
:108DF00033FA43F2AC61C2F20001A1F86A0024E048
:108E000043F2AC60C2F20000B0F8680081B23EA04C
:108E100034E046A12046FBF7D7F9C8B143F6C000BD
:108E2000C2F20000006808B300210A22FBF714FA1E
:108E300043F2AC61C2F20001A1F86C001CE043F205
:108E4000AC60C2F20000B0F86A0081B233A015E055
:108E50004AF61A7563200124C0F60005C0B201F07D
:108E6000B3FD285D0134362CF8D1F6E643F2AC6050
:108E7000C2F20000B0F86C0081B22EA004B0BDE8D0
:108E8000B04001F079BC00BF6563686F000000006E
:108E9000204543484F3D25640A0000007465737403
:108EA0000000000020544553543D25640A00000092
:108EB000736F66740000000020534F46543D2564D4
:108EC0000A0000006C6576656C000000204C455679
:108ED000454C3D25580A00006368616E00000000A3
:108EE000204348414E3D25580A00000074696D65D5
:108EF000000000002054494D453D256C640A0000E7
:108F0000747269670000000020545249473D256C87
:108F1000640A000064656C61793000002044454CAF
:108F20004159303D256C640A0000000064656C61A5
:108F3000793100002044454C4159313D256C640A8B
:108F4000000000002DE9F04743F6BC00C2F200002B
:108F5000046834B363A12046FBF736F988B343F6BF
:108F6000C000C2F20000006848B300211022FBF7E5
:108F7000ABF943F6C4010446C2F2000109680029B6
:108F80004ED0084600211022FBF79EF96FF0070132
:108F900087B211FA80F0382888BF4027002F40D1CF
:108FA0005DE04AF67C5565200124C0F6000500BF4F
:108FB000C0B201F009FD285D0134422CF8D1BDE8B2
:108FC000F0874FA12046FBF7FFF800284CD043F66E
:108FD000C000C2F2000000680028F0D043F6C404CC
:108FE000C2F2000421680029E9D000211022FBF719
:108FF0006BF92168C4B2102208460021FBF764F91E
:1090000043F2AC61C2F2000121F8140081B23EA02B
:1090100001F0B2FB41A02146BDE8F04701F0ACBB36
:10902000402743F2AC69E4B200200FF2C0080FF20F
:10903000C80A0025C2F2000906193E2E0FD84007C3
:1090400003D14046314601F097FBF0B239F81010D9
:10905000504601F091FB0135A8B28742ECD80A20B6
:10906000BDE8F04701F0B0BC4BF240412046C0F6ED
:109070000001FBF7A9F878B1FBF756FD4AF69645D3
:109080004C200124C0F60005C0B201F09DFC285D13
:1090900001341A2CF8D192E74BF26C412046C0F60D
:1090A0000001FBF791F878B1FBF762FD4AF6B04595
:1090B00053200124C0F60005C0B201F085FC285DF4
:1090C0000134182CF8D17AE74AF67C556520012442
:1090D000C0F60005C0B201F077FC285D0134422CD7
:1090E000F8D16CE772656164000000000A307825F1
:1090F0003034582020000000253034582000000073
:109100007772697465000000207772697465203099
:10911000782530345820746F000000002065657099
:10912000726F6D20616464726573732030782530CE
:109130003458202E2E2E0A0070B586B043F6BC009F
:10914000C2F20000046854B3D7A12046FBF73CF8F4
:10915000002871D043F6C00043F27424C2F200002C
:10916000C2F20004006878B100210A22FBF7ACF8D3
:1091700094F8201100F0010004EB41010A8922F467
:10918000007242EA4020088194F8201194F82001EE
:1091900004EB40000089C0F34022C5A0A7E04BF2D9
:1091A000700565200124C0F6000500BFC0B201F0C3
:1091B0000BFC285D0134402CF8D143F27420C2F23C
:1091C000000090F8201190F8202100F1080535F8F2
:1091D0001220C2F3402290F8203135F81330C3F347
:1091E000002390F8204135F81440C4F3802C90F807
:1091F000204135F81440C4F3400E90F8204135F872
:109200001440C4F3800490F8205100EB8505D5F894
:10921000405190F8206100EB8600D0F848614BF295
:109220004C30CDE900CECDE90245C0F600000496F1
:1092300001F0A2FA06B070BDA1A12046FAF7C4FF62
:1092400040B343F6C000C2F20000006898B10021AC
:109250000A22FBF739F843F2742100F00100C2F250
:10926000000191F8202101EB42010A8922F4807269
:1092700042EA0020088143F27420C2F2000090F814
:10928000201190F8202100EB42000089C0F3002259
:109290008CA02CE08FA12046FAF796FF60B343F62E
:1092A000C000C2F20000006898B100210A22FBF75A
:1092B0000BF843F2742100F00100C2F2000191F8B2
:1092C000202101EB42010A8922F4806242EA8020D7
:1092D000088143F27420C2F2000090F8201190F847
:1092E000202100EB42000089C0F380227BA006B061
:1092F000BDE8704001F040BA7CA12046FAF764FF57
:1093000030B343F6C000C2F20000006898B10021FB
:109310000A22FAF7D9FF43F2742100F00100C2F2E9
:10932000000191F8202101EB42010A8922F002029A
:1093300042EA4000088143F27420C2F2000090F833
:10934000201100EB41000089C0F3400169A02AE030
:109350006BA12046FAF738FF50B343F6C000C2F2C3
:109360000000006898B100210A22FAF7ADFF43F22D
:10937000742100F00100C2F2000191F8202101EBFC
:1093800042010A8922F0040242EA8000088143F285
:109390007420C2F2000090F8201100EB4100008917
:1093A000C0F3800157A006B0BDE8704001F0E4B9F9
:1093B00057A12046FAF708FF08B343F6C000C2F2EF
:1093C0000000006868B100210A22FAF77DFF43F22D
:1093D0007421C2F2000191F8202101EB8201C1F851
:1093E000400143F27420C2F2000090F8201190F87E
:1093F000202100EB8200D0F8402146A077E749A168
:109400002046FAF7E1FE08B343F6C000C2F20000BE
:10941000006868B100210A22FAF756FF43F274216E
:10942000C2F2000191F8202101EB8201C1F848014C
:1094300043F27420C2F2000090F8201190F820212D
:1094400000EB8200D0F8482137A050E73AA120462F
:10945000FAF7BAFEC8B143F6C000C2F200000068D5
:1094600058B100210A22FAF72FFF43F2742100F0CD
:109470000100C2F2000181F8200143F27420C2F21F
:10948000000090F820112DA08DE74BF270056520AB
:109490000124C0F60005C0B201F096FA285D01343F
:1094A000402CF8D1C6E600BF73686F77000000005B
:1094B000434825642053484F573D25640A00000067
:1094C0006164640043482564204144443D25640AA6
:1094D0000000000073696E676C65000043482564F6
:1094E0002053494E474C453D25640A007478666414
:1094F0000000000020545846443D25640A00000046
:1095000062727300204252533D25640A000000003D
:10951000636E74004348256420434E543D25640A1D
:1095200000000000707264004348256420505244DB
:109530003D256475730A0000636800002043483DC0
:1095400025640A002DE9F04143F2742543F6BC007E
:10955000C2F20005C2F2000095F82011006818B3AD
:109560004AF6D83201F001014FF00008C0F60002BF
:1095700052F821101022CE680021FAF7A5FE20F043
:1095800060404BF265410127306143F6C000C0F6F0
:1095900000013775C2F2000004682046FAF714FE95
:1095A00090B17775002016E04AF66C6565200024BE
:1095B000C0F60005C0B22E1901F006FA0134707829
:1095C000402CF7D1BDE8F08106F11A01204686F85B
:1095D0001580FBF7C7FB707695F8200100F00100BD
:1095E000BDE8F041FBF730BDB0B543F6BC00C2F2B8
:1095F00000000468BCB34BF25D412046C0F6000198
:10960000FAF7E2FD002843D1204600210A22FAF7AA
:109610005BFE43F6C00100F00704C2F200010D68D2
:109620004BF25841C0F600012846FAF7CDFD80B351
:1096300043F6C400C2F20000006848B300210A22C9
:10964000FAF742FE43F2AC620121C007C2F2000207
:1096500001FA04F12046938A43EA010508BF23EA90
:109660000105958290E04AF6A47566200124C0F6B3
:10967000000500BFC0B201F0A7F9285D01343F2CFE
:10968000F8D10024A0B2FBF7F5FF0134082CF9D182
:10969000B0BD3FA12846FAF797FDD8B143F6C40004
:1096A000C2F2000000680028F2D000210A22FAF776
:1096B0000BFE43F2AC620121C007C2F2000201FAC4
:1096C00004F12046D38A43EA010508BF23EA0105D5
:1096D000D58259E030A12846FAF776FDD8B143F695
:1096E000C400C2F2000000680028D1D000210A2284
:1096F000FAF7EAFD43F2AC620121C007C2F20002B0
:1097000001FA04F12046138B43EA010508BF23EA5E
:109710000105158338E021A12846FAF755FDB0B1BF
:1097200043F6C400C2F2000000680028B0D0002157
:109730001022FAF7C9FD43F2AC620146000CC2F2F6
:10974000000202EBC4021084204651841CE014A1E4
:109750002846FAF739FDB0B143F6C400C2F2000062
:109760000068002894D000211022FAF7ADFD43F2E2
:10977000AC620146000CC2F2000202EBC40290840B
:109780002046D18400E02046BDE8B040FBF772BF20
:109790007363616C650000006163740072300000E7
:1097A0007231000070B54BF2E446002506A4C0F605
:1097B000000600BF701971594268204600F0DCFFB6
:1097C0000C35782DF6D170BD202573202D3E202537
:1097D00073000000B0B586B043F6BC00C2F20000D2
:1097E00004683CB357A12046FAF7EEFC80B343F27D
:1097F000742455A0C2F2000494F8661194F869210B
:1098000094F8653194F86851009500F0B5FFD4F8EC
:109810005811D4F85C21D4F8603159A000F0ACFFA5
:10982000D4F83811D4F83C2160A006B0BDE8B040AF
:1098300000F0A2BF4AF67F7569200124C0F600053A
:10984000C0B201F0C1F8285D0134252CF8D116E032
:109850004BF2B5412046C0F60001FAF7B5FC80B1E5
:1098600043F274200021C2F20000C0F85811C0F881
:109870005C11C0F86011C0F83811C0F83C1106B096
:10988000B0BD52A12046FAF79FFC68B143F27420A4
:10989000C2F2000081884BF29010C0F6000006B0C2
:1098A000BDE8B04000F068BF4AA12046FAF78CFC42
:1098B000D0B301A8FDF708F94BF2CA200199C0F610
:1098C000000000F059FF4BF2A8200299C0F60000FA
:1098D00000F052FF4BF2EC200399C0F6000000F0BC
:1098E0004BFF4BF2DB200499C0F6000000F044FF70
:1098F0004BF2B9200599C0F6000000F03DFF43F29D
:1099000074244BF28620C2F20004C0F60000D4F8A2
:10991000241100F031FF4BF29720D4F82811C0F643
:10992000000000F029FFAAE74AF67F7569200124AC
:10993000C0F60005C0B201F047F8285D0134252CBF
:10994000F8D19CE77379730020636D64496E4275AA
:1099500073793D256420636D644F75744C656E3D6D
:10996000256420646174496E427573793D256420D5
:109970006461744F75744C656E3D25640A00000087
:10998000207573624F7574436E743D256C64207549
:109990007362446174436E743D256C642075736218
:1099A000526570436E743D256C640A0020636D64DB
:1099B000496E54696D65723D256C6420646174491B
:1099C0006E54696D65723D256C640A00726567733B
:1099D00000000000636C6B0010B543F6BC00C2F2DF
:1099E0000000006860B141F2100400211022C4F2AE
:1099F0000104FAF769FCC00703D14FF4005060601E
:109A000010BD4FF40050206010BD0000F0B581B0D3
:109A100043F6BC00C2F200000068F0B10021102241
:109A2000FAF752FC07466FF31100B0F1006F16D041
:109A300047F6FF7027EA0000B0F1005F0FD04AF64A
:109A4000284520200124C0F6000500BFC0B200F068
:109A5000BBFF285D01340F2CF8D101B0F0BD43F6F7
:109A6000C000C2F20000006830B100211022FAF7F5
:109A70002BFC82B2072A01D84FF480724FF6FF7395
:109A800000204AF2010100BF3D5C6B40002500BF91
:109A900081EA5304DE0705F1010508BF5C08082DC3
:109AA0002346F5D301309042EED103A0394601B0F0
:109AB000BDE8F04000F060BE53544152543D307850
:109AC00025303858204C454E3D30782530385820C8
:109AD0004352433D3078253034580A002DE9F04395
